{
  "abi": [
    {
      "anonymous": false,
      "inputs": [
        {
          "indexed": false,
          "internalType": "string",
          "name": "name",
          "type": "string"
        },
        {
          "indexed": false,
          "internalType": "string",
          "name": "price",
          "type": "string"
        }
      ],
      "name": "PriceUpdated",
      "type": "event"
    },
    {
      "inputs": [
        {
          "internalType": "string",
          "name": "name",
          "type": "string"
        }
      ],
      "name": "getPrice",
      "outputs": [
        {
          "internalType": "string",
          "name": "",
          "type": "string"
        }
      ],
      "stateMutability": "view",
      "type": "function"
    },
    {
      "inputs": [
        {
          "internalType": "string",
          "name": "name",
          "type": "string"
        },
        {
          "internalType": "string",
          "name": "price",
          "type": "string"
        }
      ],
      "name": "setPrice",
      "outputs": [],
      "stateMutability": "nonpayable",
      "type": "function"
    }
  ],
  "bytecode": {
    "object": "0x608080604052346100165761048b908161001c8239f35b600080fdfe60406080815260048036101561001457600080fd5b600090813560e01c8063524f38891461022b5763c42c02971461003657600080fd5b3461022757826003193601126102275767ffffffffffffffff928135848111610223576100669036908401610377565b9160243585811161021f5761007e9036908301610377565b90825195868551602098816100978b9383858c016103d3565b81018981520301902091835191821161020c57506100b5825461041b565b601f81116101c9575b5086601f821160011461014257918161013194928899947f4d599ac90c3e5e1d64df26da87c79a4e007380a838c05d4d211f33c111e690bd9991610137575b508160011b916000199060031b1c19161790555b61012484519585879687528601906103f6565b91848303908501526103f6565b0390a180f35b9050830151386100fd565b82875287872090601f198316885b8181106101b25750927f4d599ac90c3e5e1d64df26da87c79a4e007380a838c05d4d211f33c111e690bd9899949260019282610131989610610199575b5050811b019055610111565b85015160001960f88460031b161c19169055388061018d565b91928a60018192868a015181550194019201610150565b828752878720601f830160051c810191898410610202575b601f0160051c01905b8181106101f757506100be565b8781556001016101ea565b90915081906101e1565b634e487b7160e01b875260419052602486fd5b8480fd5b8380fd5b5080fd5b50823461033b57602091826003193601126102235780359067ffffffffffffffff821161021f57610263849161027593369101610377565b818451938285809451938492016103d3565b8101868152030190208151938491818154906102908261041b565b928386526001928884821691826000146103115750506001146102d3575b85886102cf896102c0848a038561033f565b519282849384528301906103f6565b0390f35b87945081939291528383205b8284106102f957505050820101816102c06102cf886102ae565b8054848a0186015288955087949093019281016102df565b60ff19168882015294151560051b870190940194508593506102c092506102cf91508990506102ae565b8280fd5b90601f8019910116810190811067ffffffffffffffff82111761036157604052565b634e487b7160e01b600052604160045260246000fd5b81601f820112156103ce5780359067ffffffffffffffff821161036157604051926103ac601f8401601f19166020018561033f565b828452602083830101116103ce57816000926020809301838601378301015290565b600080fd5b60005b8381106103e65750506000910152565b81810151838201526020016103d6565b9060209161040f815180928185528580860191016103d3565b601f01601f1916010190565b90600182811c9216801561044b575b602083101461043557565b634e487b7160e01b600052602260045260246000fd5b91607f169161042a56fea264697066735822122007a35631869a8201f32fcc2ac06778522f17b71e33bb7c6a06a4f15d30b7394164736f6c63430008150033",
    "linkReferences": {}
  },
  "methodIdentifiers": {
    "getPrice(string)": "524f3889",
    "setPrice(string,string)": "c42c0297"
  },
  "id": 73
}