{
  "abi": [
    {
      "inputs": [],
      "stateMutability": "nonpayable",
      "type": "constructor"
    },
    {
      "inputs": [
        {
          "internalType": "Suave.DataId",
          "name": "dataId",
          "type": "bytes16"
        },
        {
          "internalType": "string",
          "name": "key",
          "type": "string"
        }
      ],
      "name": "confidentialRetrieve",
      "outputs": [
        {
          "internalType": "bytes",
          "name": "",
          "type": "bytes"
        }
      ],
      "stateMutability": "view",
      "type": "function"
    },
    {
      "inputs": [
        {
          "internalType": "Suave.DataId",
          "name": "dataId",
          "type": "bytes16"
        },
        {
          "internalType": "string",
          "name": "key",
          "type": "string"
        },
        {
          "internalType": "bytes",
          "name": "value",
          "type": "bytes"
        }
      ],
      "name": "confidentialStore",
      "outputs": [],
      "stateMutability": "nonpayable",
      "type": "function"
    },
    {
      "inputs": [
        {
          "internalType": "uint64",
          "name": "cond",
          "type": "uint64"
        },
        {
          "internalType": "string",
          "name": "namespace",
          "type": "string"
        }
      ],
      "name": "fetchDataRecords",
      "outputs": [
        {
          "components": [
            {
              "internalType": "Suave.DataId",
              "name": "id",
              "type": "bytes16"
            },
            {
              "internalType": "Suave.DataId",
              "name": "salt",
              "type": "bytes16"
            },
            {
              "internalType": "uint64",
              "name": "decryptionCondition",
              "type": "uint64"
            },
            {
              "internalType": "address[]",
              "name": "allowedPeekers",
              "type": "address[]"
            },
            {
              "internalType": "address[]",
              "name": "allowedStores",
              "type": "address[]"
            },
            {
              "internalType": "string",
              "name": "version",
              "type": "string"
            }
          ],
          "internalType": "struct Suave.DataRecord[]",
          "name": "",
          "type": "tuple[]"
        }
      ],
      "stateMutability": "view",
      "type": "function"
    },
    {
      "inputs": [
        {
          "internalType": "int64",
          "name": "recordsNum",
          "type": "int64"
        }
      ],
      "name": "genDataId",
      "outputs": [
        {
          "internalType": "Suave.DataId",
          "name": "",
          "type": "bytes16"
        }
      ],
      "stateMutability": "pure",
      "type": "function"
    },
    {
      "inputs": [
        {
          "internalType": "uint256",
          "name": "decryptionCondition",
          "type": "uint256"
        },
        {
          "internalType": "string",
          "name": "dataType",
          "type": "string"
        }
      ],
      "name": "genKey",
      "outputs": [
        {
          "internalType": "bytes32",
          "name": "",
          "type": "bytes32"
        }
      ],
      "stateMutability": "pure",
      "type": "function"
    },
    {
      "inputs": [
        {
          "internalType": "uint64",
          "name": "decryptionCondition",
          "type": "uint64"
        },
        {
          "internalType": "address[]",
          "name": "allowedPeekers",
          "type": "address[]"
        },
        {
          "internalType": "address[]",
          "name": "allowedStores",
          "type": "address[]"
        },
        {
          "internalType": "string",
          "name": "dataType",
          "type": "string"
        }
      ],
      "name": "newDataRecord",
      "outputs": [
        {
          "components": [
            {
              "internalType": "Suave.DataId",
              "name": "id",
              "type": "bytes16"
            },
            {
              "internalType": "Suave.DataId",
              "name": "salt",
              "type": "bytes16"
            },
            {
              "internalType": "uint64",
              "name": "decryptionCondition",
              "type": "uint64"
            },
            {
              "internalType": "address[]",
              "name": "allowedPeekers",
              "type": "address[]"
            },
            {
              "internalType": "address[]",
              "name": "allowedStores",
              "type": "address[]"
            },
            {
              "internalType": "string",
              "name": "version",
              "type": "string"
            }
          ],
          "internalType": "struct Suave.DataRecord",
          "name": "",
          "type": "tuple"
        }
      ],
      "stateMutability": "nonpayable",
      "type": "function"
    },
    {
      "inputs": [],
      "name": "numRecords",
      "outputs": [
        {
          "internalType": "uint64",
          "name": "",
          "type": "uint64"
        }
      ],
      "stateMutability": "view",
      "type": "function"
    },
    {
      "inputs": [],
      "name": "test",
      "outputs": [
        {
          "internalType": "int256",
          "name": "",
          "type": "int256"
        }
      ],
      "stateMutability": "pure",
      "type": "function"
    }
  ],
  "bytecode": {
    "object": "0x6080806040523461001657610f9c908161001c8239f35b600080fdfe608060408181526004918236101561001657600080fd5b600092833560e01c918263822eab8d1461054057508163b5d1990d14610518578163be9fe1f2146104aa578163ccb885c41461032f578163d22a3b0b146102bc578163e3b417bc1461025e578163e3fbcfc31461009b575063f8a8fd6d1461007d57600080fd5b346100975781600319360112610097576020905160018152f35b5080fd5b9190503461025a57608036600319011261025a576100b7610663565b91602435936001600160401b0394858111610097576100d9903690840161079e565b9360443586811161025a576100f1903690850161079e565b94606435878111610256576101099036908601610645565b9061011261080c565b5060035488811689811461024357916101ba93918a60016101c8950116906001600160401b031916179889600355885160209a8b8201906001600160401b0360c01b9060c01b16815260088252610168826105be565b905190206001600160801b0319169161017f61080c565b9b838d5287168a8d015260608c015260808b01528160a08b01528552600288526101ab898887206108d7565b86519283918983019586610b19565b03601f1981018352826105d9565b5190208152808452828120805492600160401b841015610230576001840180835584101561021d5750610219939260058684899461020a9652209102016108d7565b519282849384528301906106fe565b0390f35b634e487b7160e01b835260329052602482fd5b634e487b7160e01b835260419052602482fd5b634e487b7160e01b865260118752602486fd5b8380fd5b8280fd5b90503461025a578160031936011261025a57610278610770565b92602435906001600160401b0382116102b95750926102a06102a69261021995369101610645565b90610e52565b90519182916020835260208301906106d9565b80fd5b839034610097576060366003190112610097576102d7610770565b6001600160401b0360243581811161032b576102f69036908501610645565b9060443590811161032b573660238201121561032b5761032893816024610322933693013591016105fa565b91610c83565b80f35b8480fd5b8391503461009757826003193601126100975761034a610663565b6001600160401b039060243582811161032b579261036e8695929436908301610645565b938551610385816101ba6020988983019586610b19565b51902082528184528482209283549061039d82610787565b926103aa885194856105d9565b82845286840191829686528786209186935b85851061041f575050505050508451938085019181865251809252858501958260051b8601019392955b8287106103f35785850386f35b90919293828061040f600193603f198a820301865288516106fe565b96019201960195929190926103e6565b60058a6001928d809d9a9b9d51906104368261058d565b88546001600160801b03196080918181841b168552168584015288878b0154168284015261046660028b01610b47565b606084015261047760038b01610b47565b90830152516104938161048c818a8d01610b9f565b03826105d9565b60a0820152815201940194019392989695986103bc565b90503461025a578160031936011261025a57602435926001600160401b0384116102b957506104de60209336908301610645565b61050e8380518093878201953586526104ff815180928a86860191016106b6565b810103868101845201826105d9565b5190209051908152f35b5050346100975781600319360112610097576020906001600160401b03600354169051908152f35b91503461025657602036600319011261025657358060070b810361025657602080945082019060c01b815260088252610578826105be565b6001600160801b031991519020169051908152f35b60c081019081106001600160401b038211176105a857604052565b634e487b7160e01b600052604160045260246000fd5b604081019081106001600160401b038211176105a857604052565b90601f801991011681019081106001600160401b038211176105a857604052565b9291926001600160401b0382116105a85760405191610623601f8201601f1916602001846105d9565b829481845281830111610640578281602093846000960137010152565b600080fd5b9080601f8301121561064057816020610660933591016105fa565b90565b600435906001600160401b038216820361064057565b90815180825260208080930193019160005b828110610699575050505090565b83516001600160a01b03168552938101939281019260010161068b565b60005b8381106106c95750506000910152565b81810151838201526020016106b9565b906020916106f2815180928185528580860191016106b6565b601f01601f1916010190565b610660916001600160801b031980835116825260208301511660208201526001600160401b03604083015116604082015260a061075f61074d606085015160c0606086015260c0850190610679565b60808501518482036080860152610679565b9201519060a08184039101526106d9565b600435906001600160801b03198216820361064057565b6001600160401b0381116105a85760051b60200190565b9080601f830112156106405760209082356107b881610787565b936107c660405195866105d9565b818552838086019260051b820101928311610640578301905b8282106107ed575050505090565b81356001600160a01b03811681036106405781529083019083016107df565b604051906108198261058d565b606060a08360008152600060208201526000604082015282808201528260808201520152565b81811061084a575050565b6000815560010161083f565b90600182811c92168015610886575b602083101461087057565b634e487b7160e01b600052602260045260246000fd5b91607f1691610865565b9190601f811161089f57505050565b6108cb926000526020600020906020601f840160051c830193106108cd575b601f0160051c019061083f565b565b90915081906108be565b815160801c906001600160801b031991808383541617825560209283850151161781556001808201916001600160401b0392836040870151166001600160401b03198254161790556002810190606086015180518581116105a857600160401b918282116105a85787908554838755808410610afc575b5001600094855287852086865b848110610ae1575050505050600382016080880151805192878411610acd578311610ab95787908254848455808510610a9f575b500190845286842085855b848110610a84575050505050600460a09101950151918251938411610a70576109cd846109c78854610856565b88610890565b84601f8511600114610a0c5750509282916109fd9492610a01575b50508160011b916000199060031b1c19161790565b9055565b0151905038806109e8565b8683528083209195919391928591601f19831691905b88838310610a565750505010610a3d575b505050811b019055565b015160001960f88460031b161c19169055388080610a33565b858701518855909601959485019487935090810190610a22565b634e487b7160e01b82526041600452602482fd5b83516001600160a01b0316838201559289019287910161099a565b838752828720610ab391810190860161083f565b3861098f565b634e487b7160e01b85526041600452602485fd5b634e487b7160e01b86526041600452602486fd5b83516001600160a01b031683820155928a019288910161095b565b610b1390876000528484600020918201910161083f565b3861094e565b600892916001600160401b0360c01b9060c01b168152610b4282518093602086850191016106b6565b010190565b9060405191828154918282526020928383019160005283600020936000905b828210610b7c575050506108cb925003836105d9565b85546001600160a01b031684526001958601958895509381019390910190610b66565b805460009392610bae82610856565b918282526020936001918281169081600014610c155750600114610bd4575b5050505050565b90939495506000929192528360002092846000945b838610610c0157505050500101903880808080610bcd565b805485870183015294019385908201610be9565b60ff19168685015250505090151560051b010191503880808080610bcd565b6000198114610c435760010190565b634e487b7160e01b600052601160045260246000fd5b8051821015610c6d5760209160051b010190565b634e487b7160e01b600052603260045260246000fd5b6001600160801b031916916000838152602060028152600391604094610cac8487842001610b47565b96825b8851811015610e17576001600160a01b033381610ccc848d610c59565b511614908115610ded575b50610cea57610ce590610c34565b610caf565b5083949596975090829391610d159352600197888352828186209151948386809551938492016106b6565b820190815203019020948451936001600160401b038511610dd957610d4485610d3e8954610856565b89610890565b83601f8611600114610d7257505050906109fd9383610a015750508160011b916000199060031b1c19161790565b8590601f9792949593971982169089875280872096905b89838310610dbf5750505010610da5575b50505050811b019055565b01519060f884600019921b161c1916905538808080610d9a565b858701518955909701969485019488935090810190610d89565b634e487b7160e01b83526041600452602483fd5b73c8df3686b4afb2bb53e60eae97ef043fe03fb8299150610e0e838c610c59565b51161438610cd7565b875162461bcd60e51b81526004810186905260146024820152734e6f7420616c6c6f77656420746f2073746f726560601b6044820152606490fd5b6001600160801b0319169060009082825260209060028252604092610e7b600285832001610b47565b94815b8651811015610f22576001600160a01b033381610e9b848b610c59565b511614908115610ef8575b50610eb957610eb490610c34565b610e7e565b5061048c9550918482610ee494610660979694526001845220828551948386809551938492016106b6565b820190815203019020905192838092610b9f565b73c8df3686b4afb2bb53e60eae97ef043fe03fb8299150610f19838a610c59565b51161438610ea6565b855162461bcd60e51b815260048101869052601760248201527f4e6f7420616c6c6f77656420746f2072657472696576650000000000000000006044820152606490fdfea264697066735822122012865e843de7376ad0094ba7e5e738356dee349a50f881c162e2b7ce8e62658b64736f6c63430008150033",
    "linkReferences": {}
  },
  "methodIdentifiers": {
    "confidentialRetrieve(bytes16,string)": "e3b417bc",
    "confidentialStore(bytes16,string,bytes)": "d22a3b0b",
    "fetchDataRecords(uint64,string)": "ccb885c4",
    "genDataId(int64)": "822eab8d",
    "genKey(uint256,string)": "be9fe1f2",
    "newDataRecord(uint64,address[],address[],string)": "e3fbcfc3",
    "numRecords()": "b5d1990d",
    "test()": "f8a8fd6d"
  },
  "id": 70
}