{
  "abi": [
    {
      "inputs": [],
      "stateMutability": "nonpayable",
      "type": "constructor"
    },
    {
      "anonymous": false,
      "inputs": [
        {
          "indexed": false,
          "internalType": "Suave.DataId",
          "name": "id",
          "type": "bytes16"
        }
      ],
      "name": "Buy",
      "type": "event"
    },
    {
      "inputs": [
        {
          "internalType": "Suave.DataId",
          "name": "dataId",
          "type": "bytes16"
        }
      ],
      "name": "buy",
      "outputs": [],
      "stateMutability": "nonpayable",
      "type": "function"
    },
    {
      "inputs": [
        {
          "internalType": "Suave.DataId",
          "name": "dataId",
          "type": "bytes16"
        },
        {
          "internalType": "string",
          "name": "key",
          "type": "string"
        }
      ],
      "name": "confidentialRetrieve",
      "outputs": [
        {
          "internalType": "bytes",
          "name": "",
          "type": "bytes"
        }
      ],
      "stateMutability": "view",
      "type": "function"
    },
    {
      "inputs": [
        {
          "internalType": "Suave.DataId",
          "name": "dataId",
          "type": "bytes16"
        },
        {
          "internalType": "string",
          "name": "key",
          "type": "string"
        },
        {
          "internalType": "bytes",
          "name": "value",
          "type": "bytes"
        }
      ],
      "name": "confidentialStore",
      "outputs": [],
      "stateMutability": "nonpayable",
      "type": "function"
    },
    {
      "inputs": [
        {
          "internalType": "uint64",
          "name": "cond",
          "type": "uint64"
        },
        {
          "internalType": "string",
          "name": "namespace",
          "type": "string"
        }
      ],
      "name": "fetchDataRecords",
      "outputs": [
        {
          "components": [
            {
              "internalType": "Suave.DataId",
              "name": "id",
              "type": "bytes16"
            },
            {
              "internalType": "Suave.DataId",
              "name": "salt",
              "type": "bytes16"
            },
            {
              "internalType": "uint64",
              "name": "decryptionCondition",
              "type": "uint64"
            },
            {
              "internalType": "address[]",
              "name": "allowedPeekers",
              "type": "address[]"
            },
            {
              "internalType": "address[]",
              "name": "allowedStores",
              "type": "address[]"
            },
            {
              "internalType": "string",
              "name": "version",
              "type": "string"
            }
          ],
          "internalType": "struct Suave.DataRecord[]",
          "name": "",
          "type": "tuple[]"
        }
      ],
      "stateMutability": "view",
      "type": "function"
    },
    {
      "inputs": [
        {
          "internalType": "int64",
          "name": "recordsNum",
          "type": "int64"
        }
      ],
      "name": "genDataId",
      "outputs": [
        {
          "internalType": "Suave.DataId",
          "name": "",
          "type": "bytes16"
        }
      ],
      "stateMutability": "pure",
      "type": "function"
    },
    {
      "inputs": [
        {
          "internalType": "uint256",
          "name": "decryptionCondition",
          "type": "uint256"
        },
        {
          "internalType": "string",
          "name": "dataType",
          "type": "string"
        }
      ],
      "name": "genKey",
      "outputs": [
        {
          "internalType": "bytes32",
          "name": "",
          "type": "bytes32"
        }
      ],
      "stateMutability": "pure",
      "type": "function"
    },
    {
      "inputs": [
        {
          "internalType": "uint64",
          "name": "decryptionCondition",
          "type": "uint64"
        },
        {
          "internalType": "address[]",
          "name": "allowedPeekers",
          "type": "address[]"
        },
        {
          "internalType": "address[]",
          "name": "allowedStores",
          "type": "address[]"
        },
        {
          "internalType": "string",
          "name": "dataType",
          "type": "string"
        }
      ],
      "name": "newDataRecord",
      "outputs": [
        {
          "components": [
            {
              "internalType": "Suave.DataId",
              "name": "id",
              "type": "bytes16"
            },
            {
              "internalType": "Suave.DataId",
              "name": "salt",
              "type": "bytes16"
            },
            {
              "internalType": "uint64",
              "name": "decryptionCondition",
              "type": "uint64"
            },
            {
              "internalType": "address[]",
              "name": "allowedPeekers",
              "type": "address[]"
            },
            {
              "internalType": "address[]",
              "name": "allowedStores",
              "type": "address[]"
            },
            {
              "internalType": "string",
              "name": "version",
              "type": "string"
            }
          ],
          "internalType": "struct Suave.DataRecord",
          "name": "",
          "type": "tuple"
        }
      ],
      "stateMutability": "nonpayable",
      "type": "function"
    },
    {
      "inputs": [],
      "name": "numRecords",
      "outputs": [
        {
          "internalType": "uint64",
          "name": "",
          "type": "uint64"
        }
      ],
      "stateMutability": "view",
      "type": "function"
    },
    {
      "inputs": [],
      "name": "test",
      "outputs": [
        {
          "internalType": "int256",
          "name": "",
          "type": "int256"
        }
      ],
      "stateMutability": "pure",
      "type": "function"
    }
  ],
  "bytecode": {
    "object": "0x60808060405234610016576110bc908161001c8239f35b600080fdfe60806040908082526004918236101561001757600080fd5b600091823560e01c908163822eab8d1461062057508063b5d1990d146105f9578063be9fe1f21461058b578063ccb885c414610411578063d22a3b0b1461039e578063e3b417bc14610340578063e3fbcfc31461017d578063f8a8fd6d146101625763f8c467441461008857600080fd5b3461015e57602036600319011261015e576001600160801b03196100aa610851565b169081835260026020526002818420018054600160401b81101561014b57600181018083558110156101385791610130826020947f0a4fc65dce70d2a26ed1967e184e70bc2bda6fce012a2752def262017864a17a9694885285882001336bffffffffffffffffffffffff60a01b82541617905583875260028552600283882001611019565b51908152a180f35b634e487b7160e01b855260328652602485fd5b634e487b7160e01b855260418652602485fd5b5080fd5b503461015e578160031936011261015e576020905160018152f35b5082903461033c57608036600319011261033c57610199610744565b91602435936001600160401b039485811161015e576101bb903690840161087f565b9360443586811161033c576101d3903690850161087f565b94606435878111610338576101eb9036908601610726565b906101f46108ed565b50600354888116898114610325579161029c93918a60016102aa950116906001600160401b031916179889600355885160209a8b8201906001600160401b0360c01b9060c01b1681526008825261024a8261069f565b905190206001600160801b031916916102616108ed565b9b838d5287168a8d015260608c015260808b01528160a08b015285526002885261028d898887206109ec565b86519283918983019586610bcc565b03601f1981018352826106ba565b5190208152808452828120805492600160401b84101561031257600184018083558410156102ff57506102fb93926005868489946102ec9652209102016109ec565b519282849384528301906107df565b0390f35b634e487b7160e01b835260329052602482fd5b634e487b7160e01b835260419052602482fd5b634e487b7160e01b865260118752602486fd5b8380fd5b8280fd5b50823461033c578160031936011261033c5761035a610851565b92602435906001600160401b03821161039b575092610382610388926102fb95369101610726565b90610f05565b90519182916020835260208301906107ba565b80fd5b82843461015e57606036600319011261015e576103b9610851565b6001600160401b0360243581811161040d576103d89036908501610726565b9060443590811161040d573660238201121561040d5761040a93816024610404933693013591016106db565b91610d36565b80f35b8480fd5b50913461015e578260031936011261015e5761042b610744565b6001600160401b039060243582811161040d579261044f8695929436908301610726565b9385516104668161029c6020988983019586610bcc565b51902082528184528482209283549061047e82610868565b9261048b885194856106ba565b82845286840191829686528786209186935b858510610500575050505050508451938085019181865251809252858501958260051b8601019392955b8287106104d45785850386f35b9091929382806104f0600193603f198a820301865288516107df565b96019201960195929190926104c7565b60058a6001928d809d9a9b9d51906105178261066e565b88546001600160801b03196080918181841b168552168584015288878b0154168284015261054760028b01610bfa565b606084015261055860038b01610bfa565b90830152516105748161056d818a8d01610c52565b03826106ba565b60a08201528152019401940193929896959861049d565b50823461033c578160031936011261033c57602435926001600160401b03841161039b57506105bf60209336908301610726565b6105ef8380518093878201953586526105e0815180928a8686019101610797565b810103868101845201826106ba565b5190209051908152f35b503461015e578160031936011261015e576020906001600160401b03600354169051908152f35b9050833461033857602036600319011261033857358060070b810361033857602080945082019060c01b8152600882526106598261069f565b6001600160801b031991519020169051908152f35b60c081019081106001600160401b0382111761068957604052565b634e487b7160e01b600052604160045260246000fd5b604081019081106001600160401b0382111761068957604052565b90601f801991011681019081106001600160401b0382111761068957604052565b9291926001600160401b0382116106895760405191610704601f8201601f1916602001846106ba565b829481845281830111610721578281602093846000960137010152565b600080fd5b9080601f8301121561072157816020610741933591016106db565b90565b600435906001600160401b038216820361072157565b90815180825260208080930193019160005b82811061077a575050505090565b83516001600160a01b03168552938101939281019260010161076c565b60005b8381106107aa5750506000910152565b818101518382015260200161079a565b906020916107d381518092818552858086019101610797565b601f01601f1916010190565b610741916001600160801b031980835116825260208301511660208201526001600160401b03604083015116604082015260a061084061082e606085015160c0606086015260c085019061075a565b6080850151848203608086015261075a565b9201519060a08184039101526107ba565b600435906001600160801b03198216820361072157565b6001600160401b0381116106895760051b60200190565b9080601f8301121561072157602090823561089981610868565b936108a760405195866106ba565b818552838086019260051b820101928311610721578301905b8282106108ce575050505090565b81356001600160a01b03811681036107215781529083019083016108c0565b604051906108fa8261066e565b606060a08360008152600060208201526000604082015282808201528260808201520152565b81811061092b575050565b60008155600101610920565b90600160401b81116106895781549080835581811061095557505050565b61096b9260005260206000209182019101610920565b565b90600182811c9216801561099d575b602083101461098757565b634e487b7160e01b600052602260045260246000fd5b91607f169161097c565b9190601f81116109b657505050565b61096b926000526020600020906020601f840160051c830193106109e2575b601f0160051c0190610920565b90915081906109d5565b81516020808401516001600160801b03191660809290921c91909117825560408301516001808401805467ffffffffffffffff19166001600160401b039384161790556060850151805193949293919260028101929091858211610689578690610a568386610937565b01600093845286842085855b848110610bb157505050505060038101608087015190815191868311610b9d578790610a8e8484610937565b0190845286842085855b848110610b82575050505050600460a09101950151918251938411610b6e57610acb84610ac5885461096d565b886109a7565b84601f8511600114610b0a575050928291610afb9492610aff575b50508160011b916000199060031b1c19161790565b9055565b015190503880610ae6565b8683528083209195919391928591601f19831691905b88838310610b545750505010610b3b575b505050811b019055565b015160001960f88460031b161c19169055388080610b31565b858701518855909601959485019487935090810190610b20565b634e487b7160e01b82526041600452602482fd5b83516001600160a01b03168382015592890192879101610a98565b634e487b7160e01b85526041600452602485fd5b83516001600160a01b03168382015592890192879101610a62565b600892916001600160401b0360c01b9060c01b168152610bf58251809360208685019101610797565b010190565b9060405191828154918282526020928383019160005283600020936000905b828210610c2f5750505061096b925003836106ba565b85546001600160a01b031684526001958601958895509381019390910190610c19565b805460009392610c618261096d565b918282526020936001918281169081600014610cc85750600114610c87575b5050505050565b90939495506000929192528360002092846000945b838610610cb457505050500101903880808080610c80565b805485870183015294019385908201610c9c565b60ff19168685015250505090151560051b010191503880808080610c80565b6000198114610cf65760010190565b634e487b7160e01b600052601160045260246000fd5b8051821015610d205760209160051b010190565b634e487b7160e01b600052603260045260246000fd5b6001600160801b031916916000838152602060028152600391604094610d5f8487842001610bfa565b96825b8851811015610eca576001600160a01b033381610d7f848d610d0c565b511614908115610ea0575b50610d9d57610d9890610ce7565b610d62565b5083949596975090829391610dc8935260019788835282818620915194838680955193849201610797565b820190815203019020948451936001600160401b038511610e8c57610df785610df1895461096d565b896109a7565b83601f8611600114610e255750505090610afb9383610aff5750508160011b916000199060031b1c19161790565b8590601f9792949593971982169089875280872096905b89838310610e725750505010610e58575b50505050811b019055565b01519060f884600019921b161c1916905538808080610e4d565b858701518955909701969485019488935090810190610e3c565b634e487b7160e01b83526041600452602483fd5b73c8df3686b4afb2bb53e60eae97ef043fe03fb8299150610ec1838c610d0c565b51161438610d8a565b875162461bcd60e51b81526004810186905260146024820152734e6f7420616c6c6f77656420746f2073746f726560601b6044820152606490fd5b6001600160801b0319169060009082825260209060028252604092610f2e600285832001610bfa565b94815b8651811015610fd5576001600160a01b033381610f4e848b610d0c565b511614908115610fab575b50610f6c57610f6790610ce7565b610f31565b5061056d9550918482610f979461074197969452600184522082855194838680955193849201610797565b820190815203019020905192838092610c52565b73c8df3686b4afb2bb53e60eae97ef043fe03fb8299150610fcc838a610d0c565b51161438610f59565b855162461bcd60e51b815260048101869052601760248201527f4e6f7420616c6c6f77656420746f2072657472696576650000000000000000006044820152606490fd5b818114611082578154916001600160401b0383116106895761103b8383610937565b60005260206000209060005260206000208154916000925b848410611061575050505050565b600191820180546001600160a01b0390921684860155939091019290611053565b505056fea26469706673582212202594f1329f2d05c79167afc3d1da0514474c3bff72efe5568f3c0f1bad23e02f64736f6c63430008150033",
    "linkReferences": {}
  },
  "methodIdentifiers": {
    "buy(bytes16)": "f8c46744",
    "confidentialRetrieve(bytes16,string)": "e3b417bc",
    "confidentialStore(bytes16,string,bytes)": "d22a3b0b",
    "fetchDataRecords(uint64,string)": "ccb885c4",
    "genDataId(int64)": "822eab8d",
    "genKey(uint256,string)": "be9fe1f2",
    "newDataRecord(uint64,address[],address[],string)": "e3fbcfc3",
    "numRecords()": "b5d1990d",
    "test()": "f8a8fd6d"
  },
  "id": 12
}