{
	"data": {
		"bytecode": {
			"linkReferences": {},
			"object": "61053061004d600b8282823980515f1a6073146041577f4e487b71000000000000000000000000000000000000000000000000000000005f525f60045260245ffd5b305f52607381538281f3fe730000000000000000000000000000000000000000301460806040526004361061014a575f3560e01c80638a088763116100c1578063d91525db11610085578063d91525db1461032e578063de3dafbf1461034c578063f05797591461036a578063f0608b1c14610388578063f28f4271146103a6578063fb18f5f0146103c45761014a565b80638a0887631461029857806394804c69146102b6578063a1553986146102d4578063ad05aae4146102f2578063b61b127d146103105761014a565b80634aeeccc9116101135780634aeeccc9146101e4578063581ff5af146102025780636902e21d1461022057806369094cbc1461023e578063744795b91461025c578063751afe2c1461027a5761014a565b80626a80651461014e57806301c195301461016c578063040e51831461018a5780632a4788d6146101a8578063440098ff146101c6575b5f80fd5b6101566103e2565b60405161016391906104e1565b60405180910390f35b6101746103ea565b60405161018191906104e1565b60405180910390f35b6101926103f2565b60405161019f91906104e1565b60405180910390f35b6101b06103fa565b6040516101bd91906104e1565b60405180910390f35b6101ce610402565b6040516101db91906104e1565b60405180910390f35b6101ec61040a565b6040516101f991906104e1565b60405180910390f35b61020a610412565b60405161021791906104e1565b60405180910390f35b61022861041a565b60405161023591906104e1565b60405180910390f35b610246610422565b60405161025391906104e1565b60405180910390f35b61026461042a565b60405161027191906104e1565b60405180910390f35b610282610432565b60405161028f91906104e1565b60405180910390f35b6102a061043a565b6040516102ad91906104e1565b60405180910390f35b6102be610442565b6040516102cb91906104e1565b60405180910390f35b6102dc61044a565b6040516102e991906104e1565b60405180910390f35b6102fa610452565b60405161030791906104e1565b60405180910390f35b61031861045a565b60405161032591906104e1565b60405180910390f35b610336610462565b60405161034391906104e1565b60405180910390f35b61035461046a565b60405161036191906104e1565b60405180910390f35b610372610482565b60405161037f91906104e1565b60405180910390f35b61039061048a565b60405161039d91906104e1565b60405180910390f35b6103ae610492565b6040516103bb91906104e1565b60405180910390f35b6103cc61049a565b6040516103d991906104e1565b60405180910390f35b637770000b81565b634320000181565b634210000381565b635320000281565b635330000381565b635320000381565b634203000181565b634320000281565b634201000181565b634010000181565b634210003781565b634203000081565b634210000181565b634010000381565b634202000081565b634210000081565b634201000081565b73c8df3686b4afb2bb53e60eae97ef043fe03fb82981565b634202000181565b634300000181565b635320000181565b634210000281565b5f73ffffffffffffffffffffffffffffffffffffffff82169050919050565b5f6104cb826104a2565b9050919050565b6104db816104c1565b82525050565b5f6020820190506104f45f8301846104d2565b9291505056fea2646970667358221220bd7a9d7172a79247c973d4815077e45a5f2348086f7dd7b12a1387165da8433f64736f6c63430008190033",
			"opcodes": "PUSH2 0x530 PUSH2 0x4D PUSH1 0xB DUP3 DUP3 DUP3 CODECOPY DUP1 MLOAD PUSH0 BYTE PUSH1 0x73 EQ PUSH1 0x41 JUMPI PUSH32 0x4E487B7100000000000000000000000000000000000000000000000000000000 PUSH0 MSTORE PUSH0 PUSH1 0x4 MSTORE PUSH1 0x24 PUSH0 REVERT JUMPDEST ADDRESS PUSH0 MSTORE PUSH1 0x73 DUP2 MSTORE8 DUP3 DUP2 RETURN INVALID PUSH20 0x0 ADDRESS EQ PUSH1 0x80 PUSH1 0x40 MSTORE PUSH1 0x4 CALLDATASIZE LT PUSH2 0x14A JUMPI PUSH0 CALLDATALOAD PUSH1 0xE0 SHR DUP1 PUSH4 0x8A088763 GT PUSH2 0xC1 JUMPI DUP1 PUSH4 0xD91525DB GT PUSH2 0x85 JUMPI DUP1 PUSH4 0xD91525DB EQ PUSH2 0x32E JUMPI DUP1 PUSH4 0xDE3DAFBF EQ PUSH2 0x34C JUMPI DUP1 PUSH4 0xF0579759 EQ PUSH2 0x36A JUMPI DUP1 PUSH4 0xF0608B1C EQ PUSH2 0x388 JUMPI DUP1 PUSH4 0xF28F4271 EQ PUSH2 0x3A6 JUMPI DUP1 PUSH4 0xFB18F5F0 EQ PUSH2 0x3C4 JUMPI PUSH2 0x14A JUMP JUMPDEST DUP1 PUSH4 0x8A088763 EQ PUSH2 0x298 JUMPI DUP1 PUSH4 0x94804C69 EQ PUSH2 0x2B6 JUMPI DUP1 PUSH4 0xA1553986 EQ PUSH2 0x2D4 JUMPI DUP1 PUSH4 0xAD05AAE4 EQ PUSH2 0x2F2 JUMPI DUP1 PUSH4 0xB61B127D EQ PUSH2 0x310 JUMPI PUSH2 0x14A JUMP JUMPDEST DUP1 PUSH4 0x4AEECCC9 GT PUSH2 0x113 JUMPI DUP1 PUSH4 0x4AEECCC9 EQ PUSH2 0x1E4 JUMPI DUP1 PUSH4 0x581FF5AF EQ PUSH2 0x202 JUMPI DUP1 PUSH4 0x6902E21D EQ PUSH2 0x220 JUMPI DUP1 PUSH4 0x69094CBC EQ PUSH2 0x23E JUMPI DUP1 PUSH4 0x744795B9 EQ PUSH2 0x25C JUMPI DUP1 PUSH4 0x751AFE2C EQ PUSH2 0x27A JUMPI PUSH2 0x14A JUMP JUMPDEST DUP1 PUSH3 0x6A8065 EQ PUSH2 0x14E JUMPI DUP1 PUSH4 0x1C19530 EQ PUSH2 0x16C JUMPI DUP1 PUSH4 0x40E5183 EQ PUSH2 0x18A JUMPI DUP1 PUSH4 0x2A4788D6 EQ PUSH2 0x1A8 JUMPI DUP1 PUSH4 0x440098FF EQ PUSH2 0x1C6 JUMPI JUMPDEST PUSH0 DUP1 REVERT JUMPDEST PUSH2 0x156 PUSH2 0x3E2 JUMP JUMPDEST PUSH1 0x40 MLOAD PUSH2 0x163 SWAP2 SWAP1 PUSH2 0x4E1 JUMP JUMPDEST PUSH1 0x40 MLOAD DUP1 SWAP2 SUB SWAP1 RETURN JUMPDEST PUSH2 0x174 PUSH2 0x3EA JUMP JUMPDEST PUSH1 0x40 MLOAD PUSH2 0x181 SWAP2 SWAP1 PUSH2 0x4E1 JUMP JUMPDEST PUSH1 0x40 MLOAD DUP1 SWAP2 SUB SWAP1 RETURN JUMPDEST PUSH2 0x192 PUSH2 0x3F2 JUMP JUMPDEST PUSH1 0x40 MLOAD PUSH2 0x19F SWAP2 SWAP1 PUSH2 0x4E1 JUMP JUMPDEST PUSH1 0x40 MLOAD DUP1 SWAP2 SUB SWAP1 RETURN JUMPDEST PUSH2 0x1B0 PUSH2 0x3FA JUMP JUMPDEST PUSH1 0x40 MLOAD PUSH2 0x1BD SWAP2 SWAP1 PUSH2 0x4E1 JUMP JUMPDEST PUSH1 0x40 MLOAD DUP1 SWAP2 SUB SWAP1 RETURN JUMPDEST PUSH2 0x1CE PUSH2 0x402 JUMP JUMPDEST PUSH1 0x40 MLOAD PUSH2 0x1DB SWAP2 SWAP1 PUSH2 0x4E1 JUMP JUMPDEST PUSH1 0x40 MLOAD DUP1 SWAP2 SUB SWAP1 RETURN JUMPDEST PUSH2 0x1EC PUSH2 0x40A JUMP JUMPDEST PUSH1 0x40 MLOAD PUSH2 0x1F9 SWAP2 SWAP1 PUSH2 0x4E1 JUMP JUMPDEST PUSH1 0x40 MLOAD DUP1 SWAP2 SUB SWAP1 RETURN JUMPDEST PUSH2 0x20A PUSH2 0x412 JUMP JUMPDEST PUSH1 0x40 MLOAD PUSH2 0x217 SWAP2 SWAP1 PUSH2 0x4E1 JUMP JUMPDEST PUSH1 0x40 MLOAD DUP1 SWAP2 SUB SWAP1 RETURN JUMPDEST PUSH2 0x228 PUSH2 0x41A JUMP JUMPDEST PUSH1 0x40 MLOAD PUSH2 0x235 SWAP2 SWAP1 PUSH2 0x4E1 JUMP JUMPDEST PUSH1 0x40 MLOAD DUP1 SWAP2 SUB SWAP1 RETURN JUMPDEST PUSH2 0x246 PUSH2 0x422 JUMP JUMPDEST PUSH1 0x40 MLOAD PUSH2 0x253 SWAP2 SWAP1 PUSH2 0x4E1 JUMP JUMPDEST PUSH1 0x40 MLOAD DUP1 SWAP2 SUB SWAP1 RETURN JUMPDEST PUSH2 0x264 PUSH2 0x42A JUMP JUMPDEST PUSH1 0x40 MLOAD PUSH2 0x271 SWAP2 SWAP1 PUSH2 0x4E1 JUMP JUMPDEST PUSH1 0x40 MLOAD DUP1 SWAP2 SUB SWAP1 RETURN JUMPDEST PUSH2 0x282 PUSH2 0x432 JUMP JUMPDEST PUSH1 0x40 MLOAD PUSH2 0x28F SWAP2 SWAP1 PUSH2 0x4E1 JUMP JUMPDEST PUSH1 0x40 MLOAD DUP1 SWAP2 SUB SWAP1 RETURN JUMPDEST PUSH2 0x2A0 PUSH2 0x43A JUMP JUMPDEST PUSH1 0x40 MLOAD PUSH2 0x2AD SWAP2 SWAP1 PUSH2 0x4E1 JUMP JUMPDEST PUSH1 0x40 MLOAD DUP1 SWAP2 SUB SWAP1 RETURN JUMPDEST PUSH2 0x2BE PUSH2 0x442 JUMP JUMPDEST PUSH1 0x40 MLOAD PUSH2 0x2CB SWAP2 SWAP1 PUSH2 0x4E1 JUMP JUMPDEST PUSH1 0x40 MLOAD DUP1 SWAP2 SUB SWAP1 RETURN JUMPDEST PUSH2 0x2DC PUSH2 0x44A JUMP JUMPDEST PUSH1 0x40 MLOAD PUSH2 0x2E9 SWAP2 SWAP1 PUSH2 0x4E1 JUMP JUMPDEST PUSH1 0x40 MLOAD DUP1 SWAP2 SUB SWAP1 RETURN JUMPDEST PUSH2 0x2FA PUSH2 0x452 JUMP JUMPDEST PUSH1 0x40 MLOAD PUSH2 0x307 SWAP2 SWAP1 PUSH2 0x4E1 JUMP JUMPDEST PUSH1 0x40 MLOAD DUP1 SWAP2 SUB SWAP1 RETURN JUMPDEST PUSH2 0x318 PUSH2 0x45A JUMP JUMPDEST PUSH1 0x40 MLOAD PUSH2 0x325 SWAP2 SWAP1 PUSH2 0x4E1 JUMP JUMPDEST PUSH1 0x40 MLOAD DUP1 SWAP2 SUB SWAP1 RETURN JUMPDEST PUSH2 0x336 PUSH2 0x462 JUMP JUMPDEST PUSH1 0x40 MLOAD PUSH2 0x343 SWAP2 SWAP1 PUSH2 0x4E1 JUMP JUMPDEST PUSH1 0x40 MLOAD DUP1 SWAP2 SUB SWAP1 RETURN JUMPDEST PUSH2 0x354 PUSH2 0x46A JUMP JUMPDEST PUSH1 0x40 MLOAD PUSH2 0x361 SWAP2 SWAP1 PUSH2 0x4E1 JUMP JUMPDEST PUSH1 0x40 MLOAD DUP1 SWAP2 SUB SWAP1 RETURN JUMPDEST PUSH2 0x372 PUSH2 0x482 JUMP JUMPDEST PUSH1 0x40 MLOAD PUSH2 0x37F SWAP2 SWAP1 PUSH2 0x4E1 JUMP JUMPDEST PUSH1 0x40 MLOAD DUP1 SWAP2 SUB SWAP1 RETURN JUMPDEST PUSH2 0x390 PUSH2 0x48A JUMP JUMPDEST PUSH1 0x40 MLOAD PUSH2 0x39D SWAP2 SWAP1 PUSH2 0x4E1 JUMP JUMPDEST PUSH1 0x40 MLOAD DUP1 SWAP2 SUB SWAP1 RETURN JUMPDEST PUSH2 0x3AE PUSH2 0x492 JUMP JUMPDEST PUSH1 0x40 MLOAD PUSH2 0x3BB SWAP2 SWAP1 PUSH2 0x4E1 JUMP JUMPDEST PUSH1 0x40 MLOAD DUP1 SWAP2 SUB SWAP1 RETURN JUMPDEST PUSH2 0x3CC PUSH2 0x49A JUMP JUMPDEST PUSH1 0x40 MLOAD PUSH2 0x3D9 SWAP2 SWAP1 PUSH2 0x4E1 JUMP JUMPDEST PUSH1 0x40 MLOAD DUP1 SWAP2 SUB SWAP1 RETURN JUMPDEST PUSH4 0x7770000B DUP2 JUMP JUMPDEST PUSH4 0x43200001 DUP2 JUMP JUMPDEST PUSH4 0x42100003 DUP2 JUMP JUMPDEST PUSH4 0x53200002 DUP2 JUMP JUMPDEST PUSH4 0x53300003 DUP2 JUMP JUMPDEST PUSH4 0x53200003 DUP2 JUMP JUMPDEST PUSH4 0x42030001 DUP2 JUMP JUMPDEST PUSH4 0x43200002 DUP2 JUMP JUMPDEST PUSH4 0x42010001 DUP2 JUMP JUMPDEST PUSH4 0x40100001 DUP2 JUMP JUMPDEST PUSH4 0x42100037 DUP2 JUMP JUMPDEST PUSH4 0x42030000 DUP2 JUMP JUMPDEST PUSH4 0x42100001 DUP2 JUMP JUMPDEST PUSH4 0x40100003 DUP2 JUMP JUMPDEST PUSH4 0x42020000 DUP2 JUMP JUMPDEST PUSH4 0x42100000 DUP2 JUMP JUMPDEST PUSH4 0x42010000 DUP2 JUMP JUMPDEST PUSH20 0xC8DF3686B4AFB2BB53E60EAE97EF043FE03FB829 DUP2 JUMP JUMPDEST PUSH4 0x42020001 DUP2 JUMP JUMPDEST PUSH4 0x43000001 DUP2 JUMP JUMPDEST PUSH4 0x53200001 DUP2 JUMP JUMPDEST PUSH4 0x42100002 DUP2 JUMP JUMPDEST PUSH0 PUSH20 0xFFFFFFFFFFFFFFFFFFFFFFFFFFFFFFFFFFFFFFFF DUP3 AND SWAP1 POP SWAP2 SWAP1 POP JUMP JUMPDEST PUSH0 PUSH2 0x4CB DUP3 PUSH2 0x4A2 JUMP JUMPDEST SWAP1 POP SWAP2 SWAP1 POP JUMP JUMPDEST PUSH2 0x4DB DUP2 PUSH2 0x4C1 JUMP JUMPDEST DUP3 MSTORE POP POP JUMP JUMPDEST PUSH0 PUSH1 0x20 DUP3 ADD SWAP1 POP PUSH2 0x4F4 PUSH0 DUP4 ADD DUP5 PUSH2 0x4D2 JUMP JUMPDEST SWAP3 SWAP2 POP POP JUMP INVALID LOG2 PUSH5 0x6970667358 0x22 SLT KECCAK256 0xBD PUSH27 0x9D7172A79247C973D4815077E45A5F2348086F7DD7B12A1387165D 0xA8 NUMBER EXTCODEHASH PUSH5 0x736F6C6343 STOP ADDMOD NOT STOP CALLER "
		},
		"gasEstimates": {
			"creation": {
				"codeDepositCost": "265600",
				"executionCost": "329",
				"totalCost": "265929"
			},
			"external": {
				"ANYALLOWED()": "401",
				"BUILD_ETH_BLOCK()": "402",
				"CONFIDENTIAL_INPUTS()": "446",
				"CONFIDENTIAL_RETRIEVE()": "423",
				"CONFIDENTIAL_STORE()": "446",
				"CONTEXT_GET()": "469",
				"DO_HTTPREQUEST()": "424",
				"ETHCALL()": "425",
				"EXTRACT_HINT()": "490",
				"FETCH_DATA_RECORDS()": "402",
				"FILL_MEV_SHARE_BUNDLE()": "403",
				"IS_CONFIDENTIAL_ADDR()": "379",
				"NEW_BUILDER()": "467",
				"NEW_DATA_RECORD()": "380",
				"PRIVATE_KEY_GEN()": "380",
				"RANDOM_BYTES()": "381",
				"SIGN_ETH_TRANSACTION()": "468",
				"SIGN_MESSAGE()": "424",
				"SIMULATE_BUNDLE()": "468",
				"SIMULATE_TRANSACTION()": "447",
				"SUBMIT_BUNDLE_JSON_RPC()": "445",
				"SUBMIT_ETH_BLOCK_TO_RELAY()": "489"
			},
			"internal": {
				"buildEthBlock(struct Suave.BuildBlockArgs memory,Suave.DataId,string memory)": "infinite",
				"confidentialInputs()": "infinite",
				"confidentialRetrieve(Suave.DataId,string memory)": "infinite",
				"confidentialStore(Suave.DataId,string memory,bytes memory)": "infinite",
				"contextGet(string memory)": "infinite",
				"doHTTPRequest(struct Suave.HttpRequest memory)": "infinite",
				"ethcall(address,bytes memory)": "infinite",
				"extractHint(bytes memory)": "infinite",
				"fetchDataRecords(uint64,string memory)": "infinite",
				"fillMevShareBundle(Suave.DataId)": "infinite",
				"isConfidential()": "infinite",
				"newBuilder()": "infinite",
				"newDataRecord(uint64,address[] memory,address[] memory,string memory)": "infinite",
				"privateKeyGen(enum Suave.CryptoSignature)": "infinite",
				"randomBytes(uint8)": "infinite",
				"signEthTransaction(bytes memory,string memory,string memory)": "infinite",
				"signMessage(bytes memory,enum Suave.CryptoSignature,string memory)": "infinite",
				"simulateBundle(bytes memory)": "infinite",
				"simulateTransaction(string memory,bytes memory)": "infinite",
				"submitBundleJsonRPC(string memory,string memory,bytes memory)": "infinite",
				"submitEthBlockToRelay(string memory,bytes memory)": "infinite"
			}
		},
		"methodIdentifiers": {
			"ANYALLOWED()": "de3dafbf",
			"BUILD_ETH_BLOCK()": "94804c69",
			"CONFIDENTIAL_INPUTS()": "69094cbc",
			"CONFIDENTIAL_RETRIEVE()": "f0579759",
			"CONFIDENTIAL_STORE()": "ad05aae4",
			"CONTEXT_GET()": "440098ff",
			"DO_HTTPREQUEST()": "6902e21d",
			"ETHCALL()": "040e5183",
			"EXTRACT_HINT()": "751afe2c",
			"FETCH_DATA_RECORDS()": "581ff5af",
			"FILL_MEV_SHARE_BUNDLE()": "01c19530",
			"IS_CONFIDENTIAL_ADDR()": "d91525db",
			"NEW_BUILDER()": "f28f4271",
			"NEW_DATA_RECORD()": "8a088763",
			"PRIVATE_KEY_GEN()": "4aeeccc9",
			"RANDOM_BYTES()": "006a8065",
			"SIGN_ETH_TRANSACTION()": "744795b9",
			"SIGN_MESSAGE()": "a1553986",
			"SIMULATE_BUNDLE()": "b61b127d",
			"SIMULATE_TRANSACTION()": "2a4788d6",
			"SUBMIT_BUNDLE_JSON_RPC()": "f0608b1c",
			"SUBMIT_ETH_BLOCK_TO_RELAY()": "fb18f5f0"
		}
	},
	"abi": [
		{
			"inputs": [
				{
					"internalType": "address",
					"name": "",
					"type": "address"
				},
				{
					"internalType": "bytes",
					"name": "",
					"type": "bytes"
				}
			],
			"name": "PeekerReverted",
			"type": "error"
		},
		{
			"inputs": [],
			"name": "ANYALLOWED",
			"outputs": [
				{
					"internalType": "address",
					"name": "",
					"type": "address"
				}
			],
			"stateMutability": "view",
			"type": "function"
		},
		{
			"inputs": [],
			"name": "BUILD_ETH_BLOCK",
			"outputs": [
				{
					"internalType": "address",
					"name": "",
					"type": "address"
				}
			],
			"stateMutability": "view",
			"type": "function"
		},
		{
			"inputs": [],
			"name": "CONFIDENTIAL_INPUTS",
			"outputs": [
				{
					"internalType": "address",
					"name": "",
					"type": "address"
				}
			],
			"stateMutability": "view",
			"type": "function"
		},
		{
			"inputs": [],
			"name": "CONFIDENTIAL_RETRIEVE",
			"outputs": [
				{
					"internalType": "address",
					"name": "",
					"type": "address"
				}
			],
			"stateMutability": "view",
			"type": "function"
		},
		{
			"inputs": [],
			"name": "CONFIDENTIAL_STORE",
			"outputs": [
				{
					"internalType": "address",
					"name": "",
					"type": "address"
				}
			],
			"stateMutability": "view",
			"type": "function"
		},
		{
			"inputs": [],
			"name": "CONTEXT_GET",
			"outputs": [
				{
					"internalType": "address",
					"name": "",
					"type": "address"
				}
			],
			"stateMutability": "view",
			"type": "function"
		},
		{
			"inputs": [],
			"name": "DO_HTTPREQUEST",
			"outputs": [
				{
					"internalType": "address",
					"name": "",
					"type": "address"
				}
			],
			"stateMutability": "view",
			"type": "function"
		},
		{
			"inputs": [],
			"name": "ETHCALL",
			"outputs": [
				{
					"internalType": "address",
					"name": "",
					"type": "address"
				}
			],
			"stateMutability": "view",
			"type": "function"
		},
		{
			"inputs": [],
			"name": "EXTRACT_HINT",
			"outputs": [
				{
					"internalType": "address",
					"name": "",
					"type": "address"
				}
			],
			"stateMutability": "view",
			"type": "function"
		},
		{
			"inputs": [],
			"name": "FETCH_DATA_RECORDS",
			"outputs": [
				{
					"internalType": "address",
					"name": "",
					"type": "address"
				}
			],
			"stateMutability": "view",
			"type": "function"
		},
		{
			"inputs": [],
			"name": "FILL_MEV_SHARE_BUNDLE",
			"outputs": [
				{
					"internalType": "address",
					"name": "",
					"type": "address"
				}
			],
			"stateMutability": "view",
			"type": "function"
		},
		{
			"inputs": [],
			"name": "IS_CONFIDENTIAL_ADDR",
			"outputs": [
				{
					"internalType": "address",
					"name": "",
					"type": "address"
				}
			],
			"stateMutability": "view",
			"type": "function"
		},
		{
			"inputs": [],
			"name": "NEW_BUILDER",
			"outputs": [
				{
					"internalType": "address",
					"name": "",
					"type": "address"
				}
			],
			"stateMutability": "view",
			"type": "function"
		},
		{
			"inputs": [],
			"name": "NEW_DATA_RECORD",
			"outputs": [
				{
					"internalType": "address",
					"name": "",
					"type": "address"
				}
			],
			"stateMutability": "view",
			"type": "function"
		},
		{
			"inputs": [],
			"name": "PRIVATE_KEY_GEN",
			"outputs": [
				{
					"internalType": "address",
					"name": "",
					"type": "address"
				}
			],
			"stateMutability": "view",
			"type": "function"
		},
		{
			"inputs": [],
			"name": "RANDOM_BYTES",
			"outputs": [
				{
					"internalType": "address",
					"name": "",
					"type": "address"
				}
			],
			"stateMutability": "view",
			"type": "function"
		},
		{
			"inputs": [],
			"name": "SIGN_ETH_TRANSACTION",
			"outputs": [
				{
					"internalType": "address",
					"name": "",
					"type": "address"
				}
			],
			"stateMutability": "view",
			"type": "function"
		},
		{
			"inputs": [],
			"name": "SIGN_MESSAGE",
			"outputs": [
				{
					"internalType": "address",
					"name": "",
					"type": "address"
				}
			],
			"stateMutability": "view",
			"type": "function"
		},
		{
			"inputs": [],
			"name": "SIMULATE_BUNDLE",
			"outputs": [
				{
					"internalType": "address",
					"name": "",
					"type": "address"
				}
			],
			"stateMutability": "view",
			"type": "function"
		},
		{
			"inputs": [],
			"name": "SIMULATE_TRANSACTION",
			"outputs": [
				{
					"internalType": "address",
					"name": "",
					"type": "address"
				}
			],
			"stateMutability": "view",
			"type": "function"
		},
		{
			"inputs": [],
			"name": "SUBMIT_BUNDLE_JSON_RPC",
			"outputs": [
				{
					"internalType": "address",
					"name": "",
					"type": "address"
				}
			],
			"stateMutability": "view",
			"type": "function"
		},
		{
			"inputs": [],
			"name": "SUBMIT_ETH_BLOCK_TO_RELAY",
			"outputs": [
				{
					"internalType": "address",
					"name": "",
					"type": "address"
				}
			],
			"stateMutability": "view",
			"type": "function"
		}
	]
}