{
	"src/ConfidentialStore.sol": {
		"ConfidentialStore": {
			"abi": [
				{
					"inputs": [],
					"stateMutability": "nonpayable",
					"type": "constructor"
				},
				{
					"anonymous": false,
					"inputs": [
						{
							"indexed": false,
							"internalType": "Suave.DataId",
							"name": "id",
							"type": "bytes16"
						}
					],
					"name": "Buy",
					"type": "event"
				},
				{
					"inputs": [
						{
							"internalType": "Suave.DataId",
							"name": "dataId",
							"type": "bytes16"
						}
					],
					"name": "buy",
					"outputs": [],
					"stateMutability": "nonpayable",
					"type": "function"
				},
				{
					"inputs": [
						{
							"internalType": "Suave.DataId",
							"name": "dataId",
							"type": "bytes16"
						},
						{
							"internalType": "string",
							"name": "key",
							"type": "string"
						}
					],
					"name": "confidentialRetrieve",
					"outputs": [
						{
							"internalType": "bytes",
							"name": "",
							"type": "bytes"
						}
					],
					"stateMutability": "view",
					"type": "function"
				},
				{
					"inputs": [
						{
							"internalType": "Suave.DataId",
							"name": "dataId",
							"type": "bytes16"
						},
						{
							"internalType": "string",
							"name": "key",
							"type": "string"
						},
						{
							"internalType": "bytes",
							"name": "value",
							"type": "bytes"
						}
					],
					"name": "confidentialStore",
					"outputs": [],
					"stateMutability": "nonpayable",
					"type": "function"
				},
				{
					"inputs": [
						{
							"internalType": "uint64",
							"name": "cond",
							"type": "uint64"
						},
						{
							"internalType": "string",
							"name": "namespace",
							"type": "string"
						}
					],
					"name": "fetchDataRecords",
					"outputs": [
						{
							"components": [
								{
									"internalType": "Suave.DataId",
									"name": "id",
									"type": "bytes16"
								},
								{
									"internalType": "Suave.DataId",
									"name": "salt",
									"type": "bytes16"
								},
								{
									"internalType": "uint64",
									"name": "decryptionCondition",
									"type": "uint64"
								},
								{
									"internalType": "address[]",
									"name": "allowedPeekers",
									"type": "address[]"
								},
								{
									"internalType": "address[]",
									"name": "allowedStores",
									"type": "address[]"
								},
								{
									"internalType": "string",
									"name": "version",
									"type": "string"
								}
							],
							"internalType": "struct Suave.DataRecord[]",
							"name": "",
							"type": "tuple[]"
						}
					],
					"stateMutability": "view",
					"type": "function"
				},
				{
					"inputs": [
						{
							"internalType": "int64",
							"name": "recordsNum",
							"type": "int64"
						}
					],
					"name": "genDataId",
					"outputs": [
						{
							"internalType": "Suave.DataId",
							"name": "",
							"type": "bytes16"
						}
					],
					"stateMutability": "pure",
					"type": "function"
				},
				{
					"inputs": [
						{
							"internalType": "uint256",
							"name": "decryptionCondition",
							"type": "uint256"
						},
						{
							"internalType": "string",
							"name": "dataType",
							"type": "string"
						}
					],
					"name": "genKey",
					"outputs": [
						{
							"internalType": "bytes32",
							"name": "",
							"type": "bytes32"
						}
					],
					"stateMutability": "pure",
					"type": "function"
				},
				{
					"inputs": [
						{
							"internalType": "uint64",
							"name": "decryptionCondition",
							"type": "uint64"
						},
						{
							"internalType": "address[]",
							"name": "allowedPeekers",
							"type": "address[]"
						},
						{
							"internalType": "address[]",
							"name": "allowedStores",
							"type": "address[]"
						},
						{
							"internalType": "string",
							"name": "dataType",
							"type": "string"
						}
					],
					"name": "newDataRecord",
					"outputs": [
						{
							"components": [
								{
									"internalType": "Suave.DataId",
									"name": "id",
									"type": "bytes16"
								},
								{
									"internalType": "Suave.DataId",
									"name": "salt",
									"type": "bytes16"
								},
								{
									"internalType": "uint64",
									"name": "decryptionCondition",
									"type": "uint64"
								},
								{
									"internalType": "address[]",
									"name": "allowedPeekers",
									"type": "address[]"
								},
								{
									"internalType": "address[]",
									"name": "allowedStores",
									"type": "address[]"
								},
								{
									"internalType": "string",
									"name": "version",
									"type": "string"
								}
							],
							"internalType": "struct Suave.DataRecord",
							"name": "",
							"type": "tuple"
						}
					],
					"stateMutability": "nonpayable",
					"type": "function"
				},
				{
					"inputs": [],
					"name": "numRecords",
					"outputs": [
						{
							"internalType": "uint64",
							"name": "",
							"type": "uint64"
						}
					],
					"stateMutability": "view",
					"type": "function"
				},
				{
					"inputs": [],
					"name": "test",
					"outputs": [
						{
							"internalType": "int256",
							"name": "",
							"type": "int256"
						}
					],
					"stateMutability": "pure",
					"type": "function"
				}
			],
			"devdoc": {
				"kind": "dev",
				"methods": {},
				"version": 1
			},
			"evm": {
				"assembly": "    /* \"src/ConfidentialStore.sol\":168:3732  contract ConfidentialStore {... */\n  mstore(0x40, 0x80)\n    /* \"src/ConfidentialStore.sol\":530:575  constructor() {... */\n  callvalue\n  dup1\n  iszero\n  tag_1\n  jumpi\n  0x00\n  dup1\n  revert\ntag_1:\n  pop\n    /* \"src/ConfidentialStore.sol\":168:3732  contract ConfidentialStore {... */\n  dataSize(sub_0)\n  dup1\n  dataOffset(sub_0)\n  0x00\n  codecopy\n  0x00\n  return\nstop\n\nsub_0: assembly {\n        /* \"src/ConfidentialStore.sol\":168:3732  contract ConfidentialStore {... */\n      mstore(0x40, 0x80)\n      callvalue\n      dup1\n      iszero\n      tag_1\n      jumpi\n      0x00\n      dup1\n      revert\n    tag_1:\n      pop\n      jumpi(tag_2, lt(calldatasize, 0x04))\n      shr(0xe0, calldataload(0x00))\n      dup1\n      0xd22a3b0b\n      gt\n      tag_12\n      jumpi\n      dup1\n      0xd22a3b0b\n      eq\n      tag_7\n      jumpi\n      dup1\n      0xe3b417bc\n      eq\n      tag_8\n      jumpi\n      dup1\n      0xe3fbcfc3\n      eq\n      tag_9\n      jumpi\n      dup1\n      0xf8a8fd6d\n      eq\n      tag_10\n      jumpi\n      dup1\n      0xf8c46744\n      eq\n      tag_11\n      jumpi\n      jump(tag_2)\n    tag_12:\n      dup1\n      0x822eab8d\n      eq\n      tag_3\n      jumpi\n      dup1\n      0xb5d1990d\n      eq\n      tag_4\n      jumpi\n      dup1\n      0xbe9fe1f2\n      eq\n      tag_5\n      jumpi\n      dup1\n      0xccb885c4\n      eq\n      tag_6\n      jumpi\n    tag_2:\n      0x00\n      dup1\n      revert\n        /* \"src/ConfidentialStore.sol\":1609:1772  function genDataId(int64 recordsNum) public pure returns (Suave.DataId) {... */\n    tag_3:\n      tag_13\n      0x04\n      dup1\n      calldatasize\n      sub\n      dup2\n      add\n      swap1\n      tag_14\n      swap2\n      swap1\n      tag_15\n      jump\t// in\n    tag_14:\n      tag_16\n      jump\t// in\n    tag_13:\n      mload(0x40)\n      tag_17\n      swap2\n      swap1\n      tag_18\n      jump\t// in\n    tag_17:\n      mload(0x40)\n      dup1\n      swap2\n      sub\n      swap1\n      return\n        /* \"src/ConfidentialStore.sol\":438:462  uint64 public numRecords */\n    tag_4:\n      tag_19\n      tag_20\n      jump\t// in\n    tag_19:\n      mload(0x40)\n      tag_21\n      swap2\n      swap1\n      tag_22\n      jump\t// in\n    tag_21:\n      mload(0x40)\n      dup1\n      swap2\n      sub\n      swap1\n      return\n        /* \"src/ConfidentialStore.sol\":1778:1957  function genKey(uint decryptionCondition, string memory dataType) public pure returns (bytes32) {... */\n    tag_5:\n      tag_23\n      0x04\n      dup1\n      calldatasize\n      sub\n      dup2\n      add\n      swap1\n      tag_24\n      swap2\n      swap1\n      tag_25\n      jump\t// in\n    tag_24:\n      tag_26\n      jump\t// in\n    tag_23:\n      mload(0x40)\n      tag_27\n      swap2\n      swap1\n      tag_28\n      jump\t// in\n    tag_27:\n      mload(0x40)\n      dup1\n      swap2\n      sub\n      swap1\n      return\n        /* \"src/ConfidentialStore.sol\":1963:2206  function fetchDataRecords(uint64 cond, string memory namespace) public view returns (Suave.DataRecord[] memory) {... */\n    tag_6:\n      tag_29\n      0x04\n      dup1\n      calldatasize\n      sub\n      dup2\n      add\n      swap1\n      tag_30\n      swap2\n      swap1\n      tag_31\n      jump\t// in\n    tag_30:\n      tag_32\n      jump\t// in\n    tag_29:\n      mload(0x40)\n      tag_33\n      swap2\n      swap1\n      tag_34\n      jump\t// in\n    tag_33:\n      mload(0x40)\n      dup1\n      swap2\n      sub\n      swap1\n      return\n        /* \"src/ConfidentialStore.sol\":2212:2686  function confidentialStore(Suave.DataId dataId, string memory key, bytes memory value) public {... */\n    tag_7:\n      tag_35\n      0x04\n      dup1\n      calldatasize\n      sub\n      dup2\n      add\n      swap1\n      tag_36\n      swap2\n      swap1\n      tag_37\n      jump\t// in\n    tag_36:\n      tag_38\n      jump\t// in\n    tag_35:\n      stop\n        /* \"src/ConfidentialStore.sol\":2692:3160  function confidentialRetrieve(Suave.DataId dataId, string memory key) public view returns (bytes memory) {... */\n    tag_8:\n      tag_39\n      0x04\n      dup1\n      calldatasize\n      sub\n      dup2\n      add\n      swap1\n      tag_40\n      swap2\n      swap1\n      tag_41\n      jump\t// in\n    tag_40:\n      tag_42\n      jump\t// in\n    tag_39:\n      mload(0x40)\n      tag_43\n      swap2\n      swap1\n      tag_44\n      jump\t// in\n    tag_43:\n      mload(0x40)\n      dup1\n      swap2\n      sub\n      swap1\n      return\n        /* \"src/ConfidentialStore.sol\":581:1603  function newDataRecord(... */\n    tag_9:\n      tag_45\n      0x04\n      dup1\n      calldatasize\n      sub\n      dup2\n      add\n      swap1\n      tag_46\n      swap2\n      swap1\n      tag_47\n      jump\t// in\n    tag_46:\n      tag_48\n      jump\t// in\n    tag_45:\n      mload(0x40)\n      tag_49\n      swap2\n      swap1\n      tag_50\n      jump\t// in\n    tag_49:\n      mload(0x40)\n      dup1\n      swap2\n      sub\n      swap1\n      return\n        /* \"src/ConfidentialStore.sol\":3427:3494  function test() pure public returns (int) {... */\n    tag_10:\n      tag_51\n      tag_52\n      jump\t// in\n    tag_51:\n      mload(0x40)\n      tag_53\n      swap2\n      swap1\n      tag_54\n      jump\t// in\n    tag_53:\n      mload(0x40)\n      dup1\n      swap2\n      sub\n      swap1\n      return\n        /* \"src/ConfidentialStore.sol\":3166:3421  function buy(Suave.DataId dataId) public {... */\n    tag_11:\n      tag_55\n      0x04\n      dup1\n      calldatasize\n      sub\n      dup2\n      add\n      swap1\n      tag_56\n      swap2\n      swap1\n      tag_57\n      jump\t// in\n    tag_56:\n      tag_58\n      jump\t// in\n    tag_55:\n      stop\n        /* \"src/ConfidentialStore.sol\":1609:1772  function genDataId(int64 recordsNum) public pure returns (Suave.DataId) {... */\n    tag_16:\n        /* \"src/ConfidentialStore.sol\":1667:1679  Suave.DataId */\n      0x00\n        /* \"src/ConfidentialStore.sol\":1751:1761  recordsNum */\n      dup2\n        /* \"src/ConfidentialStore.sol\":1734:1762  abi.encodePacked(recordsNum) */\n      add(0x20, mload(0x40))\n      tag_60\n      swap2\n      swap1\n      tag_61\n      jump\t// in\n    tag_60:\n      mload(0x40)\n      0x20\n      dup2\n      dup4\n      sub\n      sub\n      dup2\n      mstore\n      swap1\n      0x40\n      mstore\n        /* \"src/ConfidentialStore.sol\":1724:1763  keccak256(abi.encodePacked(recordsNum)) */\n      dup1\n      mload\n      swap1\n      0x20\n      add\n      keccak256\n        /* \"src/ConfidentialStore.sol\":1691:1765  return Suave.DataId.wrap(bytes16(keccak256(abi.encodePacked(recordsNum)))) */\n      swap1\n      pop\n        /* \"src/ConfidentialStore.sol\":1609:1772  function genDataId(int64 recordsNum) public pure returns (Suave.DataId) {... */\n      swap2\n      swap1\n      pop\n      jump\t// out\n        /* \"src/ConfidentialStore.sol\":438:462  uint64 public numRecords */\n    tag_20:\n      0x03\n      0x00\n      swap1\n      sload\n      swap1\n      0x0100\n      exp\n      swap1\n      div\n      0xffffffffffffffff\n      and\n      dup2\n      jump\t// out\n        /* \"src/ConfidentialStore.sol\":1778:1957  function genKey(uint decryptionCondition, string memory dataType) public pure returns (bytes32) {... */\n    tag_26:\n        /* \"src/ConfidentialStore.sol\":1865:1872  bytes32 */\n      0x00\n        /* \"src/ConfidentialStore.sol\":1918:1937  decryptionCondition */\n      dup3\n        /* \"src/ConfidentialStore.sol\":1939:1947  dataType */\n      dup3\n        /* \"src/ConfidentialStore.sol\":1901:1948  abi.encodePacked(decryptionCondition, dataType) */\n      add(0x20, mload(0x40))\n      tag_63\n      swap3\n      swap2\n      swap1\n      tag_64\n      jump\t// in\n    tag_63:\n      mload(0x40)\n      0x20\n      dup2\n      dup4\n      sub\n      sub\n      dup2\n      mstore\n      swap1\n      0x40\n      mstore\n        /* \"src/ConfidentialStore.sol\":1891:1949  keccak256(abi.encodePacked(decryptionCondition, dataType)) */\n      dup1\n      mload\n      swap1\n      0x20\n      add\n      keccak256\n        /* \"src/ConfidentialStore.sol\":1884:1949  return keccak256(abi.encodePacked(decryptionCondition, dataType)) */\n      swap1\n      pop\n        /* \"src/ConfidentialStore.sol\":1778:1957  function genKey(uint decryptionCondition, string memory dataType) public pure returns (bytes32) {... */\n      swap3\n      swap2\n      pop\n      pop\n      jump\t// out\n        /* \"src/ConfidentialStore.sol\":1963:2206  function fetchDataRecords(uint64 cond, string memory namespace) public view returns (Suave.DataRecord[] memory) {... */\n    tag_32:\n        /* \"src/ConfidentialStore.sol\":2048:2073  Suave.DataRecord[] memory */\n      0x60\n        /* \"src/ConfidentialStore.sol\":2085:2096  bytes32 key */\n      0x00\n        /* \"src/ConfidentialStore.sol\":2126:2130  cond */\n      dup4\n        /* \"src/ConfidentialStore.sol\":2132:2141  namespace */\n      dup4\n        /* \"src/ConfidentialStore.sol\":2109:2142  abi.encodePacked(cond, namespace) */\n      add(0x20, mload(0x40))\n      tag_66\n      swap3\n      swap2\n      swap1\n      tag_67\n      jump\t// in\n    tag_66:\n      mload(0x40)\n      0x20\n      dup2\n      dup4\n      sub\n      sub\n      dup2\n      mstore\n      swap1\n      0x40\n      mstore\n        /* \"src/ConfidentialStore.sol\":2099:2143  keccak256(abi.encodePacked(cond, namespace)) */\n      dup1\n      mload\n      swap1\n      0x20\n      add\n      keccak256\n        /* \"src/ConfidentialStore.sol\":2085:2143  bytes32 key = keccak256(abi.encodePacked(cond, namespace)) */\n      swap1\n      pop\n        /* \"src/ConfidentialStore.sol\":2160:2194  dataRecordsByConditionAndNamespace */\n      0x00\n        /* \"src/ConfidentialStore.sol\":2160:2199  dataRecordsByConditionAndNamespace[key] */\n      dup1\n        /* \"src/ConfidentialStore.sol\":2195:2198  key */\n      dup3\n        /* \"src/ConfidentialStore.sol\":2160:2199  dataRecordsByConditionAndNamespace[key] */\n      dup2\n      mstore\n      0x20\n      add\n      swap1\n      dup2\n      mstore\n      0x20\n      add\n      0x00\n      keccak256\n        /* \"src/ConfidentialStore.sol\":2153:2199  return dataRecordsByConditionAndNamespace[key] */\n      dup1\n      sload\n      dup1\n      0x20\n      mul\n      0x20\n      add\n      mload(0x40)\n      swap1\n      dup2\n      add\n      0x40\n      mstore\n      dup1\n      swap3\n      swap2\n      swap1\n      dup2\n      dup2\n      mstore\n      0x20\n      add\n      0x00\n      swap1\n    tag_68:\n      dup3\n      dup3\n      lt\n      iszero\n      tag_69\n      jumpi\n      dup4\n      dup3\n      swap1\n      0x00\n      mstore\n      keccak256(0x00, 0x20)\n      swap1\n      0x05\n      mul\n      add\n      mload(0x40)\n      dup1\n      0xc0\n      add\n      0x40\n      mstore\n      swap1\n      dup2\n      0x00\n      dup3\n      add\n      0x00\n      swap1\n      sload\n      swap1\n      0x0100\n      exp\n      swap1\n      div\n      0x80\n      shl\n      not(0xffffffffffffffffffffffffffffffff)\n      and\n      not(0xffffffffffffffffffffffffffffffff)\n      and\n      dup2\n      mstore\n      0x20\n      add\n      0x00\n      dup3\n      add\n      0x10\n      swap1\n      sload\n      swap1\n      0x0100\n      exp\n      swap1\n      div\n      0x80\n      shl\n      not(0xffffffffffffffffffffffffffffffff)\n      and\n      not(0xffffffffffffffffffffffffffffffff)\n      and\n      dup2\n      mstore\n      0x20\n      add\n      0x01\n      dup3\n      add\n      0x00\n      swap1\n      sload\n      swap1\n      0x0100\n      exp\n      swap1\n      div\n      0xffffffffffffffff\n      and\n      0xffffffffffffffff\n      and\n      0xffffffffffffffff\n      and\n      dup2\n      mstore\n      0x20\n      add\n      0x02\n      dup3\n      add\n      dup1\n      sload\n      dup1\n      0x20\n      mul\n      0x20\n      add\n      mload(0x40)\n      swap1\n      dup2\n      add\n      0x40\n      mstore\n      dup1\n      swap3\n      swap2\n      swap1\n      dup2\n      dup2\n      mstore\n      0x20\n      add\n      dup3\n      dup1\n      sload\n      dup1\n      iszero\n      tag_71\n      jumpi\n      0x20\n      mul\n      dup3\n      add\n      swap2\n      swap1\n      0x00\n      mstore\n      keccak256(0x00, 0x20)\n      swap1\n    tag_72:\n      dup2\n      0x00\n      swap1\n      sload\n      swap1\n      0x0100\n      exp\n      swap1\n      div\n      0xffffffffffffffffffffffffffffffffffffffff\n      and\n      0xffffffffffffffffffffffffffffffffffffffff\n      and\n      dup2\n      mstore\n      0x20\n      add\n      swap1\n      0x01\n      add\n      swap1\n      dup1\n      dup4\n      gt\n      tag_72\n      jumpi\n    tag_71:\n      pop\n      pop\n      pop\n      pop\n      pop\n      dup2\n      mstore\n      0x20\n      add\n      0x03\n      dup3\n      add\n      dup1\n      sload\n      dup1\n      0x20\n      mul\n      0x20\n      add\n      mload(0x40)\n      swap1\n      dup2\n      add\n      0x40\n      mstore\n      dup1\n      swap3\n      swap2\n      swap1\n      dup2\n      dup2\n      mstore\n      0x20\n      add\n      dup3\n      dup1\n      sload\n      dup1\n      iszero\n      tag_73\n      jumpi\n      0x20\n      mul\n      dup3\n      add\n      swap2\n      swap1\n      0x00\n      mstore\n      keccak256(0x00, 0x20)\n      swap1\n    tag_74:\n      dup2\n      0x00\n      swap1\n      sload\n      swap1\n      0x0100\n      exp\n      swap1\n      div\n      0xffffffffffffffffffffffffffffffffffffffff\n      and\n      0xffffffffffffffffffffffffffffffffffffffff\n      and\n      dup2\n      mstore\n      0x20\n      add\n      swap1\n      0x01\n      add\n      swap1\n      dup1\n      dup4\n      gt\n      tag_74\n      jumpi\n    tag_73:\n      pop\n      pop\n      pop\n      pop\n      pop\n      dup2\n      mstore\n      0x20\n      add\n      0x04\n      dup3\n      add\n      dup1\n      sload\n      tag_75\n      swap1\n      tag_76\n      jump\t// in\n    tag_75:\n      dup1\n      0x1f\n      add\n      0x20\n      dup1\n      swap2\n      div\n      mul\n      0x20\n      add\n      mload(0x40)\n      swap1\n      dup2\n      add\n      0x40\n      mstore\n      dup1\n      swap3\n      swap2\n      swap1\n      dup2\n      dup2\n      mstore\n      0x20\n      add\n      dup3\n      dup1\n      sload\n      tag_77\n      swap1\n      tag_76\n      jump\t// in\n    tag_77:\n      dup1\n      iszero\n      tag_78\n      jumpi\n      dup1\n      0x1f\n      lt\n      tag_79\n      jumpi\n      0x0100\n      dup1\n      dup4\n      sload\n      div\n      mul\n      dup4\n      mstore\n      swap2\n      0x20\n      add\n      swap2\n      jump(tag_78)\n    tag_79:\n      dup3\n      add\n      swap2\n      swap1\n      0x00\n      mstore\n      keccak256(0x00, 0x20)\n      swap1\n    tag_80:\n      dup2\n      sload\n      dup2\n      mstore\n      swap1\n      0x01\n      add\n      swap1\n      0x20\n      add\n      dup1\n      dup4\n      gt\n      tag_80\n      jumpi\n      dup3\n      swap1\n      sub\n      0x1f\n      and\n      dup3\n      add\n      swap2\n    tag_78:\n      pop\n      pop\n      pop\n      pop\n      pop\n      dup2\n      mstore\n      pop\n      pop\n      dup2\n      mstore\n      0x20\n      add\n      swap1\n      0x01\n      add\n      swap1\n      jump(tag_68)\n    tag_69:\n      pop\n      pop\n      pop\n      pop\n      swap2\n      pop\n      pop\n        /* \"src/ConfidentialStore.sol\":1963:2206  function fetchDataRecords(uint64 cond, string memory namespace) public view returns (Suave.DataRecord[] memory) {... */\n      swap3\n      swap2\n      pop\n      pop\n      jump\t// out\n        /* \"src/ConfidentialStore.sol\":2212:2686  function confidentialStore(Suave.DataId dataId, string memory key, bytes memory value) public {... */\n    tag_38:\n        /* \"src/ConfidentialStore.sol\":2316:2346  address[] memory allowedStores */\n      0x00\n        /* \"src/ConfidentialStore.sol\":2349:2360  dataRecords */\n      0x02\n        /* \"src/ConfidentialStore.sol\":2349:2368  dataRecords[dataId] */\n      0x00\n        /* \"src/ConfidentialStore.sol\":2361:2367  dataId */\n      dup6\n        /* \"src/ConfidentialStore.sol\":2349:2368  dataRecords[dataId] */\n      not(0xffffffffffffffffffffffffffffffff)\n      and\n      not(0xffffffffffffffffffffffffffffffff)\n      and\n      dup2\n      mstore\n      0x20\n      add\n      swap1\n      dup2\n      mstore\n      0x20\n      add\n      0x00\n      keccak256\n        /* \"src/ConfidentialStore.sol\":2349:2382  dataRecords[dataId].allowedStores */\n      0x03\n      add\n        /* \"src/ConfidentialStore.sol\":2316:2382  address[] memory allowedStores = dataRecords[dataId].allowedStores */\n      dup1\n      sload\n      dup1\n      0x20\n      mul\n      0x20\n      add\n      mload(0x40)\n      swap1\n      dup2\n      add\n      0x40\n      mstore\n      dup1\n      swap3\n      swap2\n      swap1\n      dup2\n      dup2\n      mstore\n      0x20\n      add\n      dup3\n      dup1\n      sload\n      dup1\n      iszero\n      tag_82\n      jumpi\n      0x20\n      mul\n      dup3\n      add\n      swap2\n      swap1\n      0x00\n      mstore\n      keccak256(0x00, 0x20)\n      swap1\n    tag_83:\n      dup2\n      0x00\n      swap1\n      sload\n      swap1\n      0x0100\n      exp\n      swap1\n      div\n      0xffffffffffffffffffffffffffffffffffffffff\n      and\n      0xffffffffffffffffffffffffffffffffffffffff\n      and\n      dup2\n      mstore\n      0x20\n      add\n      swap1\n      0x01\n      add\n      swap1\n      dup1\n      dup4\n      gt\n      tag_83\n      jumpi\n    tag_82:\n      pop\n      pop\n      pop\n      pop\n      pop\n      swap1\n      pop\n        /* \"src/ConfidentialStore.sol\":2397:2406  uint256 i */\n      0x00\n        /* \"src/ConfidentialStore.sol\":2392:2639  for (uint256 i = 0; i < allowedStores.length; i++) {... */\n    tag_84:\n        /* \"src/ConfidentialStore.sol\":2416:2429  allowedStores */\n      dup2\n        /* \"src/ConfidentialStore.sol\":2416:2436  allowedStores.length */\n      mload\n        /* \"src/ConfidentialStore.sol\":2412:2413  i */\n      dup2\n        /* \"src/ConfidentialStore.sol\":2412:2436  i < allowedStores.length */\n      lt\n        /* \"src/ConfidentialStore.sol\":2392:2639  for (uint256 i = 0; i < allowedStores.length; i++) {... */\n      iszero\n      tag_85\n      jumpi\n        /* \"src/ConfidentialStore.sol\":2481:2491  msg.sender */\n      caller\n        /* \"src/ConfidentialStore.sol\":2461:2491  allowedStores[i] == msg.sender */\n      0xffffffffffffffffffffffffffffffffffffffff\n      and\n        /* \"src/ConfidentialStore.sol\":2461:2474  allowedStores */\n      dup3\n        /* \"src/ConfidentialStore.sol\":2475:2476  i */\n      dup3\n        /* \"src/ConfidentialStore.sol\":2461:2477  allowedStores[i] */\n      dup2\n      mload\n      dup2\n      lt\n      tag_87\n      jumpi\n      tag_88\n      tag_89\n      jump\t// in\n    tag_88:\n    tag_87:\n      0x20\n      mul\n      0x20\n      add\n      add\n      mload\n        /* \"src/ConfidentialStore.sol\":2461:2491  allowedStores[i] == msg.sender */\n      0xffffffffffffffffffffffffffffffffffffffff\n      and\n      eq\n        /* \"src/ConfidentialStore.sol\":2461:2531  allowedStores[i] == msg.sender || allowedStores[i] == Suave.ANYALLOWED */\n      dup1\n      tag_90\n      jumpi\n      pop\n        /* \"src/Suave.sol\":3425:3467  0xC8df3686b4Afb2BB53e60EAe97EF043FE03Fb829 */\n      0xc8df3686b4afb2bb53e60eae97ef043fe03fb829\n        /* \"src/ConfidentialStore.sol\":2495:2531  allowedStores[i] == Suave.ANYALLOWED */\n      0xffffffffffffffffffffffffffffffffffffffff\n      and\n        /* \"src/ConfidentialStore.sol\":2495:2508  allowedStores */\n      dup3\n        /* \"src/ConfidentialStore.sol\":2509:2510  i */\n      dup3\n        /* \"src/ConfidentialStore.sol\":2495:2511  allowedStores[i] */\n      dup2\n      mload\n      dup2\n      lt\n      tag_91\n      jumpi\n      tag_92\n      tag_89\n      jump\t// in\n    tag_92:\n    tag_91:\n      0x20\n      mul\n      0x20\n      add\n      add\n      mload\n        /* \"src/ConfidentialStore.sol\":2495:2531  allowedStores[i] == Suave.ANYALLOWED */\n      0xffffffffffffffffffffffffffffffffffffffff\n      and\n      eq\n        /* \"src/ConfidentialStore.sol\":2461:2531  allowedStores[i] == msg.sender || allowedStores[i] == Suave.ANYALLOWED */\n    tag_90:\n        /* \"src/ConfidentialStore.sol\":2457:2629  if (allowedStores[i] == msg.sender || allowedStores[i] == Suave.ANYALLOWED) {... */\n      iszero\n      tag_93\n      jumpi\n        /* \"src/ConfidentialStore.sol\":2585:2590  value */\n      dup3\n        /* \"src/ConfidentialStore.sol\":2551:2569  dataRecordsContent */\n      0x01\n        /* \"src/ConfidentialStore.sol\":2551:2577  dataRecordsContent[dataId] */\n      0x00\n        /* \"src/ConfidentialStore.sol\":2570:2576  dataId */\n      dup8\n        /* \"src/ConfidentialStore.sol\":2551:2577  dataRecordsContent[dataId] */\n      not(0xffffffffffffffffffffffffffffffff)\n      and\n      not(0xffffffffffffffffffffffffffffffff)\n      and\n      dup2\n      mstore\n      0x20\n      add\n      swap1\n      dup2\n      mstore\n      0x20\n      add\n      0x00\n      keccak256\n        /* \"src/ConfidentialStore.sol\":2578:2581  key */\n      dup6\n        /* \"src/ConfidentialStore.sol\":2551:2582  dataRecordsContent[dataId][key] */\n      mload(0x40)\n      tag_94\n      swap2\n      swap1\n      tag_95\n      jump\t// in\n    tag_94:\n      swap1\n      dup2\n      mstore\n      0x20\n      add\n      mload(0x40)\n      dup1\n      swap2\n      sub\n      swap1\n      keccak256\n        /* \"src/ConfidentialStore.sol\":2551:2590  dataRecordsContent[dataId][key] = value */\n      swap1\n      dup2\n      tag_96\n      swap2\n      swap1\n      tag_97\n      jump\t// in\n    tag_96:\n      pop\n        /* \"src/ConfidentialStore.sol\":2608:2615  return; */\n      pop\n      pop\n      jump(tag_81)\n        /* \"src/ConfidentialStore.sol\":2457:2629  if (allowedStores[i] == msg.sender || allowedStores[i] == Suave.ANYALLOWED) {... */\n    tag_93:\n        /* \"src/ConfidentialStore.sol\":2438:2441  i++ */\n      dup1\n      dup1\n      0x01\n      add\n      swap2\n      pop\n      pop\n        /* \"src/ConfidentialStore.sol\":2392:2639  for (uint256 i = 0; i < allowedStores.length; i++) {... */\n      jump(tag_84)\n    tag_85:\n      pop\n        /* \"src/ConfidentialStore.sol\":2649:2679  revert(\"Not allowed to store\") */\n      mload(0x40)\n      0x08c379a000000000000000000000000000000000000000000000000000000000\n      dup2\n      mstore\n      0x04\n      add\n      tag_98\n      swap1\n      tag_99\n      jump\t// in\n    tag_98:\n      mload(0x40)\n      dup1\n      swap2\n      sub\n      swap1\n      revert\n        /* \"src/ConfidentialStore.sol\":2212:2686  function confidentialStore(Suave.DataId dataId, string memory key, bytes memory value) public {... */\n    tag_81:\n      pop\n      pop\n      pop\n      jump\t// out\n        /* \"src/ConfidentialStore.sol\":2692:3160  function confidentialRetrieve(Suave.DataId dataId, string memory key) public view returns (bytes memory) {... */\n    tag_42:\n        /* \"src/ConfidentialStore.sol\":2783:2795  bytes memory */\n      0x60\n        /* \"src/ConfidentialStore.sol\":2807:2838  address[] memory allowedPeekers */\n      0x00\n        /* \"src/ConfidentialStore.sol\":2841:2852  dataRecords */\n      0x02\n        /* \"src/ConfidentialStore.sol\":2841:2860  dataRecords[dataId] */\n      0x00\n        /* \"src/ConfidentialStore.sol\":2853:2859  dataId */\n      dup6\n        /* \"src/ConfidentialStore.sol\":2841:2860  dataRecords[dataId] */\n      not(0xffffffffffffffffffffffffffffffff)\n      and\n      not(0xffffffffffffffffffffffffffffffff)\n      and\n      dup2\n      mstore\n      0x20\n      add\n      swap1\n      dup2\n      mstore\n      0x20\n      add\n      0x00\n      keccak256\n        /* \"src/ConfidentialStore.sol\":2841:2875  dataRecords[dataId].allowedPeekers */\n      0x02\n      add\n        /* \"src/ConfidentialStore.sol\":2807:2875  address[] memory allowedPeekers = dataRecords[dataId].allowedPeekers */\n      dup1\n      sload\n      dup1\n      0x20\n      mul\n      0x20\n      add\n      mload(0x40)\n      swap1\n      dup2\n      add\n      0x40\n      mstore\n      dup1\n      swap3\n      swap2\n      swap1\n      dup2\n      dup2\n      mstore\n      0x20\n      add\n      dup3\n      dup1\n      sload\n      dup1\n      iszero\n      tag_101\n      jumpi\n      0x20\n      mul\n      dup3\n      add\n      swap2\n      swap1\n      0x00\n      mstore\n      keccak256(0x00, 0x20)\n      swap1\n    tag_102:\n      dup2\n      0x00\n      swap1\n      sload\n      swap1\n      0x0100\n      exp\n      swap1\n      div\n      0xffffffffffffffffffffffffffffffffffffffff\n      and\n      0xffffffffffffffffffffffffffffffffffffffff\n      and\n      dup2\n      mstore\n      0x20\n      add\n      swap1\n      0x01\n      add\n      swap1\n      dup1\n      dup4\n      gt\n      tag_102\n      jumpi\n    tag_101:\n      pop\n      pop\n      pop\n      pop\n      pop\n      swap1\n      pop\n        /* \"src/ConfidentialStore.sol\":2890:2899  uint256 i */\n      0x00\n        /* \"src/ConfidentialStore.sol\":2885:3110  for (uint256 i = 0; i < allowedPeekers.length; i++) {... */\n    tag_103:\n        /* \"src/ConfidentialStore.sol\":2909:2923  allowedPeekers */\n      dup2\n        /* \"src/ConfidentialStore.sol\":2909:2930  allowedPeekers.length */\n      mload\n        /* \"src/ConfidentialStore.sol\":2905:2906  i */\n      dup2\n        /* \"src/ConfidentialStore.sol\":2905:2930  i < allowedPeekers.length */\n      lt\n        /* \"src/ConfidentialStore.sol\":2885:3110  for (uint256 i = 0; i < allowedPeekers.length; i++) {... */\n      iszero\n      tag_104\n      jumpi\n        /* \"src/ConfidentialStore.sol\":2976:2986  msg.sender */\n      caller\n        /* \"src/ConfidentialStore.sol\":2955:2986  allowedPeekers[i] == msg.sender */\n      0xffffffffffffffffffffffffffffffffffffffff\n      and\n        /* \"src/ConfidentialStore.sol\":2955:2969  allowedPeekers */\n      dup3\n        /* \"src/ConfidentialStore.sol\":2970:2971  i */\n      dup3\n        /* \"src/ConfidentialStore.sol\":2955:2972  allowedPeekers[i] */\n      dup2\n      mload\n      dup2\n      lt\n      tag_106\n      jumpi\n      tag_107\n      tag_89\n      jump\t// in\n    tag_107:\n    tag_106:\n      0x20\n      mul\n      0x20\n      add\n      add\n      mload\n        /* \"src/ConfidentialStore.sol\":2955:2986  allowedPeekers[i] == msg.sender */\n      0xffffffffffffffffffffffffffffffffffffffff\n      and\n      eq\n        /* \"src/ConfidentialStore.sol\":2955:3027  allowedPeekers[i] == msg.sender || allowedPeekers[i] == Suave.ANYALLOWED */\n      dup1\n      tag_108\n      jumpi\n      pop\n        /* \"src/Suave.sol\":3425:3467  0xC8df3686b4Afb2BB53e60EAe97EF043FE03Fb829 */\n      0xc8df3686b4afb2bb53e60eae97ef043fe03fb829\n        /* \"src/ConfidentialStore.sol\":2990:3027  allowedPeekers[i] == Suave.ANYALLOWED */\n      0xffffffffffffffffffffffffffffffffffffffff\n      and\n        /* \"src/ConfidentialStore.sol\":2990:3004  allowedPeekers */\n      dup3\n        /* \"src/ConfidentialStore.sol\":3005:3006  i */\n      dup3\n        /* \"src/ConfidentialStore.sol\":2990:3007  allowedPeekers[i] */\n      dup2\n      mload\n      dup2\n      lt\n      tag_109\n      jumpi\n      tag_110\n      tag_89\n      jump\t// in\n    tag_110:\n    tag_109:\n      0x20\n      mul\n      0x20\n      add\n      add\n      mload\n        /* \"src/ConfidentialStore.sol\":2990:3027  allowedPeekers[i] == Suave.ANYALLOWED */\n      0xffffffffffffffffffffffffffffffffffffffff\n      and\n      eq\n        /* \"src/ConfidentialStore.sol\":2955:3027  allowedPeekers[i] == msg.sender || allowedPeekers[i] == Suave.ANYALLOWED */\n    tag_108:\n        /* \"src/ConfidentialStore.sol\":2951:3100  if (allowedPeekers[i] == msg.sender || allowedPeekers[i] == Suave.ANYALLOWED) {... */\n      iszero\n      tag_111\n      jumpi\n        /* \"src/ConfidentialStore.sol\":3054:3072  dataRecordsContent */\n      0x01\n        /* \"src/ConfidentialStore.sol\":3054:3080  dataRecordsContent[dataId] */\n      0x00\n        /* \"src/ConfidentialStore.sol\":3073:3079  dataId */\n      dup7\n        /* \"src/ConfidentialStore.sol\":3054:3080  dataRecordsContent[dataId] */\n      not(0xffffffffffffffffffffffffffffffff)\n      and\n      not(0xffffffffffffffffffffffffffffffff)\n      and\n      dup2\n      mstore\n      0x20\n      add\n      swap1\n      dup2\n      mstore\n      0x20\n      add\n      0x00\n      keccak256\n        /* \"src/ConfidentialStore.sol\":3081:3084  key */\n      dup5\n        /* \"src/ConfidentialStore.sol\":3054:3085  dataRecordsContent[dataId][key] */\n      mload(0x40)\n      tag_112\n      swap2\n      swap1\n      tag_95\n      jump\t// in\n    tag_112:\n      swap1\n      dup2\n      mstore\n      0x20\n      add\n      mload(0x40)\n      dup1\n      swap2\n      sub\n      swap1\n      keccak256\n        /* \"src/ConfidentialStore.sol\":3047:3085  return dataRecordsContent[dataId][key] */\n      dup1\n      sload\n      tag_113\n      swap1\n      tag_76\n      jump\t// in\n    tag_113:\n      dup1\n      0x1f\n      add\n      0x20\n      dup1\n      swap2\n      div\n      mul\n      0x20\n      add\n      mload(0x40)\n      swap1\n      dup2\n      add\n      0x40\n      mstore\n      dup1\n      swap3\n      swap2\n      swap1\n      dup2\n      dup2\n      mstore\n      0x20\n      add\n      dup3\n      dup1\n      sload\n      tag_114\n      swap1\n      tag_76\n      jump\t// in\n    tag_114:\n      dup1\n      iszero\n      tag_115\n      jumpi\n      dup1\n      0x1f\n      lt\n      tag_116\n      jumpi\n      0x0100\n      dup1\n      dup4\n      sload\n      div\n      mul\n      dup4\n      mstore\n      swap2\n      0x20\n      add\n      swap2\n      jump(tag_115)\n    tag_116:\n      dup3\n      add\n      swap2\n      swap1\n      0x00\n      mstore\n      keccak256(0x00, 0x20)\n      swap1\n    tag_117:\n      dup2\n      sload\n      dup2\n      mstore\n      swap1\n      0x01\n      add\n      swap1\n      0x20\n      add\n      dup1\n      dup4\n      gt\n      tag_117\n      jumpi\n      dup3\n      swap1\n      sub\n      0x1f\n      and\n      dup3\n      add\n      swap2\n    tag_115:\n      pop\n      pop\n      pop\n      pop\n      pop\n      swap3\n      pop\n      pop\n      pop\n      jump(tag_100)\n        /* \"src/ConfidentialStore.sol\":2951:3100  if (allowedPeekers[i] == msg.sender || allowedPeekers[i] == Suave.ANYALLOWED) {... */\n    tag_111:\n        /* \"src/ConfidentialStore.sol\":2932:2935  i++ */\n      dup1\n      dup1\n      0x01\n      add\n      swap2\n      pop\n      pop\n        /* \"src/ConfidentialStore.sol\":2885:3110  for (uint256 i = 0; i < allowedPeekers.length; i++) {... */\n      jump(tag_103)\n    tag_104:\n      pop\n        /* \"src/ConfidentialStore.sol\":3120:3153  revert(\"Not allowed to retrieve\") */\n      mload(0x40)\n      0x08c379a000000000000000000000000000000000000000000000000000000000\n      dup2\n      mstore\n      0x04\n      add\n      tag_118\n      swap1\n      tag_119\n      jump\t// in\n    tag_118:\n      mload(0x40)\n      dup1\n      swap2\n      sub\n      swap1\n      revert\n        /* \"src/ConfidentialStore.sol\":2692:3160  function confidentialRetrieve(Suave.DataId dataId, string memory key) public view returns (bytes memory) {... */\n    tag_100:\n      swap3\n      swap2\n      pop\n      pop\n      jump\t// out\n        /* \"src/ConfidentialStore.sol\":581:1603  function newDataRecord(... */\n    tag_48:\n        /* \"src/ConfidentialStore.sol\":775:798  Suave.DataRecord memory */\n      tag_120\n      tag_121\n      jump\t// in\n    tag_120:\n        /* \"src/ConfidentialStore.sol\":810:820  numRecords */\n      0x03\n      0x00\n        /* \"src/ConfidentialStore.sol\":810:822  numRecords++ */\n      dup2\n      dup2\n      swap1\n      sload\n      swap1\n      0x0100\n      exp\n      swap1\n      div\n      0xffffffffffffffff\n      and\n      dup1\n      swap3\n      swap2\n      swap1\n      tag_123\n      swap1\n      tag_124\n      jump\t// in\n    tag_123:\n      swap2\n      swap1\n      0x0100\n      exp\n      dup2\n      sload\n      dup2\n      0xffffffffffffffff\n      mul\n      not\n      and\n      swap1\n      dup4\n      0xffffffffffffffff\n      and\n      mul\n      or\n      swap1\n      sstore\n      pop\n      pop\n        /* \"src/ConfidentialStore.sol\":896:911  Suave.DataId id */\n      0x00\n        /* \"src/ConfidentialStore.sol\":967:977  numRecords */\n      0x03\n      0x00\n      swap1\n      sload\n      swap1\n      0x0100\n      exp\n      swap1\n      div\n      0xffffffffffffffff\n      and\n        /* \"src/ConfidentialStore.sol\":950:978  abi.encodePacked(numRecords) */\n      add(0x20, mload(0x40))\n      tag_125\n      swap2\n      swap1\n      tag_126\n      jump\t// in\n    tag_125:\n      mload(0x40)\n      0x20\n      dup2\n      dup4\n      sub\n      sub\n      dup2\n      mstore\n      swap1\n      0x40\n      mstore\n        /* \"src/ConfidentialStore.sol\":940:979  keccak256(abi.encodePacked(numRecords)) */\n      dup1\n      mload\n      swap1\n      0x20\n      add\n      keccak256\n        /* \"src/ConfidentialStore.sol\":896:981  Suave.DataId id = Suave.DataId.wrap(bytes16(keccak256(abi.encodePacked(numRecords)))) */\n      swap1\n      pop\n        /* \"src/ConfidentialStore.sol\":992:1025  Suave.DataRecord memory newRecord */\n      tag_127\n      tag_121\n      jump\t// in\n    tag_127:\n        /* \"src/ConfidentialStore.sol\":1050:1052  id */\n      dup2\n        /* \"src/ConfidentialStore.sol\":1035:1044  newRecord */\n      dup2\n        /* \"src/ConfidentialStore.sol\":1035:1047  newRecord.id */\n      0x00\n      add\n        /* \"src/ConfidentialStore.sol\":1035:1052  newRecord.id = id */\n      swap1\n      not(0xffffffffffffffffffffffffffffffff)\n      and\n      swap1\n      dup2\n      not(0xffffffffffffffffffffffffffffffff)\n      and\n      dup2\n      mstore\n      pop\n      pop\n        /* \"src/ConfidentialStore.sol\":1094:1113  decryptionCondition */\n      dup7\n        /* \"src/ConfidentialStore.sol\":1062:1071  newRecord */\n      dup2\n        /* \"src/ConfidentialStore.sol\":1062:1091  newRecord.decryptionCondition */\n      0x40\n      add\n        /* \"src/ConfidentialStore.sol\":1062:1113  newRecord.decryptionCondition = decryptionCondition */\n      swap1\n      0xffffffffffffffff\n      and\n      swap1\n      dup2\n      0xffffffffffffffff\n      and\n      dup2\n      mstore\n      pop\n      pop\n        /* \"src/ConfidentialStore.sol\":1150:1164  allowedPeekers */\n      dup6\n        /* \"src/ConfidentialStore.sol\":1123:1132  newRecord */\n      dup2\n        /* \"src/ConfidentialStore.sol\":1123:1147  newRecord.allowedPeekers */\n      0x60\n      add\n        /* \"src/ConfidentialStore.sol\":1123:1164  newRecord.allowedPeekers = allowedPeekers */\n      dup2\n      swap1\n      mstore\n      pop\n        /* \"src/ConfidentialStore.sol\":1200:1213  allowedStores */\n      dup5\n        /* \"src/ConfidentialStore.sol\":1174:1183  newRecord */\n      dup2\n        /* \"src/ConfidentialStore.sol\":1174:1197  newRecord.allowedStores */\n      0x80\n      add\n        /* \"src/ConfidentialStore.sol\":1174:1213  newRecord.allowedStores = allowedStores */\n      dup2\n      swap1\n      mstore\n      pop\n        /* \"src/ConfidentialStore.sol\":1243:1251  dataType */\n      dup4\n        /* \"src/ConfidentialStore.sol\":1223:1232  newRecord */\n      dup2\n        /* \"src/ConfidentialStore.sol\":1223:1240  newRecord.version */\n      0xa0\n      add\n        /* \"src/ConfidentialStore.sol\":1223:1251  newRecord.version = dataType */\n      dup2\n      swap1\n      mstore\n      pop\n        /* \"src/ConfidentialStore.sol\":1322:1331  newRecord */\n      dup1\n        /* \"src/ConfidentialStore.sol\":1304:1315  dataRecords */\n      0x02\n        /* \"src/ConfidentialStore.sol\":1304:1319  dataRecords[id] */\n      0x00\n        /* \"src/ConfidentialStore.sol\":1316:1318  id */\n      dup5\n        /* \"src/ConfidentialStore.sol\":1304:1319  dataRecords[id] */\n      not(0xffffffffffffffffffffffffffffffff)\n      and\n      not(0xffffffffffffffffffffffffffffffff)\n      and\n      dup2\n      mstore\n      0x20\n      add\n      swap1\n      dup2\n      mstore\n      0x20\n      add\n      0x00\n      keccak256\n        /* \"src/ConfidentialStore.sol\":1304:1331  dataRecords[id] = newRecord */\n      0x00\n      dup3\n      add\n      mload\n      dup2\n      0x00\n      add\n      exp(0x0100, 0x00)\n      dup2\n      sload\n      dup2\n      0xffffffffffffffffffffffffffffffff\n      mul\n      not\n      and\n      swap1\n      dup4\n      0x80\n      shr\n      mul\n      or\n      swap1\n      sstore\n      pop\n      0x20\n      dup3\n      add\n      mload\n      dup2\n      0x00\n      add\n      exp(0x0100, 0x10)\n      dup2\n      sload\n      dup2\n      0xffffffffffffffffffffffffffffffff\n      mul\n      not\n      and\n      swap1\n      dup4\n      0x80\n      shr\n      mul\n      or\n      swap1\n      sstore\n      pop\n      0x40\n      dup3\n      add\n      mload\n      dup2\n      0x01\n      add\n      exp(0x0100, 0x00)\n      dup2\n      sload\n      dup2\n      0xffffffffffffffff\n      mul\n      not\n      and\n      swap1\n      dup4\n      0xffffffffffffffff\n      and\n      mul\n      or\n      swap1\n      sstore\n      pop\n      0x60\n      dup3\n      add\n      mload\n      dup2\n      0x02\n      add\n      swap1\n      dup1\n      mload\n      swap1\n      0x20\n      add\n      swap1\n      tag_128\n      swap3\n      swap2\n      swap1\n      tag_129\n      jump\t// in\n    tag_128:\n      pop\n      0x80\n      dup3\n      add\n      mload\n      dup2\n      0x03\n      add\n      swap1\n      dup1\n      mload\n      swap1\n      0x20\n      add\n      swap1\n      tag_130\n      swap3\n      swap2\n      swap1\n      tag_129\n      jump\t// in\n    tag_130:\n      pop\n      0xa0\n      dup3\n      add\n      mload\n      dup2\n      0x04\n      add\n      swap1\n      dup2\n      tag_131\n      swap2\n      swap1\n      tag_132\n      jump\t// in\n    tag_131:\n      pop\n      swap1\n      pop\n      pop\n        /* \"src/ConfidentialStore.sol\":1432:1443  bytes32 key */\n      0x00\n        /* \"src/ConfidentialStore.sol\":1473:1492  decryptionCondition */\n      dup8\n        /* \"src/ConfidentialStore.sol\":1494:1502  dataType */\n      dup6\n        /* \"src/ConfidentialStore.sol\":1456:1503  abi.encodePacked(decryptionCondition, dataType) */\n      add(0x20, mload(0x40))\n      tag_133\n      swap3\n      swap2\n      swap1\n      tag_67\n      jump\t// in\n    tag_133:\n      mload(0x40)\n      0x20\n      dup2\n      dup4\n      sub\n      sub\n      dup2\n      mstore\n      swap1\n      0x40\n      mstore\n        /* \"src/ConfidentialStore.sol\":1446:1504  keccak256(abi.encodePacked(decryptionCondition, dataType)) */\n      dup1\n      mload\n      swap1\n      0x20\n      add\n      keccak256\n        /* \"src/ConfidentialStore.sol\":1432:1504  bytes32 key = keccak256(abi.encodePacked(decryptionCondition, dataType)) */\n      swap1\n      pop\n        /* \"src/ConfidentialStore.sol\":1514:1548  dataRecordsByConditionAndNamespace */\n      0x00\n        /* \"src/ConfidentialStore.sol\":1514:1553  dataRecordsByConditionAndNamespace[key] */\n      dup1\n        /* \"src/ConfidentialStore.sol\":1549:1552  key */\n      dup3\n        /* \"src/ConfidentialStore.sol\":1514:1553  dataRecordsByConditionAndNamespace[key] */\n      dup2\n      mstore\n      0x20\n      add\n      swap1\n      dup2\n      mstore\n      0x20\n      add\n      0x00\n      keccak256\n        /* \"src/ConfidentialStore.sol\":1559:1568  newRecord */\n      dup3\n        /* \"src/ConfidentialStore.sol\":1514:1569  dataRecordsByConditionAndNamespace[key].push(newRecord) */\n      swap1\n      dup1\n      0x01\n      dup2\n      sload\n      add\n      dup1\n      dup3\n      sstore\n      dup1\n      swap2\n      pop\n      pop\n      0x01\n      swap1\n      sub\n      swap1\n      0x00\n      mstore\n      keccak256(0x00, 0x20)\n      swap1\n      0x05\n      mul\n      add\n      0x00\n      swap1\n      swap2\n      swap1\n      swap2\n      swap1\n      swap2\n      pop\n      0x00\n      dup3\n      add\n      mload\n      dup2\n      0x00\n      add\n      exp(0x0100, 0x00)\n      dup2\n      sload\n      dup2\n      0xffffffffffffffffffffffffffffffff\n      mul\n      not\n      and\n      swap1\n      dup4\n      0x80\n      shr\n      mul\n      or\n      swap1\n      sstore\n      pop\n      0x20\n      dup3\n      add\n      mload\n      dup2\n      0x00\n      add\n      exp(0x0100, 0x10)\n      dup2\n      sload\n      dup2\n      0xffffffffffffffffffffffffffffffff\n      mul\n      not\n      and\n      swap1\n      dup4\n      0x80\n      shr\n      mul\n      or\n      swap1\n      sstore\n      pop\n      0x40\n      dup3\n      add\n      mload\n      dup2\n      0x01\n      add\n      exp(0x0100, 0x00)\n      dup2\n      sload\n      dup2\n      0xffffffffffffffff\n      mul\n      not\n      and\n      swap1\n      dup4\n      0xffffffffffffffff\n      and\n      mul\n      or\n      swap1\n      sstore\n      pop\n      0x60\n      dup3\n      add\n      mload\n      dup2\n      0x02\n      add\n      swap1\n      dup1\n      mload\n      swap1\n      0x20\n      add\n      swap1\n      tag_135\n      swap3\n      swap2\n      swap1\n      tag_129\n      jump\t// in\n    tag_135:\n      pop\n      0x80\n      dup3\n      add\n      mload\n      dup2\n      0x03\n      add\n      swap1\n      dup1\n      mload\n      swap1\n      0x20\n      add\n      swap1\n      tag_136\n      swap3\n      swap2\n      swap1\n      tag_129\n      jump\t// in\n    tag_136:\n      pop\n      0xa0\n      dup3\n      add\n      mload\n      dup2\n      0x04\n      add\n      swap1\n      dup2\n      tag_137\n      swap2\n      swap1\n      tag_132\n      jump\t// in\n    tag_137:\n      pop\n      pop\n      pop\n        /* \"src/ConfidentialStore.sol\":1587:1596  newRecord */\n      dup2\n        /* \"src/ConfidentialStore.sol\":1580:1596  return newRecord */\n      swap4\n      pop\n      pop\n      pop\n      pop\n        /* \"src/ConfidentialStore.sol\":581:1603  function newDataRecord(... */\n      swap5\n      swap4\n      pop\n      pop\n      pop\n      pop\n      jump\t// out\n        /* \"src/ConfidentialStore.sol\":3427:3494  function test() pure public returns (int) {... */\n    tag_52:\n        /* \"src/ConfidentialStore.sol\":3464:3467  int */\n      0x00\n        /* \"src/ConfidentialStore.sol\":3486:3487  1 */\n      0x01\n        /* \"src/ConfidentialStore.sol\":3479:3487  return 1 */\n      swap1\n      pop\n        /* \"src/ConfidentialStore.sol\":3427:3494  function test() pure public returns (int) {... */\n      swap1\n      jump\t// out\n        /* \"src/ConfidentialStore.sol\":3166:3421  function buy(Suave.DataId dataId) public {... */\n    tag_58:\n        /* \"src/ConfidentialStore.sol\":3217:3249  address[] storage allowedPeekers */\n      0x00\n        /* \"src/ConfidentialStore.sol\":3252:3263  dataRecords */\n      0x02\n        /* \"src/ConfidentialStore.sol\":3252:3271  dataRecords[dataId] */\n      0x00\n        /* \"src/ConfidentialStore.sol\":3264:3270  dataId */\n      dup4\n        /* \"src/ConfidentialStore.sol\":3252:3271  dataRecords[dataId] */\n      not(0xffffffffffffffffffffffffffffffff)\n      and\n      not(0xffffffffffffffffffffffffffffffff)\n      and\n      dup2\n      mstore\n      0x20\n      add\n      swap1\n      dup2\n      mstore\n      0x20\n      add\n      0x00\n      keccak256\n        /* \"src/ConfidentialStore.sol\":3252:3286  dataRecords[dataId].allowedPeekers */\n      0x02\n      add\n        /* \"src/ConfidentialStore.sol\":3217:3286  address[] storage allowedPeekers = dataRecords[dataId].allowedPeekers */\n      swap1\n      pop\n        /* \"src/ConfidentialStore.sol\":3296:3310  allowedPeekers */\n      dup1\n        /* \"src/ConfidentialStore.sol\":3316:3326  msg.sender */\n      caller\n        /* \"src/ConfidentialStore.sol\":3296:3327  allowedPeekers.push(msg.sender) */\n      swap1\n      dup1\n      0x01\n      dup2\n      sload\n      add\n      dup1\n      dup3\n      sstore\n      dup1\n      swap2\n      pop\n      pop\n      0x01\n      swap1\n      sub\n      swap1\n      0x00\n      mstore\n      keccak256(0x00, 0x20)\n      add\n      0x00\n      swap1\n      swap2\n      swap1\n      swap2\n      swap1\n      swap2\n      0x0100\n      exp\n      dup2\n      sload\n      dup2\n      0xffffffffffffffffffffffffffffffffffffffff\n      mul\n      not\n      and\n      swap1\n      dup4\n      0xffffffffffffffffffffffffffffffffffffffff\n      and\n      mul\n      or\n      swap1\n      sstore\n      pop\n        /* \"src/ConfidentialStore.sol\":3374:3388  allowedPeekers */\n      dup1\n        /* \"src/ConfidentialStore.sol\":3337:3348  dataRecords */\n      0x02\n        /* \"src/ConfidentialStore.sol\":3337:3356  dataRecords[dataId] */\n      0x00\n        /* \"src/ConfidentialStore.sol\":3349:3355  dataId */\n      dup5\n        /* \"src/ConfidentialStore.sol\":3337:3356  dataRecords[dataId] */\n      not(0xffffffffffffffffffffffffffffffff)\n      and\n      not(0xffffffffffffffffffffffffffffffff)\n      and\n      dup2\n      mstore\n      0x20\n      add\n      swap1\n      dup2\n      mstore\n      0x20\n      add\n      0x00\n      keccak256\n        /* \"src/ConfidentialStore.sol\":3337:3371  dataRecords[dataId].allowedPeekers */\n      0x02\n      add\n        /* \"src/ConfidentialStore.sol\":3337:3388  dataRecords[dataId].allowedPeekers = allowedPeekers */\n      swap1\n      dup1\n      sload\n      tag_141\n      swap3\n      swap2\n      swap1\n      tag_142\n      jump\t// in\n    tag_141:\n      pop\n        /* \"src/ConfidentialStore.sol\":3403:3414  Buy(dataId) */\n      0x0a4fc65dce70d2a26ed1967e184e70bc2bda6fce012a2752def262017864a17a\n        /* \"src/ConfidentialStore.sol\":3407:3413  dataId */\n      dup3\n        /* \"src/ConfidentialStore.sol\":3403:3414  Buy(dataId) */\n      mload(0x40)\n      tag_143\n      swap2\n      swap1\n      tag_18\n      jump\t// in\n    tag_143:\n      mload(0x40)\n      dup1\n      swap2\n      sub\n      swap1\n      log1\n        /* \"src/ConfidentialStore.sol\":3207:3421  {... */\n      pop\n        /* \"src/ConfidentialStore.sol\":3166:3421  function buy(Suave.DataId dataId) public {... */\n      pop\n      jump\t// out\n    tag_121:\n      mload(0x40)\n      dup1\n      0xc0\n      add\n      0x40\n      mstore\n      dup1\n      and(not(0xffffffffffffffffffffffffffffffff), 0x00)\n      dup2\n      mstore\n      0x20\n      add\n      and(not(0xffffffffffffffffffffffffffffffff), 0x00)\n      dup2\n      mstore\n      0x20\n      add\n      and(0xffffffffffffffff, 0x00)\n      dup2\n      mstore\n      0x20\n      add\n      0x60\n      dup2\n      mstore\n      0x20\n      add\n      0x60\n      dup2\n      mstore\n      0x20\n      add\n      0x60\n      dup2\n      mstore\n      pop\n      swap1\n      jump\t// out\n    tag_129:\n      dup3\n      dup1\n      sload\n      dup3\n      dup3\n      sstore\n      swap1\n      0x00\n      mstore\n      keccak256(0x00, 0x20)\n      swap1\n      dup2\n      add\n      swap3\n      dup3\n      iszero\n      tag_144\n      jumpi\n      swap2\n      0x20\n      mul\n      dup3\n      add\n    tag_145:\n      dup3\n      dup2\n      gt\n      iszero\n      tag_146\n      jumpi\n      dup3\n      mload\n      dup3\n      exp(0x0100, 0x00)\n      dup2\n      sload\n      dup2\n      0xffffffffffffffffffffffffffffffffffffffff\n      mul\n      not\n      and\n      swap1\n      dup4\n      0xffffffffffffffffffffffffffffffffffffffff\n      and\n      mul\n      or\n      swap1\n      sstore\n      pop\n      swap2\n      0x20\n      add\n      swap2\n      swap1\n      0x01\n      add\n      swap1\n      jump(tag_145)\n    tag_146:\n    tag_144:\n      pop\n      swap1\n      pop\n      tag_147\n      swap2\n      swap1\n      tag_148\n      jump\t// in\n    tag_147:\n      pop\n      swap1\n      jump\t// out\n    tag_142:\n      dup3\n      dup1\n      sload\n      dup3\n      dup3\n      sstore\n      swap1\n      0x00\n      mstore\n      keccak256(0x00, 0x20)\n      swap1\n      dup2\n      add\n      swap3\n      dup3\n      iszero\n      tag_149\n      jumpi\n      0x00\n      mstore\n      keccak256(0x00, 0x20)\n      swap2\n      dup3\n      add\n    tag_150:\n      dup3\n      dup2\n      gt\n      iszero\n      tag_151\n      jumpi\n      dup3\n      sload\n      dup3\n      sstore\n      swap2\n      0x01\n      add\n      swap2\n      swap1\n      0x01\n      add\n      swap1\n      jump(tag_150)\n    tag_151:\n    tag_149:\n      pop\n      swap1\n      pop\n      tag_152\n      swap2\n      swap1\n      tag_148\n      jump\t// in\n    tag_152:\n      pop\n      swap1\n      jump\t// out\n    tag_148:\n    tag_153:\n      dup1\n      dup3\n      gt\n      iszero\n      tag_154\n      jumpi\n      0x00\n      dup2\n      0x00\n      swap1\n      sstore\n      pop\n      0x01\n      add\n      jump(tag_153)\n    tag_154:\n      pop\n      swap1\n      jump\t// out\n        /* \"#utility.yul\":7:82   */\n    tag_155:\n        /* \"#utility.yul\":40:46   */\n      0x00\n        /* \"#utility.yul\":73:75   */\n      0x40\n        /* \"#utility.yul\":67:76   */\n      mload\n        /* \"#utility.yul\":57:76   */\n      swap1\n      pop\n        /* \"#utility.yul\":7:82   */\n      swap1\n      jump\t// out\n        /* \"#utility.yul\":88:205   */\n    tag_156:\n        /* \"#utility.yul\":197:198   */\n      0x00\n        /* \"#utility.yul\":194:195   */\n      dup1\n        /* \"#utility.yul\":187:199   */\n      revert\n        /* \"#utility.yul\":211:328   */\n    tag_157:\n        /* \"#utility.yul\":320:321   */\n      0x00\n        /* \"#utility.yul\":317:318   */\n      dup1\n        /* \"#utility.yul\":310:322   */\n      revert\n        /* \"#utility.yul\":334:424   */\n    tag_158:\n        /* \"#utility.yul\":369:376   */\n      0x00\n        /* \"#utility.yul\":412:417   */\n      dup2\n        /* \"#utility.yul\":409:410   */\n      0x07\n        /* \"#utility.yul\":398:418   */\n      signextend\n        /* \"#utility.yul\":387:418   */\n      swap1\n      pop\n        /* \"#utility.yul\":334:424   */\n      swap2\n      swap1\n      pop\n      jump\t// out\n        /* \"#utility.yul\":430:548   */\n    tag_159:\n        /* \"#utility.yul\":501:523   */\n      tag_261\n        /* \"#utility.yul\":517:522   */\n      dup2\n        /* \"#utility.yul\":501:523   */\n      tag_158\n      jump\t// in\n    tag_261:\n        /* \"#utility.yul\":494:499   */\n      dup2\n        /* \"#utility.yul\":491:524   */\n      eq\n        /* \"#utility.yul\":481:542   */\n      tag_262\n      jumpi\n        /* \"#utility.yul\":538:539   */\n      0x00\n        /* \"#utility.yul\":535:536   */\n      dup1\n        /* \"#utility.yul\":528:540   */\n      revert\n        /* \"#utility.yul\":481:542   */\n    tag_262:\n        /* \"#utility.yul\":430:548   */\n      pop\n      jump\t// out\n        /* \"#utility.yul\":554:689   */\n    tag_160:\n        /* \"#utility.yul\":598:603   */\n      0x00\n        /* \"#utility.yul\":636:642   */\n      dup2\n        /* \"#utility.yul\":623:643   */\n      calldataload\n        /* \"#utility.yul\":614:643   */\n      swap1\n      pop\n        /* \"#utility.yul\":652:683   */\n      tag_264\n        /* \"#utility.yul\":677:682   */\n      dup2\n        /* \"#utility.yul\":652:683   */\n      tag_159\n      jump\t// in\n    tag_264:\n        /* \"#utility.yul\":554:689   */\n      swap3\n      swap2\n      pop\n      pop\n      jump\t// out\n        /* \"#utility.yul\":695:1020   */\n    tag_15:\n        /* \"#utility.yul\":752:758   */\n      0x00\n        /* \"#utility.yul\":801:803   */\n      0x20\n        /* \"#utility.yul\":789:798   */\n      dup3\n        /* \"#utility.yul\":780:787   */\n      dup5\n        /* \"#utility.yul\":776:799   */\n      sub\n        /* \"#utility.yul\":772:804   */\n      slt\n        /* \"#utility.yul\":769:888   */\n      iszero\n      tag_266\n      jumpi\n        /* \"#utility.yul\":807:886   */\n      tag_267\n      tag_156\n      jump\t// in\n    tag_267:\n        /* \"#utility.yul\":769:888   */\n    tag_266:\n        /* \"#utility.yul\":927:928   */\n      0x00\n        /* \"#utility.yul\":952:1003   */\n      tag_268\n        /* \"#utility.yul\":995:1002   */\n      dup5\n        /* \"#utility.yul\":986:992   */\n      dup3\n        /* \"#utility.yul\":975:984   */\n      dup6\n        /* \"#utility.yul\":971:993   */\n      add\n        /* \"#utility.yul\":952:1003   */\n      tag_160\n      jump\t// in\n    tag_268:\n        /* \"#utility.yul\":942:1003   */\n      swap2\n      pop\n        /* \"#utility.yul\":898:1013   */\n      pop\n        /* \"#utility.yul\":695:1020   */\n      swap3\n      swap2\n      pop\n      pop\n      jump\t// out\n        /* \"#utility.yul\":1026:1176   */\n    tag_161:\n        /* \"#utility.yul\":1063:1070   */\n      0x00\n        /* \"#utility.yul\":1103:1169   */\n      0xffffffffffffffffffffffffffffffff00000000000000000000000000000000\n        /* \"#utility.yul\":1096:1101   */\n      dup3\n        /* \"#utility.yul\":1092:1170   */\n      and\n        /* \"#utility.yul\":1081:1170   */\n      swap1\n      pop\n        /* \"#utility.yul\":1026:1176   */\n      swap2\n      swap1\n      pop\n      jump\t// out\n        /* \"#utility.yul\":1182:1295   */\n    tag_162:\n        /* \"#utility.yul\":1232:1241   */\n      0x00\n        /* \"#utility.yul\":1265:1289   */\n      tag_271\n        /* \"#utility.yul\":1283:1288   */\n      dup3\n        /* \"#utility.yul\":1265:1289   */\n      tag_161\n      jump\t// in\n    tag_271:\n        /* \"#utility.yul\":1252:1289   */\n      swap1\n      pop\n        /* \"#utility.yul\":1182:1295   */\n      swap2\n      swap1\n      pop\n      jump\t// out\n        /* \"#utility.yul\":1301:1458   */\n    tag_163:\n        /* \"#utility.yul\":1414:1451   */\n      tag_273\n        /* \"#utility.yul\":1445:1450   */\n      dup2\n        /* \"#utility.yul\":1414:1451   */\n      tag_162\n      jump\t// in\n    tag_273:\n        /* \"#utility.yul\":1409:1412   */\n      dup3\n        /* \"#utility.yul\":1402:1452   */\n      mstore\n        /* \"#utility.yul\":1301:1458   */\n      pop\n      pop\n      jump\t// out\n        /* \"#utility.yul\":1464:1738   */\n    tag_18:\n        /* \"#utility.yul\":1583:1587   */\n      0x00\n        /* \"#utility.yul\":1621:1623   */\n      0x20\n        /* \"#utility.yul\":1610:1619   */\n      dup3\n        /* \"#utility.yul\":1606:1624   */\n      add\n        /* \"#utility.yul\":1598:1624   */\n      swap1\n      pop\n        /* \"#utility.yul\":1634:1731   */\n      tag_275\n        /* \"#utility.yul\":1728:1729   */\n      0x00\n        /* \"#utility.yul\":1717:1726   */\n      dup4\n        /* \"#utility.yul\":1713:1730   */\n      add\n        /* \"#utility.yul\":1704:1710   */\n      dup5\n        /* \"#utility.yul\":1634:1731   */\n      tag_163\n      jump\t// in\n    tag_275:\n        /* \"#utility.yul\":1464:1738   */\n      swap3\n      swap2\n      pop\n      pop\n      jump\t// out\n        /* \"#utility.yul\":1744:1845   */\n    tag_164:\n        /* \"#utility.yul\":1780:1787   */\n      0x00\n        /* \"#utility.yul\":1820:1838   */\n      0xffffffffffffffff\n        /* \"#utility.yul\":1813:1818   */\n      dup3\n        /* \"#utility.yul\":1809:1839   */\n      and\n        /* \"#utility.yul\":1798:1839   */\n      swap1\n      pop\n        /* \"#utility.yul\":1744:1845   */\n      swap2\n      swap1\n      pop\n      jump\t// out\n        /* \"#utility.yul\":1851:1966   */\n    tag_165:\n        /* \"#utility.yul\":1936:1959   */\n      tag_278\n        /* \"#utility.yul\":1953:1958   */\n      dup2\n        /* \"#utility.yul\":1936:1959   */\n      tag_164\n      jump\t// in\n    tag_278:\n        /* \"#utility.yul\":1931:1934   */\n      dup3\n        /* \"#utility.yul\":1924:1960   */\n      mstore\n        /* \"#utility.yul\":1851:1966   */\n      pop\n      pop\n      jump\t// out\n        /* \"#utility.yul\":1972:2190   */\n    tag_22:\n        /* \"#utility.yul\":2063:2067   */\n      0x00\n        /* \"#utility.yul\":2101:2103   */\n      0x20\n        /* \"#utility.yul\":2090:2099   */\n      dup3\n        /* \"#utility.yul\":2086:2104   */\n      add\n        /* \"#utility.yul\":2078:2104   */\n      swap1\n      pop\n        /* \"#utility.yul\":2114:2183   */\n      tag_280\n        /* \"#utility.yul\":2180:2181   */\n      0x00\n        /* \"#utility.yul\":2169:2178   */\n      dup4\n        /* \"#utility.yul\":2165:2182   */\n      add\n        /* \"#utility.yul\":2156:2162   */\n      dup5\n        /* \"#utility.yul\":2114:2183   */\n      tag_165\n      jump\t// in\n    tag_280:\n        /* \"#utility.yul\":1972:2190   */\n      swap3\n      swap2\n      pop\n      pop\n      jump\t// out\n        /* \"#utility.yul\":2196:2273   */\n    tag_166:\n        /* \"#utility.yul\":2233:2240   */\n      0x00\n        /* \"#utility.yul\":2262:2267   */\n      dup2\n        /* \"#utility.yul\":2251:2267   */\n      swap1\n      pop\n        /* \"#utility.yul\":2196:2273   */\n      swap2\n      swap1\n      pop\n      jump\t// out\n        /* \"#utility.yul\":2279:2401   */\n    tag_167:\n        /* \"#utility.yul\":2352:2376   */\n      tag_283\n        /* \"#utility.yul\":2370:2375   */\n      dup2\n        /* \"#utility.yul\":2352:2376   */\n      tag_166\n      jump\t// in\n    tag_283:\n        /* \"#utility.yul\":2345:2350   */\n      dup2\n        /* \"#utility.yul\":2342:2377   */\n      eq\n        /* \"#utility.yul\":2332:2395   */\n      tag_284\n      jumpi\n        /* \"#utility.yul\":2391:2392   */\n      0x00\n        /* \"#utility.yul\":2388:2389   */\n      dup1\n        /* \"#utility.yul\":2381:2393   */\n      revert\n        /* \"#utility.yul\":2332:2395   */\n    tag_284:\n        /* \"#utility.yul\":2279:2401   */\n      pop\n      jump\t// out\n        /* \"#utility.yul\":2407:2546   */\n    tag_168:\n        /* \"#utility.yul\":2453:2458   */\n      0x00\n        /* \"#utility.yul\":2491:2497   */\n      dup2\n        /* \"#utility.yul\":2478:2498   */\n      calldataload\n        /* \"#utility.yul\":2469:2498   */\n      swap1\n      pop\n        /* \"#utility.yul\":2507:2540   */\n      tag_286\n        /* \"#utility.yul\":2534:2539   */\n      dup2\n        /* \"#utility.yul\":2507:2540   */\n      tag_167\n      jump\t// in\n    tag_286:\n        /* \"#utility.yul\":2407:2546   */\n      swap3\n      swap2\n      pop\n      pop\n      jump\t// out\n        /* \"#utility.yul\":2552:2669   */\n    tag_169:\n        /* \"#utility.yul\":2661:2662   */\n      0x00\n        /* \"#utility.yul\":2658:2659   */\n      dup1\n        /* \"#utility.yul\":2651:2663   */\n      revert\n        /* \"#utility.yul\":2675:2792   */\n    tag_170:\n        /* \"#utility.yul\":2784:2785   */\n      0x00\n        /* \"#utility.yul\":2781:2782   */\n      dup1\n        /* \"#utility.yul\":2774:2786   */\n      revert\n        /* \"#utility.yul\":2798:2900   */\n    tag_171:\n        /* \"#utility.yul\":2839:2845   */\n      0x00\n        /* \"#utility.yul\":2890:2892   */\n      0x1f\n        /* \"#utility.yul\":2886:2893   */\n      not\n        /* \"#utility.yul\":2881:2883   */\n      0x1f\n        /* \"#utility.yul\":2874:2879   */\n      dup4\n        /* \"#utility.yul\":2870:2884   */\n      add\n        /* \"#utility.yul\":2866:2894   */\n      and\n        /* \"#utility.yul\":2856:2894   */\n      swap1\n      pop\n        /* \"#utility.yul\":2798:2900   */\n      swap2\n      swap1\n      pop\n      jump\t// out\n        /* \"#utility.yul\":2906:3086   */\n    tag_172:\n        /* \"#utility.yul\":2954:3031   */\n      0x4e487b7100000000000000000000000000000000000000000000000000000000\n        /* \"#utility.yul\":2951:2952   */\n      0x00\n        /* \"#utility.yul\":2944:3032   */\n      mstore\n        /* \"#utility.yul\":3051:3055   */\n      0x41\n        /* \"#utility.yul\":3048:3049   */\n      0x04\n        /* \"#utility.yul\":3041:3056   */\n      mstore\n        /* \"#utility.yul\":3075:3079   */\n      0x24\n        /* \"#utility.yul\":3072:3073   */\n      0x00\n        /* \"#utility.yul\":3065:3080   */\n      revert\n        /* \"#utility.yul\":3092:3373   */\n    tag_173:\n        /* \"#utility.yul\":3175:3202   */\n      tag_292\n        /* \"#utility.yul\":3197:3201   */\n      dup3\n        /* \"#utility.yul\":3175:3202   */\n      tag_171\n      jump\t// in\n    tag_292:\n        /* \"#utility.yul\":3167:3173   */\n      dup2\n        /* \"#utility.yul\":3163:3203   */\n      add\n        /* \"#utility.yul\":3305:3311   */\n      dup2\n        /* \"#utility.yul\":3293:3303   */\n      dup2\n        /* \"#utility.yul\":3290:3312   */\n      lt\n        /* \"#utility.yul\":3269:3287   */\n      0xffffffffffffffff\n        /* \"#utility.yul\":3257:3267   */\n      dup3\n        /* \"#utility.yul\":3254:3288   */\n      gt\n        /* \"#utility.yul\":3251:3313   */\n      or\n        /* \"#utility.yul\":3248:3336   */\n      iszero\n      tag_293\n      jumpi\n        /* \"#utility.yul\":3316:3334   */\n      tag_294\n      tag_172\n      jump\t// in\n    tag_294:\n        /* \"#utility.yul\":3248:3336   */\n    tag_293:\n        /* \"#utility.yul\":3356:3366   */\n      dup1\n        /* \"#utility.yul\":3352:3354   */\n      0x40\n        /* \"#utility.yul\":3345:3367   */\n      mstore\n        /* \"#utility.yul\":3135:3373   */\n      pop\n        /* \"#utility.yul\":3092:3373   */\n      pop\n      pop\n      jump\t// out\n        /* \"#utility.yul\":3379:3508   */\n    tag_174:\n        /* \"#utility.yul\":3413:3419   */\n      0x00\n        /* \"#utility.yul\":3440:3460   */\n      tag_296\n      tag_155\n      jump\t// in\n    tag_296:\n        /* \"#utility.yul\":3430:3460   */\n      swap1\n      pop\n        /* \"#utility.yul\":3469:3502   */\n      tag_297\n        /* \"#utility.yul\":3497:3501   */\n      dup3\n        /* \"#utility.yul\":3489:3495   */\n      dup3\n        /* \"#utility.yul\":3469:3502   */\n      tag_173\n      jump\t// in\n    tag_297:\n        /* \"#utility.yul\":3379:3508   */\n      swap2\n      swap1\n      pop\n      jump\t// out\n        /* \"#utility.yul\":3514:3822   */\n    tag_175:\n        /* \"#utility.yul\":3576:3580   */\n      0x00\n        /* \"#utility.yul\":3666:3684   */\n      0xffffffffffffffff\n        /* \"#utility.yul\":3658:3664   */\n      dup3\n        /* \"#utility.yul\":3655:3685   */\n      gt\n        /* \"#utility.yul\":3652:3708   */\n      iszero\n      tag_299\n      jumpi\n        /* \"#utility.yul\":3688:3706   */\n      tag_300\n      tag_172\n      jump\t// in\n    tag_300:\n        /* \"#utility.yul\":3652:3708   */\n    tag_299:\n        /* \"#utility.yul\":3726:3755   */\n      tag_301\n        /* \"#utility.yul\":3748:3754   */\n      dup3\n        /* \"#utility.yul\":3726:3755   */\n      tag_171\n      jump\t// in\n    tag_301:\n        /* \"#utility.yul\":3718:3755   */\n      swap1\n      pop\n        /* \"#utility.yul\":3810:3814   */\n      0x20\n        /* \"#utility.yul\":3804:3808   */\n      dup2\n        /* \"#utility.yul\":3800:3815   */\n      add\n        /* \"#utility.yul\":3792:3815   */\n      swap1\n      pop\n        /* \"#utility.yul\":3514:3822   */\n      swap2\n      swap1\n      pop\n      jump\t// out\n        /* \"#utility.yul\":3828:3976   */\n    tag_176:\n        /* \"#utility.yul\":3926:3932   */\n      dup3\n        /* \"#utility.yul\":3921:3924   */\n      dup2\n        /* \"#utility.yul\":3916:3919   */\n      dup4\n        /* \"#utility.yul\":3903:3933   */\n      calldatacopy\n        /* \"#utility.yul\":3967:3968   */\n      0x00\n        /* \"#utility.yul\":3958:3964   */\n      dup4\n        /* \"#utility.yul\":3953:3956   */\n      dup4\n        /* \"#utility.yul\":3949:3965   */\n      add\n        /* \"#utility.yul\":3942:3969   */\n      mstore\n        /* \"#utility.yul\":3828:3976   */\n      pop\n      pop\n      pop\n      jump\t// out\n        /* \"#utility.yul\":3982:4407   */\n    tag_177:\n        /* \"#utility.yul\":4060:4065   */\n      0x00\n        /* \"#utility.yul\":4085:4151   */\n      tag_304\n        /* \"#utility.yul\":4101:4150   */\n      tag_305\n        /* \"#utility.yul\":4143:4149   */\n      dup5\n        /* \"#utility.yul\":4101:4150   */\n      tag_175\n      jump\t// in\n    tag_305:\n        /* \"#utility.yul\":4085:4151   */\n      tag_174\n      jump\t// in\n    tag_304:\n        /* \"#utility.yul\":4076:4151   */\n      swap1\n      pop\n        /* \"#utility.yul\":4174:4180   */\n      dup3\n        /* \"#utility.yul\":4167:4172   */\n      dup2\n        /* \"#utility.yul\":4160:4181   */\n      mstore\n        /* \"#utility.yul\":4212:4216   */\n      0x20\n        /* \"#utility.yul\":4205:4210   */\n      dup2\n        /* \"#utility.yul\":4201:4217   */\n      add\n        /* \"#utility.yul\":4250:4253   */\n      dup5\n        /* \"#utility.yul\":4241:4247   */\n      dup5\n        /* \"#utility.yul\":4236:4239   */\n      dup5\n        /* \"#utility.yul\":4232:4248   */\n      add\n        /* \"#utility.yul\":4229:4254   */\n      gt\n        /* \"#utility.yul\":4226:4338   */\n      iszero\n      tag_306\n      jumpi\n        /* \"#utility.yul\":4257:4336   */\n      tag_307\n      tag_170\n      jump\t// in\n    tag_307:\n        /* \"#utility.yul\":4226:4338   */\n    tag_306:\n        /* \"#utility.yul\":4347:4401   */\n      tag_308\n        /* \"#utility.yul\":4394:4400   */\n      dup5\n        /* \"#utility.yul\":4389:4392   */\n      dup3\n        /* \"#utility.yul\":4384:4387   */\n      dup6\n        /* \"#utility.yul\":4347:4401   */\n      tag_176\n      jump\t// in\n    tag_308:\n        /* \"#utility.yul\":4066:4407   */\n      pop\n        /* \"#utility.yul\":3982:4407   */\n      swap4\n      swap3\n      pop\n      pop\n      pop\n      jump\t// out\n        /* \"#utility.yul\":4427:4767   */\n    tag_178:\n        /* \"#utility.yul\":4483:4488   */\n      0x00\n        /* \"#utility.yul\":4532:4535   */\n      dup3\n        /* \"#utility.yul\":4525:4529   */\n      0x1f\n        /* \"#utility.yul\":4517:4523   */\n      dup4\n        /* \"#utility.yul\":4513:4530   */\n      add\n        /* \"#utility.yul\":4509:4536   */\n      slt\n        /* \"#utility.yul\":4499:4621   */\n      tag_310\n      jumpi\n        /* \"#utility.yul\":4540:4619   */\n      tag_311\n      tag_169\n      jump\t// in\n    tag_311:\n        /* \"#utility.yul\":4499:4621   */\n    tag_310:\n        /* \"#utility.yul\":4657:4663   */\n      dup2\n        /* \"#utility.yul\":4644:4664   */\n      calldataload\n        /* \"#utility.yul\":4682:4761   */\n      tag_312\n        /* \"#utility.yul\":4757:4760   */\n      dup5\n        /* \"#utility.yul\":4749:4755   */\n      dup3\n        /* \"#utility.yul\":4742:4746   */\n      0x20\n        /* \"#utility.yul\":4734:4740   */\n      dup7\n        /* \"#utility.yul\":4730:4747   */\n      add\n        /* \"#utility.yul\":4682:4761   */\n      tag_177\n      jump\t// in\n    tag_312:\n        /* \"#utility.yul\":4673:4761   */\n      swap2\n      pop\n        /* \"#utility.yul\":4489:4767   */\n      pop\n        /* \"#utility.yul\":4427:4767   */\n      swap3\n      swap2\n      pop\n      pop\n      jump\t// out\n        /* \"#utility.yul\":4773:5427   */\n    tag_25:\n        /* \"#utility.yul\":4851:4857   */\n      0x00\n        /* \"#utility.yul\":4859:4865   */\n      dup1\n        /* \"#utility.yul\":4908:4910   */\n      0x40\n        /* \"#utility.yul\":4896:4905   */\n      dup4\n        /* \"#utility.yul\":4887:4894   */\n      dup6\n        /* \"#utility.yul\":4883:4906   */\n      sub\n        /* \"#utility.yul\":4879:4911   */\n      slt\n        /* \"#utility.yul\":4876:4995   */\n      iszero\n      tag_314\n      jumpi\n        /* \"#utility.yul\":4914:4993   */\n      tag_315\n      tag_156\n      jump\t// in\n    tag_315:\n        /* \"#utility.yul\":4876:4995   */\n    tag_314:\n        /* \"#utility.yul\":5034:5035   */\n      0x00\n        /* \"#utility.yul\":5059:5112   */\n      tag_316\n        /* \"#utility.yul\":5104:5111   */\n      dup6\n        /* \"#utility.yul\":5095:5101   */\n      dup3\n        /* \"#utility.yul\":5084:5093   */\n      dup7\n        /* \"#utility.yul\":5080:5102   */\n      add\n        /* \"#utility.yul\":5059:5112   */\n      tag_168\n      jump\t// in\n    tag_316:\n        /* \"#utility.yul\":5049:5112   */\n      swap3\n      pop\n        /* \"#utility.yul\":5005:5122   */\n      pop\n        /* \"#utility.yul\":5189:5191   */\n      0x20\n        /* \"#utility.yul\":5178:5187   */\n      dup4\n        /* \"#utility.yul\":5174:5192   */\n      add\n        /* \"#utility.yul\":5161:5193   */\n      calldataload\n        /* \"#utility.yul\":5220:5238   */\n      0xffffffffffffffff\n        /* \"#utility.yul\":5212:5218   */\n      dup2\n        /* \"#utility.yul\":5209:5239   */\n      gt\n        /* \"#utility.yul\":5206:5323   */\n      iszero\n      tag_317\n      jumpi\n        /* \"#utility.yul\":5242:5321   */\n      tag_318\n      tag_157\n      jump\t// in\n    tag_318:\n        /* \"#utility.yul\":5206:5323   */\n    tag_317:\n        /* \"#utility.yul\":5347:5410   */\n      tag_319\n        /* \"#utility.yul\":5402:5409   */\n      dup6\n        /* \"#utility.yul\":5393:5399   */\n      dup3\n        /* \"#utility.yul\":5382:5391   */\n      dup7\n        /* \"#utility.yul\":5378:5400   */\n      add\n        /* \"#utility.yul\":5347:5410   */\n      tag_178\n      jump\t// in\n    tag_319:\n        /* \"#utility.yul\":5337:5410   */\n      swap2\n      pop\n        /* \"#utility.yul\":5132:5420   */\n      pop\n        /* \"#utility.yul\":4773:5427   */\n      swap3\n      pop\n      swap3\n      swap1\n      pop\n      jump\t// out\n        /* \"#utility.yul\":5433:5510   */\n    tag_179:\n        /* \"#utility.yul\":5470:5477   */\n      0x00\n        /* \"#utility.yul\":5499:5504   */\n      dup2\n        /* \"#utility.yul\":5488:5504   */\n      swap1\n      pop\n        /* \"#utility.yul\":5433:5510   */\n      swap2\n      swap1\n      pop\n      jump\t// out\n        /* \"#utility.yul\":5516:5634   */\n    tag_180:\n        /* \"#utility.yul\":5603:5627   */\n      tag_322\n        /* \"#utility.yul\":5621:5626   */\n      dup2\n        /* \"#utility.yul\":5603:5627   */\n      tag_179\n      jump\t// in\n    tag_322:\n        /* \"#utility.yul\":5598:5601   */\n      dup3\n        /* \"#utility.yul\":5591:5628   */\n      mstore\n        /* \"#utility.yul\":5516:5634   */\n      pop\n      pop\n      jump\t// out\n        /* \"#utility.yul\":5640:5862   */\n    tag_28:\n        /* \"#utility.yul\":5733:5737   */\n      0x00\n        /* \"#utility.yul\":5771:5773   */\n      0x20\n        /* \"#utility.yul\":5760:5769   */\n      dup3\n        /* \"#utility.yul\":5756:5774   */\n      add\n        /* \"#utility.yul\":5748:5774   */\n      swap1\n      pop\n        /* \"#utility.yul\":5784:5855   */\n      tag_324\n        /* \"#utility.yul\":5852:5853   */\n      0x00\n        /* \"#utility.yul\":5841:5850   */\n      dup4\n        /* \"#utility.yul\":5837:5854   */\n      add\n        /* \"#utility.yul\":5828:5834   */\n      dup5\n        /* \"#utility.yul\":5784:5855   */\n      tag_180\n      jump\t// in\n    tag_324:\n        /* \"#utility.yul\":5640:5862   */\n      swap3\n      swap2\n      pop\n      pop\n      jump\t// out\n        /* \"#utility.yul\":5868:5988   */\n    tag_181:\n        /* \"#utility.yul\":5940:5963   */\n      tag_326\n        /* \"#utility.yul\":5957:5962   */\n      dup2\n        /* \"#utility.yul\":5940:5963   */\n      tag_164\n      jump\t// in\n    tag_326:\n        /* \"#utility.yul\":5933:5938   */\n      dup2\n        /* \"#utility.yul\":5930:5964   */\n      eq\n        /* \"#utility.yul\":5920:5982   */\n      tag_327\n      jumpi\n        /* \"#utility.yul\":5978:5979   */\n      0x00\n        /* \"#utility.yul\":5975:5976   */\n      dup1\n        /* \"#utility.yul\":5968:5980   */\n      revert\n        /* \"#utility.yul\":5920:5982   */\n    tag_327:\n        /* \"#utility.yul\":5868:5988   */\n      pop\n      jump\t// out\n        /* \"#utility.yul\":5994:6131   */\n    tag_182:\n        /* \"#utility.yul\":6039:6044   */\n      0x00\n        /* \"#utility.yul\":6077:6083   */\n      dup2\n        /* \"#utility.yul\":6064:6084   */\n      calldataload\n        /* \"#utility.yul\":6055:6084   */\n      swap1\n      pop\n        /* \"#utility.yul\":6093:6125   */\n      tag_329\n        /* \"#utility.yul\":6119:6124   */\n      dup2\n        /* \"#utility.yul\":6093:6125   */\n      tag_181\n      jump\t// in\n    tag_329:\n        /* \"#utility.yul\":5994:6131   */\n      swap3\n      swap2\n      pop\n      pop\n      jump\t// out\n        /* \"#utility.yul\":6137:6789   */\n    tag_31:\n        /* \"#utility.yul\":6214:6220   */\n      0x00\n        /* \"#utility.yul\":6222:6228   */\n      dup1\n        /* \"#utility.yul\":6271:6273   */\n      0x40\n        /* \"#utility.yul\":6259:6268   */\n      dup4\n        /* \"#utility.yul\":6250:6257   */\n      dup6\n        /* \"#utility.yul\":6246:6269   */\n      sub\n        /* \"#utility.yul\":6242:6274   */\n      slt\n        /* \"#utility.yul\":6239:6358   */\n      iszero\n      tag_331\n      jumpi\n        /* \"#utility.yul\":6277:6356   */\n      tag_332\n      tag_156\n      jump\t// in\n    tag_332:\n        /* \"#utility.yul\":6239:6358   */\n    tag_331:\n        /* \"#utility.yul\":6397:6398   */\n      0x00\n        /* \"#utility.yul\":6422:6474   */\n      tag_333\n        /* \"#utility.yul\":6466:6473   */\n      dup6\n        /* \"#utility.yul\":6457:6463   */\n      dup3\n        /* \"#utility.yul\":6446:6455   */\n      dup7\n        /* \"#utility.yul\":6442:6464   */\n      add\n        /* \"#utility.yul\":6422:6474   */\n      tag_182\n      jump\t// in\n    tag_333:\n        /* \"#utility.yul\":6412:6474   */\n      swap3\n      pop\n        /* \"#utility.yul\":6368:6484   */\n      pop\n        /* \"#utility.yul\":6551:6553   */\n      0x20\n        /* \"#utility.yul\":6540:6549   */\n      dup4\n        /* \"#utility.yul\":6536:6554   */\n      add\n        /* \"#utility.yul\":6523:6555   */\n      calldataload\n        /* \"#utility.yul\":6582:6600   */\n      0xffffffffffffffff\n        /* \"#utility.yul\":6574:6580   */\n      dup2\n        /* \"#utility.yul\":6571:6601   */\n      gt\n        /* \"#utility.yul\":6568:6685   */\n      iszero\n      tag_334\n      jumpi\n        /* \"#utility.yul\":6604:6683   */\n      tag_335\n      tag_157\n      jump\t// in\n    tag_335:\n        /* \"#utility.yul\":6568:6685   */\n    tag_334:\n        /* \"#utility.yul\":6709:6772   */\n      tag_336\n        /* \"#utility.yul\":6764:6771   */\n      dup6\n        /* \"#utility.yul\":6755:6761   */\n      dup3\n        /* \"#utility.yul\":6744:6753   */\n      dup7\n        /* \"#utility.yul\":6740:6762   */\n      add\n        /* \"#utility.yul\":6709:6772   */\n      tag_178\n      jump\t// in\n    tag_336:\n        /* \"#utility.yul\":6699:6772   */\n      swap2\n      pop\n        /* \"#utility.yul\":6494:6782   */\n      pop\n        /* \"#utility.yul\":6137:6789   */\n      swap3\n      pop\n      swap3\n      swap1\n      pop\n      jump\t// out\n        /* \"#utility.yul\":6795:6936   */\n    tag_183:\n        /* \"#utility.yul\":6889:6895   */\n      0x00\n        /* \"#utility.yul\":6923:6928   */\n      dup2\n        /* \"#utility.yul\":6917:6929   */\n      mload\n        /* \"#utility.yul\":6907:6929   */\n      swap1\n      pop\n        /* \"#utility.yul\":6795:6936   */\n      swap2\n      swap1\n      pop\n      jump\t// out\n        /* \"#utility.yul\":6942:7153   */\n    tag_184:\n        /* \"#utility.yul\":7068:7079   */\n      0x00\n        /* \"#utility.yul\":7102:7108   */\n      dup3\n        /* \"#utility.yul\":7097:7100   */\n      dup3\n        /* \"#utility.yul\":7090:7109   */\n      mstore\n        /* \"#utility.yul\":7142:7146   */\n      0x20\n        /* \"#utility.yul\":7137:7140   */\n      dup3\n        /* \"#utility.yul\":7133:7147   */\n      add\n        /* \"#utility.yul\":7118:7147   */\n      swap1\n      pop\n        /* \"#utility.yul\":6942:7153   */\n      swap3\n      swap2\n      pop\n      pop\n      jump\t// out\n        /* \"#utility.yul\":7159:7318   */\n    tag_185:\n        /* \"#utility.yul\":7253:7257   */\n      0x00\n        /* \"#utility.yul\":7276:7279   */\n      dup2\n        /* \"#utility.yul\":7268:7279   */\n      swap1\n      pop\n        /* \"#utility.yul\":7306:7310   */\n      0x20\n        /* \"#utility.yul\":7301:7304   */\n      dup3\n        /* \"#utility.yul\":7297:7311   */\n      add\n        /* \"#utility.yul\":7289:7311   */\n      swap1\n      pop\n        /* \"#utility.yul\":7159:7318   */\n      swap2\n      swap1\n      pop\n      jump\t// out\n        /* \"#utility.yul\":7324:7471   */\n    tag_186:\n        /* \"#utility.yul\":7427:7464   */\n      tag_341\n        /* \"#utility.yul\":7458:7463   */\n      dup2\n        /* \"#utility.yul\":7427:7464   */\n      tag_162\n      jump\t// in\n    tag_341:\n        /* \"#utility.yul\":7422:7425   */\n      dup3\n        /* \"#utility.yul\":7415:7465   */\n      mstore\n        /* \"#utility.yul\":7324:7471   */\n      pop\n      pop\n      jump\t// out\n        /* \"#utility.yul\":7477:7582   */\n    tag_187:\n        /* \"#utility.yul\":7552:7575   */\n      tag_343\n        /* \"#utility.yul\":7569:7574   */\n      dup2\n        /* \"#utility.yul\":7552:7575   */\n      tag_164\n      jump\t// in\n    tag_343:\n        /* \"#utility.yul\":7547:7550   */\n      dup3\n        /* \"#utility.yul\":7540:7576   */\n      mstore\n        /* \"#utility.yul\":7477:7582   */\n      pop\n      pop\n      jump\t// out\n        /* \"#utility.yul\":7588:7702   */\n    tag_188:\n        /* \"#utility.yul\":7655:7661   */\n      0x00\n        /* \"#utility.yul\":7689:7694   */\n      dup2\n        /* \"#utility.yul\":7683:7695   */\n      mload\n        /* \"#utility.yul\":7673:7695   */\n      swap1\n      pop\n        /* \"#utility.yul\":7588:7702   */\n      swap2\n      swap1\n      pop\n      jump\t// out\n        /* \"#utility.yul\":7708:7882   */\n    tag_189:\n        /* \"#utility.yul\":7797:7808   */\n      0x00\n        /* \"#utility.yul\":7831:7837   */\n      dup3\n        /* \"#utility.yul\":7826:7829   */\n      dup3\n        /* \"#utility.yul\":7819:7838   */\n      mstore\n        /* \"#utility.yul\":7871:7875   */\n      0x20\n        /* \"#utility.yul\":7866:7869   */\n      dup3\n        /* \"#utility.yul\":7862:7876   */\n      add\n        /* \"#utility.yul\":7847:7876   */\n      swap1\n      pop\n        /* \"#utility.yul\":7708:7882   */\n      swap3\n      swap2\n      pop\n      pop\n      jump\t// out\n        /* \"#utility.yul\":7888:8020   */\n    tag_190:\n        /* \"#utility.yul\":7955:7959   */\n      0x00\n        /* \"#utility.yul\":7978:7981   */\n      dup2\n        /* \"#utility.yul\":7970:7981   */\n      swap1\n      pop\n        /* \"#utility.yul\":8008:8012   */\n      0x20\n        /* \"#utility.yul\":8003:8006   */\n      dup3\n        /* \"#utility.yul\":7999:8013   */\n      add\n        /* \"#utility.yul\":7991:8013   */\n      swap1\n      pop\n        /* \"#utility.yul\":7888:8020   */\n      swap2\n      swap1\n      pop\n      jump\t// out\n        /* \"#utility.yul\":8026:8152   */\n    tag_191:\n        /* \"#utility.yul\":8063:8070   */\n      0x00\n        /* \"#utility.yul\":8103:8145   */\n      0xffffffffffffffffffffffffffffffffffffffff\n        /* \"#utility.yul\":8096:8101   */\n      dup3\n        /* \"#utility.yul\":8092:8146   */\n      and\n        /* \"#utility.yul\":8081:8146   */\n      swap1\n      pop\n        /* \"#utility.yul\":8026:8152   */\n      swap2\n      swap1\n      pop\n      jump\t// out\n        /* \"#utility.yul\":8158:8254   */\n    tag_192:\n        /* \"#utility.yul\":8195:8202   */\n      0x00\n        /* \"#utility.yul\":8224:8248   */\n      tag_349\n        /* \"#utility.yul\":8242:8247   */\n      dup3\n        /* \"#utility.yul\":8224:8248   */\n      tag_191\n      jump\t// in\n    tag_349:\n        /* \"#utility.yul\":8213:8248   */\n      swap1\n      pop\n        /* \"#utility.yul\":8158:8254   */\n      swap2\n      swap1\n      pop\n      jump\t// out\n        /* \"#utility.yul\":8260:8368   */\n    tag_193:\n        /* \"#utility.yul\":8337:8361   */\n      tag_351\n        /* \"#utility.yul\":8355:8360   */\n      dup2\n        /* \"#utility.yul\":8337:8361   */\n      tag_192\n      jump\t// in\n    tag_351:\n        /* \"#utility.yul\":8332:8335   */\n      dup3\n        /* \"#utility.yul\":8325:8362   */\n      mstore\n        /* \"#utility.yul\":8260:8368   */\n      pop\n      pop\n      jump\t// out\n        /* \"#utility.yul\":8374:8553   */\n    tag_194:\n        /* \"#utility.yul\":8443:8453   */\n      0x00\n        /* \"#utility.yul\":8464:8510   */\n      tag_353\n        /* \"#utility.yul\":8506:8509   */\n      dup4\n        /* \"#utility.yul\":8498:8504   */\n      dup4\n        /* \"#utility.yul\":8464:8510   */\n      tag_193\n      jump\t// in\n    tag_353:\n        /* \"#utility.yul\":8542:8546   */\n      0x20\n        /* \"#utility.yul\":8537:8540   */\n      dup4\n        /* \"#utility.yul\":8533:8547   */\n      add\n        /* \"#utility.yul\":8519:8547   */\n      swap1\n      pop\n        /* \"#utility.yul\":8374:8553   */\n      swap3\n      swap2\n      pop\n      pop\n      jump\t// out\n        /* \"#utility.yul\":8559:8672   */\n    tag_195:\n        /* \"#utility.yul\":8629:8633   */\n      0x00\n        /* \"#utility.yul\":8661:8665   */\n      0x20\n        /* \"#utility.yul\":8656:8659   */\n      dup3\n        /* \"#utility.yul\":8652:8666   */\n      add\n        /* \"#utility.yul\":8644:8666   */\n      swap1\n      pop\n        /* \"#utility.yul\":8559:8672   */\n      swap2\n      swap1\n      pop\n      jump\t// out\n        /* \"#utility.yul\":8708:9420   */\n    tag_196:\n        /* \"#utility.yul\":8817:8820   */\n      0x00\n        /* \"#utility.yul\":8846:8900   */\n      tag_356\n        /* \"#utility.yul\":8894:8899   */\n      dup3\n        /* \"#utility.yul\":8846:8900   */\n      tag_188\n      jump\t// in\n    tag_356:\n        /* \"#utility.yul\":8916:8992   */\n      tag_357\n        /* \"#utility.yul\":8985:8991   */\n      dup2\n        /* \"#utility.yul\":8980:8983   */\n      dup6\n        /* \"#utility.yul\":8916:8992   */\n      tag_189\n      jump\t// in\n    tag_357:\n        /* \"#utility.yul\":8909:8992   */\n      swap4\n      pop\n        /* \"#utility.yul\":9016:9072   */\n      tag_358\n        /* \"#utility.yul\":9066:9071   */\n      dup4\n        /* \"#utility.yul\":9016:9072   */\n      tag_190\n      jump\t// in\n    tag_358:\n        /* \"#utility.yul\":9095:9102   */\n      dup1\n        /* \"#utility.yul\":9126:9127   */\n      0x00\n        /* \"#utility.yul\":9111:9395   */\n    tag_359:\n        /* \"#utility.yul\":9136:9142   */\n      dup4\n        /* \"#utility.yul\":9133:9134   */\n      dup2\n        /* \"#utility.yul\":9130:9143   */\n      lt\n        /* \"#utility.yul\":9111:9395   */\n      iszero\n      tag_361\n      jumpi\n        /* \"#utility.yul\":9212:9218   */\n      dup2\n        /* \"#utility.yul\":9206:9219   */\n      mload\n        /* \"#utility.yul\":9239:9302   */\n      tag_362\n        /* \"#utility.yul\":9298:9301   */\n      dup9\n        /* \"#utility.yul\":9283:9296   */\n      dup3\n        /* \"#utility.yul\":9239:9302   */\n      tag_194\n      jump\t// in\n    tag_362:\n        /* \"#utility.yul\":9232:9302   */\n      swap8\n      pop\n        /* \"#utility.yul\":9325:9385   */\n      tag_363\n        /* \"#utility.yul\":9378:9384   */\n      dup4\n        /* \"#utility.yul\":9325:9385   */\n      tag_195\n      jump\t// in\n    tag_363:\n        /* \"#utility.yul\":9315:9385   */\n      swap3\n      pop\n        /* \"#utility.yul\":9171:9395   */\n      pop\n        /* \"#utility.yul\":9158:9159   */\n      0x01\n        /* \"#utility.yul\":9155:9156   */\n      dup2\n        /* \"#utility.yul\":9151:9160   */\n      add\n        /* \"#utility.yul\":9146:9160   */\n      swap1\n      pop\n        /* \"#utility.yul\":9111:9395   */\n      jump(tag_359)\n    tag_361:\n        /* \"#utility.yul\":9115:9129   */\n      pop\n        /* \"#utility.yul\":9411:9414   */\n      dup6\n        /* \"#utility.yul\":9404:9414   */\n      swap4\n      pop\n        /* \"#utility.yul\":8822:9420   */\n      pop\n      pop\n      pop\n        /* \"#utility.yul\":8708:9420   */\n      swap3\n      swap2\n      pop\n      pop\n      jump\t// out\n        /* \"#utility.yul\":9426:9525   */\n    tag_197:\n        /* \"#utility.yul\":9478:9484   */\n      0x00\n        /* \"#utility.yul\":9512:9517   */\n      dup2\n        /* \"#utility.yul\":9506:9518   */\n      mload\n        /* \"#utility.yul\":9496:9518   */\n      swap1\n      pop\n        /* \"#utility.yul\":9426:9525   */\n      swap2\n      swap1\n      pop\n      jump\t// out\n        /* \"#utility.yul\":9531:9690   */\n    tag_198:\n        /* \"#utility.yul\":9605:9616   */\n      0x00\n        /* \"#utility.yul\":9639:9645   */\n      dup3\n        /* \"#utility.yul\":9634:9637   */\n      dup3\n        /* \"#utility.yul\":9627:9646   */\n      mstore\n        /* \"#utility.yul\":9679:9683   */\n      0x20\n        /* \"#utility.yul\":9674:9677   */\n      dup3\n        /* \"#utility.yul\":9670:9684   */\n      add\n        /* \"#utility.yul\":9655:9684   */\n      swap1\n      pop\n        /* \"#utility.yul\":9531:9690   */\n      swap3\n      swap2\n      pop\n      pop\n      jump\t// out\n        /* \"#utility.yul\":9696:9835   */\n    tag_199:\n        /* \"#utility.yul\":9785:9791   */\n      dup3\n        /* \"#utility.yul\":9780:9783   */\n      dup2\n        /* \"#utility.yul\":9775:9778   */\n      dup4\n        /* \"#utility.yul\":9769:9792   */\n      mcopy\n        /* \"#utility.yul\":9826:9827   */\n      0x00\n        /* \"#utility.yul\":9817:9823   */\n      dup4\n        /* \"#utility.yul\":9812:9815   */\n      dup4\n        /* \"#utility.yul\":9808:9824   */\n      add\n        /* \"#utility.yul\":9801:9828   */\n      mstore\n        /* \"#utility.yul\":9696:9835   */\n      pop\n      pop\n      pop\n      jump\t// out\n        /* \"#utility.yul\":9841:10198   */\n    tag_200:\n        /* \"#utility.yul\":9919:9922   */\n      0x00\n        /* \"#utility.yul\":9947:9986   */\n      tag_368\n        /* \"#utility.yul\":9980:9985   */\n      dup3\n        /* \"#utility.yul\":9947:9986   */\n      tag_197\n      jump\t// in\n    tag_368:\n        /* \"#utility.yul\":10002:10063   */\n      tag_369\n        /* \"#utility.yul\":10056:10062   */\n      dup2\n        /* \"#utility.yul\":10051:10054   */\n      dup6\n        /* \"#utility.yul\":10002:10063   */\n      tag_198\n      jump\t// in\n    tag_369:\n        /* \"#utility.yul\":9995:10063   */\n      swap4\n      pop\n        /* \"#utility.yul\":10072:10137   */\n      tag_370\n        /* \"#utility.yul\":10130:10136   */\n      dup2\n        /* \"#utility.yul\":10125:10128   */\n      dup6\n        /* \"#utility.yul\":10118:10122   */\n      0x20\n        /* \"#utility.yul\":10111:10116   */\n      dup7\n        /* \"#utility.yul\":10107:10123   */\n      add\n        /* \"#utility.yul\":10072:10137   */\n      tag_199\n      jump\t// in\n    tag_370:\n        /* \"#utility.yul\":10162:10191   */\n      tag_371\n        /* \"#utility.yul\":10184:10190   */\n      dup2\n        /* \"#utility.yul\":10162:10191   */\n      tag_171\n      jump\t// in\n    tag_371:\n        /* \"#utility.yul\":10157:10160   */\n      dup5\n        /* \"#utility.yul\":10153:10192   */\n      add\n        /* \"#utility.yul\":10146:10192   */\n      swap2\n      pop\n        /* \"#utility.yul\":9923:10198   */\n      pop\n        /* \"#utility.yul\":9841:10198   */\n      swap3\n      swap2\n      pop\n      pop\n      jump\t// out\n        /* \"#utility.yul\":10262:11845   */\n    tag_201:\n        /* \"#utility.yul\":10375:10378   */\n      0x00\n        /* \"#utility.yul\":10411:10415   */\n      0xc0\n        /* \"#utility.yul\":10406:10409   */\n      dup4\n        /* \"#utility.yul\":10402:10416   */\n      add\n        /* \"#utility.yul\":10496:10500   */\n      0x00\n        /* \"#utility.yul\":10489:10494   */\n      dup4\n        /* \"#utility.yul\":10485:10501   */\n      add\n        /* \"#utility.yul\":10479:10502   */\n      mload\n        /* \"#utility.yul\":10515:10604   */\n      tag_373\n        /* \"#utility.yul\":10598:10602   */\n      0x00\n        /* \"#utility.yul\":10593:10596   */\n      dup7\n        /* \"#utility.yul\":10589:10603   */\n      add\n        /* \"#utility.yul\":10575:10587   */\n      dup3\n        /* \"#utility.yul\":10515:10604   */\n      tag_186\n      jump\t// in\n    tag_373:\n        /* \"#utility.yul\":10426:10614   */\n      pop\n        /* \"#utility.yul\":10696:10700   */\n      0x20\n        /* \"#utility.yul\":10689:10694   */\n      dup4\n        /* \"#utility.yul\":10685:10701   */\n      add\n        /* \"#utility.yul\":10679:10702   */\n      mload\n        /* \"#utility.yul\":10715:10804   */\n      tag_374\n        /* \"#utility.yul\":10798:10802   */\n      0x20\n        /* \"#utility.yul\":10793:10796   */\n      dup7\n        /* \"#utility.yul\":10789:10803   */\n      add\n        /* \"#utility.yul\":10775:10787   */\n      dup3\n        /* \"#utility.yul\":10715:10804   */\n      tag_186\n      jump\t// in\n    tag_374:\n        /* \"#utility.yul\":10624:10814   */\n      pop\n        /* \"#utility.yul\":10911:10915   */\n      0x40\n        /* \"#utility.yul\":10904:10909   */\n      dup4\n        /* \"#utility.yul\":10900:10916   */\n      add\n        /* \"#utility.yul\":10894:10917   */\n      mload\n        /* \"#utility.yul\":10930:10991   */\n      tag_375\n        /* \"#utility.yul\":10985:10989   */\n      0x40\n        /* \"#utility.yul\":10980:10983   */\n      dup7\n        /* \"#utility.yul\":10976:10990   */\n      add\n        /* \"#utility.yul\":10962:10974   */\n      dup3\n        /* \"#utility.yul\":10930:10991   */\n      tag_187\n      jump\t// in\n    tag_375:\n        /* \"#utility.yul\":10824:11001   */\n      pop\n        /* \"#utility.yul\":11093:11097   */\n      0x60\n        /* \"#utility.yul\":11086:11091   */\n      dup4\n        /* \"#utility.yul\":11082:11098   */\n      add\n        /* \"#utility.yul\":11076:11099   */\n      mload\n        /* \"#utility.yul\":11146:11149   */\n      dup5\n        /* \"#utility.yul\":11140:11144   */\n      dup3\n        /* \"#utility.yul\":11136:11150   */\n      sub\n        /* \"#utility.yul\":11129:11133   */\n      0x60\n        /* \"#utility.yul\":11124:11127   */\n      dup7\n        /* \"#utility.yul\":11120:11134   */\n      add\n        /* \"#utility.yul\":11113:11151   */\n      mstore\n        /* \"#utility.yul\":11172:11275   */\n      tag_376\n        /* \"#utility.yul\":11270:11274   */\n      dup3\n        /* \"#utility.yul\":11256:11268   */\n      dup3\n        /* \"#utility.yul\":11172:11275   */\n      tag_196\n      jump\t// in\n    tag_376:\n        /* \"#utility.yul\":11164:11275   */\n      swap2\n      pop\n        /* \"#utility.yul\":11011:11286   */\n      pop\n        /* \"#utility.yul\":11377:11381   */\n      0x80\n        /* \"#utility.yul\":11370:11375   */\n      dup4\n        /* \"#utility.yul\":11366:11382   */\n      add\n        /* \"#utility.yul\":11360:11383   */\n      mload\n        /* \"#utility.yul\":11430:11433   */\n      dup5\n        /* \"#utility.yul\":11424:11428   */\n      dup3\n        /* \"#utility.yul\":11420:11434   */\n      sub\n        /* \"#utility.yul\":11413:11417   */\n      0x80\n        /* \"#utility.yul\":11408:11411   */\n      dup7\n        /* \"#utility.yul\":11404:11418   */\n      add\n        /* \"#utility.yul\":11397:11435   */\n      mstore\n        /* \"#utility.yul\":11456:11559   */\n      tag_377\n        /* \"#utility.yul\":11554:11558   */\n      dup3\n        /* \"#utility.yul\":11540:11552   */\n      dup3\n        /* \"#utility.yul\":11456:11559   */\n      tag_196\n      jump\t// in\n    tag_377:\n        /* \"#utility.yul\":11448:11559   */\n      swap2\n      pop\n        /* \"#utility.yul\":11296:11570   */\n      pop\n        /* \"#utility.yul\":11655:11659   */\n      0xa0\n        /* \"#utility.yul\":11648:11653   */\n      dup4\n        /* \"#utility.yul\":11644:11660   */\n      add\n        /* \"#utility.yul\":11638:11661   */\n      mload\n        /* \"#utility.yul\":11708:11711   */\n      dup5\n        /* \"#utility.yul\":11702:11706   */\n      dup3\n        /* \"#utility.yul\":11698:11712   */\n      sub\n        /* \"#utility.yul\":11691:11695   */\n      0xa0\n        /* \"#utility.yul\":11686:11689   */\n      dup7\n        /* \"#utility.yul\":11682:11696   */\n      add\n        /* \"#utility.yul\":11675:11713   */\n      mstore\n        /* \"#utility.yul\":11734:11807   */\n      tag_378\n        /* \"#utility.yul\":11802:11806   */\n      dup3\n        /* \"#utility.yul\":11788:11800   */\n      dup3\n        /* \"#utility.yul\":11734:11807   */\n      tag_200\n      jump\t// in\n    tag_378:\n        /* \"#utility.yul\":11726:11807   */\n      swap2\n      pop\n        /* \"#utility.yul\":11580:11818   */\n      pop\n        /* \"#utility.yul\":11835:11839   */\n      dup1\n        /* \"#utility.yul\":11828:11839   */\n      swap2\n      pop\n        /* \"#utility.yul\":10380:11845   */\n      pop\n        /* \"#utility.yul\":10262:11845   */\n      swap3\n      swap2\n      pop\n      pop\n      jump\t// out\n        /* \"#utility.yul\":11851:12115   */\n    tag_202:\n        /* \"#utility.yul\":11974:11984   */\n      0x00\n        /* \"#utility.yul\":12009:12109   */\n      tag_380\n        /* \"#utility.yul\":12105:12108   */\n      dup4\n        /* \"#utility.yul\":12097:12103   */\n      dup4\n        /* \"#utility.yul\":12009:12109   */\n      tag_201\n      jump\t// in\n    tag_380:\n        /* \"#utility.yul\":11995:12109   */\n      swap1\n      pop\n        /* \"#utility.yul\":11851:12115   */\n      swap3\n      swap2\n      pop\n      pop\n      jump\t// out\n        /* \"#utility.yul\":12121:12261   */\n    tag_203:\n        /* \"#utility.yul\":12218:12222   */\n      0x00\n        /* \"#utility.yul\":12250:12254   */\n      0x20\n        /* \"#utility.yul\":12245:12248   */\n      dup3\n        /* \"#utility.yul\":12241:12255   */\n      add\n        /* \"#utility.yul\":12233:12255   */\n      swap1\n      pop\n        /* \"#utility.yul\":12121:12261   */\n      swap2\n      swap1\n      pop\n      jump\t// out\n        /* \"#utility.yul\":12329:13456   */\n    tag_204:\n        /* \"#utility.yul\":12502:12505   */\n      0x00\n        /* \"#utility.yul\":12531:12612   */\n      tag_383\n        /* \"#utility.yul\":12606:12611   */\n      dup3\n        /* \"#utility.yul\":12531:12612   */\n      tag_183\n      jump\t// in\n    tag_383:\n        /* \"#utility.yul\":12628:12741   */\n      tag_384\n        /* \"#utility.yul\":12734:12740   */\n      dup2\n        /* \"#utility.yul\":12729:12732   */\n      dup6\n        /* \"#utility.yul\":12628:12741   */\n      tag_184\n      jump\t// in\n    tag_384:\n        /* \"#utility.yul\":12621:12741   */\n      swap4\n      pop\n        /* \"#utility.yul\":12767:12770   */\n      dup4\n        /* \"#utility.yul\":12812:12816   */\n      0x20\n        /* \"#utility.yul\":12804:12810   */\n      dup3\n        /* \"#utility.yul\":12800:12817   */\n      mul\n        /* \"#utility.yul\":12795:12798   */\n      dup6\n        /* \"#utility.yul\":12791:12818   */\n      add\n        /* \"#utility.yul\":12842:12925   */\n      tag_385\n        /* \"#utility.yul\":12919:12924   */\n      dup6\n        /* \"#utility.yul\":12842:12925   */\n      tag_185\n      jump\t// in\n    tag_385:\n        /* \"#utility.yul\":12948:12955   */\n      dup1\n        /* \"#utility.yul\":12979:12980   */\n      0x00\n        /* \"#utility.yul\":12964:13411   */\n    tag_386:\n        /* \"#utility.yul\":12989:12995   */\n      dup6\n        /* \"#utility.yul\":12986:12987   */\n      dup2\n        /* \"#utility.yul\":12983:12996   */\n      lt\n        /* \"#utility.yul\":12964:13411   */\n      iszero\n      tag_388\n      jumpi\n        /* \"#utility.yul\":13060:13069   */\n      dup5\n        /* \"#utility.yul\":13054:13058   */\n      dup5\n        /* \"#utility.yul\":13050:13070   */\n      sub\n        /* \"#utility.yul\":13045:13048   */\n      dup10\n        /* \"#utility.yul\":13038:13071   */\n      mstore\n        /* \"#utility.yul\":13111:13117   */\n      dup2\n        /* \"#utility.yul\":13105:13118   */\n      mload\n        /* \"#utility.yul\":13139:13257   */\n      tag_389\n        /* \"#utility.yul\":13252:13256   */\n      dup6\n        /* \"#utility.yul\":13237:13250   */\n      dup3\n        /* \"#utility.yul\":13139:13257   */\n      tag_202\n      jump\t// in\n    tag_389:\n        /* \"#utility.yul\":13131:13257   */\n      swap5\n      pop\n        /* \"#utility.yul\":13280:13367   */\n      tag_390\n        /* \"#utility.yul\":13360:13366   */\n      dup4\n        /* \"#utility.yul\":13280:13367   */\n      tag_203\n      jump\t// in\n    tag_390:\n        /* \"#utility.yul\":13270:13367   */\n      swap3\n      pop\n        /* \"#utility.yul\":13396:13400   */\n      0x20\n        /* \"#utility.yul\":13391:13394   */\n      dup11\n        /* \"#utility.yul\":13387:13401   */\n      add\n        /* \"#utility.yul\":13380:13401   */\n      swap10\n      pop\n        /* \"#utility.yul\":13024:13411   */\n      pop\n        /* \"#utility.yul\":13011:13012   */\n      0x01\n        /* \"#utility.yul\":13008:13009   */\n      dup2\n        /* \"#utility.yul\":13004:13013   */\n      add\n        /* \"#utility.yul\":12999:13013   */\n      swap1\n      pop\n        /* \"#utility.yul\":12964:13411   */\n      jump(tag_386)\n    tag_388:\n        /* \"#utility.yul\":12968:12982   */\n      pop\n        /* \"#utility.yul\":13427:13431   */\n      dup3\n        /* \"#utility.yul\":13420:13431   */\n      swap8\n      pop\n        /* \"#utility.yul\":13447:13450   */\n      dup8\n        /* \"#utility.yul\":13440:13450   */\n      swap6\n      pop\n        /* \"#utility.yul\":12507:13456   */\n      pop\n      pop\n      pop\n      pop\n      pop\n        /* \"#utility.yul\":12329:13456   */\n      swap3\n      swap2\n      pop\n      pop\n      jump\t// out\n        /* \"#utility.yul\":13462:13943   */\n    tag_34:\n        /* \"#utility.yul\":13659:13663   */\n      0x00\n        /* \"#utility.yul\":13697:13699   */\n      0x20\n        /* \"#utility.yul\":13686:13695   */\n      dup3\n        /* \"#utility.yul\":13682:13700   */\n      add\n        /* \"#utility.yul\":13674:13700   */\n      swap1\n      pop\n        /* \"#utility.yul\":13746:13755   */\n      dup2\n        /* \"#utility.yul\":13740:13744   */\n      dup2\n        /* \"#utility.yul\":13736:13756   */\n      sub\n        /* \"#utility.yul\":13732:13733   */\n      0x00\n        /* \"#utility.yul\":13721:13730   */\n      dup4\n        /* \"#utility.yul\":13717:13734   */\n      add\n        /* \"#utility.yul\":13710:13757   */\n      mstore\n        /* \"#utility.yul\":13774:13936   */\n      tag_392\n        /* \"#utility.yul\":13931:13935   */\n      dup2\n        /* \"#utility.yul\":13922:13928   */\n      dup5\n        /* \"#utility.yul\":13774:13936   */\n      tag_204\n      jump\t// in\n    tag_392:\n        /* \"#utility.yul\":13766:13936   */\n      swap1\n      pop\n        /* \"#utility.yul\":13462:13943   */\n      swap3\n      swap2\n      pop\n      pop\n      jump\t// out\n        /* \"#utility.yul\":13949:14097   */\n    tag_205:\n        /* \"#utility.yul\":14048:14072   */\n      tag_394\n        /* \"#utility.yul\":14066:14071   */\n      dup2\n        /* \"#utility.yul\":14048:14072   */\n      tag_161\n      jump\t// in\n    tag_394:\n        /* \"#utility.yul\":14041:14046   */\n      dup2\n        /* \"#utility.yul\":14038:14073   */\n      eq\n        /* \"#utility.yul\":14028:14091   */\n      tag_395\n      jumpi\n        /* \"#utility.yul\":14087:14088   */\n      0x00\n        /* \"#utility.yul\":14084:14085   */\n      dup1\n        /* \"#utility.yul\":14077:14089   */\n      revert\n        /* \"#utility.yul\":14028:14091   */\n    tag_395:\n        /* \"#utility.yul\":13949:14097   */\n      pop\n      jump\t// out\n        /* \"#utility.yul\":14103:14294   */\n    tag_206:\n        /* \"#utility.yul\":14175:14180   */\n      0x00\n        /* \"#utility.yul\":14213:14219   */\n      dup2\n        /* \"#utility.yul\":14200:14220   */\n      calldataload\n        /* \"#utility.yul\":14191:14220   */\n      swap1\n      pop\n        /* \"#utility.yul\":14229:14288   */\n      tag_397\n        /* \"#utility.yul\":14282:14287   */\n      dup2\n        /* \"#utility.yul\":14229:14288   */\n      tag_205\n      jump\t// in\n    tag_397:\n        /* \"#utility.yul\":14103:14294   */\n      swap3\n      swap2\n      pop\n      pop\n      jump\t// out\n        /* \"#utility.yul\":14300:14607   */\n    tag_207:\n        /* \"#utility.yul\":14361:14365   */\n      0x00\n        /* \"#utility.yul\":14451:14469   */\n      0xffffffffffffffff\n        /* \"#utility.yul\":14443:14449   */\n      dup3\n        /* \"#utility.yul\":14440:14470   */\n      gt\n        /* \"#utility.yul\":14437:14493   */\n      iszero\n      tag_399\n      jumpi\n        /* \"#utility.yul\":14473:14491   */\n      tag_400\n      tag_172\n      jump\t// in\n    tag_400:\n        /* \"#utility.yul\":14437:14493   */\n    tag_399:\n        /* \"#utility.yul\":14511:14540   */\n      tag_401\n        /* \"#utility.yul\":14533:14539   */\n      dup3\n        /* \"#utility.yul\":14511:14540   */\n      tag_171\n      jump\t// in\n    tag_401:\n        /* \"#utility.yul\":14503:14540   */\n      swap1\n      pop\n        /* \"#utility.yul\":14595:14599   */\n      0x20\n        /* \"#utility.yul\":14589:14593   */\n      dup2\n        /* \"#utility.yul\":14585:14600   */\n      add\n        /* \"#utility.yul\":14577:14600   */\n      swap1\n      pop\n        /* \"#utility.yul\":14300:14607   */\n      swap2\n      swap1\n      pop\n      jump\t// out\n        /* \"#utility.yul\":14613:15036   */\n    tag_208:\n        /* \"#utility.yul\":14690:14695   */\n      0x00\n        /* \"#utility.yul\":14715:14780   */\n      tag_403\n        /* \"#utility.yul\":14731:14779   */\n      tag_404\n        /* \"#utility.yul\":14772:14778   */\n      dup5\n        /* \"#utility.yul\":14731:14779   */\n      tag_207\n      jump\t// in\n    tag_404:\n        /* \"#utility.yul\":14715:14780   */\n      tag_174\n      jump\t// in\n    tag_403:\n        /* \"#utility.yul\":14706:14780   */\n      swap1\n      pop\n        /* \"#utility.yul\":14803:14809   */\n      dup3\n        /* \"#utility.yul\":14796:14801   */\n      dup2\n        /* \"#utility.yul\":14789:14810   */\n      mstore\n        /* \"#utility.yul\":14841:14845   */\n      0x20\n        /* \"#utility.yul\":14834:14839   */\n      dup2\n        /* \"#utility.yul\":14830:14846   */\n      add\n        /* \"#utility.yul\":14879:14882   */\n      dup5\n        /* \"#utility.yul\":14870:14876   */\n      dup5\n        /* \"#utility.yul\":14865:14868   */\n      dup5\n        /* \"#utility.yul\":14861:14877   */\n      add\n        /* \"#utility.yul\":14858:14883   */\n      gt\n        /* \"#utility.yul\":14855:14967   */\n      iszero\n      tag_405\n      jumpi\n        /* \"#utility.yul\":14886:14965   */\n      tag_406\n      tag_170\n      jump\t// in\n    tag_406:\n        /* \"#utility.yul\":14855:14967   */\n    tag_405:\n        /* \"#utility.yul\":14976:15030   */\n      tag_407\n        /* \"#utility.yul\":15023:15029   */\n      dup5\n        /* \"#utility.yul\":15018:15021   */\n      dup3\n        /* \"#utility.yul\":15013:15016   */\n      dup6\n        /* \"#utility.yul\":14976:15030   */\n      tag_176\n      jump\t// in\n    tag_407:\n        /* \"#utility.yul\":14696:15036   */\n      pop\n        /* \"#utility.yul\":14613:15036   */\n      swap4\n      swap3\n      pop\n      pop\n      pop\n      jump\t// out\n        /* \"#utility.yul\":15055:15393   */\n    tag_209:\n        /* \"#utility.yul\":15110:15115   */\n      0x00\n        /* \"#utility.yul\":15159:15162   */\n      dup3\n        /* \"#utility.yul\":15152:15156   */\n      0x1f\n        /* \"#utility.yul\":15144:15150   */\n      dup4\n        /* \"#utility.yul\":15140:15157   */\n      add\n        /* \"#utility.yul\":15136:15163   */\n      slt\n        /* \"#utility.yul\":15126:15248   */\n      tag_409\n      jumpi\n        /* \"#utility.yul\":15167:15246   */\n      tag_410\n      tag_169\n      jump\t// in\n    tag_410:\n        /* \"#utility.yul\":15126:15248   */\n    tag_409:\n        /* \"#utility.yul\":15284:15290   */\n      dup2\n        /* \"#utility.yul\":15271:15291   */\n      calldataload\n        /* \"#utility.yul\":15309:15387   */\n      tag_411\n        /* \"#utility.yul\":15383:15386   */\n      dup5\n        /* \"#utility.yul\":15375:15381   */\n      dup3\n        /* \"#utility.yul\":15368:15372   */\n      0x20\n        /* \"#utility.yul\":15360:15366   */\n      dup7\n        /* \"#utility.yul\":15356:15373   */\n      add\n        /* \"#utility.yul\":15309:15387   */\n      tag_208\n      jump\t// in\n    tag_411:\n        /* \"#utility.yul\":15300:15387   */\n      swap2\n      pop\n        /* \"#utility.yul\":15116:15393   */\n      pop\n        /* \"#utility.yul\":15055:15393   */\n      swap3\n      swap2\n      pop\n      pop\n      jump\t// out\n        /* \"#utility.yul\":15399:16428   */\n    tag_37:\n        /* \"#utility.yul\":15521:15527   */\n      0x00\n        /* \"#utility.yul\":15529:15535   */\n      dup1\n        /* \"#utility.yul\":15537:15543   */\n      0x00\n        /* \"#utility.yul\":15586:15588   */\n      0x60\n        /* \"#utility.yul\":15574:15583   */\n      dup5\n        /* \"#utility.yul\":15565:15572   */\n      dup7\n        /* \"#utility.yul\":15561:15584   */\n      sub\n        /* \"#utility.yul\":15557:15589   */\n      slt\n        /* \"#utility.yul\":15554:15673   */\n      iszero\n      tag_413\n      jumpi\n        /* \"#utility.yul\":15592:15671   */\n      tag_414\n      tag_156\n      jump\t// in\n    tag_414:\n        /* \"#utility.yul\":15554:15673   */\n    tag_413:\n        /* \"#utility.yul\":15712:15713   */\n      0x00\n        /* \"#utility.yul\":15737:15816   */\n      tag_415\n        /* \"#utility.yul\":15808:15815   */\n      dup7\n        /* \"#utility.yul\":15799:15805   */\n      dup3\n        /* \"#utility.yul\":15788:15797   */\n      dup8\n        /* \"#utility.yul\":15784:15806   */\n      add\n        /* \"#utility.yul\":15737:15816   */\n      tag_206\n      jump\t// in\n    tag_415:\n        /* \"#utility.yul\":15727:15816   */\n      swap4\n      pop\n        /* \"#utility.yul\":15683:15826   */\n      pop\n        /* \"#utility.yul\":15893:15895   */\n      0x20\n        /* \"#utility.yul\":15882:15891   */\n      dup5\n        /* \"#utility.yul\":15878:15896   */\n      add\n        /* \"#utility.yul\":15865:15897   */\n      calldataload\n        /* \"#utility.yul\":15924:15942   */\n      0xffffffffffffffff\n        /* \"#utility.yul\":15916:15922   */\n      dup2\n        /* \"#utility.yul\":15913:15943   */\n      gt\n        /* \"#utility.yul\":15910:16027   */\n      iszero\n      tag_416\n      jumpi\n        /* \"#utility.yul\":15946:16025   */\n      tag_417\n      tag_157\n      jump\t// in\n    tag_417:\n        /* \"#utility.yul\":15910:16027   */\n    tag_416:\n        /* \"#utility.yul\":16051:16114   */\n      tag_418\n        /* \"#utility.yul\":16106:16113   */\n      dup7\n        /* \"#utility.yul\":16097:16103   */\n      dup3\n        /* \"#utility.yul\":16086:16095   */\n      dup8\n        /* \"#utility.yul\":16082:16104   */\n      add\n        /* \"#utility.yul\":16051:16114   */\n      tag_178\n      jump\t// in\n    tag_418:\n        /* \"#utility.yul\":16041:16114   */\n      swap3\n      pop\n        /* \"#utility.yul\":15836:16124   */\n      pop\n        /* \"#utility.yul\":16191:16193   */\n      0x40\n        /* \"#utility.yul\":16180:16189   */\n      dup5\n        /* \"#utility.yul\":16176:16194   */\n      add\n        /* \"#utility.yul\":16163:16195   */\n      calldataload\n        /* \"#utility.yul\":16222:16240   */\n      0xffffffffffffffff\n        /* \"#utility.yul\":16214:16220   */\n      dup2\n        /* \"#utility.yul\":16211:16241   */\n      gt\n        /* \"#utility.yul\":16208:16325   */\n      iszero\n      tag_419\n      jumpi\n        /* \"#utility.yul\":16244:16323   */\n      tag_420\n      tag_157\n      jump\t// in\n    tag_420:\n        /* \"#utility.yul\":16208:16325   */\n    tag_419:\n        /* \"#utility.yul\":16349:16411   */\n      tag_421\n        /* \"#utility.yul\":16403:16410   */\n      dup7\n        /* \"#utility.yul\":16394:16400   */\n      dup3\n        /* \"#utility.yul\":16383:16392   */\n      dup8\n        /* \"#utility.yul\":16379:16401   */\n      add\n        /* \"#utility.yul\":16349:16411   */\n      tag_209\n      jump\t// in\n    tag_421:\n        /* \"#utility.yul\":16339:16411   */\n      swap2\n      pop\n        /* \"#utility.yul\":16134:16421   */\n      pop\n        /* \"#utility.yul\":15399:16428   */\n      swap3\n      pop\n      swap3\n      pop\n      swap3\n      jump\t// out\n        /* \"#utility.yul\":16434:17140   */\n    tag_41:\n        /* \"#utility.yul\":16538:16544   */\n      0x00\n        /* \"#utility.yul\":16546:16552   */\n      dup1\n        /* \"#utility.yul\":16595:16597   */\n      0x40\n        /* \"#utility.yul\":16583:16592   */\n      dup4\n        /* \"#utility.yul\":16574:16581   */\n      dup6\n        /* \"#utility.yul\":16570:16593   */\n      sub\n        /* \"#utility.yul\":16566:16598   */\n      slt\n        /* \"#utility.yul\":16563:16682   */\n      iszero\n      tag_423\n      jumpi\n        /* \"#utility.yul\":16601:16680   */\n      tag_424\n      tag_156\n      jump\t// in\n    tag_424:\n        /* \"#utility.yul\":16563:16682   */\n    tag_423:\n        /* \"#utility.yul\":16721:16722   */\n      0x00\n        /* \"#utility.yul\":16746:16825   */\n      tag_425\n        /* \"#utility.yul\":16817:16824   */\n      dup6\n        /* \"#utility.yul\":16808:16814   */\n      dup3\n        /* \"#utility.yul\":16797:16806   */\n      dup7\n        /* \"#utility.yul\":16793:16815   */\n      add\n        /* \"#utility.yul\":16746:16825   */\n      tag_206\n      jump\t// in\n    tag_425:\n        /* \"#utility.yul\":16736:16825   */\n      swap3\n      pop\n        /* \"#utility.yul\":16692:16835   */\n      pop\n        /* \"#utility.yul\":16902:16904   */\n      0x20\n        /* \"#utility.yul\":16891:16900   */\n      dup4\n        /* \"#utility.yul\":16887:16905   */\n      add\n        /* \"#utility.yul\":16874:16906   */\n      calldataload\n        /* \"#utility.yul\":16933:16951   */\n      0xffffffffffffffff\n        /* \"#utility.yul\":16925:16931   */\n      dup2\n        /* \"#utility.yul\":16922:16952   */\n      gt\n        /* \"#utility.yul\":16919:17036   */\n      iszero\n      tag_426\n      jumpi\n        /* \"#utility.yul\":16955:17034   */\n      tag_427\n      tag_157\n      jump\t// in\n    tag_427:\n        /* \"#utility.yul\":16919:17036   */\n    tag_426:\n        /* \"#utility.yul\":17060:17123   */\n      tag_428\n        /* \"#utility.yul\":17115:17122   */\n      dup6\n        /* \"#utility.yul\":17106:17112   */\n      dup3\n        /* \"#utility.yul\":17095:17104   */\n      dup7\n        /* \"#utility.yul\":17091:17113   */\n      add\n        /* \"#utility.yul\":17060:17123   */\n      tag_178\n      jump\t// in\n    tag_428:\n        /* \"#utility.yul\":17050:17123   */\n      swap2\n      pop\n        /* \"#utility.yul\":16845:17133   */\n      pop\n        /* \"#utility.yul\":16434:17140   */\n      swap3\n      pop\n      swap3\n      swap1\n      pop\n      jump\t// out\n        /* \"#utility.yul\":17146:17244   */\n    tag_210:\n        /* \"#utility.yul\":17197:17203   */\n      0x00\n        /* \"#utility.yul\":17231:17236   */\n      dup2\n        /* \"#utility.yul\":17225:17237   */\n      mload\n        /* \"#utility.yul\":17215:17237   */\n      swap1\n      pop\n        /* \"#utility.yul\":17146:17244   */\n      swap2\n      swap1\n      pop\n      jump\t// out\n        /* \"#utility.yul\":17250:17418   */\n    tag_211:\n        /* \"#utility.yul\":17333:17344   */\n      0x00\n        /* \"#utility.yul\":17367:17373   */\n      dup3\n        /* \"#utility.yul\":17362:17365   */\n      dup3\n        /* \"#utility.yul\":17355:17374   */\n      mstore\n        /* \"#utility.yul\":17407:17411   */\n      0x20\n        /* \"#utility.yul\":17402:17405   */\n      dup3\n        /* \"#utility.yul\":17398:17412   */\n      add\n        /* \"#utility.yul\":17383:17412   */\n      swap1\n      pop\n        /* \"#utility.yul\":17250:17418   */\n      swap3\n      swap2\n      pop\n      pop\n      jump\t// out\n        /* \"#utility.yul\":17424:17797   */\n    tag_212:\n        /* \"#utility.yul\":17510:17513   */\n      0x00\n        /* \"#utility.yul\":17538:17576   */\n      tag_432\n        /* \"#utility.yul\":17570:17575   */\n      dup3\n        /* \"#utility.yul\":17538:17576   */\n      tag_210\n      jump\t// in\n    tag_432:\n        /* \"#utility.yul\":17592:17662   */\n      tag_433\n        /* \"#utility.yul\":17655:17661   */\n      dup2\n        /* \"#utility.yul\":17650:17653   */\n      dup6\n        /* \"#utility.yul\":17592:17662   */\n      tag_211\n      jump\t// in\n    tag_433:\n        /* \"#utility.yul\":17585:17662   */\n      swap4\n      pop\n        /* \"#utility.yul\":17671:17736   */\n      tag_434\n        /* \"#utility.yul\":17729:17735   */\n      dup2\n        /* \"#utility.yul\":17724:17727   */\n      dup6\n        /* \"#utility.yul\":17717:17721   */\n      0x20\n        /* \"#utility.yul\":17710:17715   */\n      dup7\n        /* \"#utility.yul\":17706:17722   */\n      add\n        /* \"#utility.yul\":17671:17736   */\n      tag_199\n      jump\t// in\n    tag_434:\n        /* \"#utility.yul\":17761:17790   */\n      tag_435\n        /* \"#utility.yul\":17783:17789   */\n      dup2\n        /* \"#utility.yul\":17761:17790   */\n      tag_171\n      jump\t// in\n    tag_435:\n        /* \"#utility.yul\":17756:17759   */\n      dup5\n        /* \"#utility.yul\":17752:17791   */\n      add\n        /* \"#utility.yul\":17745:17791   */\n      swap2\n      pop\n        /* \"#utility.yul\":17514:17797   */\n      pop\n        /* \"#utility.yul\":17424:17797   */\n      swap3\n      swap2\n      pop\n      pop\n      jump\t// out\n        /* \"#utility.yul\":17803:18112   */\n    tag_44:\n        /* \"#utility.yul\":17914:17918   */\n      0x00\n        /* \"#utility.yul\":17952:17954   */\n      0x20\n        /* \"#utility.yul\":17941:17950   */\n      dup3\n        /* \"#utility.yul\":17937:17955   */\n      add\n        /* \"#utility.yul\":17929:17955   */\n      swap1\n      pop\n        /* \"#utility.yul\":18001:18010   */\n      dup2\n        /* \"#utility.yul\":17995:17999   */\n      dup2\n        /* \"#utility.yul\":17991:18011   */\n      sub\n        /* \"#utility.yul\":17987:17988   */\n      0x00\n        /* \"#utility.yul\":17976:17985   */\n      dup4\n        /* \"#utility.yul\":17972:17989   */\n      add\n        /* \"#utility.yul\":17965:18012   */\n      mstore\n        /* \"#utility.yul\":18029:18105   */\n      tag_437\n        /* \"#utility.yul\":18100:18104   */\n      dup2\n        /* \"#utility.yul\":18091:18097   */\n      dup5\n        /* \"#utility.yul\":18029:18105   */\n      tag_212\n      jump\t// in\n    tag_437:\n        /* \"#utility.yul\":18021:18105   */\n      swap1\n      pop\n        /* \"#utility.yul\":17803:18112   */\n      swap3\n      swap2\n      pop\n      pop\n      jump\t// out\n        /* \"#utility.yul\":18118:18429   */\n    tag_213:\n        /* \"#utility.yul\":18195:18199   */\n      0x00\n        /* \"#utility.yul\":18285:18303   */\n      0xffffffffffffffff\n        /* \"#utility.yul\":18277:18283   */\n      dup3\n        /* \"#utility.yul\":18274:18304   */\n      gt\n        /* \"#utility.yul\":18271:18327   */\n      iszero\n      tag_439\n      jumpi\n        /* \"#utility.yul\":18307:18325   */\n      tag_440\n      tag_172\n      jump\t// in\n    tag_440:\n        /* \"#utility.yul\":18271:18327   */\n    tag_439:\n        /* \"#utility.yul\":18357:18361   */\n      0x20\n        /* \"#utility.yul\":18349:18355   */\n      dup3\n        /* \"#utility.yul\":18345:18362   */\n      mul\n        /* \"#utility.yul\":18337:18362   */\n      swap1\n      pop\n        /* \"#utility.yul\":18417:18421   */\n      0x20\n        /* \"#utility.yul\":18411:18415   */\n      dup2\n        /* \"#utility.yul\":18407:18422   */\n      add\n        /* \"#utility.yul\":18399:18422   */\n      swap1\n      pop\n        /* \"#utility.yul\":18118:18429   */\n      swap2\n      swap1\n      pop\n      jump\t// out\n        /* \"#utility.yul\":18435:18552   */\n    tag_214:\n        /* \"#utility.yul\":18544:18545   */\n      0x00\n        /* \"#utility.yul\":18541:18542   */\n      dup1\n        /* \"#utility.yul\":18534:18546   */\n      revert\n        /* \"#utility.yul\":18558:18680   */\n    tag_215:\n        /* \"#utility.yul\":18631:18655   */\n      tag_443\n        /* \"#utility.yul\":18649:18654   */\n      dup2\n        /* \"#utility.yul\":18631:18655   */\n      tag_192\n      jump\t// in\n    tag_443:\n        /* \"#utility.yul\":18624:18629   */\n      dup2\n        /* \"#utility.yul\":18621:18656   */\n      eq\n        /* \"#utility.yul\":18611:18674   */\n      tag_444\n      jumpi\n        /* \"#utility.yul\":18670:18671   */\n      0x00\n        /* \"#utility.yul\":18667:18668   */\n      dup1\n        /* \"#utility.yul\":18660:18672   */\n      revert\n        /* \"#utility.yul\":18611:18674   */\n    tag_444:\n        /* \"#utility.yul\":18558:18680   */\n      pop\n      jump\t// out\n        /* \"#utility.yul\":18686:18825   */\n    tag_216:\n        /* \"#utility.yul\":18732:18737   */\n      0x00\n        /* \"#utility.yul\":18770:18776   */\n      dup2\n        /* \"#utility.yul\":18757:18777   */\n      calldataload\n        /* \"#utility.yul\":18748:18777   */\n      swap1\n      pop\n        /* \"#utility.yul\":18786:18819   */\n      tag_446\n        /* \"#utility.yul\":18813:18818   */\n      dup2\n        /* \"#utility.yul\":18786:18819   */\n      tag_215\n      jump\t// in\n    tag_446:\n        /* \"#utility.yul\":18686:18825   */\n      swap3\n      swap2\n      pop\n      pop\n      jump\t// out\n        /* \"#utility.yul\":18848:19558   */\n    tag_217:\n        /* \"#utility.yul\":18944:18949   */\n      0x00\n        /* \"#utility.yul\":18969:19050   */\n      tag_448\n        /* \"#utility.yul\":18985:19049   */\n      tag_449\n        /* \"#utility.yul\":19042:19048   */\n      dup5\n        /* \"#utility.yul\":18985:19049   */\n      tag_213\n      jump\t// in\n    tag_449:\n        /* \"#utility.yul\":18969:19050   */\n      tag_174\n      jump\t// in\n    tag_448:\n        /* \"#utility.yul\":18960:19050   */\n      swap1\n      pop\n        /* \"#utility.yul\":19070:19075   */\n      dup1\n        /* \"#utility.yul\":19099:19105   */\n      dup4\n        /* \"#utility.yul\":19092:19097   */\n      dup3\n        /* \"#utility.yul\":19085:19106   */\n      mstore\n        /* \"#utility.yul\":19133:19137   */\n      0x20\n        /* \"#utility.yul\":19126:19131   */\n      dup3\n        /* \"#utility.yul\":19122:19138   */\n      add\n        /* \"#utility.yul\":19115:19138   */\n      swap1\n      pop\n        /* \"#utility.yul\":19186:19190   */\n      0x20\n        /* \"#utility.yul\":19178:19184   */\n      dup5\n        /* \"#utility.yul\":19174:19191   */\n      mul\n        /* \"#utility.yul\":19166:19172   */\n      dup4\n        /* \"#utility.yul\":19162:19192   */\n      add\n        /* \"#utility.yul\":19215:19218   */\n      dup6\n        /* \"#utility.yul\":19207:19213   */\n      dup2\n        /* \"#utility.yul\":19204:19219   */\n      gt\n        /* \"#utility.yul\":19201:19323   */\n      iszero\n      tag_450\n      jumpi\n        /* \"#utility.yul\":19234:19313   */\n      tag_451\n      tag_214\n      jump\t// in\n    tag_451:\n        /* \"#utility.yul\":19201:19323   */\n    tag_450:\n        /* \"#utility.yul\":19349:19355   */\n      dup4\n        /* \"#utility.yul\":19332:19552   */\n    tag_452:\n        /* \"#utility.yul\":19366:19372   */\n      dup2\n        /* \"#utility.yul\":19361:19364   */\n      dup2\n        /* \"#utility.yul\":19358:19373   */\n      lt\n        /* \"#utility.yul\":19332:19552   */\n      iszero\n      tag_454\n      jumpi\n        /* \"#utility.yul\":19441:19444   */\n      dup1\n        /* \"#utility.yul\":19470:19507   */\n      tag_455\n        /* \"#utility.yul\":19503:19506   */\n      dup9\n        /* \"#utility.yul\":19491:19501   */\n      dup3\n        /* \"#utility.yul\":19470:19507   */\n      tag_216\n      jump\t// in\n    tag_455:\n        /* \"#utility.yul\":19465:19468   */\n      dup5\n        /* \"#utility.yul\":19458:19508   */\n      mstore\n        /* \"#utility.yul\":19537:19541   */\n      0x20\n        /* \"#utility.yul\":19532:19535   */\n      dup5\n        /* \"#utility.yul\":19528:19542   */\n      add\n        /* \"#utility.yul\":19521:19542   */\n      swap4\n      pop\n        /* \"#utility.yul\":19408:19552   */\n      pop\n        /* \"#utility.yul\":19392:19396   */\n      0x20\n        /* \"#utility.yul\":19387:19390   */\n      dup2\n        /* \"#utility.yul\":19383:19397   */\n      add\n        /* \"#utility.yul\":19376:19397   */\n      swap1\n      pop\n        /* \"#utility.yul\":19332:19552   */\n      jump(tag_452)\n    tag_454:\n        /* \"#utility.yul\":19336:19357   */\n      pop\n        /* \"#utility.yul\":18950:19558   */\n      pop\n      pop\n        /* \"#utility.yul\":18848:19558   */\n      swap4\n      swap3\n      pop\n      pop\n      pop\n      jump\t// out\n        /* \"#utility.yul\":19581:19951   */\n    tag_218:\n        /* \"#utility.yul\":19652:19657   */\n      0x00\n        /* \"#utility.yul\":19701:19704   */\n      dup3\n        /* \"#utility.yul\":19694:19698   */\n      0x1f\n        /* \"#utility.yul\":19686:19692   */\n      dup4\n        /* \"#utility.yul\":19682:19699   */\n      add\n        /* \"#utility.yul\":19678:19705   */\n      slt\n        /* \"#utility.yul\":19668:19790   */\n      tag_457\n      jumpi\n        /* \"#utility.yul\":19709:19788   */\n      tag_458\n      tag_169\n      jump\t// in\n    tag_458:\n        /* \"#utility.yul\":19668:19790   */\n    tag_457:\n        /* \"#utility.yul\":19826:19832   */\n      dup2\n        /* \"#utility.yul\":19813:19833   */\n      calldataload\n        /* \"#utility.yul\":19851:19945   */\n      tag_459\n        /* \"#utility.yul\":19941:19944   */\n      dup5\n        /* \"#utility.yul\":19933:19939   */\n      dup3\n        /* \"#utility.yul\":19926:19930   */\n      0x20\n        /* \"#utility.yul\":19918:19924   */\n      dup7\n        /* \"#utility.yul\":19914:19931   */\n      add\n        /* \"#utility.yul\":19851:19945   */\n      tag_217\n      jump\t// in\n    tag_459:\n        /* \"#utility.yul\":19842:19945   */\n      swap2\n      pop\n        /* \"#utility.yul\":19658:19951   */\n      pop\n        /* \"#utility.yul\":19581:19951   */\n      swap3\n      swap2\n      pop\n      pop\n      jump\t// out\n        /* \"#utility.yul\":19957:21320   */\n    tag_47:\n        /* \"#utility.yul\":20102:20108   */\n      0x00\n        /* \"#utility.yul\":20110:20116   */\n      dup1\n        /* \"#utility.yul\":20118:20124   */\n      0x00\n        /* \"#utility.yul\":20126:20132   */\n      dup1\n        /* \"#utility.yul\":20175:20178   */\n      0x80\n        /* \"#utility.yul\":20163:20172   */\n      dup6\n        /* \"#utility.yul\":20154:20161   */\n      dup8\n        /* \"#utility.yul\":20150:20173   */\n      sub\n        /* \"#utility.yul\":20146:20179   */\n      slt\n        /* \"#utility.yul\":20143:20263   */\n      iszero\n      tag_461\n      jumpi\n        /* \"#utility.yul\":20182:20261   */\n      tag_462\n      tag_156\n      jump\t// in\n    tag_462:\n        /* \"#utility.yul\":20143:20263   */\n    tag_461:\n        /* \"#utility.yul\":20302:20303   */\n      0x00\n        /* \"#utility.yul\":20327:20379   */\n      tag_463\n        /* \"#utility.yul\":20371:20378   */\n      dup8\n        /* \"#utility.yul\":20362:20368   */\n      dup3\n        /* \"#utility.yul\":20351:20360   */\n      dup9\n        /* \"#utility.yul\":20347:20369   */\n      add\n        /* \"#utility.yul\":20327:20379   */\n      tag_182\n      jump\t// in\n    tag_463:\n        /* \"#utility.yul\":20317:20379   */\n      swap5\n      pop\n        /* \"#utility.yul\":20273:20389   */\n      pop\n        /* \"#utility.yul\":20456:20458   */\n      0x20\n        /* \"#utility.yul\":20445:20454   */\n      dup6\n        /* \"#utility.yul\":20441:20459   */\n      add\n        /* \"#utility.yul\":20428:20460   */\n      calldataload\n        /* \"#utility.yul\":20487:20505   */\n      0xffffffffffffffff\n        /* \"#utility.yul\":20479:20485   */\n      dup2\n        /* \"#utility.yul\":20476:20506   */\n      gt\n        /* \"#utility.yul\":20473:20590   */\n      iszero\n      tag_464\n      jumpi\n        /* \"#utility.yul\":20509:20588   */\n      tag_465\n      tag_157\n      jump\t// in\n    tag_465:\n        /* \"#utility.yul\":20473:20590   */\n    tag_464:\n        /* \"#utility.yul\":20614:20692   */\n      tag_466\n        /* \"#utility.yul\":20684:20691   */\n      dup8\n        /* \"#utility.yul\":20675:20681   */\n      dup3\n        /* \"#utility.yul\":20664:20673   */\n      dup9\n        /* \"#utility.yul\":20660:20682   */\n      add\n        /* \"#utility.yul\":20614:20692   */\n      tag_218\n      jump\t// in\n    tag_466:\n        /* \"#utility.yul\":20604:20692   */\n      swap4\n      pop\n        /* \"#utility.yul\":20399:20702   */\n      pop\n        /* \"#utility.yul\":20769:20771   */\n      0x40\n        /* \"#utility.yul\":20758:20767   */\n      dup6\n        /* \"#utility.yul\":20754:20772   */\n      add\n        /* \"#utility.yul\":20741:20773   */\n      calldataload\n        /* \"#utility.yul\":20800:20818   */\n      0xffffffffffffffff\n        /* \"#utility.yul\":20792:20798   */\n      dup2\n        /* \"#utility.yul\":20789:20819   */\n      gt\n        /* \"#utility.yul\":20786:20903   */\n      iszero\n      tag_467\n      jumpi\n        /* \"#utility.yul\":20822:20901   */\n      tag_468\n      tag_157\n      jump\t// in\n    tag_468:\n        /* \"#utility.yul\":20786:20903   */\n    tag_467:\n        /* \"#utility.yul\":20927:21005   */\n      tag_469\n        /* \"#utility.yul\":20997:21004   */\n      dup8\n        /* \"#utility.yul\":20988:20994   */\n      dup3\n        /* \"#utility.yul\":20977:20986   */\n      dup9\n        /* \"#utility.yul\":20973:20995   */\n      add\n        /* \"#utility.yul\":20927:21005   */\n      tag_218\n      jump\t// in\n    tag_469:\n        /* \"#utility.yul\":20917:21005   */\n      swap3\n      pop\n        /* \"#utility.yul\":20712:21015   */\n      pop\n        /* \"#utility.yul\":21082:21084   */\n      0x60\n        /* \"#utility.yul\":21071:21080   */\n      dup6\n        /* \"#utility.yul\":21067:21085   */\n      add\n        /* \"#utility.yul\":21054:21086   */\n      calldataload\n        /* \"#utility.yul\":21113:21131   */\n      0xffffffffffffffff\n        /* \"#utility.yul\":21105:21111   */\n      dup2\n        /* \"#utility.yul\":21102:21132   */\n      gt\n        /* \"#utility.yul\":21099:21216   */\n      iszero\n      tag_470\n      jumpi\n        /* \"#utility.yul\":21135:21214   */\n      tag_471\n      tag_157\n      jump\t// in\n    tag_471:\n        /* \"#utility.yul\":21099:21216   */\n    tag_470:\n        /* \"#utility.yul\":21240:21303   */\n      tag_472\n        /* \"#utility.yul\":21295:21302   */\n      dup8\n        /* \"#utility.yul\":21286:21292   */\n      dup3\n        /* \"#utility.yul\":21275:21284   */\n      dup9\n        /* \"#utility.yul\":21271:21293   */\n      add\n        /* \"#utility.yul\":21240:21303   */\n      tag_178\n      jump\t// in\n    tag_472:\n        /* \"#utility.yul\":21230:21303   */\n      swap2\n      pop\n        /* \"#utility.yul\":21025:21313   */\n      pop\n        /* \"#utility.yul\":19957:21320   */\n      swap3\n      swap6\n      swap2\n      swap5\n      pop\n      swap3\n      pop\n      jump\t// out\n        /* \"#utility.yul\":21384:22977   */\n    tag_219:\n        /* \"#utility.yul\":21507:21510   */\n      0x00\n        /* \"#utility.yul\":21543:21547   */\n      0xc0\n        /* \"#utility.yul\":21538:21541   */\n      dup4\n        /* \"#utility.yul\":21534:21548   */\n      add\n        /* \"#utility.yul\":21628:21632   */\n      0x00\n        /* \"#utility.yul\":21621:21626   */\n      dup4\n        /* \"#utility.yul\":21617:21633   */\n      add\n        /* \"#utility.yul\":21611:21634   */\n      mload\n        /* \"#utility.yul\":21647:21736   */\n      tag_474\n        /* \"#utility.yul\":21730:21734   */\n      0x00\n        /* \"#utility.yul\":21725:21728   */\n      dup7\n        /* \"#utility.yul\":21721:21735   */\n      add\n        /* \"#utility.yul\":21707:21719   */\n      dup3\n        /* \"#utility.yul\":21647:21736   */\n      tag_186\n      jump\t// in\n    tag_474:\n        /* \"#utility.yul\":21558:21746   */\n      pop\n        /* \"#utility.yul\":21828:21832   */\n      0x20\n        /* \"#utility.yul\":21821:21826   */\n      dup4\n        /* \"#utility.yul\":21817:21833   */\n      add\n        /* \"#utility.yul\":21811:21834   */\n      mload\n        /* \"#utility.yul\":21847:21936   */\n      tag_475\n        /* \"#utility.yul\":21930:21934   */\n      0x20\n        /* \"#utility.yul\":21925:21928   */\n      dup7\n        /* \"#utility.yul\":21921:21935   */\n      add\n        /* \"#utility.yul\":21907:21919   */\n      dup3\n        /* \"#utility.yul\":21847:21936   */\n      tag_186\n      jump\t// in\n    tag_475:\n        /* \"#utility.yul\":21756:21946   */\n      pop\n        /* \"#utility.yul\":22043:22047   */\n      0x40\n        /* \"#utility.yul\":22036:22041   */\n      dup4\n        /* \"#utility.yul\":22032:22048   */\n      add\n        /* \"#utility.yul\":22026:22049   */\n      mload\n        /* \"#utility.yul\":22062:22123   */\n      tag_476\n        /* \"#utility.yul\":22117:22121   */\n      0x40\n        /* \"#utility.yul\":22112:22115   */\n      dup7\n        /* \"#utility.yul\":22108:22122   */\n      add\n        /* \"#utility.yul\":22094:22106   */\n      dup3\n        /* \"#utility.yul\":22062:22123   */\n      tag_187\n      jump\t// in\n    tag_476:\n        /* \"#utility.yul\":21956:22133   */\n      pop\n        /* \"#utility.yul\":22225:22229   */\n      0x60\n        /* \"#utility.yul\":22218:22223   */\n      dup4\n        /* \"#utility.yul\":22214:22230   */\n      add\n        /* \"#utility.yul\":22208:22231   */\n      mload\n        /* \"#utility.yul\":22278:22281   */\n      dup5\n        /* \"#utility.yul\":22272:22276   */\n      dup3\n        /* \"#utility.yul\":22268:22282   */\n      sub\n        /* \"#utility.yul\":22261:22265   */\n      0x60\n        /* \"#utility.yul\":22256:22259   */\n      dup7\n        /* \"#utility.yul\":22252:22266   */\n      add\n        /* \"#utility.yul\":22245:22283   */\n      mstore\n        /* \"#utility.yul\":22304:22407   */\n      tag_477\n        /* \"#utility.yul\":22402:22406   */\n      dup3\n        /* \"#utility.yul\":22388:22400   */\n      dup3\n        /* \"#utility.yul\":22304:22407   */\n      tag_196\n      jump\t// in\n    tag_477:\n        /* \"#utility.yul\":22296:22407   */\n      swap2\n      pop\n        /* \"#utility.yul\":22143:22418   */\n      pop\n        /* \"#utility.yul\":22509:22513   */\n      0x80\n        /* \"#utility.yul\":22502:22507   */\n      dup4\n        /* \"#utility.yul\":22498:22514   */\n      add\n        /* \"#utility.yul\":22492:22515   */\n      mload\n        /* \"#utility.yul\":22562:22565   */\n      dup5\n        /* \"#utility.yul\":22556:22560   */\n      dup3\n        /* \"#utility.yul\":22552:22566   */\n      sub\n        /* \"#utility.yul\":22545:22549   */\n      0x80\n        /* \"#utility.yul\":22540:22543   */\n      dup7\n        /* \"#utility.yul\":22536:22550   */\n      add\n        /* \"#utility.yul\":22529:22567   */\n      mstore\n        /* \"#utility.yul\":22588:22691   */\n      tag_478\n        /* \"#utility.yul\":22686:22690   */\n      dup3\n        /* \"#utility.yul\":22672:22684   */\n      dup3\n        /* \"#utility.yul\":22588:22691   */\n      tag_196\n      jump\t// in\n    tag_478:\n        /* \"#utility.yul\":22580:22691   */\n      swap2\n      pop\n        /* \"#utility.yul\":22428:22702   */\n      pop\n        /* \"#utility.yul\":22787:22791   */\n      0xa0\n        /* \"#utility.yul\":22780:22785   */\n      dup4\n        /* \"#utility.yul\":22776:22792   */\n      add\n        /* \"#utility.yul\":22770:22793   */\n      mload\n        /* \"#utility.yul\":22840:22843   */\n      dup5\n        /* \"#utility.yul\":22834:22838   */\n      dup3\n        /* \"#utility.yul\":22830:22844   */\n      sub\n        /* \"#utility.yul\":22823:22827   */\n      0xa0\n        /* \"#utility.yul\":22818:22821   */\n      dup7\n        /* \"#utility.yul\":22814:22828   */\n      add\n        /* \"#utility.yul\":22807:22845   */\n      mstore\n        /* \"#utility.yul\":22866:22939   */\n      tag_479\n        /* \"#utility.yul\":22934:22938   */\n      dup3\n        /* \"#utility.yul\":22920:22932   */\n      dup3\n        /* \"#utility.yul\":22866:22939   */\n      tag_200\n      jump\t// in\n    tag_479:\n        /* \"#utility.yul\":22858:22939   */\n      swap2\n      pop\n        /* \"#utility.yul\":22712:22950   */\n      pop\n        /* \"#utility.yul\":22967:22971   */\n      dup1\n        /* \"#utility.yul\":22960:22971   */\n      swap2\n      pop\n        /* \"#utility.yul\":21512:22977   */\n      pop\n        /* \"#utility.yul\":21384:22977   */\n      swap3\n      swap2\n      pop\n      pop\n      jump\t// out\n        /* \"#utility.yul\":22983:23364   */\n    tag_50:\n        /* \"#utility.yul\":23130:23134   */\n      0x00\n        /* \"#utility.yul\":23168:23170   */\n      0x20\n        /* \"#utility.yul\":23157:23166   */\n      dup3\n        /* \"#utility.yul\":23153:23171   */\n      add\n        /* \"#utility.yul\":23145:23171   */\n      swap1\n      pop\n        /* \"#utility.yul\":23217:23226   */\n      dup2\n        /* \"#utility.yul\":23211:23215   */\n      dup2\n        /* \"#utility.yul\":23207:23227   */\n      sub\n        /* \"#utility.yul\":23203:23204   */\n      0x00\n        /* \"#utility.yul\":23192:23201   */\n      dup4\n        /* \"#utility.yul\":23188:23205   */\n      add\n        /* \"#utility.yul\":23181:23228   */\n      mstore\n        /* \"#utility.yul\":23245:23357   */\n      tag_481\n        /* \"#utility.yul\":23352:23356   */\n      dup2\n        /* \"#utility.yul\":23343:23349   */\n      dup5\n        /* \"#utility.yul\":23245:23357   */\n      tag_219\n      jump\t// in\n    tag_481:\n        /* \"#utility.yul\":23237:23357   */\n      swap1\n      pop\n        /* \"#utility.yul\":22983:23364   */\n      swap3\n      swap2\n      pop\n      pop\n      jump\t// out\n        /* \"#utility.yul\":23370:23446   */\n    tag_220:\n        /* \"#utility.yul\":23406:23413   */\n      0x00\n        /* \"#utility.yul\":23435:23440   */\n      dup2\n        /* \"#utility.yul\":23424:23440   */\n      swap1\n      pop\n        /* \"#utility.yul\":23370:23446   */\n      swap2\n      swap1\n      pop\n      jump\t// out\n        /* \"#utility.yul\":23452:23567   */\n    tag_221:\n        /* \"#utility.yul\":23537:23560   */\n      tag_484\n        /* \"#utility.yul\":23554:23559   */\n      dup2\n        /* \"#utility.yul\":23537:23560   */\n      tag_220\n      jump\t// in\n    tag_484:\n        /* \"#utility.yul\":23532:23535   */\n      dup3\n        /* \"#utility.yul\":23525:23561   */\n      mstore\n        /* \"#utility.yul\":23452:23567   */\n      pop\n      pop\n      jump\t// out\n        /* \"#utility.yul\":23573:23791   */\n    tag_54:\n        /* \"#utility.yul\":23664:23668   */\n      0x00\n        /* \"#utility.yul\":23702:23704   */\n      0x20\n        /* \"#utility.yul\":23691:23700   */\n      dup3\n        /* \"#utility.yul\":23687:23705   */\n      add\n        /* \"#utility.yul\":23679:23705   */\n      swap1\n      pop\n        /* \"#utility.yul\":23715:23784   */\n      tag_486\n        /* \"#utility.yul\":23781:23782   */\n      0x00\n        /* \"#utility.yul\":23770:23779   */\n      dup4\n        /* \"#utility.yul\":23766:23783   */\n      add\n        /* \"#utility.yul\":23757:23763   */\n      dup5\n        /* \"#utility.yul\":23715:23784   */\n      tag_221\n      jump\t// in\n    tag_486:\n        /* \"#utility.yul\":23573:23791   */\n      swap3\n      swap2\n      pop\n      pop\n      jump\t// out\n        /* \"#utility.yul\":23797:24178   */\n    tag_57:\n        /* \"#utility.yul\":23882:23888   */\n      0x00\n        /* \"#utility.yul\":23931:23933   */\n      0x20\n        /* \"#utility.yul\":23919:23928   */\n      dup3\n        /* \"#utility.yul\":23910:23917   */\n      dup5\n        /* \"#utility.yul\":23906:23929   */\n      sub\n        /* \"#utility.yul\":23902:23934   */\n      slt\n        /* \"#utility.yul\":23899:24018   */\n      iszero\n      tag_488\n      jumpi\n        /* \"#utility.yul\":23937:24016   */\n      tag_489\n      tag_156\n      jump\t// in\n    tag_489:\n        /* \"#utility.yul\":23899:24018   */\n    tag_488:\n        /* \"#utility.yul\":24057:24058   */\n      0x00\n        /* \"#utility.yul\":24082:24161   */\n      tag_490\n        /* \"#utility.yul\":24153:24160   */\n      dup5\n        /* \"#utility.yul\":24144:24150   */\n      dup3\n        /* \"#utility.yul\":24133:24142   */\n      dup6\n        /* \"#utility.yul\":24129:24151   */\n      add\n        /* \"#utility.yul\":24082:24161   */\n      tag_206\n      jump\t// in\n    tag_490:\n        /* \"#utility.yul\":24072:24161   */\n      swap2\n      pop\n        /* \"#utility.yul\":24028:24171   */\n      pop\n        /* \"#utility.yul\":23797:24178   */\n      swap3\n      swap2\n      pop\n      pop\n      jump\t// out\n        /* \"#utility.yul\":24184:24280   */\n    tag_222:\n        /* \"#utility.yul\":24218:24226   */\n      0x00\n        /* \"#utility.yul\":24267:24272   */\n      dup2\n        /* \"#utility.yul\":24262:24265   */\n      0xc0\n        /* \"#utility.yul\":24258:24273   */\n      shl\n        /* \"#utility.yul\":24237:24273   */\n      swap1\n      pop\n        /* \"#utility.yul\":24184:24280   */\n      swap2\n      swap1\n      pop\n      jump\t// out\n        /* \"#utility.yul\":24286:24379   */\n    tag_223:\n        /* \"#utility.yul\":24323:24330   */\n      0x00\n        /* \"#utility.yul\":24352:24373   */\n      tag_493\n        /* \"#utility.yul\":24367:24372   */\n      dup3\n        /* \"#utility.yul\":24352:24373   */\n      tag_222\n      jump\t// in\n    tag_493:\n        /* \"#utility.yul\":24341:24373   */\n      swap1\n      pop\n        /* \"#utility.yul\":24286:24379   */\n      swap2\n      swap1\n      pop\n      jump\t// out\n        /* \"#utility.yul\":24385:24534   */\n    tag_224:\n        /* \"#utility.yul\":24486:24527   */\n      tag_495\n        /* \"#utility.yul\":24504:24526   */\n      tag_496\n        /* \"#utility.yul\":24520:24525   */\n      dup3\n        /* \"#utility.yul\":24504:24526   */\n      tag_158\n      jump\t// in\n    tag_496:\n        /* \"#utility.yul\":24486:24527   */\n      tag_223\n      jump\t// in\n    tag_495:\n        /* \"#utility.yul\":24481:24484   */\n      dup3\n        /* \"#utility.yul\":24474:24528   */\n      mstore\n        /* \"#utility.yul\":24385:24534   */\n      pop\n      pop\n      jump\t// out\n        /* \"#utility.yul\":24540:24787   */\n    tag_61:\n        /* \"#utility.yul\":24648:24651   */\n      0x00\n        /* \"#utility.yul\":24663:24734   */\n      tag_498\n        /* \"#utility.yul\":24730:24733   */\n      dup3\n        /* \"#utility.yul\":24721:24727   */\n      dup5\n        /* \"#utility.yul\":24663:24734   */\n      tag_224\n      jump\t// in\n    tag_498:\n        /* \"#utility.yul\":24759:24760   */\n      0x08\n        /* \"#utility.yul\":24754:24757   */\n      dup3\n        /* \"#utility.yul\":24750:24761   */\n      add\n        /* \"#utility.yul\":24743:24761   */\n      swap2\n      pop\n        /* \"#utility.yul\":24778:24781   */\n      dup2\n        /* \"#utility.yul\":24771:24781   */\n      swap1\n      pop\n        /* \"#utility.yul\":24540:24787   */\n      swap3\n      swap2\n      pop\n      pop\n      jump\t// out\n        /* \"#utility.yul\":24793:24872   */\n    tag_225:\n        /* \"#utility.yul\":24832:24839   */\n      0x00\n        /* \"#utility.yul\":24861:24866   */\n      dup2\n        /* \"#utility.yul\":24850:24866   */\n      swap1\n      pop\n        /* \"#utility.yul\":24793:24872   */\n      swap2\n      swap1\n      pop\n      jump\t// out\n        /* \"#utility.yul\":24878:25035   */\n    tag_226:\n        /* \"#utility.yul\":24983:25028   */\n      tag_501\n        /* \"#utility.yul\":25003:25027   */\n      tag_502\n        /* \"#utility.yul\":25021:25026   */\n      dup3\n        /* \"#utility.yul\":25003:25027   */\n      tag_166\n      jump\t// in\n    tag_502:\n        /* \"#utility.yul\":24983:25028   */\n      tag_225\n      jump\t// in\n    tag_501:\n        /* \"#utility.yul\":24978:24981   */\n      dup3\n        /* \"#utility.yul\":24971:25029   */\n      mstore\n        /* \"#utility.yul\":24878:25035   */\n      pop\n      pop\n      jump\t// out\n        /* \"#utility.yul\":25041:25189   */\n    tag_227:\n        /* \"#utility.yul\":25143:25154   */\n      0x00\n        /* \"#utility.yul\":25180:25183   */\n      dup2\n        /* \"#utility.yul\":25165:25183   */\n      swap1\n      pop\n        /* \"#utility.yul\":25041:25189   */\n      swap3\n      swap2\n      pop\n      pop\n      jump\t// out\n        /* \"#utility.yul\":25195:25585   */\n    tag_228:\n        /* \"#utility.yul\":25301:25304   */\n      0x00\n        /* \"#utility.yul\":25329:25368   */\n      tag_505\n        /* \"#utility.yul\":25362:25367   */\n      dup3\n        /* \"#utility.yul\":25329:25368   */\n      tag_197\n      jump\t// in\n    tag_505:\n        /* \"#utility.yul\":25384:25473   */\n      tag_506\n        /* \"#utility.yul\":25466:25472   */\n      dup2\n        /* \"#utility.yul\":25461:25464   */\n      dup6\n        /* \"#utility.yul\":25384:25473   */\n      tag_227\n      jump\t// in\n    tag_506:\n        /* \"#utility.yul\":25377:25473   */\n      swap4\n      pop\n        /* \"#utility.yul\":25482:25547   */\n      tag_507\n        /* \"#utility.yul\":25540:25546   */\n      dup2\n        /* \"#utility.yul\":25535:25538   */\n      dup6\n        /* \"#utility.yul\":25528:25532   */\n      0x20\n        /* \"#utility.yul\":25521:25526   */\n      dup7\n        /* \"#utility.yul\":25517:25533   */\n      add\n        /* \"#utility.yul\":25482:25547   */\n      tag_199\n      jump\t// in\n    tag_507:\n        /* \"#utility.yul\":25572:25578   */\n      dup1\n        /* \"#utility.yul\":25567:25570   */\n      dup5\n        /* \"#utility.yul\":25563:25579   */\n      add\n        /* \"#utility.yul\":25556:25579   */\n      swap2\n      pop\n        /* \"#utility.yul\":25305:25585   */\n      pop\n        /* \"#utility.yul\":25195:25585   */\n      swap3\n      swap2\n      pop\n      pop\n      jump\t// out\n        /* \"#utility.yul\":25591:26007   */\n    tag_64:\n        /* \"#utility.yul\":25751:25754   */\n      0x00\n        /* \"#utility.yul\":25766:25841   */\n      tag_509\n        /* \"#utility.yul\":25837:25840   */\n      dup3\n        /* \"#utility.yul\":25828:25834   */\n      dup6\n        /* \"#utility.yul\":25766:25841   */\n      tag_226\n      jump\t// in\n    tag_509:\n        /* \"#utility.yul\":25866:25868   */\n      0x20\n        /* \"#utility.yul\":25861:25864   */\n      dup3\n        /* \"#utility.yul\":25857:25869   */\n      add\n        /* \"#utility.yul\":25850:25869   */\n      swap2\n      pop\n        /* \"#utility.yul\":25886:25981   */\n      tag_510\n        /* \"#utility.yul\":25977:25980   */\n      dup3\n        /* \"#utility.yul\":25968:25974   */\n      dup5\n        /* \"#utility.yul\":25886:25981   */\n      tag_228\n      jump\t// in\n    tag_510:\n        /* \"#utility.yul\":25879:25981   */\n      swap2\n      pop\n        /* \"#utility.yul\":25998:26001   */\n      dup2\n        /* \"#utility.yul\":25991:26001   */\n      swap1\n      pop\n        /* \"#utility.yul\":25591:26007   */\n      swap4\n      swap3\n      pop\n      pop\n      pop\n      jump\t// out\n        /* \"#utility.yul\":26013:26107   */\n    tag_229:\n        /* \"#utility.yul\":26051:26058   */\n      0x00\n        /* \"#utility.yul\":26080:26101   */\n      tag_512\n        /* \"#utility.yul\":26095:26100   */\n      dup3\n        /* \"#utility.yul\":26080:26101   */\n      tag_222\n      jump\t// in\n    tag_512:\n        /* \"#utility.yul\":26069:26101   */\n      swap1\n      pop\n        /* \"#utility.yul\":26013:26107   */\n      swap2\n      swap1\n      pop\n      jump\t// out\n        /* \"#utility.yul\":26113:26266   */\n    tag_230:\n        /* \"#utility.yul\":26216:26259   */\n      tag_514\n        /* \"#utility.yul\":26235:26258   */\n      tag_515\n        /* \"#utility.yul\":26252:26257   */\n      dup3\n        /* \"#utility.yul\":26235:26258   */\n      tag_164\n      jump\t// in\n    tag_515:\n        /* \"#utility.yul\":26216:26259   */\n      tag_229\n      jump\t// in\n    tag_514:\n        /* \"#utility.yul\":26211:26214   */\n      dup3\n        /* \"#utility.yul\":26204:26260   */\n      mstore\n        /* \"#utility.yul\":26113:26266   */\n      pop\n      pop\n      jump\t// out\n        /* \"#utility.yul\":26272:26683   */\n    tag_67:\n        /* \"#utility.yul\":26430:26433   */\n      0x00\n        /* \"#utility.yul\":26445:26518   */\n      tag_517\n        /* \"#utility.yul\":26514:26517   */\n      dup3\n        /* \"#utility.yul\":26505:26511   */\n      dup6\n        /* \"#utility.yul\":26445:26518   */\n      tag_230\n      jump\t// in\n    tag_517:\n        /* \"#utility.yul\":26543:26544   */\n      0x08\n        /* \"#utility.yul\":26538:26541   */\n      dup3\n        /* \"#utility.yul\":26534:26545   */\n      add\n        /* \"#utility.yul\":26527:26545   */\n      swap2\n      pop\n        /* \"#utility.yul\":26562:26657   */\n      tag_518\n        /* \"#utility.yul\":26653:26656   */\n      dup3\n        /* \"#utility.yul\":26644:26650   */\n      dup5\n        /* \"#utility.yul\":26562:26657   */\n      tag_228\n      jump\t// in\n    tag_518:\n        /* \"#utility.yul\":26555:26657   */\n      swap2\n      pop\n        /* \"#utility.yul\":26674:26677   */\n      dup2\n        /* \"#utility.yul\":26667:26677   */\n      swap1\n      pop\n        /* \"#utility.yul\":26272:26683   */\n      swap4\n      swap3\n      pop\n      pop\n      pop\n      jump\t// out\n        /* \"#utility.yul\":26689:26869   */\n    tag_231:\n        /* \"#utility.yul\":26737:26814   */\n      0x4e487b7100000000000000000000000000000000000000000000000000000000\n        /* \"#utility.yul\":26734:26735   */\n      0x00\n        /* \"#utility.yul\":26727:26815   */\n      mstore\n        /* \"#utility.yul\":26834:26838   */\n      0x22\n        /* \"#utility.yul\":26831:26832   */\n      0x04\n        /* \"#utility.yul\":26824:26839   */\n      mstore\n        /* \"#utility.yul\":26858:26862   */\n      0x24\n        /* \"#utility.yul\":26855:26856   */\n      0x00\n        /* \"#utility.yul\":26848:26863   */\n      revert\n        /* \"#utility.yul\":26875:27195   */\n    tag_76:\n        /* \"#utility.yul\":26919:26925   */\n      0x00\n        /* \"#utility.yul\":26956:26957   */\n      0x02\n        /* \"#utility.yul\":26950:26954   */\n      dup3\n        /* \"#utility.yul\":26946:26958   */\n      div\n        /* \"#utility.yul\":26936:26958   */\n      swap1\n      pop\n        /* \"#utility.yul\":27003:27004   */\n      0x01\n        /* \"#utility.yul\":26997:27001   */\n      dup3\n        /* \"#utility.yul\":26993:27005   */\n      and\n        /* \"#utility.yul\":27024:27042   */\n      dup1\n        /* \"#utility.yul\":27014:27095   */\n      tag_521\n      jumpi\n        /* \"#utility.yul\":27080:27084   */\n      0x7f\n        /* \"#utility.yul\":27072:27078   */\n      dup3\n        /* \"#utility.yul\":27068:27085   */\n      and\n        /* \"#utility.yul\":27058:27085   */\n      swap2\n      pop\n        /* \"#utility.yul\":27014:27095   */\n    tag_521:\n        /* \"#utility.yul\":27142:27144   */\n      0x20\n        /* \"#utility.yul\":27134:27140   */\n      dup3\n        /* \"#utility.yul\":27131:27145   */\n      lt\n        /* \"#utility.yul\":27111:27129   */\n      dup2\n        /* \"#utility.yul\":27108:27146   */\n      sub\n        /* \"#utility.yul\":27105:27189   */\n      tag_522\n      jumpi\n        /* \"#utility.yul\":27161:27179   */\n      tag_523\n      tag_231\n      jump\t// in\n    tag_523:\n        /* \"#utility.yul\":27105:27189   */\n    tag_522:\n        /* \"#utility.yul\":26926:27195   */\n      pop\n        /* \"#utility.yul\":26875:27195   */\n      swap2\n      swap1\n      pop\n      jump\t// out\n        /* \"#utility.yul\":27201:27381   */\n    tag_89:\n        /* \"#utility.yul\":27249:27326   */\n      0x4e487b7100000000000000000000000000000000000000000000000000000000\n        /* \"#utility.yul\":27246:27247   */\n      0x00\n        /* \"#utility.yul\":27239:27327   */\n      mstore\n        /* \"#utility.yul\":27346:27350   */\n      0x32\n        /* \"#utility.yul\":27343:27344   */\n      0x04\n        /* \"#utility.yul\":27336:27351   */\n      mstore\n        /* \"#utility.yul\":27370:27374   */\n      0x24\n        /* \"#utility.yul\":27367:27368   */\n      0x00\n        /* \"#utility.yul\":27360:27375   */\n      revert\n        /* \"#utility.yul\":27387:27662   */\n    tag_95:\n        /* \"#utility.yul\":27519:27522   */\n      0x00\n        /* \"#utility.yul\":27541:27636   */\n      tag_526\n        /* \"#utility.yul\":27632:27635   */\n      dup3\n        /* \"#utility.yul\":27623:27629   */\n      dup5\n        /* \"#utility.yul\":27541:27636   */\n      tag_228\n      jump\t// in\n    tag_526:\n        /* \"#utility.yul\":27534:27636   */\n      swap2\n      pop\n        /* \"#utility.yul\":27653:27656   */\n      dup2\n        /* \"#utility.yul\":27646:27656   */\n      swap1\n      pop\n        /* \"#utility.yul\":27387:27662   */\n      swap3\n      swap2\n      pop\n      pop\n      jump\t// out\n        /* \"#utility.yul\":27668:27808   */\n    tag_232:\n        /* \"#utility.yul\":27716:27720   */\n      0x00\n        /* \"#utility.yul\":27739:27742   */\n      dup2\n        /* \"#utility.yul\":27731:27742   */\n      swap1\n      pop\n        /* \"#utility.yul\":27762:27765   */\n      dup2\n        /* \"#utility.yul\":27759:27760   */\n      0x00\n        /* \"#utility.yul\":27752:27766   */\n      mstore\n        /* \"#utility.yul\":27796:27800   */\n      0x20\n        /* \"#utility.yul\":27793:27794   */\n      0x00\n        /* \"#utility.yul\":27783:27801   */\n      keccak256\n        /* \"#utility.yul\":27775:27801   */\n      swap1\n      pop\n        /* \"#utility.yul\":27668:27808   */\n      swap2\n      swap1\n      pop\n      jump\t// out\n        /* \"#utility.yul\":27814:27907   */\n    tag_233:\n        /* \"#utility.yul\":27851:27857   */\n      0x00\n        /* \"#utility.yul\":27898:27900   */\n      0x20\n        /* \"#utility.yul\":27893:27895   */\n      0x1f\n        /* \"#utility.yul\":27886:27891   */\n      dup4\n        /* \"#utility.yul\":27882:27896   */\n      add\n        /* \"#utility.yul\":27878:27901   */\n      div\n        /* \"#utility.yul\":27868:27901   */\n      swap1\n      pop\n        /* \"#utility.yul\":27814:27907   */\n      swap2\n      swap1\n      pop\n      jump\t// out\n        /* \"#utility.yul\":27913:28020   */\n    tag_234:\n        /* \"#utility.yul\":27957:27965   */\n      0x00\n        /* \"#utility.yul\":28007:28012   */\n      dup3\n        /* \"#utility.yul\":28001:28005   */\n      dup3\n        /* \"#utility.yul\":27997:28013   */\n      shl\n        /* \"#utility.yul\":27976:28013   */\n      swap1\n      pop\n        /* \"#utility.yul\":27913:28020   */\n      swap3\n      swap2\n      pop\n      pop\n      jump\t// out\n        /* \"#utility.yul\":28026:28419   */\n    tag_235:\n        /* \"#utility.yul\":28095:28101   */\n      0x00\n        /* \"#utility.yul\":28145:28146   */\n      0x08\n        /* \"#utility.yul\":28133:28143   */\n      dup4\n        /* \"#utility.yul\":28129:28147   */\n      mul\n        /* \"#utility.yul\":28168:28265   */\n      tag_531\n        /* \"#utility.yul\":28198:28264   */\n      0xffffffffffffffffffffffffffffffffffffffffffffffffffffffffffffffff\n        /* \"#utility.yul\":28187:28196   */\n      dup3\n        /* \"#utility.yul\":28168:28265   */\n      tag_234\n      jump\t// in\n    tag_531:\n        /* \"#utility.yul\":28286:28325   */\n      tag_532\n        /* \"#utility.yul\":28316:28324   */\n      dup7\n        /* \"#utility.yul\":28305:28314   */\n      dup4\n        /* \"#utility.yul\":28286:28325   */\n      tag_234\n      jump\t// in\n    tag_532:\n        /* \"#utility.yul\":28274:28325   */\n      swap6\n      pop\n        /* \"#utility.yul\":28358:28362   */\n      dup1\n        /* \"#utility.yul\":28354:28363   */\n      not\n        /* \"#utility.yul\":28347:28352   */\n      dup5\n        /* \"#utility.yul\":28343:28364   */\n      and\n        /* \"#utility.yul\":28334:28364   */\n      swap4\n      pop\n        /* \"#utility.yul\":28407:28411   */\n      dup1\n        /* \"#utility.yul\":28397:28405   */\n      dup7\n        /* \"#utility.yul\":28393:28412   */\n      and\n        /* \"#utility.yul\":28386:28391   */\n      dup5\n        /* \"#utility.yul\":28383:28413   */\n      or\n        /* \"#utility.yul\":28373:28413   */\n      swap3\n      pop\n        /* \"#utility.yul\":28102:28419   */\n      pop\n      pop\n        /* \"#utility.yul\":28026:28419   */\n      swap4\n      swap3\n      pop\n      pop\n      pop\n      jump\t// out\n        /* \"#utility.yul\":28425:28485   */\n    tag_236:\n        /* \"#utility.yul\":28453:28456   */\n      0x00\n        /* \"#utility.yul\":28474:28479   */\n      dup2\n        /* \"#utility.yul\":28467:28479   */\n      swap1\n      pop\n        /* \"#utility.yul\":28425:28485   */\n      swap2\n      swap1\n      pop\n      jump\t// out\n        /* \"#utility.yul\":28491:28633   */\n    tag_237:\n        /* \"#utility.yul\":28541:28550   */\n      0x00\n        /* \"#utility.yul\":28574:28627   */\n      tag_535\n        /* \"#utility.yul\":28592:28626   */\n      tag_536\n        /* \"#utility.yul\":28601:28625   */\n      tag_537\n        /* \"#utility.yul\":28619:28624   */\n      dup5\n        /* \"#utility.yul\":28601:28625   */\n      tag_166\n      jump\t// in\n    tag_537:\n        /* \"#utility.yul\":28592:28626   */\n      tag_236\n      jump\t// in\n    tag_536:\n        /* \"#utility.yul\":28574:28627   */\n      tag_166\n      jump\t// in\n    tag_535:\n        /* \"#utility.yul\":28561:28627   */\n      swap1\n      pop\n        /* \"#utility.yul\":28491:28633   */\n      swap2\n      swap1\n      pop\n      jump\t// out\n        /* \"#utility.yul\":28639:28714   */\n    tag_238:\n        /* \"#utility.yul\":28682:28685   */\n      0x00\n        /* \"#utility.yul\":28703:28708   */\n      dup2\n        /* \"#utility.yul\":28696:28708   */\n      swap1\n      pop\n        /* \"#utility.yul\":28639:28714   */\n      swap2\n      swap1\n      pop\n      jump\t// out\n        /* \"#utility.yul\":28720:28989   */\n    tag_239:\n        /* \"#utility.yul\":28830:28869   */\n      tag_540\n        /* \"#utility.yul\":28861:28868   */\n      dup4\n        /* \"#utility.yul\":28830:28869   */\n      tag_237\n      jump\t// in\n    tag_540:\n        /* \"#utility.yul\":28891:28982   */\n      tag_541\n        /* \"#utility.yul\":28940:28981   */\n      tag_542\n        /* \"#utility.yul\":28964:28980   */\n      dup3\n        /* \"#utility.yul\":28940:28981   */\n      tag_238\n      jump\t// in\n    tag_542:\n        /* \"#utility.yul\":28932:28938   */\n      dup5\n        /* \"#utility.yul\":28925:28929   */\n      dup5\n        /* \"#utility.yul\":28919:28930   */\n      sload\n        /* \"#utility.yul\":28891:28982   */\n      tag_235\n      jump\t// in\n    tag_541:\n        /* \"#utility.yul\":28885:28889   */\n      dup3\n        /* \"#utility.yul\":28878:28983   */\n      sstore\n        /* \"#utility.yul\":28796:28989   */\n      pop\n        /* \"#utility.yul\":28720:28989   */\n      pop\n      pop\n      pop\n      jump\t// out\n        /* \"#utility.yul\":28995:29068   */\n    tag_240:\n        /* \"#utility.yul\":29040:29043   */\n      0x00\n        /* \"#utility.yul\":28995:29068   */\n      swap1\n      jump\t// out\n        /* \"#utility.yul\":29074:29263   */\n    tag_241:\n        /* \"#utility.yul\":29151:29183   */\n      tag_545\n      tag_240\n      jump\t// in\n    tag_545:\n        /* \"#utility.yul\":29192:29257   */\n      tag_546\n        /* \"#utility.yul\":29250:29256   */\n      dup2\n        /* \"#utility.yul\":29242:29248   */\n      dup5\n        /* \"#utility.yul\":29236:29240   */\n      dup5\n        /* \"#utility.yul\":29192:29257   */\n      tag_239\n      jump\t// in\n    tag_546:\n        /* \"#utility.yul\":29127:29263   */\n      pop\n        /* \"#utility.yul\":29074:29263   */\n      pop\n      pop\n      jump\t// out\n        /* \"#utility.yul\":29269:29455   */\n    tag_242:\n        /* \"#utility.yul\":29329:29449   */\n    tag_548:\n        /* \"#utility.yul\":29346:29349   */\n      dup2\n        /* \"#utility.yul\":29339:29344   */\n      dup2\n        /* \"#utility.yul\":29336:29350   */\n      lt\n        /* \"#utility.yul\":29329:29449   */\n      iszero\n      tag_550\n      jumpi\n        /* \"#utility.yul\":29400:29439   */\n      tag_551\n        /* \"#utility.yul\":29437:29438   */\n      0x00\n        /* \"#utility.yul\":29430:29435   */\n      dup3\n        /* \"#utility.yul\":29400:29439   */\n      tag_241\n      jump\t// in\n    tag_551:\n        /* \"#utility.yul\":29373:29374   */\n      0x01\n        /* \"#utility.yul\":29366:29371   */\n      dup2\n        /* \"#utility.yul\":29362:29375   */\n      add\n        /* \"#utility.yul\":29353:29375   */\n      swap1\n      pop\n        /* \"#utility.yul\":29329:29449   */\n      jump(tag_548)\n    tag_550:\n        /* \"#utility.yul\":29269:29455   */\n      pop\n      pop\n      jump\t// out\n        /* \"#utility.yul\":29461:30002   */\n    tag_243:\n        /* \"#utility.yul\":29561:29563   */\n      0x1f\n        /* \"#utility.yul\":29556:29559   */\n      dup3\n        /* \"#utility.yul\":29553:29564   */\n      gt\n        /* \"#utility.yul\":29550:29995   */\n      iszero\n      tag_553\n      jumpi\n        /* \"#utility.yul\":29595:29632   */\n      tag_554\n        /* \"#utility.yul\":29626:29631   */\n      dup2\n        /* \"#utility.yul\":29595:29632   */\n      tag_232\n      jump\t// in\n    tag_554:\n        /* \"#utility.yul\":29678:29707   */\n      tag_555\n        /* \"#utility.yul\":29696:29706   */\n      dup5\n        /* \"#utility.yul\":29678:29707   */\n      tag_233\n      jump\t// in\n    tag_555:\n        /* \"#utility.yul\":29668:29676   */\n      dup2\n        /* \"#utility.yul\":29664:29708   */\n      add\n        /* \"#utility.yul\":29861:29863   */\n      0x20\n        /* \"#utility.yul\":29849:29859   */\n      dup6\n        /* \"#utility.yul\":29846:29864   */\n      lt\n        /* \"#utility.yul\":29843:29892   */\n      iszero\n      tag_556\n      jumpi\n        /* \"#utility.yul\":29882:29890   */\n      dup2\n        /* \"#utility.yul\":29867:29890   */\n      swap1\n      pop\n        /* \"#utility.yul\":29843:29892   */\n    tag_556:\n        /* \"#utility.yul\":29905:29985   */\n      tag_557\n        /* \"#utility.yul\":29961:29983   */\n      tag_558\n        /* \"#utility.yul\":29979:29982   */\n      dup6\n        /* \"#utility.yul\":29961:29983   */\n      tag_233\n      jump\t// in\n    tag_558:\n        /* \"#utility.yul\":29951:29959   */\n      dup4\n        /* \"#utility.yul\":29947:29984   */\n      add\n        /* \"#utility.yul\":29934:29945   */\n      dup3\n        /* \"#utility.yul\":29905:29985   */\n      tag_242\n      jump\t// in\n    tag_557:\n        /* \"#utility.yul\":29565:29995   */\n      pop\n      pop\n        /* \"#utility.yul\":29550:29995   */\n    tag_553:\n        /* \"#utility.yul\":29461:30002   */\n      pop\n      pop\n      pop\n      jump\t// out\n        /* \"#utility.yul\":30008:30125   */\n    tag_244:\n        /* \"#utility.yul\":30062:30070   */\n      0x00\n        /* \"#utility.yul\":30112:30117   */\n      dup3\n        /* \"#utility.yul\":30106:30110   */\n      dup3\n        /* \"#utility.yul\":30102:30118   */\n      shr\n        /* \"#utility.yul\":30081:30118   */\n      swap1\n      pop\n        /* \"#utility.yul\":30008:30125   */\n      swap3\n      swap2\n      pop\n      pop\n      jump\t// out\n        /* \"#utility.yul\":30131:30300   */\n    tag_245:\n        /* \"#utility.yul\":30175:30181   */\n      0x00\n        /* \"#utility.yul\":30208:30259   */\n      tag_561\n        /* \"#utility.yul\":30256:30257   */\n      0x00\n        /* \"#utility.yul\":30252:30258   */\n      not\n        /* \"#utility.yul\":30244:30249   */\n      dup5\n        /* \"#utility.yul\":30241:30242   */\n      0x08\n        /* \"#utility.yul\":30237:30250   */\n      mul\n        /* \"#utility.yul\":30208:30259   */\n      tag_244\n      jump\t// in\n    tag_561:\n        /* \"#utility.yul\":30204:30260   */\n      not\n        /* \"#utility.yul\":30289:30293   */\n      dup1\n        /* \"#utility.yul\":30283:30287   */\n      dup4\n        /* \"#utility.yul\":30279:30294   */\n      and\n        /* \"#utility.yul\":30269:30294   */\n      swap2\n      pop\n        /* \"#utility.yul\":30182:30300   */\n      pop\n        /* \"#utility.yul\":30131:30300   */\n      swap3\n      swap2\n      pop\n      pop\n      jump\t// out\n        /* \"#utility.yul\":30305:30600   */\n    tag_246:\n        /* \"#utility.yul\":30381:30385   */\n      0x00\n        /* \"#utility.yul\":30527:30556   */\n      tag_563\n        /* \"#utility.yul\":30552:30555   */\n      dup4\n        /* \"#utility.yul\":30546:30550   */\n      dup4\n        /* \"#utility.yul\":30527:30556   */\n      tag_245\n      jump\t// in\n    tag_563:\n        /* \"#utility.yul\":30519:30556   */\n      swap2\n      pop\n        /* \"#utility.yul\":30589:30592   */\n      dup3\n        /* \"#utility.yul\":30586:30587   */\n      0x02\n        /* \"#utility.yul\":30582:30593   */\n      mul\n        /* \"#utility.yul\":30576:30580   */\n      dup3\n        /* \"#utility.yul\":30573:30594   */\n      or\n        /* \"#utility.yul\":30565:30594   */\n      swap1\n      pop\n        /* \"#utility.yul\":30305:30600   */\n      swap3\n      swap2\n      pop\n      pop\n      jump\t// out\n        /* \"#utility.yul\":30605:31995   */\n    tag_97:\n        /* \"#utility.yul\":30720:30756   */\n      tag_565\n        /* \"#utility.yul\":30752:30755   */\n      dup3\n        /* \"#utility.yul\":30720:30756   */\n      tag_210\n      jump\t// in\n    tag_565:\n        /* \"#utility.yul\":30821:30839   */\n      0xffffffffffffffff\n        /* \"#utility.yul\":30813:30819   */\n      dup2\n        /* \"#utility.yul\":30810:30840   */\n      gt\n        /* \"#utility.yul\":30807:30863   */\n      iszero\n      tag_566\n      jumpi\n        /* \"#utility.yul\":30843:30861   */\n      tag_567\n      tag_172\n      jump\t// in\n    tag_567:\n        /* \"#utility.yul\":30807:30863   */\n    tag_566:\n        /* \"#utility.yul\":30887:30925   */\n      tag_568\n        /* \"#utility.yul\":30919:30923   */\n      dup3\n        /* \"#utility.yul\":30913:30924   */\n      sload\n        /* \"#utility.yul\":30887:30925   */\n      tag_76\n      jump\t// in\n    tag_568:\n        /* \"#utility.yul\":30972:31038   */\n      tag_569\n        /* \"#utility.yul\":31031:31037   */\n      dup3\n        /* \"#utility.yul\":31023:31029   */\n      dup3\n        /* \"#utility.yul\":31017:31021   */\n      dup6\n        /* \"#utility.yul\":30972:31038   */\n      tag_243\n      jump\t// in\n    tag_569:\n        /* \"#utility.yul\":31065:31066   */\n      0x00\n        /* \"#utility.yul\":31089:31093   */\n      0x20\n        /* \"#utility.yul\":31076:31093   */\n      swap1\n      pop\n        /* \"#utility.yul\":31121:31123   */\n      0x1f\n        /* \"#utility.yul\":31113:31119   */\n      dup4\n        /* \"#utility.yul\":31110:31124   */\n      gt\n        /* \"#utility.yul\":31138:31139   */\n      0x01\n        /* \"#utility.yul\":31133:31750   */\n      dup2\n      eq\n      tag_571\n      jumpi\n        /* \"#utility.yul\":31794:31795   */\n      0x00\n        /* \"#utility.yul\":31811:31817   */\n      dup5\n        /* \"#utility.yul\":31808:31885   */\n      iszero\n      tag_572\n      jumpi\n        /* \"#utility.yul\":31860:31869   */\n      dup3\n        /* \"#utility.yul\":31855:31858   */\n      dup8\n        /* \"#utility.yul\":31851:31870   */\n      add\n        /* \"#utility.yul\":31845:31871   */\n      mload\n        /* \"#utility.yul\":31836:31871   */\n      swap1\n      pop\n        /* \"#utility.yul\":31808:31885   */\n    tag_572:\n        /* \"#utility.yul\":31911:31978   */\n      tag_573\n        /* \"#utility.yul\":31971:31977   */\n      dup6\n        /* \"#utility.yul\":31964:31969   */\n      dup3\n        /* \"#utility.yul\":31911:31978   */\n      tag_246\n      jump\t// in\n    tag_573:\n        /* \"#utility.yul\":31905:31909   */\n      dup7\n        /* \"#utility.yul\":31898:31979   */\n      sstore\n        /* \"#utility.yul\":31767:31989   */\n      pop\n        /* \"#utility.yul\":31103:31989   */\n      jump(tag_570)\n        /* \"#utility.yul\":31133:31750   */\n    tag_571:\n        /* \"#utility.yul\":31185:31189   */\n      0x1f\n        /* \"#utility.yul\":31181:31190   */\n      not\n        /* \"#utility.yul\":31173:31179   */\n      dup5\n        /* \"#utility.yul\":31169:31191   */\n      and\n        /* \"#utility.yul\":31219:31255   */\n      tag_574\n        /* \"#utility.yul\":31250:31254   */\n      dup7\n        /* \"#utility.yul\":31219:31255   */\n      tag_232\n      jump\t// in\n    tag_574:\n        /* \"#utility.yul\":31277:31278   */\n      0x00\n        /* \"#utility.yul\":31291:31499   */\n    tag_575:\n        /* \"#utility.yul\":31305:31312   */\n      dup3\n        /* \"#utility.yul\":31302:31303   */\n      dup2\n        /* \"#utility.yul\":31299:31313   */\n      lt\n        /* \"#utility.yul\":31291:31499   */\n      iszero\n      tag_577\n      jumpi\n        /* \"#utility.yul\":31384:31393   */\n      dup5\n        /* \"#utility.yul\":31379:31382   */\n      dup10\n        /* \"#utility.yul\":31375:31394   */\n      add\n        /* \"#utility.yul\":31369:31395   */\n      mload\n        /* \"#utility.yul\":31361:31367   */\n      dup3\n        /* \"#utility.yul\":31354:31396   */\n      sstore\n        /* \"#utility.yul\":31435:31436   */\n      0x01\n        /* \"#utility.yul\":31427:31433   */\n      dup3\n        /* \"#utility.yul\":31423:31437   */\n      add\n        /* \"#utility.yul\":31413:31437   */\n      swap2\n      pop\n        /* \"#utility.yul\":31482:31484   */\n      0x20\n        /* \"#utility.yul\":31471:31480   */\n      dup6\n        /* \"#utility.yul\":31467:31485   */\n      add\n        /* \"#utility.yul\":31454:31485   */\n      swap5\n      pop\n        /* \"#utility.yul\":31328:31332   */\n      0x20\n        /* \"#utility.yul\":31325:31326   */\n      dup2\n        /* \"#utility.yul\":31321:31333   */\n      add\n        /* \"#utility.yul\":31316:31333   */\n      swap1\n      pop\n        /* \"#utility.yul\":31291:31499   */\n      jump(tag_575)\n    tag_577:\n        /* \"#utility.yul\":31527:31533   */\n      dup7\n        /* \"#utility.yul\":31518:31525   */\n      dup4\n        /* \"#utility.yul\":31515:31534   */\n      lt\n        /* \"#utility.yul\":31512:31691   */\n      iszero\n      tag_578\n      jumpi\n        /* \"#utility.yul\":31585:31594   */\n      dup5\n        /* \"#utility.yul\":31580:31583   */\n      dup10\n        /* \"#utility.yul\":31576:31595   */\n      add\n        /* \"#utility.yul\":31570:31596   */\n      mload\n        /* \"#utility.yul\":31628:31676   */\n      tag_579\n        /* \"#utility.yul\":31670:31674   */\n      0x1f\n        /* \"#utility.yul\":31662:31668   */\n      dup10\n        /* \"#utility.yul\":31658:31675   */\n      and\n        /* \"#utility.yul\":31647:31656   */\n      dup3\n        /* \"#utility.yul\":31628:31676   */\n      tag_245\n      jump\t// in\n    tag_579:\n        /* \"#utility.yul\":31620:31626   */\n      dup4\n        /* \"#utility.yul\":31613:31677   */\n      sstore\n        /* \"#utility.yul\":31535:31691   */\n      pop\n        /* \"#utility.yul\":31512:31691   */\n    tag_578:\n        /* \"#utility.yul\":31737:31738   */\n      0x01\n        /* \"#utility.yul\":31733:31734   */\n      0x02\n        /* \"#utility.yul\":31725:31731   */\n      dup9\n        /* \"#utility.yul\":31721:31735   */\n      mul\n        /* \"#utility.yul\":31717:31739   */\n      add\n        /* \"#utility.yul\":31711:31715   */\n      dup9\n        /* \"#utility.yul\":31704:31740   */\n      sstore\n        /* \"#utility.yul\":31140:31750   */\n      pop\n      pop\n      pop\n        /* \"#utility.yul\":31103:31989   */\n    tag_570:\n      pop\n        /* \"#utility.yul\":30695:31995   */\n      pop\n      pop\n      pop\n        /* \"#utility.yul\":30605:31995   */\n      pop\n      pop\n      jump\t// out\n        /* \"#utility.yul\":32001:32170   */\n    tag_247:\n        /* \"#utility.yul\":32085:32096   */\n      0x00\n        /* \"#utility.yul\":32119:32125   */\n      dup3\n        /* \"#utility.yul\":32114:32117   */\n      dup3\n        /* \"#utility.yul\":32107:32126   */\n      mstore\n        /* \"#utility.yul\":32159:32163   */\n      0x20\n        /* \"#utility.yul\":32154:32157   */\n      dup3\n        /* \"#utility.yul\":32150:32164   */\n      add\n        /* \"#utility.yul\":32135:32164   */\n      swap1\n      pop\n        /* \"#utility.yul\":32001:32170   */\n      swap3\n      swap2\n      pop\n      pop\n      jump\t// out\n        /* \"#utility.yul\":32176:32346   */\n    tag_248:\n        /* \"#utility.yul\":32316:32338   */\n      0x4e6f7420616c6c6f77656420746f2073746f7265000000000000000000000000\n        /* \"#utility.yul\":32312:32313   */\n      0x00\n        /* \"#utility.yul\":32304:32310   */\n      dup3\n        /* \"#utility.yul\":32300:32314   */\n      add\n        /* \"#utility.yul\":32293:32339   */\n      mstore\n        /* \"#utility.yul\":32176:32346   */\n      pop\n      jump\t// out\n        /* \"#utility.yul\":32352:32718   */\n    tag_249:\n        /* \"#utility.yul\":32494:32497   */\n      0x00\n        /* \"#utility.yul\":32515:32582   */\n      tag_583\n        /* \"#utility.yul\":32579:32581   */\n      0x14\n        /* \"#utility.yul\":32574:32577   */\n      dup4\n        /* \"#utility.yul\":32515:32582   */\n      tag_247\n      jump\t// in\n    tag_583:\n        /* \"#utility.yul\":32508:32582   */\n      swap2\n      pop\n        /* \"#utility.yul\":32591:32684   */\n      tag_584\n        /* \"#utility.yul\":32680:32683   */\n      dup3\n        /* \"#utility.yul\":32591:32684   */\n      tag_248\n      jump\t// in\n    tag_584:\n        /* \"#utility.yul\":32709:32711   */\n      0x20\n        /* \"#utility.yul\":32704:32707   */\n      dup3\n        /* \"#utility.yul\":32700:32712   */\n      add\n        /* \"#utility.yul\":32693:32712   */\n      swap1\n      pop\n        /* \"#utility.yul\":32352:32718   */\n      swap2\n      swap1\n      pop\n      jump\t// out\n        /* \"#utility.yul\":32724:33143   */\n    tag_99:\n        /* \"#utility.yul\":32890:32894   */\n      0x00\n        /* \"#utility.yul\":32928:32930   */\n      0x20\n        /* \"#utility.yul\":32917:32926   */\n      dup3\n        /* \"#utility.yul\":32913:32931   */\n      add\n        /* \"#utility.yul\":32905:32931   */\n      swap1\n      pop\n        /* \"#utility.yul\":32977:32986   */\n      dup2\n        /* \"#utility.yul\":32971:32975   */\n      dup2\n        /* \"#utility.yul\":32967:32987   */\n      sub\n        /* \"#utility.yul\":32963:32964   */\n      0x00\n        /* \"#utility.yul\":32952:32961   */\n      dup4\n        /* \"#utility.yul\":32948:32965   */\n      add\n        /* \"#utility.yul\":32941:32988   */\n      mstore\n        /* \"#utility.yul\":33005:33136   */\n      tag_586\n        /* \"#utility.yul\":33131:33135   */\n      dup2\n        /* \"#utility.yul\":33005:33136   */\n      tag_249\n      jump\t// in\n    tag_586:\n        /* \"#utility.yul\":32997:33136   */\n      swap1\n      pop\n        /* \"#utility.yul\":32724:33143   */\n      swap2\n      swap1\n      pop\n      jump\t// out\n        /* \"#utility.yul\":33149:33322   */\n    tag_250:\n        /* \"#utility.yul\":33289:33314   */\n      0x4e6f7420616c6c6f77656420746f207265747269657665000000000000000000\n        /* \"#utility.yul\":33285:33286   */\n      0x00\n        /* \"#utility.yul\":33277:33283   */\n      dup3\n        /* \"#utility.yul\":33273:33287   */\n      add\n        /* \"#utility.yul\":33266:33315   */\n      mstore\n        /* \"#utility.yul\":33149:33322   */\n      pop\n      jump\t// out\n        /* \"#utility.yul\":33328:33694   */\n    tag_251:\n        /* \"#utility.yul\":33470:33473   */\n      0x00\n        /* \"#utility.yul\":33491:33558   */\n      tag_589\n        /* \"#utility.yul\":33555:33557   */\n      0x17\n        /* \"#utility.yul\":33550:33553   */\n      dup4\n        /* \"#utility.yul\":33491:33558   */\n      tag_247\n      jump\t// in\n    tag_589:\n        /* \"#utility.yul\":33484:33558   */\n      swap2\n      pop\n        /* \"#utility.yul\":33567:33660   */\n      tag_590\n        /* \"#utility.yul\":33656:33659   */\n      dup3\n        /* \"#utility.yul\":33567:33660   */\n      tag_250\n      jump\t// in\n    tag_590:\n        /* \"#utility.yul\":33685:33687   */\n      0x20\n        /* \"#utility.yul\":33680:33683   */\n      dup3\n        /* \"#utility.yul\":33676:33688   */\n      add\n        /* \"#utility.yul\":33669:33688   */\n      swap1\n      pop\n        /* \"#utility.yul\":33328:33694   */\n      swap2\n      swap1\n      pop\n      jump\t// out\n        /* \"#utility.yul\":33700:34119   */\n    tag_119:\n        /* \"#utility.yul\":33866:33870   */\n      0x00\n        /* \"#utility.yul\":33904:33906   */\n      0x20\n        /* \"#utility.yul\":33893:33902   */\n      dup3\n        /* \"#utility.yul\":33889:33907   */\n      add\n        /* \"#utility.yul\":33881:33907   */\n      swap1\n      pop\n        /* \"#utility.yul\":33953:33962   */\n      dup2\n        /* \"#utility.yul\":33947:33951   */\n      dup2\n        /* \"#utility.yul\":33943:33963   */\n      sub\n        /* \"#utility.yul\":33939:33940   */\n      0x00\n        /* \"#utility.yul\":33928:33937   */\n      dup4\n        /* \"#utility.yul\":33924:33941   */\n      add\n        /* \"#utility.yul\":33917:33964   */\n      mstore\n        /* \"#utility.yul\":33981:34112   */\n      tag_592\n        /* \"#utility.yul\":34107:34111   */\n      dup2\n        /* \"#utility.yul\":33981:34112   */\n      tag_251\n      jump\t// in\n    tag_592:\n        /* \"#utility.yul\":33973:34112   */\n      swap1\n      pop\n        /* \"#utility.yul\":33700:34119   */\n      swap2\n      swap1\n      pop\n      jump\t// out\n        /* \"#utility.yul\":34125:34305   */\n    tag_252:\n        /* \"#utility.yul\":34173:34250   */\n      0x4e487b7100000000000000000000000000000000000000000000000000000000\n        /* \"#utility.yul\":34170:34171   */\n      0x00\n        /* \"#utility.yul\":34163:34251   */\n      mstore\n        /* \"#utility.yul\":34270:34274   */\n      0x11\n        /* \"#utility.yul\":34267:34268   */\n      0x04\n        /* \"#utility.yul\":34260:34275   */\n      mstore\n        /* \"#utility.yul\":34294:34298   */\n      0x24\n        /* \"#utility.yul\":34291:34292   */\n      0x00\n        /* \"#utility.yul\":34284:34299   */\n      revert\n        /* \"#utility.yul\":34311:34494   */\n    tag_124:\n        /* \"#utility.yul\":34349:34352   */\n      0x00\n        /* \"#utility.yul\":34372:34395   */\n      tag_595\n        /* \"#utility.yul\":34389:34394   */\n      dup3\n        /* \"#utility.yul\":34372:34395   */\n      tag_164\n      jump\t// in\n    tag_595:\n        /* \"#utility.yul\":34363:34395   */\n      swap2\n      pop\n        /* \"#utility.yul\":34417:34435   */\n      0xffffffffffffffff\n        /* \"#utility.yul\":34410:34415   */\n      dup3\n        /* \"#utility.yul\":34407:34436   */\n      sub\n        /* \"#utility.yul\":34404:34459   */\n      tag_596\n      jumpi\n        /* \"#utility.yul\":34439:34457   */\n      tag_597\n      tag_252\n      jump\t// in\n    tag_597:\n        /* \"#utility.yul\":34404:34459   */\n    tag_596:\n        /* \"#utility.yul\":34486:34487   */\n      0x01\n        /* \"#utility.yul\":34479:34484   */\n      dup3\n        /* \"#utility.yul\":34475:34488   */\n      add\n        /* \"#utility.yul\":34468:34488   */\n      swap1\n      pop\n        /* \"#utility.yul\":34311:34494   */\n      swap2\n      swap1\n      pop\n      jump\t// out\n        /* \"#utility.yul\":34500:34751   */\n    tag_126:\n        /* \"#utility.yul\":34610:34613   */\n      0x00\n        /* \"#utility.yul\":34625:34698   */\n      tag_599\n        /* \"#utility.yul\":34694:34697   */\n      dup3\n        /* \"#utility.yul\":34685:34691   */\n      dup5\n        /* \"#utility.yul\":34625:34698   */\n      tag_230\n      jump\t// in\n    tag_599:\n        /* \"#utility.yul\":34723:34724   */\n      0x08\n        /* \"#utility.yul\":34718:34721   */\n      dup3\n        /* \"#utility.yul\":34714:34725   */\n      add\n        /* \"#utility.yul\":34707:34725   */\n      swap2\n      pop\n        /* \"#utility.yul\":34742:34745   */\n      dup2\n        /* \"#utility.yul\":34735:34745   */\n      swap1\n      pop\n        /* \"#utility.yul\":34500:34751   */\n      swap3\n      swap2\n      pop\n      pop\n      jump\t// out\n        /* \"#utility.yul\":34757:34898   */\n    tag_253:\n        /* \"#utility.yul\":34806:34810   */\n      0x00\n        /* \"#utility.yul\":34829:34832   */\n      dup2\n        /* \"#utility.yul\":34821:34832   */\n      swap1\n      pop\n        /* \"#utility.yul\":34852:34855   */\n      dup2\n        /* \"#utility.yul\":34849:34850   */\n      0x00\n        /* \"#utility.yul\":34842:34856   */\n      mstore\n        /* \"#utility.yul\":34886:34890   */\n      0x20\n        /* \"#utility.yul\":34883:34884   */\n      0x00\n        /* \"#utility.yul\":34873:34891   */\n      keccak256\n        /* \"#utility.yul\":34865:34891   */\n      swap1\n      pop\n        /* \"#utility.yul\":34757:34898   */\n      swap2\n      swap1\n      pop\n      jump\t// out\n        /* \"#utility.yul\":34904:35447   */\n    tag_254:\n        /* \"#utility.yul\":35005:35007   */\n      0x1f\n        /* \"#utility.yul\":35000:35003   */\n      dup3\n        /* \"#utility.yul\":34997:35008   */\n      gt\n        /* \"#utility.yul\":34994:35440   */\n      iszero\n      tag_602\n      jumpi\n        /* \"#utility.yul\":35039:35077   */\n      tag_603\n        /* \"#utility.yul\":35071:35076   */\n      dup2\n        /* \"#utility.yul\":35039:35077   */\n      tag_253\n      jump\t// in\n    tag_603:\n        /* \"#utility.yul\":35123:35152   */\n      tag_604\n        /* \"#utility.yul\":35141:35151   */\n      dup5\n        /* \"#utility.yul\":35123:35152   */\n      tag_233\n      jump\t// in\n    tag_604:\n        /* \"#utility.yul\":35113:35121   */\n      dup2\n        /* \"#utility.yul\":35109:35153   */\n      add\n        /* \"#utility.yul\":35306:35308   */\n      0x20\n        /* \"#utility.yul\":35294:35304   */\n      dup6\n        /* \"#utility.yul\":35291:35309   */\n      lt\n        /* \"#utility.yul\":35288:35337   */\n      iszero\n      tag_605\n      jumpi\n        /* \"#utility.yul\":35327:35335   */\n      dup2\n        /* \"#utility.yul\":35312:35335   */\n      swap1\n      pop\n        /* \"#utility.yul\":35288:35337   */\n    tag_605:\n        /* \"#utility.yul\":35350:35430   */\n      tag_606\n        /* \"#utility.yul\":35406:35428   */\n      tag_607\n        /* \"#utility.yul\":35424:35427   */\n      dup6\n        /* \"#utility.yul\":35406:35428   */\n      tag_233\n      jump\t// in\n    tag_607:\n        /* \"#utility.yul\":35396:35404   */\n      dup4\n        /* \"#utility.yul\":35392:35429   */\n      add\n        /* \"#utility.yul\":35379:35390   */\n      dup3\n        /* \"#utility.yul\":35350:35430   */\n      tag_242\n      jump\t// in\n    tag_606:\n        /* \"#utility.yul\":35009:35440   */\n      pop\n      pop\n        /* \"#utility.yul\":34994:35440   */\n    tag_602:\n        /* \"#utility.yul\":34904:35447   */\n      pop\n      pop\n      pop\n      jump\t// out\n        /* \"#utility.yul\":35453:36848   */\n    tag_132:\n        /* \"#utility.yul\":35570:35607   */\n      tag_609\n        /* \"#utility.yul\":35603:35606   */\n      dup3\n        /* \"#utility.yul\":35570:35607   */\n      tag_197\n      jump\t// in\n    tag_609:\n        /* \"#utility.yul\":35672:35690   */\n      0xffffffffffffffff\n        /* \"#utility.yul\":35664:35670   */\n      dup2\n        /* \"#utility.yul\":35661:35691   */\n      gt\n        /* \"#utility.yul\":35658:35714   */\n      iszero\n      tag_610\n      jumpi\n        /* \"#utility.yul\":35694:35712   */\n      tag_611\n      tag_172\n      jump\t// in\n    tag_611:\n        /* \"#utility.yul\":35658:35714   */\n    tag_610:\n        /* \"#utility.yul\":35738:35776   */\n      tag_612\n        /* \"#utility.yul\":35770:35774   */\n      dup3\n        /* \"#utility.yul\":35764:35775   */\n      sload\n        /* \"#utility.yul\":35738:35776   */\n      tag_76\n      jump\t// in\n    tag_612:\n        /* \"#utility.yul\":35823:35890   */\n      tag_613\n        /* \"#utility.yul\":35883:35889   */\n      dup3\n        /* \"#utility.yul\":35875:35881   */\n      dup3\n        /* \"#utility.yul\":35869:35873   */\n      dup6\n        /* \"#utility.yul\":35823:35890   */\n      tag_254\n      jump\t// in\n    tag_613:\n        /* \"#utility.yul\":35917:35918   */\n      0x00\n        /* \"#utility.yul\":35941:35945   */\n      0x20\n        /* \"#utility.yul\":35928:35945   */\n      swap1\n      pop\n        /* \"#utility.yul\":35973:35975   */\n      0x1f\n        /* \"#utility.yul\":35965:35971   */\n      dup4\n        /* \"#utility.yul\":35962:35976   */\n      gt\n        /* \"#utility.yul\":35990:35991   */\n      0x01\n        /* \"#utility.yul\":35985:36603   */\n      dup2\n      eq\n      tag_615\n      jumpi\n        /* \"#utility.yul\":36647:36648   */\n      0x00\n        /* \"#utility.yul\":36664:36670   */\n      dup5\n        /* \"#utility.yul\":36661:36738   */\n      iszero\n      tag_616\n      jumpi\n        /* \"#utility.yul\":36713:36722   */\n      dup3\n        /* \"#utility.yul\":36708:36711   */\n      dup8\n        /* \"#utility.yul\":36704:36723   */\n      add\n        /* \"#utility.yul\":36698:36724   */\n      mload\n        /* \"#utility.yul\":36689:36724   */\n      swap1\n      pop\n        /* \"#utility.yul\":36661:36738   */\n    tag_616:\n        /* \"#utility.yul\":36764:36831   */\n      tag_617\n        /* \"#utility.yul\":36824:36830   */\n      dup6\n        /* \"#utility.yul\":36817:36822   */\n      dup3\n        /* \"#utility.yul\":36764:36831   */\n      tag_246\n      jump\t// in\n    tag_617:\n        /* \"#utility.yul\":36758:36762   */\n      dup7\n        /* \"#utility.yul\":36751:36832   */\n      sstore\n        /* \"#utility.yul\":36620:36842   */\n      pop\n        /* \"#utility.yul\":35955:36842   */\n      jump(tag_614)\n        /* \"#utility.yul\":35985:36603   */\n    tag_615:\n        /* \"#utility.yul\":36037:36041   */\n      0x1f\n        /* \"#utility.yul\":36033:36042   */\n      not\n        /* \"#utility.yul\":36025:36031   */\n      dup5\n        /* \"#utility.yul\":36021:36043   */\n      and\n        /* \"#utility.yul\":36071:36108   */\n      tag_618\n        /* \"#utility.yul\":36103:36107   */\n      dup7\n        /* \"#utility.yul\":36071:36108   */\n      tag_253\n      jump\t// in\n    tag_618:\n        /* \"#utility.yul\":36130:36131   */\n      0x00\n        /* \"#utility.yul\":36144:36352   */\n    tag_619:\n        /* \"#utility.yul\":36158:36165   */\n      dup3\n        /* \"#utility.yul\":36155:36156   */\n      dup2\n        /* \"#utility.yul\":36152:36166   */\n      lt\n        /* \"#utility.yul\":36144:36352   */\n      iszero\n      tag_621\n      jumpi\n        /* \"#utility.yul\":36237:36246   */\n      dup5\n        /* \"#utility.yul\":36232:36235   */\n      dup10\n        /* \"#utility.yul\":36228:36247   */\n      add\n        /* \"#utility.yul\":36222:36248   */\n      mload\n        /* \"#utility.yul\":36214:36220   */\n      dup3\n        /* \"#utility.yul\":36207:36249   */\n      sstore\n        /* \"#utility.yul\":36288:36289   */\n      0x01\n        /* \"#utility.yul\":36280:36286   */\n      dup3\n        /* \"#utility.yul\":36276:36290   */\n      add\n        /* \"#utility.yul\":36266:36290   */\n      swap2\n      pop\n        /* \"#utility.yul\":36335:36337   */\n      0x20\n        /* \"#utility.yul\":36324:36333   */\n      dup6\n        /* \"#utility.yul\":36320:36338   */\n      add\n        /* \"#utility.yul\":36307:36338   */\n      swap5\n      pop\n        /* \"#utility.yul\":36181:36185   */\n      0x20\n        /* \"#utility.yul\":36178:36179   */\n      dup2\n        /* \"#utility.yul\":36174:36186   */\n      add\n        /* \"#utility.yul\":36169:36186   */\n      swap1\n      pop\n        /* \"#utility.yul\":36144:36352   */\n      jump(tag_619)\n    tag_621:\n        /* \"#utility.yul\":36380:36386   */\n      dup7\n        /* \"#utility.yul\":36371:36378   */\n      dup4\n        /* \"#utility.yul\":36368:36387   */\n      lt\n        /* \"#utility.yul\":36365:36544   */\n      iszero\n      tag_622\n      jumpi\n        /* \"#utility.yul\":36438:36447   */\n      dup5\n        /* \"#utility.yul\":36433:36436   */\n      dup10\n        /* \"#utility.yul\":36429:36448   */\n      add\n        /* \"#utility.yul\":36423:36449   */\n      mload\n        /* \"#utility.yul\":36481:36529   */\n      tag_623\n        /* \"#utility.yul\":36523:36527   */\n      0x1f\n        /* \"#utility.yul\":36515:36521   */\n      dup10\n        /* \"#utility.yul\":36511:36528   */\n      and\n        /* \"#utility.yul\":36500:36509   */\n      dup3\n        /* \"#utility.yul\":36481:36529   */\n      tag_245\n      jump\t// in\n    tag_623:\n        /* \"#utility.yul\":36473:36479   */\n      dup4\n        /* \"#utility.yul\":36466:36530   */\n      sstore\n        /* \"#utility.yul\":36388:36544   */\n      pop\n        /* \"#utility.yul\":36365:36544   */\n    tag_622:\n        /* \"#utility.yul\":36590:36591   */\n      0x01\n        /* \"#utility.yul\":36586:36587   */\n      0x02\n        /* \"#utility.yul\":36578:36584   */\n      dup9\n        /* \"#utility.yul\":36574:36588   */\n      mul\n        /* \"#utility.yul\":36570:36592   */\n      add\n        /* \"#utility.yul\":36564:36568   */\n      dup9\n        /* \"#utility.yul\":36557:36593   */\n      sstore\n        /* \"#utility.yul\":35992:36603   */\n      pop\n      pop\n      pop\n        /* \"#utility.yul\":35955:36842   */\n    tag_614:\n      pop\n        /* \"#utility.yul\":35545:36848   */\n      pop\n      pop\n      pop\n        /* \"#utility.yul\":35453:36848   */\n      pop\n      pop\n      jump\t// out\n\n    auxdata: 0xa2646970667358221220f27d1fecc96badf7088862a251958cdf9ccb95e4a17a16bc3cca9529d02958b164736f6c63430008190033\n}\n",
				"bytecode": {
					"linkReferences": {},
					"object": "6080604052348015600e575f80fd5b506122348061001c5f395ff3fe608060405234801561000f575f80fd5b5060043610610091575f3560e01c8063d22a3b0b11610064578063d22a3b0b14610143578063e3b417bc1461015f578063e3fbcfc31461018f578063f8a8fd6d146101bf578063f8c46744146101dd57610091565b8063822eab8d14610095578063b5d1990d146100c5578063be9fe1f2146100e3578063ccb885c414610113575b5f80fd5b6100af60048036038101906100aa9190611069565b6101f9565b6040516100bc91906110df565b60405180910390f35b6100cd610228565b6040516100da919061111a565b60405180910390f35b6100fd60048036038101906100f891906112a2565b610241565b60405161010a9190611314565b60405180910390f35b61012d60048036038101906101289190611357565b610273565b60405161013a9190611665565b60405180910390f35b61015d6004803603810190610158919061174d565b61055b565b005b610179600480360381019061017491906117d5565b61078d565b6040516101869190611881565b60405180910390f35b6101a960048036038101906101a4919061198f565b610a3d565b6040516101b69190611adb565b60405180910390f35b6101c7610da6565b6040516101d49190611b13565b60405180910390f35b6101f760048036038101906101f29190611b2c565b610dae565b005b5f8160405160200161020b9190611b8b565b604051602081830303815290604052805190602001209050919050565b60035f9054906101000a900467ffffffffffffffff1681565b5f8282604051602001610255929190611bff565b60405160208183030381529060405280519060200120905092915050565b60605f8383604051602001610289929190611c4e565b6040516020818303038152906040528051906020012090505f808281526020019081526020015f20805480602002602001604051908101604052809291908181526020015f905b8282101561054e578382905f5260205f2090600502016040518060c00160405290815f82015f9054906101000a900460801b6fffffffffffffffffffffffffffffffff19166fffffffffffffffffffffffffffffffff191681526020015f820160109054906101000a900460801b6fffffffffffffffffffffffffffffffff19166fffffffffffffffffffffffffffffffff19168152602001600182015f9054906101000a900467ffffffffffffffff1667ffffffffffffffff1667ffffffffffffffff1681526020016002820180548060200260200160405190810160405280929190818152602001828054801561041b57602002820191905f5260205f20905b815f9054906101000a900473ffffffffffffffffffffffffffffffffffffffff1673ffffffffffffffffffffffffffffffffffffffff16815260200190600101908083116103d2575b50505050508152602001600382018054806020026020016040519081016040528092919081815260200182805480156104a657602002820191905f5260205f20905b815f9054906101000a900473ffffffffffffffffffffffffffffffffffffffff1673ffffffffffffffffffffffffffffffffffffffff168152602001906001019080831161045d575b505050505081526020016004820180546104bf90611ca2565b80601f01602080910402602001604051908101604052809291908181526020018280546104eb90611ca2565b80156105365780601f1061050d57610100808354040283529160200191610536565b820191905f5260205f20905b81548152906001019060200180831161051957829003601f168201915b505050505081525050815260200190600101906102d0565b5050505091505092915050565b5f60025f856fffffffffffffffffffffffffffffffff19166fffffffffffffffffffffffffffffffff191681526020019081526020015f2060030180548060200260200160405190810160405280929190818152602001828054801561061357602002820191905f5260205f20905b815f9054906101000a900473ffffffffffffffffffffffffffffffffffffffff1673ffffffffffffffffffffffffffffffffffffffff16815260200190600101908083116105ca575b505050505090505f5b815181101561074c573373ffffffffffffffffffffffffffffffffffffffff1682828151811061064f5761064e611cd2565b5b602002602001015173ffffffffffffffffffffffffffffffffffffffff1614806106d2575073c8df3686b4afb2bb53e60eae97ef043fe03fb82973ffffffffffffffffffffffffffffffffffffffff168282815181106106b2576106b1611cd2565b5b602002602001015173ffffffffffffffffffffffffffffffffffffffff16145b1561073f578260015f876fffffffffffffffffffffffffffffffff19166fffffffffffffffffffffffffffffffff191681526020019081526020015f208560405161071d9190611cff565b908152602001604051809103902090816107379190611eb2565b505050610788565b808060010191505061061c565b506040517f08c379a000000000000000000000000000000000000000000000000000000000815260040161077f90611fdb565b60405180910390fd5b505050565b60605f60025f856fffffffffffffffffffffffffffffffff19166fffffffffffffffffffffffffffffffff191681526020019081526020015f2060020180548060200260200160405190810160405280929190818152602001828054801561084757602002820191905f5260205f20905b815f9054906101000a900473ffffffffffffffffffffffffffffffffffffffff1673ffffffffffffffffffffffffffffffffffffffff16815260200190600101908083116107fe575b505050505090505f5b81518110156109fb573373ffffffffffffffffffffffffffffffffffffffff1682828151811061088357610882611cd2565b5b602002602001015173ffffffffffffffffffffffffffffffffffffffff161480610906575073c8df3686b4afb2bb53e60eae97ef043fe03fb82973ffffffffffffffffffffffffffffffffffffffff168282815181106108e6576108e5611cd2565b5b602002602001015173ffffffffffffffffffffffffffffffffffffffff16145b156109ee5760015f866fffffffffffffffffffffffffffffffff19166fffffffffffffffffffffffffffffffff191681526020019081526020015f20846040516109509190611cff565b9081526020016040518091039020805461096990611ca2565b80601f016020809104026020016040519081016040528092919081815260200182805461099590611ca2565b80156109e05780601f106109b7576101008083540402835291602001916109e0565b820191905f5260205f20905b8154815290600101906020018083116109c357829003601f168201915b505050505092505050610a37565b8080600101915050610850565b506040517f08c379a0000000000000000000000000000000000000000000000000000000008152600401610a2e90612043565b60405180910390fd5b92915050565b610a45610ecf565b60035f81819054906101000a900467ffffffffffffffff1680929190610a6a9061208e565b91906101000a81548167ffffffffffffffff021916908367ffffffffffffffff160217905550505f60035f9054906101000a900467ffffffffffffffff16604051602001610ab891906120bd565b604051602081830303815290604052805190602001209050610ad8610ecf565b81815f01906fffffffffffffffffffffffffffffffff191690816fffffffffffffffffffffffffffffffff19168152505086816040019067ffffffffffffffff16908167ffffffffffffffff1681525050858160600181905250848160800181905250838160a001819052508060025f846fffffffffffffffffffffffffffffffff19166fffffffffffffffffffffffffffffffff191681526020019081526020015f205f820151815f015f6101000a8154816fffffffffffffffffffffffffffffffff021916908360801c02179055506020820151815f0160106101000a8154816fffffffffffffffffffffffffffffffff021916908360801c02179055506040820151816001015f6101000a81548167ffffffffffffffff021916908367ffffffffffffffff1602179055506060820151816002019080519060200190610c22929190610f32565b506080820151816003019080519060200190610c3f929190610f32565b5060a0820151816004019081610c55919061212f565b509050505f8785604051602001610c6d929190611c4e565b6040516020818303038152906040528051906020012090505f808281526020019081526020015f2082908060018154018082558091505060019003905f5260205f2090600502015f909190919091505f820151815f015f6101000a8154816fffffffffffffffffffffffffffffffff021916908360801c02179055506020820151815f0160106101000a8154816fffffffffffffffffffffffffffffffff021916908360801c02179055506040820151816001015f6101000a81548167ffffffffffffffff021916908367ffffffffffffffff1602179055506060820151816002019080519060200190610d62929190610f32565b506080820151816003019080519060200190610d7f929190610f32565b5060a0820151816004019081610d95919061212f565b505050819350505050949350505050565b5f6001905090565b5f60025f836fffffffffffffffffffffffffffffffff19166fffffffffffffffffffffffffffffffff191681526020019081526020015f2060020190508033908060018154018082558091505060019003905f5260205f20015f9091909190916101000a81548173ffffffffffffffffffffffffffffffffffffffff021916908373ffffffffffffffffffffffffffffffffffffffff1602179055508060025f846fffffffffffffffffffffffffffffffff19166fffffffffffffffffffffffffffffffff191681526020019081526020015f20600201908054610e93929190610fb9565b507f0a4fc65dce70d2a26ed1967e184e70bc2bda6fce012a2752def262017864a17a82604051610ec391906110df565b60405180910390a15050565b6040518060c001604052805f6fffffffffffffffffffffffffffffffff191681526020015f6fffffffffffffffffffffffffffffffff191681526020015f67ffffffffffffffff1681526020016060815260200160608152602001606081525090565b828054828255905f5260205f20908101928215610fa8579160200282015b82811115610fa7578251825f6101000a81548173ffffffffffffffffffffffffffffffffffffffff021916908373ffffffffffffffffffffffffffffffffffffffff16021790555091602001919060010190610f50565b5b509050610fb59190611007565b5090565b828054828255905f5260205f20908101928215610ff6575f5260205f209182015b82811115610ff5578254825591600101919060010190610fda565b5b5090506110039190611007565b5090565b5b8082111561101e575f815f905550600101611008565b5090565b5f604051905090565b5f80fd5b5f80fd5b5f8160070b9050919050565b61104881611033565b8114611052575f80fd5b50565b5f813590506110638161103f565b92915050565b5f6020828403121561107e5761107d61102b565b5b5f61108b84828501611055565b91505092915050565b5f7fffffffffffffffffffffffffffffffff0000000000000000000000000000000082169050919050565b5f6110c982611094565b9050919050565b6110d9816110bf565b82525050565b5f6020820190506110f25f8301846110d0565b92915050565b5f67ffffffffffffffff82169050919050565b611114816110f8565b82525050565b5f60208201905061112d5f83018461110b565b92915050565b5f819050919050565b61114581611133565b811461114f575f80fd5b50565b5f813590506111608161113c565b92915050565b5f80fd5b5f80fd5b5f601f19601f8301169050919050565b7f4e487b71000000000000000000000000000000000000000000000000000000005f52604160045260245ffd5b6111b48261116e565b810181811067ffffffffffffffff821117156111d3576111d261117e565b5b80604052505050565b5f6111e5611022565b90506111f182826111ab565b919050565b5f67ffffffffffffffff8211156112105761120f61117e565b5b6112198261116e565b9050602081019050919050565b828183375f83830152505050565b5f611246611241846111f6565b6111dc565b9050828152602081018484840111156112625761126161116a565b5b61126d848285611226565b509392505050565b5f82601f83011261128957611288611166565b5b8135611299848260208601611234565b91505092915050565b5f80604083850312156112b8576112b761102b565b5b5f6112c585828601611152565b925050602083013567ffffffffffffffff8111156112e6576112e561102f565b5b6112f285828601611275565b9150509250929050565b5f819050919050565b61130e816112fc565b82525050565b5f6020820190506113275f830184611305565b92915050565b611336816110f8565b8114611340575f80fd5b50565b5f813590506113518161132d565b92915050565b5f806040838503121561136d5761136c61102b565b5b5f61137a85828601611343565b925050602083013567ffffffffffffffff81111561139b5761139a61102f565b5b6113a785828601611275565b9150509250929050565b5f81519050919050565b5f82825260208201905092915050565b5f819050602082019050919050565b6113e3816110bf565b82525050565b6113f2816110f8565b82525050565b5f81519050919050565b5f82825260208201905092915050565b5f819050602082019050919050565b5f73ffffffffffffffffffffffffffffffffffffffff82169050919050565b5f61144a82611421565b9050919050565b61145a81611440565b82525050565b5f61146b8383611451565b60208301905092915050565b5f602082019050919050565b5f61148d826113f8565b6114978185611402565b93506114a283611412565b805f5b838110156114d25781516114b98882611460565b97506114c483611477565b9250506001810190506114a5565b5085935050505092915050565b5f81519050919050565b5f82825260208201905092915050565b8281835e5f83830152505050565b5f611511826114df565b61151b81856114e9565b935061152b8185602086016114f9565b6115348161116e565b840191505092915050565b5f60c083015f8301516115545f8601826113da565b50602083015161156760208601826113da565b50604083015161157a60408601826113e9565b50606083015184820360608601526115928282611483565b915050608083015184820360808601526115ac8282611483565b91505060a083015184820360a08601526115c68282611507565b9150508091505092915050565b5f6115de838361153f565b905092915050565b5f602082019050919050565b5f6115fc826113b1565b61160681856113bb565b935083602082028501611618856113cb565b805f5b85811015611653578484038952815161163485826115d3565b945061163f836115e6565b925060208a0199505060018101905061161b565b50829750879550505050505092915050565b5f6020820190508181035f83015261167d81846115f2565b905092915050565b61168e81611094565b8114611698575f80fd5b50565b5f813590506116a981611685565b92915050565b5f67ffffffffffffffff8211156116c9576116c861117e565b5b6116d28261116e565b9050602081019050919050565b5f6116f16116ec846116af565b6111dc565b90508281526020810184848401111561170d5761170c61116a565b5b611718848285611226565b509392505050565b5f82601f83011261173457611733611166565b5b81356117448482602086016116df565b91505092915050565b5f805f606084860312156117645761176361102b565b5b5f6117718682870161169b565b935050602084013567ffffffffffffffff8111156117925761179161102f565b5b61179e86828701611275565b925050604084013567ffffffffffffffff8111156117bf576117be61102f565b5b6117cb86828701611720565b9150509250925092565b5f80604083850312156117eb576117ea61102b565b5b5f6117f88582860161169b565b925050602083013567ffffffffffffffff8111156118195761181861102f565b5b61182585828601611275565b9150509250929050565b5f81519050919050565b5f82825260208201905092915050565b5f6118538261182f565b61185d8185611839565b935061186d8185602086016114f9565b6118768161116e565b840191505092915050565b5f6020820190508181035f8301526118998184611849565b905092915050565b5f67ffffffffffffffff8211156118bb576118ba61117e565b5b602082029050602081019050919050565b5f80fd5b6118d981611440565b81146118e3575f80fd5b50565b5f813590506118f4816118d0565b92915050565b5f61190c611907846118a1565b6111dc565b9050808382526020820190506020840283018581111561192f5761192e6118cc565b5b835b81811015611958578061194488826118e6565b845260208401935050602081019050611931565b5050509392505050565b5f82601f83011261197657611975611166565b5b81356119868482602086016118fa565b91505092915050565b5f805f80608085870312156119a7576119a661102b565b5b5f6119b487828801611343565b945050602085013567ffffffffffffffff8111156119d5576119d461102f565b5b6119e187828801611962565b935050604085013567ffffffffffffffff811115611a0257611a0161102f565b5b611a0e87828801611962565b925050606085013567ffffffffffffffff811115611a2f57611a2e61102f565b5b611a3b87828801611275565b91505092959194509250565b5f60c083015f830151611a5c5f8601826113da565b506020830151611a6f60208601826113da565b506040830151611a8260408601826113e9565b5060608301518482036060860152611a9a8282611483565b91505060808301518482036080860152611ab48282611483565b91505060a083015184820360a0860152611ace8282611507565b9150508091505092915050565b5f6020820190508181035f830152611af38184611a47565b905092915050565b5f819050919050565b611b0d81611afb565b82525050565b5f602082019050611b265f830184611b04565b92915050565b5f60208284031215611b4157611b4061102b565b5b5f611b4e8482850161169b565b91505092915050565b5f8160c01b9050919050565b5f611b6d82611b57565b9050919050565b611b85611b8082611033565b611b63565b82525050565b5f611b968284611b74565b60088201915081905092915050565b5f819050919050565b611bbf611bba82611133565b611ba5565b82525050565b5f81905092915050565b5f611bd9826114df565b611be38185611bc5565b9350611bf38185602086016114f9565b80840191505092915050565b5f611c0a8285611bae565b602082019150611c1a8284611bcf565b91508190509392505050565b5f611c3082611b57565b9050919050565b611c48611c43826110f8565b611c26565b82525050565b5f611c598285611c37565b600882019150611c698284611bcf565b91508190509392505050565b7f4e487b71000000000000000000000000000000000000000000000000000000005f52602260045260245ffd5b5f6002820490506001821680611cb957607f821691505b602082108103611ccc57611ccb611c75565b5b50919050565b7f4e487b71000000000000000000000000000000000000000000000000000000005f52603260045260245ffd5b5f611d0a8284611bcf565b915081905092915050565b5f819050815f5260205f209050919050565b5f6020601f8301049050919050565b5f82821b905092915050565b5f60088302611d717fffffffffffffffffffffffffffffffffffffffffffffffffffffffffffffffff82611d36565b611d7b8683611d36565b95508019841693508086168417925050509392505050565b5f819050919050565b5f611db6611db1611dac84611133565b611d93565b611133565b9050919050565b5f819050919050565b611dcf83611d9c565b611de3611ddb82611dbd565b848454611d42565b825550505050565b5f90565b611df7611deb565b611e02818484611dc6565b505050565b5b81811015611e2557611e1a5f82611def565b600181019050611e08565b5050565b601f821115611e6a57611e3b81611d15565b611e4484611d27565b81016020851015611e53578190505b611e67611e5f85611d27565b830182611e07565b50505b505050565b5f82821c905092915050565b5f611e8a5f1984600802611e6f565b1980831691505092915050565b5f611ea28383611e7b565b9150826002028217905092915050565b611ebb8261182f565b67ffffffffffffffff811115611ed457611ed361117e565b5b611ede8254611ca2565b611ee9828285611e29565b5f60209050601f831160018114611f1a575f8415611f08578287015190505b611f128582611e97565b865550611f79565b601f198416611f2886611d15565b5f5b82811015611f4f57848901518255600182019150602085019450602081019050611f2a565b86831015611f6c5784890151611f68601f891682611e7b565b8355505b6001600288020188555050505b505050505050565b5f82825260208201905092915050565b7f4e6f7420616c6c6f77656420746f2073746f72650000000000000000000000005f82015250565b5f611fc5601483611f81565b9150611fd082611f91565b602082019050919050565b5f6020820190508181035f830152611ff281611fb9565b9050919050565b7f4e6f7420616c6c6f77656420746f2072657472696576650000000000000000005f82015250565b5f61202d601783611f81565b915061203882611ff9565b602082019050919050565b5f6020820190508181035f83015261205a81612021565b9050919050565b7f4e487b71000000000000000000000000000000000000000000000000000000005f52601160045260245ffd5b5f612098826110f8565b915067ffffffffffffffff82036120b2576120b1612061565b5b600182019050919050565b5f6120c88284611c37565b60088201915081905092915050565b5f819050815f5260205f209050919050565b601f82111561212a576120fb816120d7565b61210484611d27565b81016020851015612113578190505b61212761211f85611d27565b830182611e07565b50505b505050565b612138826114df565b67ffffffffffffffff8111156121515761215061117e565b5b61215b8254611ca2565b6121668282856120e9565b5f60209050601f831160018114612197575f8415612185578287015190505b61218f8582611e97565b8655506121f6565b601f1984166121a5866120d7565b5f5b828110156121cc578489015182556001820191506020850194506020810190506121a7565b868310156121e957848901516121e5601f891682611e7b565b8355505b6001600288020188555050505b50505050505056fea2646970667358221220f27d1fecc96badf7088862a251958cdf9ccb95e4a17a16bc3cca9529d02958b164736f6c63430008190033",
					"opcodes": "PUSH1 0x80 PUSH1 0x40 MSTORE CALLVALUE DUP1 ISZERO PUSH1 0xE JUMPI PUSH0 DUP1 REVERT JUMPDEST POP PUSH2 0x2234 DUP1 PUSH2 0x1C PUSH0 CODECOPY PUSH0 RETURN INVALID PUSH1 0x80 PUSH1 0x40 MSTORE CALLVALUE DUP1 ISZERO PUSH2 0xF JUMPI PUSH0 DUP1 REVERT JUMPDEST POP PUSH1 0x4 CALLDATASIZE LT PUSH2 0x91 JUMPI PUSH0 CALLDATALOAD PUSH1 0xE0 SHR DUP1 PUSH4 0xD22A3B0B GT PUSH2 0x64 JUMPI DUP1 PUSH4 0xD22A3B0B EQ PUSH2 0x143 JUMPI DUP1 PUSH4 0xE3B417BC EQ PUSH2 0x15F JUMPI DUP1 PUSH4 0xE3FBCFC3 EQ PUSH2 0x18F JUMPI DUP1 PUSH4 0xF8A8FD6D EQ PUSH2 0x1BF JUMPI DUP1 PUSH4 0xF8C46744 EQ PUSH2 0x1DD JUMPI PUSH2 0x91 JUMP JUMPDEST DUP1 PUSH4 0x822EAB8D EQ PUSH2 0x95 JUMPI DUP1 PUSH4 0xB5D1990D EQ PUSH2 0xC5 JUMPI DUP1 PUSH4 0xBE9FE1F2 EQ PUSH2 0xE3 JUMPI DUP1 PUSH4 0xCCB885C4 EQ PUSH2 0x113 JUMPI JUMPDEST PUSH0 DUP1 REVERT JUMPDEST PUSH2 0xAF PUSH1 0x4 DUP1 CALLDATASIZE SUB DUP2 ADD SWAP1 PUSH2 0xAA SWAP2 SWAP1 PUSH2 0x1069 JUMP JUMPDEST PUSH2 0x1F9 JUMP JUMPDEST PUSH1 0x40 MLOAD PUSH2 0xBC SWAP2 SWAP1 PUSH2 0x10DF JUMP JUMPDEST PUSH1 0x40 MLOAD DUP1 SWAP2 SUB SWAP1 RETURN JUMPDEST PUSH2 0xCD PUSH2 0x228 JUMP JUMPDEST PUSH1 0x40 MLOAD PUSH2 0xDA SWAP2 SWAP1 PUSH2 0x111A JUMP JUMPDEST PUSH1 0x40 MLOAD DUP1 SWAP2 SUB SWAP1 RETURN JUMPDEST PUSH2 0xFD PUSH1 0x4 DUP1 CALLDATASIZE SUB DUP2 ADD SWAP1 PUSH2 0xF8 SWAP2 SWAP1 PUSH2 0x12A2 JUMP JUMPDEST PUSH2 0x241 JUMP JUMPDEST PUSH1 0x40 MLOAD PUSH2 0x10A SWAP2 SWAP1 PUSH2 0x1314 JUMP JUMPDEST PUSH1 0x40 MLOAD DUP1 SWAP2 SUB SWAP1 RETURN JUMPDEST PUSH2 0x12D PUSH1 0x4 DUP1 CALLDATASIZE SUB DUP2 ADD SWAP1 PUSH2 0x128 SWAP2 SWAP1 PUSH2 0x1357 JUMP JUMPDEST PUSH2 0x273 JUMP JUMPDEST PUSH1 0x40 MLOAD PUSH2 0x13A SWAP2 SWAP1 PUSH2 0x1665 JUMP JUMPDEST PUSH1 0x40 MLOAD DUP1 SWAP2 SUB SWAP1 RETURN JUMPDEST PUSH2 0x15D PUSH1 0x4 DUP1 CALLDATASIZE SUB DUP2 ADD SWAP1 PUSH2 0x158 SWAP2 SWAP1 PUSH2 0x174D JUMP JUMPDEST PUSH2 0x55B JUMP JUMPDEST STOP JUMPDEST PUSH2 0x179 PUSH1 0x4 DUP1 CALLDATASIZE SUB DUP2 ADD SWAP1 PUSH2 0x174 SWAP2 SWAP1 PUSH2 0x17D5 JUMP JUMPDEST PUSH2 0x78D JUMP JUMPDEST PUSH1 0x40 MLOAD PUSH2 0x186 SWAP2 SWAP1 PUSH2 0x1881 JUMP JUMPDEST PUSH1 0x40 MLOAD DUP1 SWAP2 SUB SWAP1 RETURN JUMPDEST PUSH2 0x1A9 PUSH1 0x4 DUP1 CALLDATASIZE SUB DUP2 ADD SWAP1 PUSH2 0x1A4 SWAP2 SWAP1 PUSH2 0x198F JUMP JUMPDEST PUSH2 0xA3D JUMP JUMPDEST PUSH1 0x40 MLOAD PUSH2 0x1B6 SWAP2 SWAP1 PUSH2 0x1ADB JUMP JUMPDEST PUSH1 0x40 MLOAD DUP1 SWAP2 SUB SWAP1 RETURN JUMPDEST PUSH2 0x1C7 PUSH2 0xDA6 JUMP JUMPDEST PUSH1 0x40 MLOAD PUSH2 0x1D4 SWAP2 SWAP1 PUSH2 0x1B13 JUMP JUMPDEST PUSH1 0x40 MLOAD DUP1 SWAP2 SUB SWAP1 RETURN JUMPDEST PUSH2 0x1F7 PUSH1 0x4 DUP1 CALLDATASIZE SUB DUP2 ADD SWAP1 PUSH2 0x1F2 SWAP2 SWAP1 PUSH2 0x1B2C JUMP JUMPDEST PUSH2 0xDAE JUMP JUMPDEST STOP JUMPDEST PUSH0 DUP2 PUSH1 0x40 MLOAD PUSH1 0x20 ADD PUSH2 0x20B SWAP2 SWAP1 PUSH2 0x1B8B JUMP JUMPDEST PUSH1 0x40 MLOAD PUSH1 0x20 DUP2 DUP4 SUB SUB DUP2 MSTORE SWAP1 PUSH1 0x40 MSTORE DUP1 MLOAD SWAP1 PUSH1 0x20 ADD KECCAK256 SWAP1 POP SWAP2 SWAP1 POP JUMP JUMPDEST PUSH1 0x3 PUSH0 SWAP1 SLOAD SWAP1 PUSH2 0x100 EXP SWAP1 DIV PUSH8 0xFFFFFFFFFFFFFFFF AND DUP2 JUMP JUMPDEST PUSH0 DUP3 DUP3 PUSH1 0x40 MLOAD PUSH1 0x20 ADD PUSH2 0x255 SWAP3 SWAP2 SWAP1 PUSH2 0x1BFF JUMP JUMPDEST PUSH1 0x40 MLOAD PUSH1 0x20 DUP2 DUP4 SUB SUB DUP2 MSTORE SWAP1 PUSH1 0x40 MSTORE DUP1 MLOAD SWAP1 PUSH1 0x20 ADD KECCAK256 SWAP1 POP SWAP3 SWAP2 POP POP JUMP JUMPDEST PUSH1 0x60 PUSH0 DUP4 DUP4 PUSH1 0x40 MLOAD PUSH1 0x20 ADD PUSH2 0x289 SWAP3 SWAP2 SWAP1 PUSH2 0x1C4E JUMP JUMPDEST PUSH1 0x40 MLOAD PUSH1 0x20 DUP2 DUP4 SUB SUB DUP2 MSTORE SWAP1 PUSH1 0x40 MSTORE DUP1 MLOAD SWAP1 PUSH1 0x20 ADD KECCAK256 SWAP1 POP PUSH0 DUP1 DUP3 DUP2 MSTORE PUSH1 0x20 ADD SWAP1 DUP2 MSTORE PUSH1 0x20 ADD PUSH0 KECCAK256 DUP1 SLOAD DUP1 PUSH1 0x20 MUL PUSH1 0x20 ADD PUSH1 0x40 MLOAD SWAP1 DUP2 ADD PUSH1 0x40 MSTORE DUP1 SWAP3 SWAP2 SWAP1 DUP2 DUP2 MSTORE PUSH1 0x20 ADD PUSH0 SWAP1 JUMPDEST DUP3 DUP3 LT ISZERO PUSH2 0x54E JUMPI DUP4 DUP3 SWAP1 PUSH0 MSTORE PUSH1 0x20 PUSH0 KECCAK256 SWAP1 PUSH1 0x5 MUL ADD PUSH1 0x40 MLOAD DUP1 PUSH1 0xC0 ADD PUSH1 0x40 MSTORE SWAP1 DUP2 PUSH0 DUP3 ADD PUSH0 SWAP1 SLOAD SWAP1 PUSH2 0x100 EXP SWAP1 DIV PUSH1 0x80 SHL PUSH16 0xFFFFFFFFFFFFFFFFFFFFFFFFFFFFFFFF NOT AND PUSH16 0xFFFFFFFFFFFFFFFFFFFFFFFFFFFFFFFF NOT AND DUP2 MSTORE PUSH1 0x20 ADD PUSH0 DUP3 ADD PUSH1 0x10 SWAP1 SLOAD SWAP1 PUSH2 0x100 EXP SWAP1 DIV PUSH1 0x80 SHL PUSH16 0xFFFFFFFFFFFFFFFFFFFFFFFFFFFFFFFF NOT AND PUSH16 0xFFFFFFFFFFFFFFFFFFFFFFFFFFFFFFFF NOT AND DUP2 MSTORE PUSH1 0x20 ADD PUSH1 0x1 DUP3 ADD PUSH0 SWAP1 SLOAD SWAP1 PUSH2 0x100 EXP SWAP1 DIV PUSH8 0xFFFFFFFFFFFFFFFF AND PUSH8 0xFFFFFFFFFFFFFFFF AND PUSH8 0xFFFFFFFFFFFFFFFF AND DUP2 MSTORE PUSH1 0x20 ADD PUSH1 0x2 DUP3 ADD DUP1 SLOAD DUP1 PUSH1 0x20 MUL PUSH1 0x20 ADD PUSH1 0x40 MLOAD SWAP1 DUP2 ADD PUSH1 0x40 MSTORE DUP1 SWAP3 SWAP2 SWAP1 DUP2 DUP2 MSTORE PUSH1 0x20 ADD DUP3 DUP1 SLOAD DUP1 ISZERO PUSH2 0x41B JUMPI PUSH1 0x20 MUL DUP3 ADD SWAP2 SWAP1 PUSH0 MSTORE PUSH1 0x20 PUSH0 KECCAK256 SWAP1 JUMPDEST DUP2 PUSH0 SWAP1 SLOAD SWAP1 PUSH2 0x100 EXP SWAP1 DIV PUSH20 0xFFFFFFFFFFFFFFFFFFFFFFFFFFFFFFFFFFFFFFFF AND PUSH20 0xFFFFFFFFFFFFFFFFFFFFFFFFFFFFFFFFFFFFFFFF AND DUP2 MSTORE PUSH1 0x20 ADD SWAP1 PUSH1 0x1 ADD SWAP1 DUP1 DUP4 GT PUSH2 0x3D2 JUMPI JUMPDEST POP POP POP POP POP DUP2 MSTORE PUSH1 0x20 ADD PUSH1 0x3 DUP3 ADD DUP1 SLOAD DUP1 PUSH1 0x20 MUL PUSH1 0x20 ADD PUSH1 0x40 MLOAD SWAP1 DUP2 ADD PUSH1 0x40 MSTORE DUP1 SWAP3 SWAP2 SWAP1 DUP2 DUP2 MSTORE PUSH1 0x20 ADD DUP3 DUP1 SLOAD DUP1 ISZERO PUSH2 0x4A6 JUMPI PUSH1 0x20 MUL DUP3 ADD SWAP2 SWAP1 PUSH0 MSTORE PUSH1 0x20 PUSH0 KECCAK256 SWAP1 JUMPDEST DUP2 PUSH0 SWAP1 SLOAD SWAP1 PUSH2 0x100 EXP SWAP1 DIV PUSH20 0xFFFFFFFFFFFFFFFFFFFFFFFFFFFFFFFFFFFFFFFF AND PUSH20 0xFFFFFFFFFFFFFFFFFFFFFFFFFFFFFFFFFFFFFFFF AND DUP2 MSTORE PUSH1 0x20 ADD SWAP1 PUSH1 0x1 ADD SWAP1 DUP1 DUP4 GT PUSH2 0x45D JUMPI JUMPDEST POP POP POP POP POP DUP2 MSTORE PUSH1 0x20 ADD PUSH1 0x4 DUP3 ADD DUP1 SLOAD PUSH2 0x4BF SWAP1 PUSH2 0x1CA2 JUMP JUMPDEST DUP1 PUSH1 0x1F ADD PUSH1 0x20 DUP1 SWAP2 DIV MUL PUSH1 0x20 ADD PUSH1 0x40 MLOAD SWAP1 DUP2 ADD PUSH1 0x40 MSTORE DUP1 SWAP3 SWAP2 SWAP1 DUP2 DUP2 MSTORE PUSH1 0x20 ADD DUP3 DUP1 SLOAD PUSH2 0x4EB SWAP1 PUSH2 0x1CA2 JUMP JUMPDEST DUP1 ISZERO PUSH2 0x536 JUMPI DUP1 PUSH1 0x1F LT PUSH2 0x50D JUMPI PUSH2 0x100 DUP1 DUP4 SLOAD DIV MUL DUP4 MSTORE SWAP2 PUSH1 0x20 ADD SWAP2 PUSH2 0x536 JUMP JUMPDEST DUP3 ADD SWAP2 SWAP1 PUSH0 MSTORE PUSH1 0x20 PUSH0 KECCAK256 SWAP1 JUMPDEST DUP2 SLOAD DUP2 MSTORE SWAP1 PUSH1 0x1 ADD SWAP1 PUSH1 0x20 ADD DUP1 DUP4 GT PUSH2 0x519 JUMPI DUP3 SWAP1 SUB PUSH1 0x1F AND DUP3 ADD SWAP2 JUMPDEST POP POP POP POP POP DUP2 MSTORE POP POP DUP2 MSTORE PUSH1 0x20 ADD SWAP1 PUSH1 0x1 ADD SWAP1 PUSH2 0x2D0 JUMP JUMPDEST POP POP POP POP SWAP2 POP POP SWAP3 SWAP2 POP POP JUMP JUMPDEST PUSH0 PUSH1 0x2 PUSH0 DUP6 PUSH16 0xFFFFFFFFFFFFFFFFFFFFFFFFFFFFFFFF NOT AND PUSH16 0xFFFFFFFFFFFFFFFFFFFFFFFFFFFFFFFF NOT AND DUP2 MSTORE PUSH1 0x20 ADD SWAP1 DUP2 MSTORE PUSH1 0x20 ADD PUSH0 KECCAK256 PUSH1 0x3 ADD DUP1 SLOAD DUP1 PUSH1 0x20 MUL PUSH1 0x20 ADD PUSH1 0x40 MLOAD SWAP1 DUP2 ADD PUSH1 0x40 MSTORE DUP1 SWAP3 SWAP2 SWAP1 DUP2 DUP2 MSTORE PUSH1 0x20 ADD DUP3 DUP1 SLOAD DUP1 ISZERO PUSH2 0x613 JUMPI PUSH1 0x20 MUL DUP3 ADD SWAP2 SWAP1 PUSH0 MSTORE PUSH1 0x20 PUSH0 KECCAK256 SWAP1 JUMPDEST DUP2 PUSH0 SWAP1 SLOAD SWAP1 PUSH2 0x100 EXP SWAP1 DIV PUSH20 0xFFFFFFFFFFFFFFFFFFFFFFFFFFFFFFFFFFFFFFFF AND PUSH20 0xFFFFFFFFFFFFFFFFFFFFFFFFFFFFFFFFFFFFFFFF AND DUP2 MSTORE PUSH1 0x20 ADD SWAP1 PUSH1 0x1 ADD SWAP1 DUP1 DUP4 GT PUSH2 0x5CA JUMPI JUMPDEST POP POP POP POP POP SWAP1 POP PUSH0 JUMPDEST DUP2 MLOAD DUP2 LT ISZERO PUSH2 0x74C JUMPI CALLER PUSH20 0xFFFFFFFFFFFFFFFFFFFFFFFFFFFFFFFFFFFFFFFF AND DUP3 DUP3 DUP2 MLOAD DUP2 LT PUSH2 0x64F JUMPI PUSH2 0x64E PUSH2 0x1CD2 JUMP JUMPDEST JUMPDEST PUSH1 0x20 MUL PUSH1 0x20 ADD ADD MLOAD PUSH20 0xFFFFFFFFFFFFFFFFFFFFFFFFFFFFFFFFFFFFFFFF AND EQ DUP1 PUSH2 0x6D2 JUMPI POP PUSH20 0xC8DF3686B4AFB2BB53E60EAE97EF043FE03FB829 PUSH20 0xFFFFFFFFFFFFFFFFFFFFFFFFFFFFFFFFFFFFFFFF AND DUP3 DUP3 DUP2 MLOAD DUP2 LT PUSH2 0x6B2 JUMPI PUSH2 0x6B1 PUSH2 0x1CD2 JUMP JUMPDEST JUMPDEST PUSH1 0x20 MUL PUSH1 0x20 ADD ADD MLOAD PUSH20 0xFFFFFFFFFFFFFFFFFFFFFFFFFFFFFFFFFFFFFFFF AND EQ JUMPDEST ISZERO PUSH2 0x73F JUMPI DUP3 PUSH1 0x1 PUSH0 DUP8 PUSH16 0xFFFFFFFFFFFFFFFFFFFFFFFFFFFFFFFF NOT AND PUSH16 0xFFFFFFFFFFFFFFFFFFFFFFFFFFFFFFFF NOT AND DUP2 MSTORE PUSH1 0x20 ADD SWAP1 DUP2 MSTORE PUSH1 0x20 ADD PUSH0 KECCAK256 DUP6 PUSH1 0x40 MLOAD PUSH2 0x71D SWAP2 SWAP1 PUSH2 0x1CFF JUMP JUMPDEST SWAP1 DUP2 MSTORE PUSH1 0x20 ADD PUSH1 0x40 MLOAD DUP1 SWAP2 SUB SWAP1 KECCAK256 SWAP1 DUP2 PUSH2 0x737 SWAP2 SWAP1 PUSH2 0x1EB2 JUMP JUMPDEST POP POP POP PUSH2 0x788 JUMP JUMPDEST DUP1 DUP1 PUSH1 0x1 ADD SWAP2 POP POP PUSH2 0x61C JUMP JUMPDEST POP PUSH1 0x40 MLOAD PUSH32 0x8C379A000000000000000000000000000000000000000000000000000000000 DUP2 MSTORE PUSH1 0x4 ADD PUSH2 0x77F SWAP1 PUSH2 0x1FDB JUMP JUMPDEST PUSH1 0x40 MLOAD DUP1 SWAP2 SUB SWAP1 REVERT JUMPDEST POP POP POP JUMP JUMPDEST PUSH1 0x60 PUSH0 PUSH1 0x2 PUSH0 DUP6 PUSH16 0xFFFFFFFFFFFFFFFFFFFFFFFFFFFFFFFF NOT AND PUSH16 0xFFFFFFFFFFFFFFFFFFFFFFFFFFFFFFFF NOT AND DUP2 MSTORE PUSH1 0x20 ADD SWAP1 DUP2 MSTORE PUSH1 0x20 ADD PUSH0 KECCAK256 PUSH1 0x2 ADD DUP1 SLOAD DUP1 PUSH1 0x20 MUL PUSH1 0x20 ADD PUSH1 0x40 MLOAD SWAP1 DUP2 ADD PUSH1 0x40 MSTORE DUP1 SWAP3 SWAP2 SWAP1 DUP2 DUP2 MSTORE PUSH1 0x20 ADD DUP3 DUP1 SLOAD DUP1 ISZERO PUSH2 0x847 JUMPI PUSH1 0x20 MUL DUP3 ADD SWAP2 SWAP1 PUSH0 MSTORE PUSH1 0x20 PUSH0 KECCAK256 SWAP1 JUMPDEST DUP2 PUSH0 SWAP1 SLOAD SWAP1 PUSH2 0x100 EXP SWAP1 DIV PUSH20 0xFFFFFFFFFFFFFFFFFFFFFFFFFFFFFFFFFFFFFFFF AND PUSH20 0xFFFFFFFFFFFFFFFFFFFFFFFFFFFFFFFFFFFFFFFF AND DUP2 MSTORE PUSH1 0x20 ADD SWAP1 PUSH1 0x1 ADD SWAP1 DUP1 DUP4 GT PUSH2 0x7FE JUMPI JUMPDEST POP POP POP POP POP SWAP1 POP PUSH0 JUMPDEST DUP2 MLOAD DUP2 LT ISZERO PUSH2 0x9FB JUMPI CALLER PUSH20 0xFFFFFFFFFFFFFFFFFFFFFFFFFFFFFFFFFFFFFFFF AND DUP3 DUP3 DUP2 MLOAD DUP2 LT PUSH2 0x883 JUMPI PUSH2 0x882 PUSH2 0x1CD2 JUMP JUMPDEST JUMPDEST PUSH1 0x20 MUL PUSH1 0x20 ADD ADD MLOAD PUSH20 0xFFFFFFFFFFFFFFFFFFFFFFFFFFFFFFFFFFFFFFFF AND EQ DUP1 PUSH2 0x906 JUMPI POP PUSH20 0xC8DF3686B4AFB2BB53E60EAE97EF043FE03FB829 PUSH20 0xFFFFFFFFFFFFFFFFFFFFFFFFFFFFFFFFFFFFFFFF AND DUP3 DUP3 DUP2 MLOAD DUP2 LT PUSH2 0x8E6 JUMPI PUSH2 0x8E5 PUSH2 0x1CD2 JUMP JUMPDEST JUMPDEST PUSH1 0x20 MUL PUSH1 0x20 ADD ADD MLOAD PUSH20 0xFFFFFFFFFFFFFFFFFFFFFFFFFFFFFFFFFFFFFFFF AND EQ JUMPDEST ISZERO PUSH2 0x9EE JUMPI PUSH1 0x1 PUSH0 DUP7 PUSH16 0xFFFFFFFFFFFFFFFFFFFFFFFFFFFFFFFF NOT AND PUSH16 0xFFFFFFFFFFFFFFFFFFFFFFFFFFFFFFFF NOT AND DUP2 MSTORE PUSH1 0x20 ADD SWAP1 DUP2 MSTORE PUSH1 0x20 ADD PUSH0 KECCAK256 DUP5 PUSH1 0x40 MLOAD PUSH2 0x950 SWAP2 SWAP1 PUSH2 0x1CFF JUMP JUMPDEST SWAP1 DUP2 MSTORE PUSH1 0x20 ADD PUSH1 0x40 MLOAD DUP1 SWAP2 SUB SWAP1 KECCAK256 DUP1 SLOAD PUSH2 0x969 SWAP1 PUSH2 0x1CA2 JUMP JUMPDEST DUP1 PUSH1 0x1F ADD PUSH1 0x20 DUP1 SWAP2 DIV MUL PUSH1 0x20 ADD PUSH1 0x40 MLOAD SWAP1 DUP2 ADD PUSH1 0x40 MSTORE DUP1 SWAP3 SWAP2 SWAP1 DUP2 DUP2 MSTORE PUSH1 0x20 ADD DUP3 DUP1 SLOAD PUSH2 0x995 SWAP1 PUSH2 0x1CA2 JUMP JUMPDEST DUP1 ISZERO PUSH2 0x9E0 JUMPI DUP1 PUSH1 0x1F LT PUSH2 0x9B7 JUMPI PUSH2 0x100 DUP1 DUP4 SLOAD DIV MUL DUP4 MSTORE SWAP2 PUSH1 0x20 ADD SWAP2 PUSH2 0x9E0 JUMP JUMPDEST DUP3 ADD SWAP2 SWAP1 PUSH0 MSTORE PUSH1 0x20 PUSH0 KECCAK256 SWAP1 JUMPDEST DUP2 SLOAD DUP2 MSTORE SWAP1 PUSH1 0x1 ADD SWAP1 PUSH1 0x20 ADD DUP1 DUP4 GT PUSH2 0x9C3 JUMPI DUP3 SWAP1 SUB PUSH1 0x1F AND DUP3 ADD SWAP2 JUMPDEST POP POP POP POP POP SWAP3 POP POP POP PUSH2 0xA37 JUMP JUMPDEST DUP1 DUP1 PUSH1 0x1 ADD SWAP2 POP POP PUSH2 0x850 JUMP JUMPDEST POP PUSH1 0x40 MLOAD PUSH32 0x8C379A000000000000000000000000000000000000000000000000000000000 DUP2 MSTORE PUSH1 0x4 ADD PUSH2 0xA2E SWAP1 PUSH2 0x2043 JUMP JUMPDEST PUSH1 0x40 MLOAD DUP1 SWAP2 SUB SWAP1 REVERT JUMPDEST SWAP3 SWAP2 POP POP JUMP JUMPDEST PUSH2 0xA45 PUSH2 0xECF JUMP JUMPDEST PUSH1 0x3 PUSH0 DUP2 DUP2 SWAP1 SLOAD SWAP1 PUSH2 0x100 EXP SWAP1 DIV PUSH8 0xFFFFFFFFFFFFFFFF AND DUP1 SWAP3 SWAP2 SWAP1 PUSH2 0xA6A SWAP1 PUSH2 0x208E JUMP JUMPDEST SWAP2 SWAP1 PUSH2 0x100 EXP DUP2 SLOAD DUP2 PUSH8 0xFFFFFFFFFFFFFFFF MUL NOT AND SWAP1 DUP4 PUSH8 0xFFFFFFFFFFFFFFFF AND MUL OR SWAP1 SSTORE POP POP PUSH0 PUSH1 0x3 PUSH0 SWAP1 SLOAD SWAP1 PUSH2 0x100 EXP SWAP1 DIV PUSH8 0xFFFFFFFFFFFFFFFF AND PUSH1 0x40 MLOAD PUSH1 0x20 ADD PUSH2 0xAB8 SWAP2 SWAP1 PUSH2 0x20BD JUMP JUMPDEST PUSH1 0x40 MLOAD PUSH1 0x20 DUP2 DUP4 SUB SUB DUP2 MSTORE SWAP1 PUSH1 0x40 MSTORE DUP1 MLOAD SWAP1 PUSH1 0x20 ADD KECCAK256 SWAP1 POP PUSH2 0xAD8 PUSH2 0xECF JUMP JUMPDEST DUP2 DUP2 PUSH0 ADD SWAP1 PUSH16 0xFFFFFFFFFFFFFFFFFFFFFFFFFFFFFFFF NOT AND SWAP1 DUP2 PUSH16 0xFFFFFFFFFFFFFFFFFFFFFFFFFFFFFFFF NOT AND DUP2 MSTORE POP POP DUP7 DUP2 PUSH1 0x40 ADD SWAP1 PUSH8 0xFFFFFFFFFFFFFFFF AND SWAP1 DUP2 PUSH8 0xFFFFFFFFFFFFFFFF AND DUP2 MSTORE POP POP DUP6 DUP2 PUSH1 0x60 ADD DUP2 SWAP1 MSTORE POP DUP5 DUP2 PUSH1 0x80 ADD DUP2 SWAP1 MSTORE POP DUP4 DUP2 PUSH1 0xA0 ADD DUP2 SWAP1 MSTORE POP DUP1 PUSH1 0x2 PUSH0 DUP5 PUSH16 0xFFFFFFFFFFFFFFFFFFFFFFFFFFFFFFFF NOT AND PUSH16 0xFFFFFFFFFFFFFFFFFFFFFFFFFFFFFFFF NOT AND DUP2 MSTORE PUSH1 0x20 ADD SWAP1 DUP2 MSTORE PUSH1 0x20 ADD PUSH0 KECCAK256 PUSH0 DUP3 ADD MLOAD DUP2 PUSH0 ADD PUSH0 PUSH2 0x100 EXP DUP2 SLOAD DUP2 PUSH16 0xFFFFFFFFFFFFFFFFFFFFFFFFFFFFFFFF MUL NOT AND SWAP1 DUP4 PUSH1 0x80 SHR MUL OR SWAP1 SSTORE POP PUSH1 0x20 DUP3 ADD MLOAD DUP2 PUSH0 ADD PUSH1 0x10 PUSH2 0x100 EXP DUP2 SLOAD DUP2 PUSH16 0xFFFFFFFFFFFFFFFFFFFFFFFFFFFFFFFF MUL NOT AND SWAP1 DUP4 PUSH1 0x80 SHR MUL OR SWAP1 SSTORE POP PUSH1 0x40 DUP3 ADD MLOAD DUP2 PUSH1 0x1 ADD PUSH0 PUSH2 0x100 EXP DUP2 SLOAD DUP2 PUSH8 0xFFFFFFFFFFFFFFFF MUL NOT AND SWAP1 DUP4 PUSH8 0xFFFFFFFFFFFFFFFF AND MUL OR SWAP1 SSTORE POP PUSH1 0x60 DUP3 ADD MLOAD DUP2 PUSH1 0x2 ADD SWAP1 DUP1 MLOAD SWAP1 PUSH1 0x20 ADD SWAP1 PUSH2 0xC22 SWAP3 SWAP2 SWAP1 PUSH2 0xF32 JUMP JUMPDEST POP PUSH1 0x80 DUP3 ADD MLOAD DUP2 PUSH1 0x3 ADD SWAP1 DUP1 MLOAD SWAP1 PUSH1 0x20 ADD SWAP1 PUSH2 0xC3F SWAP3 SWAP2 SWAP1 PUSH2 0xF32 JUMP JUMPDEST POP PUSH1 0xA0 DUP3 ADD MLOAD DUP2 PUSH1 0x4 ADD SWAP1 DUP2 PUSH2 0xC55 SWAP2 SWAP1 PUSH2 0x212F JUMP JUMPDEST POP SWAP1 POP POP PUSH0 DUP8 DUP6 PUSH1 0x40 MLOAD PUSH1 0x20 ADD PUSH2 0xC6D SWAP3 SWAP2 SWAP1 PUSH2 0x1C4E JUMP JUMPDEST PUSH1 0x40 MLOAD PUSH1 0x20 DUP2 DUP4 SUB SUB DUP2 MSTORE SWAP1 PUSH1 0x40 MSTORE DUP1 MLOAD SWAP1 PUSH1 0x20 ADD KECCAK256 SWAP1 POP PUSH0 DUP1 DUP3 DUP2 MSTORE PUSH1 0x20 ADD SWAP1 DUP2 MSTORE PUSH1 0x20 ADD PUSH0 KECCAK256 DUP3 SWAP1 DUP1 PUSH1 0x1 DUP2 SLOAD ADD DUP1 DUP3 SSTORE DUP1 SWAP2 POP POP PUSH1 0x1 SWAP1 SUB SWAP1 PUSH0 MSTORE PUSH1 0x20 PUSH0 KECCAK256 SWAP1 PUSH1 0x5 MUL ADD PUSH0 SWAP1 SWAP2 SWAP1 SWAP2 SWAP1 SWAP2 POP PUSH0 DUP3 ADD MLOAD DUP2 PUSH0 ADD PUSH0 PUSH2 0x100 EXP DUP2 SLOAD DUP2 PUSH16 0xFFFFFFFFFFFFFFFFFFFFFFFFFFFFFFFF MUL NOT AND SWAP1 DUP4 PUSH1 0x80 SHR MUL OR SWAP1 SSTORE POP PUSH1 0x20 DUP3 ADD MLOAD DUP2 PUSH0 ADD PUSH1 0x10 PUSH2 0x100 EXP DUP2 SLOAD DUP2 PUSH16 0xFFFFFFFFFFFFFFFFFFFFFFFFFFFFFFFF MUL NOT AND SWAP1 DUP4 PUSH1 0x80 SHR MUL OR SWAP1 SSTORE POP PUSH1 0x40 DUP3 ADD MLOAD DUP2 PUSH1 0x1 ADD PUSH0 PUSH2 0x100 EXP DUP2 SLOAD DUP2 PUSH8 0xFFFFFFFFFFFFFFFF MUL NOT AND SWAP1 DUP4 PUSH8 0xFFFFFFFFFFFFFFFF AND MUL OR SWAP1 SSTORE POP PUSH1 0x60 DUP3 ADD MLOAD DUP2 PUSH1 0x2 ADD SWAP1 DUP1 MLOAD SWAP1 PUSH1 0x20 ADD SWAP1 PUSH2 0xD62 SWAP3 SWAP2 SWAP1 PUSH2 0xF32 JUMP JUMPDEST POP PUSH1 0x80 DUP3 ADD MLOAD DUP2 PUSH1 0x3 ADD SWAP1 DUP1 MLOAD SWAP1 PUSH1 0x20 ADD SWAP1 PUSH2 0xD7F SWAP3 SWAP2 SWAP1 PUSH2 0xF32 JUMP JUMPDEST POP PUSH1 0xA0 DUP3 ADD MLOAD DUP2 PUSH1 0x4 ADD SWAP1 DUP2 PUSH2 0xD95 SWAP2 SWAP1 PUSH2 0x212F JUMP JUMPDEST POP POP POP DUP2 SWAP4 POP POP POP POP SWAP5 SWAP4 POP POP POP POP JUMP JUMPDEST PUSH0 PUSH1 0x1 SWAP1 POP SWAP1 JUMP JUMPDEST PUSH0 PUSH1 0x2 PUSH0 DUP4 PUSH16 0xFFFFFFFFFFFFFFFFFFFFFFFFFFFFFFFF NOT AND PUSH16 0xFFFFFFFFFFFFFFFFFFFFFFFFFFFFFFFF NOT AND DUP2 MSTORE PUSH1 0x20 ADD SWAP1 DUP2 MSTORE PUSH1 0x20 ADD PUSH0 KECCAK256 PUSH1 0x2 ADD SWAP1 POP DUP1 CALLER SWAP1 DUP1 PUSH1 0x1 DUP2 SLOAD ADD DUP1 DUP3 SSTORE DUP1 SWAP2 POP POP PUSH1 0x1 SWAP1 SUB SWAP1 PUSH0 MSTORE PUSH1 0x20 PUSH0 KECCAK256 ADD PUSH0 SWAP1 SWAP2 SWAP1 SWAP2 SWAP1 SWAP2 PUSH2 0x100 EXP DUP2 SLOAD DUP2 PUSH20 0xFFFFFFFFFFFFFFFFFFFFFFFFFFFFFFFFFFFFFFFF MUL NOT AND SWAP1 DUP4 PUSH20 0xFFFFFFFFFFFFFFFFFFFFFFFFFFFFFFFFFFFFFFFF AND MUL OR SWAP1 SSTORE POP DUP1 PUSH1 0x2 PUSH0 DUP5 PUSH16 0xFFFFFFFFFFFFFFFFFFFFFFFFFFFFFFFF NOT AND PUSH16 0xFFFFFFFFFFFFFFFFFFFFFFFFFFFFFFFF NOT AND DUP2 MSTORE PUSH1 0x20 ADD SWAP1 DUP2 MSTORE PUSH1 0x20 ADD PUSH0 KECCAK256 PUSH1 0x2 ADD SWAP1 DUP1 SLOAD PUSH2 0xE93 SWAP3 SWAP2 SWAP1 PUSH2 0xFB9 JUMP JUMPDEST POP PUSH32 0xA4FC65DCE70D2A26ED1967E184E70BC2BDA6FCE012A2752DEF262017864A17A DUP3 PUSH1 0x40 MLOAD PUSH2 0xEC3 SWAP2 SWAP1 PUSH2 0x10DF JUMP JUMPDEST PUSH1 0x40 MLOAD DUP1 SWAP2 SUB SWAP1 LOG1 POP POP JUMP JUMPDEST PUSH1 0x40 MLOAD DUP1 PUSH1 0xC0 ADD PUSH1 0x40 MSTORE DUP1 PUSH0 PUSH16 0xFFFFFFFFFFFFFFFFFFFFFFFFFFFFFFFF NOT AND DUP2 MSTORE PUSH1 0x20 ADD PUSH0 PUSH16 0xFFFFFFFFFFFFFFFFFFFFFFFFFFFFFFFF NOT AND DUP2 MSTORE PUSH1 0x20 ADD PUSH0 PUSH8 0xFFFFFFFFFFFFFFFF AND DUP2 MSTORE PUSH1 0x20 ADD PUSH1 0x60 DUP2 MSTORE PUSH1 0x20 ADD PUSH1 0x60 DUP2 MSTORE PUSH1 0x20 ADD PUSH1 0x60 DUP2 MSTORE POP SWAP1 JUMP JUMPDEST DUP3 DUP1 SLOAD DUP3 DUP3 SSTORE SWAP1 PUSH0 MSTORE PUSH1 0x20 PUSH0 KECCAK256 SWAP1 DUP2 ADD SWAP3 DUP3 ISZERO PUSH2 0xFA8 JUMPI SWAP2 PUSH1 0x20 MUL DUP3 ADD JUMPDEST DUP3 DUP2 GT ISZERO PUSH2 0xFA7 JUMPI DUP3 MLOAD DUP3 PUSH0 PUSH2 0x100 EXP DUP2 SLOAD DUP2 PUSH20 0xFFFFFFFFFFFFFFFFFFFFFFFFFFFFFFFFFFFFFFFF MUL NOT AND SWAP1 DUP4 PUSH20 0xFFFFFFFFFFFFFFFFFFFFFFFFFFFFFFFFFFFFFFFF AND MUL OR SWAP1 SSTORE POP SWAP2 PUSH1 0x20 ADD SWAP2 SWAP1 PUSH1 0x1 ADD SWAP1 PUSH2 0xF50 JUMP JUMPDEST JUMPDEST POP SWAP1 POP PUSH2 0xFB5 SWAP2 SWAP1 PUSH2 0x1007 JUMP JUMPDEST POP SWAP1 JUMP JUMPDEST DUP3 DUP1 SLOAD DUP3 DUP3 SSTORE SWAP1 PUSH0 MSTORE PUSH1 0x20 PUSH0 KECCAK256 SWAP1 DUP2 ADD SWAP3 DUP3 ISZERO PUSH2 0xFF6 JUMPI PUSH0 MSTORE PUSH1 0x20 PUSH0 KECCAK256 SWAP2 DUP3 ADD JUMPDEST DUP3 DUP2 GT ISZERO PUSH2 0xFF5 JUMPI DUP3 SLOAD DUP3 SSTORE SWAP2 PUSH1 0x1 ADD SWAP2 SWAP1 PUSH1 0x1 ADD SWAP1 PUSH2 0xFDA JUMP JUMPDEST JUMPDEST POP SWAP1 POP PUSH2 0x1003 SWAP2 SWAP1 PUSH2 0x1007 JUMP JUMPDEST POP SWAP1 JUMP JUMPDEST JUMPDEST DUP1 DUP3 GT ISZERO PUSH2 0x101E JUMPI PUSH0 DUP2 PUSH0 SWAP1 SSTORE POP PUSH1 0x1 ADD PUSH2 0x1008 JUMP JUMPDEST POP SWAP1 JUMP JUMPDEST PUSH0 PUSH1 0x40 MLOAD SWAP1 POP SWAP1 JUMP JUMPDEST PUSH0 DUP1 REVERT JUMPDEST PUSH0 DUP1 REVERT JUMPDEST PUSH0 DUP2 PUSH1 0x7 SIGNEXTEND SWAP1 POP SWAP2 SWAP1 POP JUMP JUMPDEST PUSH2 0x1048 DUP2 PUSH2 0x1033 JUMP JUMPDEST DUP2 EQ PUSH2 0x1052 JUMPI PUSH0 DUP1 REVERT JUMPDEST POP JUMP JUMPDEST PUSH0 DUP2 CALLDATALOAD SWAP1 POP PUSH2 0x1063 DUP2 PUSH2 0x103F JUMP JUMPDEST SWAP3 SWAP2 POP POP JUMP JUMPDEST PUSH0 PUSH1 0x20 DUP3 DUP5 SUB SLT ISZERO PUSH2 0x107E JUMPI PUSH2 0x107D PUSH2 0x102B JUMP JUMPDEST JUMPDEST PUSH0 PUSH2 0x108B DUP5 DUP3 DUP6 ADD PUSH2 0x1055 JUMP JUMPDEST SWAP2 POP POP SWAP3 SWAP2 POP POP JUMP JUMPDEST PUSH0 PUSH32 0xFFFFFFFFFFFFFFFFFFFFFFFFFFFFFFFF00000000000000000000000000000000 DUP3 AND SWAP1 POP SWAP2 SWAP1 POP JUMP JUMPDEST PUSH0 PUSH2 0x10C9 DUP3 PUSH2 0x1094 JUMP JUMPDEST SWAP1 POP SWAP2 SWAP1 POP JUMP JUMPDEST PUSH2 0x10D9 DUP2 PUSH2 0x10BF JUMP JUMPDEST DUP3 MSTORE POP POP JUMP JUMPDEST PUSH0 PUSH1 0x20 DUP3 ADD SWAP1 POP PUSH2 0x10F2 PUSH0 DUP4 ADD DUP5 PUSH2 0x10D0 JUMP JUMPDEST SWAP3 SWAP2 POP POP JUMP JUMPDEST PUSH0 PUSH8 0xFFFFFFFFFFFFFFFF DUP3 AND SWAP1 POP SWAP2 SWAP1 POP JUMP JUMPDEST PUSH2 0x1114 DUP2 PUSH2 0x10F8 JUMP JUMPDEST DUP3 MSTORE POP POP JUMP JUMPDEST PUSH0 PUSH1 0x20 DUP3 ADD SWAP1 POP PUSH2 0x112D PUSH0 DUP4 ADD DUP5 PUSH2 0x110B JUMP JUMPDEST SWAP3 SWAP2 POP POP JUMP JUMPDEST PUSH0 DUP2 SWAP1 POP SWAP2 SWAP1 POP JUMP JUMPDEST PUSH2 0x1145 DUP2 PUSH2 0x1133 JUMP JUMPDEST DUP2 EQ PUSH2 0x114F JUMPI PUSH0 DUP1 REVERT JUMPDEST POP JUMP JUMPDEST PUSH0 DUP2 CALLDATALOAD SWAP1 POP PUSH2 0x1160 DUP2 PUSH2 0x113C JUMP JUMPDEST SWAP3 SWAP2 POP POP JUMP JUMPDEST PUSH0 DUP1 REVERT JUMPDEST PUSH0 DUP1 REVERT JUMPDEST PUSH0 PUSH1 0x1F NOT PUSH1 0x1F DUP4 ADD AND SWAP1 POP SWAP2 SWAP1 POP JUMP JUMPDEST PUSH32 0x4E487B7100000000000000000000000000000000000000000000000000000000 PUSH0 MSTORE PUSH1 0x41 PUSH1 0x4 MSTORE PUSH1 0x24 PUSH0 REVERT JUMPDEST PUSH2 0x11B4 DUP3 PUSH2 0x116E JUMP JUMPDEST DUP2 ADD DUP2 DUP2 LT PUSH8 0xFFFFFFFFFFFFFFFF DUP3 GT OR ISZERO PUSH2 0x11D3 JUMPI PUSH2 0x11D2 PUSH2 0x117E JUMP JUMPDEST JUMPDEST DUP1 PUSH1 0x40 MSTORE POP POP POP JUMP JUMPDEST PUSH0 PUSH2 0x11E5 PUSH2 0x1022 JUMP JUMPDEST SWAP1 POP PUSH2 0x11F1 DUP3 DUP3 PUSH2 0x11AB JUMP JUMPDEST SWAP2 SWAP1 POP JUMP JUMPDEST PUSH0 PUSH8 0xFFFFFFFFFFFFFFFF DUP3 GT ISZERO PUSH2 0x1210 JUMPI PUSH2 0x120F PUSH2 0x117E JUMP JUMPDEST JUMPDEST PUSH2 0x1219 DUP3 PUSH2 0x116E JUMP JUMPDEST SWAP1 POP PUSH1 0x20 DUP2 ADD SWAP1 POP SWAP2 SWAP1 POP JUMP JUMPDEST DUP3 DUP2 DUP4 CALLDATACOPY PUSH0 DUP4 DUP4 ADD MSTORE POP POP POP JUMP JUMPDEST PUSH0 PUSH2 0x1246 PUSH2 0x1241 DUP5 PUSH2 0x11F6 JUMP JUMPDEST PUSH2 0x11DC JUMP JUMPDEST SWAP1 POP DUP3 DUP2 MSTORE PUSH1 0x20 DUP2 ADD DUP5 DUP5 DUP5 ADD GT ISZERO PUSH2 0x1262 JUMPI PUSH2 0x1261 PUSH2 0x116A JUMP JUMPDEST JUMPDEST PUSH2 0x126D DUP5 DUP3 DUP6 PUSH2 0x1226 JUMP JUMPDEST POP SWAP4 SWAP3 POP POP POP JUMP JUMPDEST PUSH0 DUP3 PUSH1 0x1F DUP4 ADD SLT PUSH2 0x1289 JUMPI PUSH2 0x1288 PUSH2 0x1166 JUMP JUMPDEST JUMPDEST DUP2 CALLDATALOAD PUSH2 0x1299 DUP5 DUP3 PUSH1 0x20 DUP7 ADD PUSH2 0x1234 JUMP JUMPDEST SWAP2 POP POP SWAP3 SWAP2 POP POP JUMP JUMPDEST PUSH0 DUP1 PUSH1 0x40 DUP4 DUP6 SUB SLT ISZERO PUSH2 0x12B8 JUMPI PUSH2 0x12B7 PUSH2 0x102B JUMP JUMPDEST JUMPDEST PUSH0 PUSH2 0x12C5 DUP6 DUP3 DUP7 ADD PUSH2 0x1152 JUMP JUMPDEST SWAP3 POP POP PUSH1 0x20 DUP4 ADD CALLDATALOAD PUSH8 0xFFFFFFFFFFFFFFFF DUP2 GT ISZERO PUSH2 0x12E6 JUMPI PUSH2 0x12E5 PUSH2 0x102F JUMP JUMPDEST JUMPDEST PUSH2 0x12F2 DUP6 DUP3 DUP7 ADD PUSH2 0x1275 JUMP JUMPDEST SWAP2 POP POP SWAP3 POP SWAP3 SWAP1 POP JUMP JUMPDEST PUSH0 DUP2 SWAP1 POP SWAP2 SWAP1 POP JUMP JUMPDEST PUSH2 0x130E DUP2 PUSH2 0x12FC JUMP JUMPDEST DUP3 MSTORE POP POP JUMP JUMPDEST PUSH0 PUSH1 0x20 DUP3 ADD SWAP1 POP PUSH2 0x1327 PUSH0 DUP4 ADD DUP5 PUSH2 0x1305 JUMP JUMPDEST SWAP3 SWAP2 POP POP JUMP JUMPDEST PUSH2 0x1336 DUP2 PUSH2 0x10F8 JUMP JUMPDEST DUP2 EQ PUSH2 0x1340 JUMPI PUSH0 DUP1 REVERT JUMPDEST POP JUMP JUMPDEST PUSH0 DUP2 CALLDATALOAD SWAP1 POP PUSH2 0x1351 DUP2 PUSH2 0x132D JUMP JUMPDEST SWAP3 SWAP2 POP POP JUMP JUMPDEST PUSH0 DUP1 PUSH1 0x40 DUP4 DUP6 SUB SLT ISZERO PUSH2 0x136D JUMPI PUSH2 0x136C PUSH2 0x102B JUMP JUMPDEST JUMPDEST PUSH0 PUSH2 0x137A DUP6 DUP3 DUP7 ADD PUSH2 0x1343 JUMP JUMPDEST SWAP3 POP POP PUSH1 0x20 DUP4 ADD CALLDATALOAD PUSH8 0xFFFFFFFFFFFFFFFF DUP2 GT ISZERO PUSH2 0x139B JUMPI PUSH2 0x139A PUSH2 0x102F JUMP JUMPDEST JUMPDEST PUSH2 0x13A7 DUP6 DUP3 DUP7 ADD PUSH2 0x1275 JUMP JUMPDEST SWAP2 POP POP SWAP3 POP SWAP3 SWAP1 POP JUMP JUMPDEST PUSH0 DUP2 MLOAD SWAP1 POP SWAP2 SWAP1 POP JUMP JUMPDEST PUSH0 DUP3 DUP3 MSTORE PUSH1 0x20 DUP3 ADD SWAP1 POP SWAP3 SWAP2 POP POP JUMP JUMPDEST PUSH0 DUP2 SWAP1 POP PUSH1 0x20 DUP3 ADD SWAP1 POP SWAP2 SWAP1 POP JUMP JUMPDEST PUSH2 0x13E3 DUP2 PUSH2 0x10BF JUMP JUMPDEST DUP3 MSTORE POP POP JUMP JUMPDEST PUSH2 0x13F2 DUP2 PUSH2 0x10F8 JUMP JUMPDEST DUP3 MSTORE POP POP JUMP JUMPDEST PUSH0 DUP2 MLOAD SWAP1 POP SWAP2 SWAP1 POP JUMP JUMPDEST PUSH0 DUP3 DUP3 MSTORE PUSH1 0x20 DUP3 ADD SWAP1 POP SWAP3 SWAP2 POP POP JUMP JUMPDEST PUSH0 DUP2 SWAP1 POP PUSH1 0x20 DUP3 ADD SWAP1 POP SWAP2 SWAP1 POP JUMP JUMPDEST PUSH0 PUSH20 0xFFFFFFFFFFFFFFFFFFFFFFFFFFFFFFFFFFFFFFFF DUP3 AND SWAP1 POP SWAP2 SWAP1 POP JUMP JUMPDEST PUSH0 PUSH2 0x144A DUP3 PUSH2 0x1421 JUMP JUMPDEST SWAP1 POP SWAP2 SWAP1 POP JUMP JUMPDEST PUSH2 0x145A DUP2 PUSH2 0x1440 JUMP JUMPDEST DUP3 MSTORE POP POP JUMP JUMPDEST PUSH0 PUSH2 0x146B DUP4 DUP4 PUSH2 0x1451 JUMP JUMPDEST PUSH1 0x20 DUP4 ADD SWAP1 POP SWAP3 SWAP2 POP POP JUMP JUMPDEST PUSH0 PUSH1 0x20 DUP3 ADD SWAP1 POP SWAP2 SWAP1 POP JUMP JUMPDEST PUSH0 PUSH2 0x148D DUP3 PUSH2 0x13F8 JUMP JUMPDEST PUSH2 0x1497 DUP2 DUP6 PUSH2 0x1402 JUMP JUMPDEST SWAP4 POP PUSH2 0x14A2 DUP4 PUSH2 0x1412 JUMP JUMPDEST DUP1 PUSH0 JUMPDEST DUP4 DUP2 LT ISZERO PUSH2 0x14D2 JUMPI DUP2 MLOAD PUSH2 0x14B9 DUP9 DUP3 PUSH2 0x1460 JUMP JUMPDEST SWAP8 POP PUSH2 0x14C4 DUP4 PUSH2 0x1477 JUMP JUMPDEST SWAP3 POP POP PUSH1 0x1 DUP2 ADD SWAP1 POP PUSH2 0x14A5 JUMP JUMPDEST POP DUP6 SWAP4 POP POP POP POP SWAP3 SWAP2 POP POP JUMP JUMPDEST PUSH0 DUP2 MLOAD SWAP1 POP SWAP2 SWAP1 POP JUMP JUMPDEST PUSH0 DUP3 DUP3 MSTORE PUSH1 0x20 DUP3 ADD SWAP1 POP SWAP3 SWAP2 POP POP JUMP JUMPDEST DUP3 DUP2 DUP4 MCOPY PUSH0 DUP4 DUP4 ADD MSTORE POP POP POP JUMP JUMPDEST PUSH0 PUSH2 0x1511 DUP3 PUSH2 0x14DF JUMP JUMPDEST PUSH2 0x151B DUP2 DUP6 PUSH2 0x14E9 JUMP JUMPDEST SWAP4 POP PUSH2 0x152B DUP2 DUP6 PUSH1 0x20 DUP7 ADD PUSH2 0x14F9 JUMP JUMPDEST PUSH2 0x1534 DUP2 PUSH2 0x116E JUMP JUMPDEST DUP5 ADD SWAP2 POP POP SWAP3 SWAP2 POP POP JUMP JUMPDEST PUSH0 PUSH1 0xC0 DUP4 ADD PUSH0 DUP4 ADD MLOAD PUSH2 0x1554 PUSH0 DUP7 ADD DUP3 PUSH2 0x13DA JUMP JUMPDEST POP PUSH1 0x20 DUP4 ADD MLOAD PUSH2 0x1567 PUSH1 0x20 DUP7 ADD DUP3 PUSH2 0x13DA JUMP JUMPDEST POP PUSH1 0x40 DUP4 ADD MLOAD PUSH2 0x157A PUSH1 0x40 DUP7 ADD DUP3 PUSH2 0x13E9 JUMP JUMPDEST POP PUSH1 0x60 DUP4 ADD MLOAD DUP5 DUP3 SUB PUSH1 0x60 DUP7 ADD MSTORE PUSH2 0x1592 DUP3 DUP3 PUSH2 0x1483 JUMP JUMPDEST SWAP2 POP POP PUSH1 0x80 DUP4 ADD MLOAD DUP5 DUP3 SUB PUSH1 0x80 DUP7 ADD MSTORE PUSH2 0x15AC DUP3 DUP3 PUSH2 0x1483 JUMP JUMPDEST SWAP2 POP POP PUSH1 0xA0 DUP4 ADD MLOAD DUP5 DUP3 SUB PUSH1 0xA0 DUP7 ADD MSTORE PUSH2 0x15C6 DUP3 DUP3 PUSH2 0x1507 JUMP JUMPDEST SWAP2 POP POP DUP1 SWAP2 POP POP SWAP3 SWAP2 POP POP JUMP JUMPDEST PUSH0 PUSH2 0x15DE DUP4 DUP4 PUSH2 0x153F JUMP JUMPDEST SWAP1 POP SWAP3 SWAP2 POP POP JUMP JUMPDEST PUSH0 PUSH1 0x20 DUP3 ADD SWAP1 POP SWAP2 SWAP1 POP JUMP JUMPDEST PUSH0 PUSH2 0x15FC DUP3 PUSH2 0x13B1 JUMP JUMPDEST PUSH2 0x1606 DUP2 DUP6 PUSH2 0x13BB JUMP JUMPDEST SWAP4 POP DUP4 PUSH1 0x20 DUP3 MUL DUP6 ADD PUSH2 0x1618 DUP6 PUSH2 0x13CB JUMP JUMPDEST DUP1 PUSH0 JUMPDEST DUP6 DUP2 LT ISZERO PUSH2 0x1653 JUMPI DUP5 DUP5 SUB DUP10 MSTORE DUP2 MLOAD PUSH2 0x1634 DUP6 DUP3 PUSH2 0x15D3 JUMP JUMPDEST SWAP5 POP PUSH2 0x163F DUP4 PUSH2 0x15E6 JUMP JUMPDEST SWAP3 POP PUSH1 0x20 DUP11 ADD SWAP10 POP POP PUSH1 0x1 DUP2 ADD SWAP1 POP PUSH2 0x161B JUMP JUMPDEST POP DUP3 SWAP8 POP DUP8 SWAP6 POP POP POP POP POP POP SWAP3 SWAP2 POP POP JUMP JUMPDEST PUSH0 PUSH1 0x20 DUP3 ADD SWAP1 POP DUP2 DUP2 SUB PUSH0 DUP4 ADD MSTORE PUSH2 0x167D DUP2 DUP5 PUSH2 0x15F2 JUMP JUMPDEST SWAP1 POP SWAP3 SWAP2 POP POP JUMP JUMPDEST PUSH2 0x168E DUP2 PUSH2 0x1094 JUMP JUMPDEST DUP2 EQ PUSH2 0x1698 JUMPI PUSH0 DUP1 REVERT JUMPDEST POP JUMP JUMPDEST PUSH0 DUP2 CALLDATALOAD SWAP1 POP PUSH2 0x16A9 DUP2 PUSH2 0x1685 JUMP JUMPDEST SWAP3 SWAP2 POP POP JUMP JUMPDEST PUSH0 PUSH8 0xFFFFFFFFFFFFFFFF DUP3 GT ISZERO PUSH2 0x16C9 JUMPI PUSH2 0x16C8 PUSH2 0x117E JUMP JUMPDEST JUMPDEST PUSH2 0x16D2 DUP3 PUSH2 0x116E JUMP JUMPDEST SWAP1 POP PUSH1 0x20 DUP2 ADD SWAP1 POP SWAP2 SWAP1 POP JUMP JUMPDEST PUSH0 PUSH2 0x16F1 PUSH2 0x16EC DUP5 PUSH2 0x16AF JUMP JUMPDEST PUSH2 0x11DC JUMP JUMPDEST SWAP1 POP DUP3 DUP2 MSTORE PUSH1 0x20 DUP2 ADD DUP5 DUP5 DUP5 ADD GT ISZERO PUSH2 0x170D JUMPI PUSH2 0x170C PUSH2 0x116A JUMP JUMPDEST JUMPDEST PUSH2 0x1718 DUP5 DUP3 DUP6 PUSH2 0x1226 JUMP JUMPDEST POP SWAP4 SWAP3 POP POP POP JUMP JUMPDEST PUSH0 DUP3 PUSH1 0x1F DUP4 ADD SLT PUSH2 0x1734 JUMPI PUSH2 0x1733 PUSH2 0x1166 JUMP JUMPDEST JUMPDEST DUP2 CALLDATALOAD PUSH2 0x1744 DUP5 DUP3 PUSH1 0x20 DUP7 ADD PUSH2 0x16DF JUMP JUMPDEST SWAP2 POP POP SWAP3 SWAP2 POP POP JUMP JUMPDEST PUSH0 DUP1 PUSH0 PUSH1 0x60 DUP5 DUP7 SUB SLT ISZERO PUSH2 0x1764 JUMPI PUSH2 0x1763 PUSH2 0x102B JUMP JUMPDEST JUMPDEST PUSH0 PUSH2 0x1771 DUP7 DUP3 DUP8 ADD PUSH2 0x169B JUMP JUMPDEST SWAP4 POP POP PUSH1 0x20 DUP5 ADD CALLDATALOAD PUSH8 0xFFFFFFFFFFFFFFFF DUP2 GT ISZERO PUSH2 0x1792 JUMPI PUSH2 0x1791 PUSH2 0x102F JUMP JUMPDEST JUMPDEST PUSH2 0x179E DUP7 DUP3 DUP8 ADD PUSH2 0x1275 JUMP JUMPDEST SWAP3 POP POP PUSH1 0x40 DUP5 ADD CALLDATALOAD PUSH8 0xFFFFFFFFFFFFFFFF DUP2 GT ISZERO PUSH2 0x17BF JUMPI PUSH2 0x17BE PUSH2 0x102F JUMP JUMPDEST JUMPDEST PUSH2 0x17CB DUP7 DUP3 DUP8 ADD PUSH2 0x1720 JUMP JUMPDEST SWAP2 POP POP SWAP3 POP SWAP3 POP SWAP3 JUMP JUMPDEST PUSH0 DUP1 PUSH1 0x40 DUP4 DUP6 SUB SLT ISZERO PUSH2 0x17EB JUMPI PUSH2 0x17EA PUSH2 0x102B JUMP JUMPDEST JUMPDEST PUSH0 PUSH2 0x17F8 DUP6 DUP3 DUP7 ADD PUSH2 0x169B JUMP JUMPDEST SWAP3 POP POP PUSH1 0x20 DUP4 ADD CALLDATALOAD PUSH8 0xFFFFFFFFFFFFFFFF DUP2 GT ISZERO PUSH2 0x1819 JUMPI PUSH2 0x1818 PUSH2 0x102F JUMP JUMPDEST JUMPDEST PUSH2 0x1825 DUP6 DUP3 DUP7 ADD PUSH2 0x1275 JUMP JUMPDEST SWAP2 POP POP SWAP3 POP SWAP3 SWAP1 POP JUMP JUMPDEST PUSH0 DUP2 MLOAD SWAP1 POP SWAP2 SWAP1 POP JUMP JUMPDEST PUSH0 DUP3 DUP3 MSTORE PUSH1 0x20 DUP3 ADD SWAP1 POP SWAP3 SWAP2 POP POP JUMP JUMPDEST PUSH0 PUSH2 0x1853 DUP3 PUSH2 0x182F JUMP JUMPDEST PUSH2 0x185D DUP2 DUP6 PUSH2 0x1839 JUMP JUMPDEST SWAP4 POP PUSH2 0x186D DUP2 DUP6 PUSH1 0x20 DUP7 ADD PUSH2 0x14F9 JUMP JUMPDEST PUSH2 0x1876 DUP2 PUSH2 0x116E JUMP JUMPDEST DUP5 ADD SWAP2 POP POP SWAP3 SWAP2 POP POP JUMP JUMPDEST PUSH0 PUSH1 0x20 DUP3 ADD SWAP1 POP DUP2 DUP2 SUB PUSH0 DUP4 ADD MSTORE PUSH2 0x1899 DUP2 DUP5 PUSH2 0x1849 JUMP JUMPDEST SWAP1 POP SWAP3 SWAP2 POP POP JUMP JUMPDEST PUSH0 PUSH8 0xFFFFFFFFFFFFFFFF DUP3 GT ISZERO PUSH2 0x18BB JUMPI PUSH2 0x18BA PUSH2 0x117E JUMP JUMPDEST JUMPDEST PUSH1 0x20 DUP3 MUL SWAP1 POP PUSH1 0x20 DUP2 ADD SWAP1 POP SWAP2 SWAP1 POP JUMP JUMPDEST PUSH0 DUP1 REVERT JUMPDEST PUSH2 0x18D9 DUP2 PUSH2 0x1440 JUMP JUMPDEST DUP2 EQ PUSH2 0x18E3 JUMPI PUSH0 DUP1 REVERT JUMPDEST POP JUMP JUMPDEST PUSH0 DUP2 CALLDATALOAD SWAP1 POP PUSH2 0x18F4 DUP2 PUSH2 0x18D0 JUMP JUMPDEST SWAP3 SWAP2 POP POP JUMP JUMPDEST PUSH0 PUSH2 0x190C PUSH2 0x1907 DUP5 PUSH2 0x18A1 JUMP JUMPDEST PUSH2 0x11DC JUMP JUMPDEST SWAP1 POP DUP1 DUP4 DUP3 MSTORE PUSH1 0x20 DUP3 ADD SWAP1 POP PUSH1 0x20 DUP5 MUL DUP4 ADD DUP6 DUP2 GT ISZERO PUSH2 0x192F JUMPI PUSH2 0x192E PUSH2 0x18CC JUMP JUMPDEST JUMPDEST DUP4 JUMPDEST DUP2 DUP2 LT ISZERO PUSH2 0x1958 JUMPI DUP1 PUSH2 0x1944 DUP9 DUP3 PUSH2 0x18E6 JUMP JUMPDEST DUP5 MSTORE PUSH1 0x20 DUP5 ADD SWAP4 POP POP PUSH1 0x20 DUP2 ADD SWAP1 POP PUSH2 0x1931 JUMP JUMPDEST POP POP POP SWAP4 SWAP3 POP POP POP JUMP JUMPDEST PUSH0 DUP3 PUSH1 0x1F DUP4 ADD SLT PUSH2 0x1976 JUMPI PUSH2 0x1975 PUSH2 0x1166 JUMP JUMPDEST JUMPDEST DUP2 CALLDATALOAD PUSH2 0x1986 DUP5 DUP3 PUSH1 0x20 DUP7 ADD PUSH2 0x18FA JUMP JUMPDEST SWAP2 POP POP SWAP3 SWAP2 POP POP JUMP JUMPDEST PUSH0 DUP1 PUSH0 DUP1 PUSH1 0x80 DUP6 DUP8 SUB SLT ISZERO PUSH2 0x19A7 JUMPI PUSH2 0x19A6 PUSH2 0x102B JUMP JUMPDEST JUMPDEST PUSH0 PUSH2 0x19B4 DUP8 DUP3 DUP9 ADD PUSH2 0x1343 JUMP JUMPDEST SWAP5 POP POP PUSH1 0x20 DUP6 ADD CALLDATALOAD PUSH8 0xFFFFFFFFFFFFFFFF DUP2 GT ISZERO PUSH2 0x19D5 JUMPI PUSH2 0x19D4 PUSH2 0x102F JUMP JUMPDEST JUMPDEST PUSH2 0x19E1 DUP8 DUP3 DUP9 ADD PUSH2 0x1962 JUMP JUMPDEST SWAP4 POP POP PUSH1 0x40 DUP6 ADD CALLDATALOAD PUSH8 0xFFFFFFFFFFFFFFFF DUP2 GT ISZERO PUSH2 0x1A02 JUMPI PUSH2 0x1A01 PUSH2 0x102F JUMP JUMPDEST JUMPDEST PUSH2 0x1A0E DUP8 DUP3 DUP9 ADD PUSH2 0x1962 JUMP JUMPDEST SWAP3 POP POP PUSH1 0x60 DUP6 ADD CALLDATALOAD PUSH8 0xFFFFFFFFFFFFFFFF DUP2 GT ISZERO PUSH2 0x1A2F JUMPI PUSH2 0x1A2E PUSH2 0x102F JUMP JUMPDEST JUMPDEST PUSH2 0x1A3B DUP8 DUP3 DUP9 ADD PUSH2 0x1275 JUMP JUMPDEST SWAP2 POP POP SWAP3 SWAP6 SWAP2 SWAP5 POP SWAP3 POP JUMP JUMPDEST PUSH0 PUSH1 0xC0 DUP4 ADD PUSH0 DUP4 ADD MLOAD PUSH2 0x1A5C PUSH0 DUP7 ADD DUP3 PUSH2 0x13DA JUMP JUMPDEST POP PUSH1 0x20 DUP4 ADD MLOAD PUSH2 0x1A6F PUSH1 0x20 DUP7 ADD DUP3 PUSH2 0x13DA JUMP JUMPDEST POP PUSH1 0x40 DUP4 ADD MLOAD PUSH2 0x1A82 PUSH1 0x40 DUP7 ADD DUP3 PUSH2 0x13E9 JUMP JUMPDEST POP PUSH1 0x60 DUP4 ADD MLOAD DUP5 DUP3 SUB PUSH1 0x60 DUP7 ADD MSTORE PUSH2 0x1A9A DUP3 DUP3 PUSH2 0x1483 JUMP JUMPDEST SWAP2 POP POP PUSH1 0x80 DUP4 ADD MLOAD DUP5 DUP3 SUB PUSH1 0x80 DUP7 ADD MSTORE PUSH2 0x1AB4 DUP3 DUP3 PUSH2 0x1483 JUMP JUMPDEST SWAP2 POP POP PUSH1 0xA0 DUP4 ADD MLOAD DUP5 DUP3 SUB PUSH1 0xA0 DUP7 ADD MSTORE PUSH2 0x1ACE DUP3 DUP3 PUSH2 0x1507 JUMP JUMPDEST SWAP2 POP POP DUP1 SWAP2 POP POP SWAP3 SWAP2 POP POP JUMP JUMPDEST PUSH0 PUSH1 0x20 DUP3 ADD SWAP1 POP DUP2 DUP2 SUB PUSH0 DUP4 ADD MSTORE PUSH2 0x1AF3 DUP2 DUP5 PUSH2 0x1A47 JUMP JUMPDEST SWAP1 POP SWAP3 SWAP2 POP POP JUMP JUMPDEST PUSH0 DUP2 SWAP1 POP SWAP2 SWAP1 POP JUMP JUMPDEST PUSH2 0x1B0D DUP2 PUSH2 0x1AFB JUMP JUMPDEST DUP3 MSTORE POP POP JUMP JUMPDEST PUSH0 PUSH1 0x20 DUP3 ADD SWAP1 POP PUSH2 0x1B26 PUSH0 DUP4 ADD DUP5 PUSH2 0x1B04 JUMP JUMPDEST SWAP3 SWAP2 POP POP JUMP JUMPDEST PUSH0 PUSH1 0x20 DUP3 DUP5 SUB SLT ISZERO PUSH2 0x1B41 JUMPI PUSH2 0x1B40 PUSH2 0x102B JUMP JUMPDEST JUMPDEST PUSH0 PUSH2 0x1B4E DUP5 DUP3 DUP6 ADD PUSH2 0x169B JUMP JUMPDEST SWAP2 POP POP SWAP3 SWAP2 POP POP JUMP JUMPDEST PUSH0 DUP2 PUSH1 0xC0 SHL SWAP1 POP SWAP2 SWAP1 POP JUMP JUMPDEST PUSH0 PUSH2 0x1B6D DUP3 PUSH2 0x1B57 JUMP JUMPDEST SWAP1 POP SWAP2 SWAP1 POP JUMP JUMPDEST PUSH2 0x1B85 PUSH2 0x1B80 DUP3 PUSH2 0x1033 JUMP JUMPDEST PUSH2 0x1B63 JUMP JUMPDEST DUP3 MSTORE POP POP JUMP JUMPDEST PUSH0 PUSH2 0x1B96 DUP3 DUP5 PUSH2 0x1B74 JUMP JUMPDEST PUSH1 0x8 DUP3 ADD SWAP2 POP DUP2 SWAP1 POP SWAP3 SWAP2 POP POP JUMP JUMPDEST PUSH0 DUP2 SWAP1 POP SWAP2 SWAP1 POP JUMP JUMPDEST PUSH2 0x1BBF PUSH2 0x1BBA DUP3 PUSH2 0x1133 JUMP JUMPDEST PUSH2 0x1BA5 JUMP JUMPDEST DUP3 MSTORE POP POP JUMP JUMPDEST PUSH0 DUP2 SWAP1 POP SWAP3 SWAP2 POP POP JUMP JUMPDEST PUSH0 PUSH2 0x1BD9 DUP3 PUSH2 0x14DF JUMP JUMPDEST PUSH2 0x1BE3 DUP2 DUP6 PUSH2 0x1BC5 JUMP JUMPDEST SWAP4 POP PUSH2 0x1BF3 DUP2 DUP6 PUSH1 0x20 DUP7 ADD PUSH2 0x14F9 JUMP JUMPDEST DUP1 DUP5 ADD SWAP2 POP POP SWAP3 SWAP2 POP POP JUMP JUMPDEST PUSH0 PUSH2 0x1C0A DUP3 DUP6 PUSH2 0x1BAE JUMP JUMPDEST PUSH1 0x20 DUP3 ADD SWAP2 POP PUSH2 0x1C1A DUP3 DUP5 PUSH2 0x1BCF JUMP JUMPDEST SWAP2 POP DUP2 SWAP1 POP SWAP4 SWAP3 POP POP POP JUMP JUMPDEST PUSH0 PUSH2 0x1C30 DUP3 PUSH2 0x1B57 JUMP JUMPDEST SWAP1 POP SWAP2 SWAP1 POP JUMP JUMPDEST PUSH2 0x1C48 PUSH2 0x1C43 DUP3 PUSH2 0x10F8 JUMP JUMPDEST PUSH2 0x1C26 JUMP JUMPDEST DUP3 MSTORE POP POP JUMP JUMPDEST PUSH0 PUSH2 0x1C59 DUP3 DUP6 PUSH2 0x1C37 JUMP JUMPDEST PUSH1 0x8 DUP3 ADD SWAP2 POP PUSH2 0x1C69 DUP3 DUP5 PUSH2 0x1BCF JUMP JUMPDEST SWAP2 POP DUP2 SWAP1 POP SWAP4 SWAP3 POP POP POP JUMP JUMPDEST PUSH32 0x4E487B7100000000000000000000000000000000000000000000000000000000 PUSH0 MSTORE PUSH1 0x22 PUSH1 0x4 MSTORE PUSH1 0x24 PUSH0 REVERT JUMPDEST PUSH0 PUSH1 0x2 DUP3 DIV SWAP1 POP PUSH1 0x1 DUP3 AND DUP1 PUSH2 0x1CB9 JUMPI PUSH1 0x7F DUP3 AND SWAP2 POP JUMPDEST PUSH1 0x20 DUP3 LT DUP2 SUB PUSH2 0x1CCC JUMPI PUSH2 0x1CCB PUSH2 0x1C75 JUMP JUMPDEST JUMPDEST POP SWAP2 SWAP1 POP JUMP JUMPDEST PUSH32 0x4E487B7100000000000000000000000000000000000000000000000000000000 PUSH0 MSTORE PUSH1 0x32 PUSH1 0x4 MSTORE PUSH1 0x24 PUSH0 REVERT JUMPDEST PUSH0 PUSH2 0x1D0A DUP3 DUP5 PUSH2 0x1BCF JUMP JUMPDEST SWAP2 POP DUP2 SWAP1 POP SWAP3 SWAP2 POP POP JUMP JUMPDEST PUSH0 DUP2 SWAP1 POP DUP2 PUSH0 MSTORE PUSH1 0x20 PUSH0 KECCAK256 SWAP1 POP SWAP2 SWAP1 POP JUMP JUMPDEST PUSH0 PUSH1 0x20 PUSH1 0x1F DUP4 ADD DIV SWAP1 POP SWAP2 SWAP1 POP JUMP JUMPDEST PUSH0 DUP3 DUP3 SHL SWAP1 POP SWAP3 SWAP2 POP POP JUMP JUMPDEST PUSH0 PUSH1 0x8 DUP4 MUL PUSH2 0x1D71 PUSH32 0xFFFFFFFFFFFFFFFFFFFFFFFFFFFFFFFFFFFFFFFFFFFFFFFFFFFFFFFFFFFFFFFF DUP3 PUSH2 0x1D36 JUMP JUMPDEST PUSH2 0x1D7B DUP7 DUP4 PUSH2 0x1D36 JUMP JUMPDEST SWAP6 POP DUP1 NOT DUP5 AND SWAP4 POP DUP1 DUP7 AND DUP5 OR SWAP3 POP POP POP SWAP4 SWAP3 POP POP POP JUMP JUMPDEST PUSH0 DUP2 SWAP1 POP SWAP2 SWAP1 POP JUMP JUMPDEST PUSH0 PUSH2 0x1DB6 PUSH2 0x1DB1 PUSH2 0x1DAC DUP5 PUSH2 0x1133 JUMP JUMPDEST PUSH2 0x1D93 JUMP JUMPDEST PUSH2 0x1133 JUMP JUMPDEST SWAP1 POP SWAP2 SWAP1 POP JUMP JUMPDEST PUSH0 DUP2 SWAP1 POP SWAP2 SWAP1 POP JUMP JUMPDEST PUSH2 0x1DCF DUP4 PUSH2 0x1D9C JUMP JUMPDEST PUSH2 0x1DE3 PUSH2 0x1DDB DUP3 PUSH2 0x1DBD JUMP JUMPDEST DUP5 DUP5 SLOAD PUSH2 0x1D42 JUMP JUMPDEST DUP3 SSTORE POP POP POP POP JUMP JUMPDEST PUSH0 SWAP1 JUMP JUMPDEST PUSH2 0x1DF7 PUSH2 0x1DEB JUMP JUMPDEST PUSH2 0x1E02 DUP2 DUP5 DUP5 PUSH2 0x1DC6 JUMP JUMPDEST POP POP POP JUMP JUMPDEST JUMPDEST DUP2 DUP2 LT ISZERO PUSH2 0x1E25 JUMPI PUSH2 0x1E1A PUSH0 DUP3 PUSH2 0x1DEF JUMP JUMPDEST PUSH1 0x1 DUP2 ADD SWAP1 POP PUSH2 0x1E08 JUMP JUMPDEST POP POP JUMP JUMPDEST PUSH1 0x1F DUP3 GT ISZERO PUSH2 0x1E6A JUMPI PUSH2 0x1E3B DUP2 PUSH2 0x1D15 JUMP JUMPDEST PUSH2 0x1E44 DUP5 PUSH2 0x1D27 JUMP JUMPDEST DUP2 ADD PUSH1 0x20 DUP6 LT ISZERO PUSH2 0x1E53 JUMPI DUP2 SWAP1 POP JUMPDEST PUSH2 0x1E67 PUSH2 0x1E5F DUP6 PUSH2 0x1D27 JUMP JUMPDEST DUP4 ADD DUP3 PUSH2 0x1E07 JUMP JUMPDEST POP POP JUMPDEST POP POP POP JUMP JUMPDEST PUSH0 DUP3 DUP3 SHR SWAP1 POP SWAP3 SWAP2 POP POP JUMP JUMPDEST PUSH0 PUSH2 0x1E8A PUSH0 NOT DUP5 PUSH1 0x8 MUL PUSH2 0x1E6F JUMP JUMPDEST NOT DUP1 DUP4 AND SWAP2 POP POP SWAP3 SWAP2 POP POP JUMP JUMPDEST PUSH0 PUSH2 0x1EA2 DUP4 DUP4 PUSH2 0x1E7B JUMP JUMPDEST SWAP2 POP DUP3 PUSH1 0x2 MUL DUP3 OR SWAP1 POP SWAP3 SWAP2 POP POP JUMP JUMPDEST PUSH2 0x1EBB DUP3 PUSH2 0x182F JUMP JUMPDEST PUSH8 0xFFFFFFFFFFFFFFFF DUP2 GT ISZERO PUSH2 0x1ED4 JUMPI PUSH2 0x1ED3 PUSH2 0x117E JUMP JUMPDEST JUMPDEST PUSH2 0x1EDE DUP3 SLOAD PUSH2 0x1CA2 JUMP JUMPDEST PUSH2 0x1EE9 DUP3 DUP3 DUP6 PUSH2 0x1E29 JUMP JUMPDEST PUSH0 PUSH1 0x20 SWAP1 POP PUSH1 0x1F DUP4 GT PUSH1 0x1 DUP2 EQ PUSH2 0x1F1A JUMPI PUSH0 DUP5 ISZERO PUSH2 0x1F08 JUMPI DUP3 DUP8 ADD MLOAD SWAP1 POP JUMPDEST PUSH2 0x1F12 DUP6 DUP3 PUSH2 0x1E97 JUMP JUMPDEST DUP7 SSTORE POP PUSH2 0x1F79 JUMP JUMPDEST PUSH1 0x1F NOT DUP5 AND PUSH2 0x1F28 DUP7 PUSH2 0x1D15 JUMP JUMPDEST PUSH0 JUMPDEST DUP3 DUP2 LT ISZERO PUSH2 0x1F4F JUMPI DUP5 DUP10 ADD MLOAD DUP3 SSTORE PUSH1 0x1 DUP3 ADD SWAP2 POP PUSH1 0x20 DUP6 ADD SWAP5 POP PUSH1 0x20 DUP2 ADD SWAP1 POP PUSH2 0x1F2A JUMP JUMPDEST DUP7 DUP4 LT ISZERO PUSH2 0x1F6C JUMPI DUP5 DUP10 ADD MLOAD PUSH2 0x1F68 PUSH1 0x1F DUP10 AND DUP3 PUSH2 0x1E7B JUMP JUMPDEST DUP4 SSTORE POP JUMPDEST PUSH1 0x1 PUSH1 0x2 DUP9 MUL ADD DUP9 SSTORE POP POP POP JUMPDEST POP POP POP POP POP POP JUMP JUMPDEST PUSH0 DUP3 DUP3 MSTORE PUSH1 0x20 DUP3 ADD SWAP1 POP SWAP3 SWAP2 POP POP JUMP JUMPDEST PUSH32 0x4E6F7420616C6C6F77656420746F2073746F7265000000000000000000000000 PUSH0 DUP3 ADD MSTORE POP JUMP JUMPDEST PUSH0 PUSH2 0x1FC5 PUSH1 0x14 DUP4 PUSH2 0x1F81 JUMP JUMPDEST SWAP2 POP PUSH2 0x1FD0 DUP3 PUSH2 0x1F91 JUMP JUMPDEST PUSH1 0x20 DUP3 ADD SWAP1 POP SWAP2 SWAP1 POP JUMP JUMPDEST PUSH0 PUSH1 0x20 DUP3 ADD SWAP1 POP DUP2 DUP2 SUB PUSH0 DUP4 ADD MSTORE PUSH2 0x1FF2 DUP2 PUSH2 0x1FB9 JUMP JUMPDEST SWAP1 POP SWAP2 SWAP1 POP JUMP JUMPDEST PUSH32 0x4E6F7420616C6C6F77656420746F207265747269657665000000000000000000 PUSH0 DUP3 ADD MSTORE POP JUMP JUMPDEST PUSH0 PUSH2 0x202D PUSH1 0x17 DUP4 PUSH2 0x1F81 JUMP JUMPDEST SWAP2 POP PUSH2 0x2038 DUP3 PUSH2 0x1FF9 JUMP JUMPDEST PUSH1 0x20 DUP3 ADD SWAP1 POP SWAP2 SWAP1 POP JUMP JUMPDEST PUSH0 PUSH1 0x20 DUP3 ADD SWAP1 POP DUP2 DUP2 SUB PUSH0 DUP4 ADD MSTORE PUSH2 0x205A DUP2 PUSH2 0x2021 JUMP JUMPDEST SWAP1 POP SWAP2 SWAP1 POP JUMP JUMPDEST PUSH32 0x4E487B7100000000000000000000000000000000000000000000000000000000 PUSH0 MSTORE PUSH1 0x11 PUSH1 0x4 MSTORE PUSH1 0x24 PUSH0 REVERT JUMPDEST PUSH0 PUSH2 0x2098 DUP3 PUSH2 0x10F8 JUMP JUMPDEST SWAP2 POP PUSH8 0xFFFFFFFFFFFFFFFF DUP3 SUB PUSH2 0x20B2 JUMPI PUSH2 0x20B1 PUSH2 0x2061 JUMP JUMPDEST JUMPDEST PUSH1 0x1 DUP3 ADD SWAP1 POP SWAP2 SWAP1 POP JUMP JUMPDEST PUSH0 PUSH2 0x20C8 DUP3 DUP5 PUSH2 0x1C37 JUMP JUMPDEST PUSH1 0x8 DUP3 ADD SWAP2 POP DUP2 SWAP1 POP SWAP3 SWAP2 POP POP JUMP JUMPDEST PUSH0 DUP2 SWAP1 POP DUP2 PUSH0 MSTORE PUSH1 0x20 PUSH0 KECCAK256 SWAP1 POP SWAP2 SWAP1 POP JUMP JUMPDEST PUSH1 0x1F DUP3 GT ISZERO PUSH2 0x212A JUMPI PUSH2 0x20FB DUP2 PUSH2 0x20D7 JUMP JUMPDEST PUSH2 0x2104 DUP5 PUSH2 0x1D27 JUMP JUMPDEST DUP2 ADD PUSH1 0x20 DUP6 LT ISZERO PUSH2 0x2113 JUMPI DUP2 SWAP1 POP JUMPDEST PUSH2 0x2127 PUSH2 0x211F DUP6 PUSH2 0x1D27 JUMP JUMPDEST DUP4 ADD DUP3 PUSH2 0x1E07 JUMP JUMPDEST POP POP JUMPDEST POP POP POP JUMP JUMPDEST PUSH2 0x2138 DUP3 PUSH2 0x14DF JUMP JUMPDEST PUSH8 0xFFFFFFFFFFFFFFFF DUP2 GT ISZERO PUSH2 0x2151 JUMPI PUSH2 0x2150 PUSH2 0x117E JUMP JUMPDEST JUMPDEST PUSH2 0x215B DUP3 SLOAD PUSH2 0x1CA2 JUMP JUMPDEST PUSH2 0x2166 DUP3 DUP3 DUP6 PUSH2 0x20E9 JUMP JUMPDEST PUSH0 PUSH1 0x20 SWAP1 POP PUSH1 0x1F DUP4 GT PUSH1 0x1 DUP2 EQ PUSH2 0x2197 JUMPI PUSH0 DUP5 ISZERO PUSH2 0x2185 JUMPI DUP3 DUP8 ADD MLOAD SWAP1 POP JUMPDEST PUSH2 0x218F DUP6 DUP3 PUSH2 0x1E97 JUMP JUMPDEST DUP7 SSTORE POP PUSH2 0x21F6 JUMP JUMPDEST PUSH1 0x1F NOT DUP5 AND PUSH2 0x21A5 DUP7 PUSH2 0x20D7 JUMP JUMPDEST PUSH0 JUMPDEST DUP3 DUP2 LT ISZERO PUSH2 0x21CC JUMPI DUP5 DUP10 ADD MLOAD DUP3 SSTORE PUSH1 0x1 DUP3 ADD SWAP2 POP PUSH1 0x20 DUP6 ADD SWAP5 POP PUSH1 0x20 DUP2 ADD SWAP1 POP PUSH2 0x21A7 JUMP JUMPDEST DUP7 DUP4 LT ISZERO PUSH2 0x21E9 JUMPI DUP5 DUP10 ADD MLOAD PUSH2 0x21E5 PUSH1 0x1F DUP10 AND DUP3 PUSH2 0x1E7B JUMP JUMPDEST DUP4 SSTORE POP JUMPDEST PUSH1 0x1 PUSH1 0x2 DUP9 MUL ADD DUP9 SSTORE POP POP POP JUMPDEST POP POP POP POP POP POP JUMP INVALID LOG2 PUSH5 0x6970667358 0x22 SLT KECCAK256 CALLCODE PUSH30 0x1FECC96BADF7088862A251958CDF9CCB95E4A17A16BC3CCA9529D02958B1 PUSH5 0x736F6C6343 STOP ADDMOD NOT STOP CALLER "
				},
				"gasEstimates": {
					"creation": {
						"codeDepositCost": "1751200",
						"executionCost": "1839",
						"totalCost": "1753039"
					},
					"external": {
						"buy(bytes16)": "infinite",
						"confidentialRetrieve(bytes16,string)": "infinite",
						"confidentialStore(bytes16,string,bytes)": "infinite",
						"fetchDataRecords(uint64,string)": "infinite",
						"genDataId(int64)": "infinite",
						"genKey(uint256,string)": "infinite",
						"newDataRecord(uint64,address[],address[],string)": "infinite",
						"numRecords()": "2489",
						"test()": "398"
					}
				},
				"methodIdentifiers": {
					"buy(bytes16)": "f8c46744",
					"confidentialRetrieve(bytes16,string)": "e3b417bc",
					"confidentialStore(bytes16,string,bytes)": "d22a3b0b",
					"fetchDataRecords(uint64,string)": "ccb885c4",
					"genDataId(int64)": "822eab8d",
					"genKey(uint256,string)": "be9fe1f2",
					"newDataRecord(uint64,address[],address[],string)": "e3fbcfc3",
					"numRecords()": "b5d1990d",
					"test()": "f8a8fd6d"
				}
			},
			"storageLayout": {
				"storage": [
					{
						"astId": 8,
						"contract": "src/ConfidentialStore.sol:ConfidentialStore",
						"label": "dataRecordsByConditionAndNamespace",
						"offset": 0,
						"slot": "0",
						"type": "t_mapping(t_bytes32,t_array(t_struct(DataRecord)424_storage)dyn_storage)"
					},
					{
						"astId": 15,
						"contract": "src/ConfidentialStore.sol:ConfidentialStore",
						"label": "dataRecordsContent",
						"offset": 0,
						"slot": "1",
						"type": "t_mapping(t_userDefinedValueType(DataId)380,t_mapping(t_string_memory_ptr,t_bytes_storage))"
					},
					{
						"astId": 21,
						"contract": "src/ConfidentialStore.sol:ConfidentialStore",
						"label": "dataRecords",
						"offset": 0,
						"slot": "2",
						"type": "t_mapping(t_userDefinedValueType(DataId)380,t_struct(DataRecord)424_storage)"
					},
					{
						"astId": 23,
						"contract": "src/ConfidentialStore.sol:ConfidentialStore",
						"label": "numRecords",
						"offset": 0,
						"slot": "3",
						"type": "t_uint64"
					}
				],
				"types": {
					"t_address": {
						"encoding": "inplace",
						"label": "address",
						"numberOfBytes": "20"
					},
					"t_array(t_address)dyn_storage": {
						"base": "t_address",
						"encoding": "dynamic_array",
						"label": "address[]",
						"numberOfBytes": "32"
					},
					"t_array(t_struct(DataRecord)424_storage)dyn_storage": {
						"base": "t_struct(DataRecord)424_storage",
						"encoding": "dynamic_array",
						"label": "struct Suave.DataRecord[]",
						"numberOfBytes": "32"
					},
					"t_bytes32": {
						"encoding": "inplace",
						"label": "bytes32",
						"numberOfBytes": "32"
					},
					"t_bytes_storage": {
						"encoding": "bytes",
						"label": "bytes",
						"numberOfBytes": "32"
					},
					"t_mapping(t_bytes32,t_array(t_struct(DataRecord)424_storage)dyn_storage)": {
						"encoding": "mapping",
						"key": "t_bytes32",
						"label": "mapping(bytes32 => struct Suave.DataRecord[])",
						"numberOfBytes": "32",
						"value": "t_array(t_struct(DataRecord)424_storage)dyn_storage"
					},
					"t_mapping(t_string_memory_ptr,t_bytes_storage)": {
						"encoding": "mapping",
						"key": "t_string_memory_ptr",
						"label": "mapping(string => bytes)",
						"numberOfBytes": "32",
						"value": "t_bytes_storage"
					},
					"t_mapping(t_userDefinedValueType(DataId)380,t_mapping(t_string_memory_ptr,t_bytes_storage))": {
						"encoding": "mapping",
						"key": "t_userDefinedValueType(DataId)380",
						"label": "mapping(Suave.DataId => mapping(string => bytes))",
						"numberOfBytes": "32",
						"value": "t_mapping(t_string_memory_ptr,t_bytes_storage)"
					},
					"t_mapping(t_userDefinedValueType(DataId)380,t_struct(DataRecord)424_storage)": {
						"encoding": "mapping",
						"key": "t_userDefinedValueType(DataId)380",
						"label": "mapping(Suave.DataId => struct Suave.DataRecord)",
						"numberOfBytes": "32",
						"value": "t_struct(DataRecord)424_storage"
					},
					"t_string_memory_ptr": {
						"encoding": "bytes",
						"label": "string",
						"numberOfBytes": "32"
					},
					"t_string_storage": {
						"encoding": "bytes",
						"label": "string",
						"numberOfBytes": "32"
					},
					"t_struct(DataRecord)424_storage": {
						"encoding": "inplace",
						"label": "struct Suave.DataRecord",
						"members": [
							{
								"astId": 410,
								"contract": "src/ConfidentialStore.sol:ConfidentialStore",
								"label": "id",
								"offset": 0,
								"slot": "0",
								"type": "t_userDefinedValueType(DataId)380"
							},
							{
								"astId": 413,
								"contract": "src/ConfidentialStore.sol:ConfidentialStore",
								"label": "salt",
								"offset": 16,
								"slot": "0",
								"type": "t_userDefinedValueType(DataId)380"
							},
							{
								"astId": 415,
								"contract": "src/ConfidentialStore.sol:ConfidentialStore",
								"label": "decryptionCondition",
								"offset": 0,
								"slot": "1",
								"type": "t_uint64"
							},
							{
								"astId": 418,
								"contract": "src/ConfidentialStore.sol:ConfidentialStore",
								"label": "allowedPeekers",
								"offset": 0,
								"slot": "2",
								"type": "t_array(t_address)dyn_storage"
							},
							{
								"astId": 421,
								"contract": "src/ConfidentialStore.sol:ConfidentialStore",
								"label": "allowedStores",
								"offset": 0,
								"slot": "3",
								"type": "t_array(t_address)dyn_storage"
							},
							{
								"astId": 423,
								"contract": "src/ConfidentialStore.sol:ConfidentialStore",
								"label": "version",
								"offset": 0,
								"slot": "4",
								"type": "t_string_storage"
							}
						],
						"numberOfBytes": "160"
					},
					"t_uint64": {
						"encoding": "inplace",
						"label": "uint64",
						"numberOfBytes": "8"
					},
					"t_userDefinedValueType(DataId)380": {
						"encoding": "inplace",
						"label": "Suave.DataId",
						"numberOfBytes": "16"
					}
				}
			},
			"userdoc": {
				"kind": "user",
				"methods": {},
				"version": 1
			}
		}
	}
}