{
	"src/Suave.sol": {
		"Suave": {
			"abi": [
				{
					"inputs": [
						{
							"internalType": "address",
							"name": "",
							"type": "address"
						},
						{
							"internalType": "bytes",
							"name": "",
							"type": "bytes"
						}
					],
					"name": "PeekerReverted",
					"type": "error"
				},
				{
					"inputs": [],
					"name": "ANYALLOWED",
					"outputs": [
						{
							"internalType": "address",
							"name": "",
							"type": "address"
						}
					],
					"stateMutability": "view",
					"type": "function"
				},
				{
					"inputs": [],
					"name": "BUILD_ETH_BLOCK",
					"outputs": [
						{
							"internalType": "address",
							"name": "",
							"type": "address"
						}
					],
					"stateMutability": "view",
					"type": "function"
				},
				{
					"inputs": [],
					"name": "CONFIDENTIAL_INPUTS",
					"outputs": [
						{
							"internalType": "address",
							"name": "",
							"type": "address"
						}
					],
					"stateMutability": "view",
					"type": "function"
				},
				{
					"inputs": [],
					"name": "CONFIDENTIAL_RETRIEVE",
					"outputs": [
						{
							"internalType": "address",
							"name": "",
							"type": "address"
						}
					],
					"stateMutability": "view",
					"type": "function"
				},
				{
					"inputs": [],
					"name": "CONFIDENTIAL_STORE",
					"outputs": [
						{
							"internalType": "address",
							"name": "",
							"type": "address"
						}
					],
					"stateMutability": "view",
					"type": "function"
				},
				{
					"inputs": [],
					"name": "CONTEXT_GET",
					"outputs": [
						{
							"internalType": "address",
							"name": "",
							"type": "address"
						}
					],
					"stateMutability": "view",
					"type": "function"
				},
				{
					"inputs": [],
					"name": "DO_HTTPREQUEST",
					"outputs": [
						{
							"internalType": "address",
							"name": "",
							"type": "address"
						}
					],
					"stateMutability": "view",
					"type": "function"
				},
				{
					"inputs": [],
					"name": "ETHCALL",
					"outputs": [
						{
							"internalType": "address",
							"name": "",
							"type": "address"
						}
					],
					"stateMutability": "view",
					"type": "function"
				},
				{
					"inputs": [],
					"name": "EXTRACT_HINT",
					"outputs": [
						{
							"internalType": "address",
							"name": "",
							"type": "address"
						}
					],
					"stateMutability": "view",
					"type": "function"
				},
				{
					"inputs": [],
					"name": "FETCH_DATA_RECORDS",
					"outputs": [
						{
							"internalType": "address",
							"name": "",
							"type": "address"
						}
					],
					"stateMutability": "view",
					"type": "function"
				},
				{
					"inputs": [],
					"name": "FILL_MEV_SHARE_BUNDLE",
					"outputs": [
						{
							"internalType": "address",
							"name": "",
							"type": "address"
						}
					],
					"stateMutability": "view",
					"type": "function"
				},
				{
					"inputs": [],
					"name": "IS_CONFIDENTIAL_ADDR",
					"outputs": [
						{
							"internalType": "address",
							"name": "",
							"type": "address"
						}
					],
					"stateMutability": "view",
					"type": "function"
				},
				{
					"inputs": [],
					"name": "NEW_BUILDER",
					"outputs": [
						{
							"internalType": "address",
							"name": "",
							"type": "address"
						}
					],
					"stateMutability": "view",
					"type": "function"
				},
				{
					"inputs": [],
					"name": "NEW_DATA_RECORD",
					"outputs": [
						{
							"internalType": "address",
							"name": "",
							"type": "address"
						}
					],
					"stateMutability": "view",
					"type": "function"
				},
				{
					"inputs": [],
					"name": "PRIVATE_KEY_GEN",
					"outputs": [
						{
							"internalType": "address",
							"name": "",
							"type": "address"
						}
					],
					"stateMutability": "view",
					"type": "function"
				},
				{
					"inputs": [],
					"name": "RANDOM_BYTES",
					"outputs": [
						{
							"internalType": "address",
							"name": "",
							"type": "address"
						}
					],
					"stateMutability": "view",
					"type": "function"
				},
				{
					"inputs": [],
					"name": "SIGN_ETH_TRANSACTION",
					"outputs": [
						{
							"internalType": "address",
							"name": "",
							"type": "address"
						}
					],
					"stateMutability": "view",
					"type": "function"
				},
				{
					"inputs": [],
					"name": "SIGN_MESSAGE",
					"outputs": [
						{
							"internalType": "address",
							"name": "",
							"type": "address"
						}
					],
					"stateMutability": "view",
					"type": "function"
				},
				{
					"inputs": [],
					"name": "SIMULATE_BUNDLE",
					"outputs": [
						{
							"internalType": "address",
							"name": "",
							"type": "address"
						}
					],
					"stateMutability": "view",
					"type": "function"
				},
				{
					"inputs": [],
					"name": "SIMULATE_TRANSACTION",
					"outputs": [
						{
							"internalType": "address",
							"name": "",
							"type": "address"
						}
					],
					"stateMutability": "view",
					"type": "function"
				},
				{
					"inputs": [],
					"name": "SUBMIT_BUNDLE_JSON_RPC",
					"outputs": [
						{
							"internalType": "address",
							"name": "",
							"type": "address"
						}
					],
					"stateMutability": "view",
					"type": "function"
				},
				{
					"inputs": [],
					"name": "SUBMIT_ETH_BLOCK_TO_RELAY",
					"outputs": [
						{
							"internalType": "address",
							"name": "",
							"type": "address"
						}
					],
					"stateMutability": "view",
					"type": "function"
				}
			],
			"devdoc": {
				"kind": "dev",
				"methods": {},
				"version": 1
			},
			"evm": {
				"assembly": "    /* \"src/Suave.sol\":129:18574  library Suave {... */\n  dataSize(sub_0)\n  dataOffset(sub_0)\n  0x0b\n  dup3\n  dup3\n  dup3\n  codecopy\n  dup1\n  mload\n  0x00\n  byte\n  0x73\n  eq\n  tag_1\n  jumpi\n  mstore(0x00, 0x4e487b7100000000000000000000000000000000000000000000000000000000)\n  mstore(0x04, 0x00)\n  revert(0x00, 0x24)\ntag_1:\n  mstore(0x00, address)\n  0x73\n  dup2\n  mstore8\n  dup3\n  dup2\n  return\nstop\n\nsub_0: assembly {\n        /* \"src/Suave.sol\":129:18574  library Suave {... */\n      eq(address, deployTimeAddress())\n      mstore(0x40, 0x80)\n      jumpi(tag_1, lt(calldatasize, 0x04))\n      shr(0xe0, calldataload(0x00))\n      dup1\n      0x8a088763\n      gt\n      tag_24\n      jumpi\n      dup1\n      0xd91525db\n      gt\n      tag_25\n      jumpi\n      dup1\n      0xd91525db\n      eq\n      tag_18\n      jumpi\n      dup1\n      0xde3dafbf\n      eq\n      tag_19\n      jumpi\n      dup1\n      0xf0579759\n      eq\n      tag_20\n      jumpi\n      dup1\n      0xf0608b1c\n      eq\n      tag_21\n      jumpi\n      dup1\n      0xf28f4271\n      eq\n      tag_22\n      jumpi\n      dup1\n      0xfb18f5f0\n      eq\n      tag_23\n      jumpi\n      jump(tag_1)\n    tag_25:\n      dup1\n      0x8a088763\n      eq\n      tag_13\n      jumpi\n      dup1\n      0x94804c69\n      eq\n      tag_14\n      jumpi\n      dup1\n      0xa1553986\n      eq\n      tag_15\n      jumpi\n      dup1\n      0xad05aae4\n      eq\n      tag_16\n      jumpi\n      dup1\n      0xb61b127d\n      eq\n      tag_17\n      jumpi\n      jump(tag_1)\n    tag_24:\n      dup1\n      0x4aeeccc9\n      gt\n      tag_26\n      jumpi\n      dup1\n      0x4aeeccc9\n      eq\n      tag_7\n      jumpi\n      dup1\n      0x581ff5af\n      eq\n      tag_8\n      jumpi\n      dup1\n      0x6902e21d\n      eq\n      tag_9\n      jumpi\n      dup1\n      0x69094cbc\n      eq\n      tag_10\n      jumpi\n      dup1\n      0x744795b9\n      eq\n      tag_11\n      jumpi\n      dup1\n      0x751afe2c\n      eq\n      tag_12\n      jumpi\n      jump(tag_1)\n    tag_26:\n      dup1\n      0x6a8065\n      eq\n      tag_2\n      jumpi\n      dup1\n      0x01c19530\n      eq\n      tag_3\n      jumpi\n      dup1\n      0x040e5183\n      eq\n      tag_4\n      jumpi\n      dup1\n      0x2a4788d6\n      eq\n      tag_5\n      jumpi\n      dup1\n      0x440098ff\n      eq\n      tag_6\n      jumpi\n    tag_1:\n      0x00\n      dup1\n      revert\n        /* \"src/Suave.sol\":4755:4836  address public constant RANDOM_BYTES = 0x000000000000000000000000000000007770000b */\n    tag_2:\n      tag_27\n      tag_28\n      jump\t// in\n    tag_27:\n      mload(0x40)\n      tag_29\n      swap2\n      swap1\n      tag_30\n      jump\t// in\n    tag_29:\n      mload(0x40)\n      dup1\n      swap2\n      sub\n      swap1\n      return\n        /* \"src/Suave.sol\":4389:4479  address public constant FILL_MEV_SHARE_BUNDLE = 0x0000000000000000000000000000000043200001 */\n    tag_3:\n      tag_31\n      tag_32\n      jump\t// in\n    tag_31:\n      mload(0x40)\n      tag_33\n      swap2\n      swap1\n      tag_30\n      jump\t// in\n    tag_33:\n      mload(0x40)\n      dup1\n      swap2\n      sub\n      swap1\n      return\n        /* \"src/Suave.sol\":4124:4200  address public constant ETHCALL = 0x0000000000000000000000000000000042100003 */\n    tag_4:\n      tag_34\n      tag_35\n      jump\t// in\n    tag_34:\n      mload(0x40)\n      tag_36\n      swap2\n      swap1\n      tag_30\n      jump\t// in\n    tag_36:\n      mload(0x40)\n      dup1\n      swap2\n      sub\n      swap1\n      return\n        /* \"src/Suave.sol\":5118:5207  address public constant SIMULATE_TRANSACTION = 0x0000000000000000000000000000000053200002 */\n    tag_5:\n      tag_37\n      tag_38\n      jump\t// in\n    tag_37:\n      mload(0x40)\n      tag_39\n      swap2\n      swap1\n      tag_30\n      jump\t// in\n    tag_39:\n      mload(0x40)\n      dup1\n      swap2\n      sub\n      swap1\n      return\n        /* \"src/Suave.sol\":3947:4027  address public constant CONTEXT_GET = 0x0000000000000000000000000000000053300003 */\n    tag_6:\n      tag_40\n      tag_41\n      jump\t// in\n    tag_40:\n      mload(0x40)\n      tag_42\n      swap2\n      swap1\n      tag_30\n      jump\t// in\n    tag_42:\n      mload(0x40)\n      dup1\n      swap2\n      sub\n      swap1\n      return\n        /* \"src/Suave.sol\":4664:4748  address public constant PRIVATE_KEY_GEN = 0x0000000000000000000000000000000053200003 */\n    tag_7:\n      tag_43\n      tag_44\n      jump\t// in\n    tag_43:\n      mload(0x40)\n      tag_45\n      swap2\n      swap1\n      tag_30\n      jump\t// in\n    tag_45:\n      mload(0x40)\n      dup1\n      swap2\n      sub\n      swap1\n      return\n        /* \"src/Suave.sol\":4295:4382  address public constant FETCH_DATA_RECORDS = 0x0000000000000000000000000000000042030001 */\n    tag_8:\n      tag_46\n      tag_47\n      jump\t// in\n    tag_46:\n      mload(0x40)\n      tag_48\n      swap2\n      swap1\n      tag_30\n      jump\t// in\n    tag_48:\n      mload(0x40)\n      dup1\n      swap2\n      sub\n      swap1\n      return\n        /* \"src/Suave.sol\":4034:4117  address public constant DO_HTTPREQUEST = 0x0000000000000000000000000000000043200002 */\n    tag_9:\n      tag_49\n      tag_50\n      jump\t// in\n    tag_49:\n      mload(0x40)\n      tag_51\n      swap2\n      swap1\n      tag_30\n      jump\t// in\n    tag_51:\n      mload(0x40)\n      dup1\n      swap2\n      sub\n      swap1\n      return\n        /* \"src/Suave.sol\":3661:3749  address public constant CONFIDENTIAL_INPUTS = 0x0000000000000000000000000000000042010001 */\n    tag_10:\n      tag_52\n      tag_53\n      jump\t// in\n    tag_52:\n      mload(0x40)\n      tag_54\n      swap2\n      swap1\n      tag_30\n      jump\t// in\n    tag_54:\n      mload(0x40)\n      dup1\n      swap2\n      sub\n      swap1\n      return\n        /* \"src/Suave.sol\":4843:4932  address public constant SIGN_ETH_TRANSACTION = 0x0000000000000000000000000000000040100001 */\n    tag_11:\n      tag_55\n      tag_56\n      jump\t// in\n    tag_55:\n      mload(0x40)\n      tag_57\n      swap2\n      swap1\n      tag_30\n      jump\t// in\n    tag_57:\n      mload(0x40)\n      dup1\n      swap2\n      sub\n      swap1\n      return\n        /* \"src/Suave.sol\":4207:4288  address public constant EXTRACT_HINT = 0x0000000000000000000000000000000042100037 */\n    tag_12:\n      tag_58\n      tag_59\n      jump\t// in\n    tag_58:\n      mload(0x40)\n      tag_60\n      swap2\n      swap1\n      tag_30\n      jump\t// in\n    tag_60:\n      mload(0x40)\n      dup1\n      swap2\n      sub\n      swap1\n      return\n        /* \"src/Suave.sol\":4573:4657  address public constant NEW_DATA_RECORD = 0x0000000000000000000000000000000042030000 */\n    tag_13:\n      tag_61\n      tag_62\n      jump\t// in\n    tag_61:\n      mload(0x40)\n      tag_63\n      swap2\n      swap1\n      tag_30\n      jump\t// in\n    tag_63:\n      mload(0x40)\n      dup1\n      swap2\n      sub\n      swap1\n      return\n        /* \"src/Suave.sol\":3570:3654  address public constant BUILD_ETH_BLOCK = 0x0000000000000000000000000000000042100001 */\n    tag_14:\n      tag_64\n      tag_65\n      jump\t// in\n    tag_64:\n      mload(0x40)\n      tag_66\n      swap2\n      swap1\n      tag_30\n      jump\t// in\n    tag_66:\n      mload(0x40)\n      dup1\n      swap2\n      sub\n      swap1\n      return\n        /* \"src/Suave.sol\":4939:5020  address public constant SIGN_MESSAGE = 0x0000000000000000000000000000000040100003 */\n    tag_15:\n      tag_67\n      tag_68\n      jump\t// in\n    tag_67:\n      mload(0x40)\n      tag_69\n      swap2\n      swap1\n      tag_30\n      jump\t// in\n    tag_69:\n      mload(0x40)\n      dup1\n      swap2\n      sub\n      swap1\n      return\n        /* \"src/Suave.sol\":3853:3940  address public constant CONFIDENTIAL_STORE = 0x0000000000000000000000000000000042020000 */\n    tag_16:\n      tag_70\n      tag_71\n      jump\t// in\n    tag_70:\n      mload(0x40)\n      tag_72\n      swap2\n      swap1\n      tag_30\n      jump\t// in\n    tag_72:\n      mload(0x40)\n      dup1\n      swap2\n      sub\n      swap1\n      return\n        /* \"src/Suave.sol\":5027:5111  address public constant SIMULATE_BUNDLE = 0x0000000000000000000000000000000042100000 */\n    tag_17:\n      tag_73\n      tag_74\n      jump\t// in\n    tag_73:\n      mload(0x40)\n      tag_75\n      swap2\n      swap1\n      tag_30\n      jump\t// in\n    tag_75:\n      mload(0x40)\n      dup1\n      swap2\n      sub\n      swap1\n      return\n        /* \"src/Suave.sol\":3474:3563  address public constant IS_CONFIDENTIAL_ADDR = 0x0000000000000000000000000000000042010000 */\n    tag_18:\n      tag_76\n      tag_77\n      jump\t// in\n    tag_76:\n      mload(0x40)\n      tag_78\n      swap2\n      swap1\n      tag_30\n      jump\t// in\n    tag_78:\n      mload(0x40)\n      dup1\n      swap2\n      sub\n      swap1\n      return\n        /* \"src/Suave.sol\":3388:3467  address public constant ANYALLOWED = 0xC8df3686b4Afb2BB53e60EAe97EF043FE03Fb829 */\n    tag_19:\n      tag_79\n      tag_80\n      jump\t// in\n    tag_79:\n      mload(0x40)\n      tag_81\n      swap2\n      swap1\n      tag_30\n      jump\t// in\n    tag_81:\n      mload(0x40)\n      dup1\n      swap2\n      sub\n      swap1\n      return\n        /* \"src/Suave.sol\":3756:3846  address public constant CONFIDENTIAL_RETRIEVE = 0x0000000000000000000000000000000042020001 */\n    tag_20:\n      tag_82\n      tag_83\n      jump\t// in\n    tag_82:\n      mload(0x40)\n      tag_84\n      swap2\n      swap1\n      tag_30\n      jump\t// in\n    tag_84:\n      mload(0x40)\n      dup1\n      swap2\n      sub\n      swap1\n      return\n        /* \"src/Suave.sol\":5214:5305  address public constant SUBMIT_BUNDLE_JSON_RPC = 0x0000000000000000000000000000000043000001 */\n    tag_21:\n      tag_85\n      tag_86\n      jump\t// in\n    tag_85:\n      mload(0x40)\n      tag_87\n      swap2\n      swap1\n      tag_30\n      jump\t// in\n    tag_87:\n      mload(0x40)\n      dup1\n      swap2\n      sub\n      swap1\n      return\n        /* \"src/Suave.sol\":4486:4566  address public constant NEW_BUILDER = 0x0000000000000000000000000000000053200001 */\n    tag_22:\n      tag_88\n      tag_89\n      jump\t// in\n    tag_88:\n      mload(0x40)\n      tag_90\n      swap2\n      swap1\n      tag_30\n      jump\t// in\n    tag_90:\n      mload(0x40)\n      dup1\n      swap2\n      sub\n      swap1\n      return\n        /* \"src/Suave.sol\":5312:5406  address public constant SUBMIT_ETH_BLOCK_TO_RELAY = 0x0000000000000000000000000000000042100002 */\n    tag_23:\n      tag_91\n      tag_92\n      jump\t// in\n    tag_91:\n      mload(0x40)\n      tag_93\n      swap2\n      swap1\n      tag_30\n      jump\t// in\n    tag_93:\n      mload(0x40)\n      dup1\n      swap2\n      sub\n      swap1\n      return\n        /* \"src/Suave.sol\":4755:4836  address public constant RANDOM_BYTES = 0x000000000000000000000000000000007770000b */\n    tag_28:\n        /* \"src/Suave.sol\":4794:4836  0x000000000000000000000000000000007770000b */\n      0x7770000b\n        /* \"src/Suave.sol\":4755:4836  address public constant RANDOM_BYTES = 0x000000000000000000000000000000007770000b */\n      dup2\n      jump\t// out\n        /* \"src/Suave.sol\":4389:4479  address public constant FILL_MEV_SHARE_BUNDLE = 0x0000000000000000000000000000000043200001 */\n    tag_32:\n        /* \"src/Suave.sol\":4437:4479  0x0000000000000000000000000000000043200001 */\n      0x43200001\n        /* \"src/Suave.sol\":4389:4479  address public constant FILL_MEV_SHARE_BUNDLE = 0x0000000000000000000000000000000043200001 */\n      dup2\n      jump\t// out\n        /* \"src/Suave.sol\":4124:4200  address public constant ETHCALL = 0x0000000000000000000000000000000042100003 */\n    tag_35:\n        /* \"src/Suave.sol\":4158:4200  0x0000000000000000000000000000000042100003 */\n      0x42100003\n        /* \"src/Suave.sol\":4124:4200  address public constant ETHCALL = 0x0000000000000000000000000000000042100003 */\n      dup2\n      jump\t// out\n        /* \"src/Suave.sol\":5118:5207  address public constant SIMULATE_TRANSACTION = 0x0000000000000000000000000000000053200002 */\n    tag_38:\n        /* \"src/Suave.sol\":5165:5207  0x0000000000000000000000000000000053200002 */\n      0x53200002\n        /* \"src/Suave.sol\":5118:5207  address public constant SIMULATE_TRANSACTION = 0x0000000000000000000000000000000053200002 */\n      dup2\n      jump\t// out\n        /* \"src/Suave.sol\":3947:4027  address public constant CONTEXT_GET = 0x0000000000000000000000000000000053300003 */\n    tag_41:\n        /* \"src/Suave.sol\":3985:4027  0x0000000000000000000000000000000053300003 */\n      0x53300003\n        /* \"src/Suave.sol\":3947:4027  address public constant CONTEXT_GET = 0x0000000000000000000000000000000053300003 */\n      dup2\n      jump\t// out\n        /* \"src/Suave.sol\":4664:4748  address public constant PRIVATE_KEY_GEN = 0x0000000000000000000000000000000053200003 */\n    tag_44:\n        /* \"src/Suave.sol\":4706:4748  0x0000000000000000000000000000000053200003 */\n      0x53200003\n        /* \"src/Suave.sol\":4664:4748  address public constant PRIVATE_KEY_GEN = 0x0000000000000000000000000000000053200003 */\n      dup2\n      jump\t// out\n        /* \"src/Suave.sol\":4295:4382  address public constant FETCH_DATA_RECORDS = 0x0000000000000000000000000000000042030001 */\n    tag_47:\n        /* \"src/Suave.sol\":4340:4382  0x0000000000000000000000000000000042030001 */\n      0x42030001\n        /* \"src/Suave.sol\":4295:4382  address public constant FETCH_DATA_RECORDS = 0x0000000000000000000000000000000042030001 */\n      dup2\n      jump\t// out\n        /* \"src/Suave.sol\":4034:4117  address public constant DO_HTTPREQUEST = 0x0000000000000000000000000000000043200002 */\n    tag_50:\n        /* \"src/Suave.sol\":4075:4117  0x0000000000000000000000000000000043200002 */\n      0x43200002\n        /* \"src/Suave.sol\":4034:4117  address public constant DO_HTTPREQUEST = 0x0000000000000000000000000000000043200002 */\n      dup2\n      jump\t// out\n        /* \"src/Suave.sol\":3661:3749  address public constant CONFIDENTIAL_INPUTS = 0x0000000000000000000000000000000042010001 */\n    tag_53:\n        /* \"src/Suave.sol\":3707:3749  0x0000000000000000000000000000000042010001 */\n      0x42010001\n        /* \"src/Suave.sol\":3661:3749  address public constant CONFIDENTIAL_INPUTS = 0x0000000000000000000000000000000042010001 */\n      dup2\n      jump\t// out\n        /* \"src/Suave.sol\":4843:4932  address public constant SIGN_ETH_TRANSACTION = 0x0000000000000000000000000000000040100001 */\n    tag_56:\n        /* \"src/Suave.sol\":4890:4932  0x0000000000000000000000000000000040100001 */\n      0x40100001\n        /* \"src/Suave.sol\":4843:4932  address public constant SIGN_ETH_TRANSACTION = 0x0000000000000000000000000000000040100001 */\n      dup2\n      jump\t// out\n        /* \"src/Suave.sol\":4207:4288  address public constant EXTRACT_HINT = 0x0000000000000000000000000000000042100037 */\n    tag_59:\n        /* \"src/Suave.sol\":4246:4288  0x0000000000000000000000000000000042100037 */\n      0x42100037\n        /* \"src/Suave.sol\":4207:4288  address public constant EXTRACT_HINT = 0x0000000000000000000000000000000042100037 */\n      dup2\n      jump\t// out\n        /* \"src/Suave.sol\":4573:4657  address public constant NEW_DATA_RECORD = 0x0000000000000000000000000000000042030000 */\n    tag_62:\n        /* \"src/Suave.sol\":4615:4657  0x0000000000000000000000000000000042030000 */\n      0x42030000\n        /* \"src/Suave.sol\":4573:4657  address public constant NEW_DATA_RECORD = 0x0000000000000000000000000000000042030000 */\n      dup2\n      jump\t// out\n        /* \"src/Suave.sol\":3570:3654  address public constant BUILD_ETH_BLOCK = 0x0000000000000000000000000000000042100001 */\n    tag_65:\n        /* \"src/Suave.sol\":3612:3654  0x0000000000000000000000000000000042100001 */\n      0x42100001\n        /* \"src/Suave.sol\":3570:3654  address public constant BUILD_ETH_BLOCK = 0x0000000000000000000000000000000042100001 */\n      dup2\n      jump\t// out\n        /* \"src/Suave.sol\":4939:5020  address public constant SIGN_MESSAGE = 0x0000000000000000000000000000000040100003 */\n    tag_68:\n        /* \"src/Suave.sol\":4978:5020  0x0000000000000000000000000000000040100003 */\n      0x40100003\n        /* \"src/Suave.sol\":4939:5020  address public constant SIGN_MESSAGE = 0x0000000000000000000000000000000040100003 */\n      dup2\n      jump\t// out\n        /* \"src/Suave.sol\":3853:3940  address public constant CONFIDENTIAL_STORE = 0x0000000000000000000000000000000042020000 */\n    tag_71:\n        /* \"src/Suave.sol\":3898:3940  0x0000000000000000000000000000000042020000 */\n      0x42020000\n        /* \"src/Suave.sol\":3853:3940  address public constant CONFIDENTIAL_STORE = 0x0000000000000000000000000000000042020000 */\n      dup2\n      jump\t// out\n        /* \"src/Suave.sol\":5027:5111  address public constant SIMULATE_BUNDLE = 0x0000000000000000000000000000000042100000 */\n    tag_74:\n        /* \"src/Suave.sol\":5069:5111  0x0000000000000000000000000000000042100000 */\n      0x42100000\n        /* \"src/Suave.sol\":5027:5111  address public constant SIMULATE_BUNDLE = 0x0000000000000000000000000000000042100000 */\n      dup2\n      jump\t// out\n        /* \"src/Suave.sol\":3474:3563  address public constant IS_CONFIDENTIAL_ADDR = 0x0000000000000000000000000000000042010000 */\n    tag_77:\n        /* \"src/Suave.sol\":3521:3563  0x0000000000000000000000000000000042010000 */\n      0x42010000\n        /* \"src/Suave.sol\":3474:3563  address public constant IS_CONFIDENTIAL_ADDR = 0x0000000000000000000000000000000042010000 */\n      dup2\n      jump\t// out\n        /* \"src/Suave.sol\":3388:3467  address public constant ANYALLOWED = 0xC8df3686b4Afb2BB53e60EAe97EF043FE03Fb829 */\n    tag_80:\n        /* \"src/Suave.sol\":3425:3467  0xC8df3686b4Afb2BB53e60EAe97EF043FE03Fb829 */\n      0xc8df3686b4afb2bb53e60eae97ef043fe03fb829\n        /* \"src/Suave.sol\":3388:3467  address public constant ANYALLOWED = 0xC8df3686b4Afb2BB53e60EAe97EF043FE03Fb829 */\n      dup2\n      jump\t// out\n        /* \"src/Suave.sol\":3756:3846  address public constant CONFIDENTIAL_RETRIEVE = 0x0000000000000000000000000000000042020001 */\n    tag_83:\n        /* \"src/Suave.sol\":3804:3846  0x0000000000000000000000000000000042020001 */\n      0x42020001\n        /* \"src/Suave.sol\":3756:3846  address public constant CONFIDENTIAL_RETRIEVE = 0x0000000000000000000000000000000042020001 */\n      dup2\n      jump\t// out\n        /* \"src/Suave.sol\":5214:5305  address public constant SUBMIT_BUNDLE_JSON_RPC = 0x0000000000000000000000000000000043000001 */\n    tag_86:\n        /* \"src/Suave.sol\":5263:5305  0x0000000000000000000000000000000043000001 */\n      0x43000001\n        /* \"src/Suave.sol\":5214:5305  address public constant SUBMIT_BUNDLE_JSON_RPC = 0x0000000000000000000000000000000043000001 */\n      dup2\n      jump\t// out\n        /* \"src/Suave.sol\":4486:4566  address public constant NEW_BUILDER = 0x0000000000000000000000000000000053200001 */\n    tag_89:\n        /* \"src/Suave.sol\":4524:4566  0x0000000000000000000000000000000053200001 */\n      0x53200001\n        /* \"src/Suave.sol\":4486:4566  address public constant NEW_BUILDER = 0x0000000000000000000000000000000053200001 */\n      dup2\n      jump\t// out\n        /* \"src/Suave.sol\":5312:5406  address public constant SUBMIT_ETH_BLOCK_TO_RELAY = 0x0000000000000000000000000000000042100002 */\n    tag_92:\n        /* \"src/Suave.sol\":5364:5406  0x0000000000000000000000000000000042100002 */\n      0x42100002\n        /* \"src/Suave.sol\":5312:5406  address public constant SUBMIT_ETH_BLOCK_TO_RELAY = 0x0000000000000000000000000000000042100002 */\n      dup2\n      jump\t// out\n        /* \"#utility.yul\":7:133   */\n    tag_94:\n        /* \"#utility.yul\":44:51   */\n      0x00\n        /* \"#utility.yul\":84:126   */\n      0xffffffffffffffffffffffffffffffffffffffff\n        /* \"#utility.yul\":77:82   */\n      dup3\n        /* \"#utility.yul\":73:127   */\n      and\n        /* \"#utility.yul\":62:127   */\n      swap1\n      pop\n        /* \"#utility.yul\":7:133   */\n      swap2\n      swap1\n      pop\n      jump\t// out\n        /* \"#utility.yul\":139:235   */\n    tag_95:\n        /* \"#utility.yul\":176:183   */\n      0x00\n        /* \"#utility.yul\":205:229   */\n      tag_100\n        /* \"#utility.yul\":223:228   */\n      dup3\n        /* \"#utility.yul\":205:229   */\n      tag_94\n      jump\t// in\n    tag_100:\n        /* \"#utility.yul\":194:229   */\n      swap1\n      pop\n        /* \"#utility.yul\":139:235   */\n      swap2\n      swap1\n      pop\n      jump\t// out\n        /* \"#utility.yul\":241:367   */\n    tag_96:\n        /* \"#utility.yul\":336:360   */\n      tag_102\n        /* \"#utility.yul\":354:359   */\n      dup2\n        /* \"#utility.yul\":336:360   */\n      tag_95\n      jump\t// in\n    tag_102:\n        /* \"#utility.yul\":331:334   */\n      dup3\n        /* \"#utility.yul\":324:361   */\n      mstore\n        /* \"#utility.yul\":241:367   */\n      pop\n      pop\n      jump\t// out\n        /* \"#utility.yul\":373:611   */\n    tag_30:\n        /* \"#utility.yul\":474:478   */\n      0x00\n        /* \"#utility.yul\":512:514   */\n      0x20\n        /* \"#utility.yul\":501:510   */\n      dup3\n        /* \"#utility.yul\":497:515   */\n      add\n        /* \"#utility.yul\":489:515   */\n      swap1\n      pop\n        /* \"#utility.yul\":525:604   */\n      tag_104\n        /* \"#utility.yul\":601:602   */\n      0x00\n        /* \"#utility.yul\":590:599   */\n      dup4\n        /* \"#utility.yul\":586:603   */\n      add\n        /* \"#utility.yul\":577:583   */\n      dup5\n        /* \"#utility.yul\":525:604   */\n      tag_96\n      jump\t// in\n    tag_104:\n        /* \"#utility.yul\":373:611   */\n      swap3\n      swap2\n      pop\n      pop\n      jump\t// out\n\n    auxdata: 0xa2646970667358221220bd7a9d7172a79247c973d4815077e45a5f2348086f7dd7b12a1387165da8433f64736f6c63430008190033\n}\n",
				"bytecode": {
					"linkReferences": {},
					"object": "61053061004d600b8282823980515f1a6073146041577f4e487b71000000000000000000000000000000000000000000000000000000005f525f60045260245ffd5b305f52607381538281f3fe730000000000000000000000000000000000000000301460806040526004361061014a575f3560e01c80638a088763116100c1578063d91525db11610085578063d91525db1461032e578063de3dafbf1461034c578063f05797591461036a578063f0608b1c14610388578063f28f4271146103a6578063fb18f5f0146103c45761014a565b80638a0887631461029857806394804c69146102b6578063a1553986146102d4578063ad05aae4146102f2578063b61b127d146103105761014a565b80634aeeccc9116101135780634aeeccc9146101e4578063581ff5af146102025780636902e21d1461022057806369094cbc1461023e578063744795b91461025c578063751afe2c1461027a5761014a565b80626a80651461014e57806301c195301461016c578063040e51831461018a5780632a4788d6146101a8578063440098ff146101c6575b5f80fd5b6101566103e2565b60405161016391906104e1565b60405180910390f35b6101746103ea565b60405161018191906104e1565b60405180910390f35b6101926103f2565b60405161019f91906104e1565b60405180910390f35b6101b06103fa565b6040516101bd91906104e1565b60405180910390f35b6101ce610402565b6040516101db91906104e1565b60405180910390f35b6101ec61040a565b6040516101f991906104e1565b60405180910390f35b61020a610412565b60405161021791906104e1565b60405180910390f35b61022861041a565b60405161023591906104e1565b60405180910390f35b610246610422565b60405161025391906104e1565b60405180910390f35b61026461042a565b60405161027191906104e1565b60405180910390f35b610282610432565b60405161028f91906104e1565b60405180910390f35b6102a061043a565b6040516102ad91906104e1565b60405180910390f35b6102be610442565b6040516102cb91906104e1565b60405180910390f35b6102dc61044a565b6040516102e991906104e1565b60405180910390f35b6102fa610452565b60405161030791906104e1565b60405180910390f35b61031861045a565b60405161032591906104e1565b60405180910390f35b610336610462565b60405161034391906104e1565b60405180910390f35b61035461046a565b60405161036191906104e1565b60405180910390f35b610372610482565b60405161037f91906104e1565b60405180910390f35b61039061048a565b60405161039d91906104e1565b60405180910390f35b6103ae610492565b6040516103bb91906104e1565b60405180910390f35b6103cc61049a565b6040516103d991906104e1565b60405180910390f35b637770000b81565b634320000181565b634210000381565b635320000281565b635330000381565b635320000381565b634203000181565b634320000281565b634201000181565b634010000181565b634210003781565b634203000081565b634210000181565b634010000381565b634202000081565b634210000081565b634201000081565b73c8df3686b4afb2bb53e60eae97ef043fe03fb82981565b634202000181565b634300000181565b635320000181565b634210000281565b5f73ffffffffffffffffffffffffffffffffffffffff82169050919050565b5f6104cb826104a2565b9050919050565b6104db816104c1565b82525050565b5f6020820190506104f45f8301846104d2565b9291505056fea2646970667358221220bd7a9d7172a79247c973d4815077e45a5f2348086f7dd7b12a1387165da8433f64736f6c63430008190033",
					"opcodes": "PUSH2 0x530 PUSH2 0x4D PUSH1 0xB DUP3 DUP3 DUP3 CODECOPY DUP1 MLOAD PUSH0 BYTE PUSH1 0x73 EQ PUSH1 0x41 JUMPI PUSH32 0x4E487B7100000000000000000000000000000000000000000000000000000000 PUSH0 MSTORE PUSH0 PUSH1 0x4 MSTORE PUSH1 0x24 PUSH0 REVERT JUMPDEST ADDRESS PUSH0 MSTORE PUSH1 0x73 DUP2 MSTORE8 DUP3 DUP2 RETURN INVALID PUSH20 0x0 ADDRESS EQ PUSH1 0x80 PUSH1 0x40 MSTORE PUSH1 0x4 CALLDATASIZE LT PUSH2 0x14A JUMPI PUSH0 CALLDATALOAD PUSH1 0xE0 SHR DUP1 PUSH4 0x8A088763 GT PUSH2 0xC1 JUMPI DUP1 PUSH4 0xD91525DB GT PUSH2 0x85 JUMPI DUP1 PUSH4 0xD91525DB EQ PUSH2 0x32E JUMPI DUP1 PUSH4 0xDE3DAFBF EQ PUSH2 0x34C JUMPI DUP1 PUSH4 0xF0579759 EQ PUSH2 0x36A JUMPI DUP1 PUSH4 0xF0608B1C EQ PUSH2 0x388 JUMPI DUP1 PUSH4 0xF28F4271 EQ PUSH2 0x3A6 JUMPI DUP1 PUSH4 0xFB18F5F0 EQ PUSH2 0x3C4 JUMPI PUSH2 0x14A JUMP JUMPDEST DUP1 PUSH4 0x8A088763 EQ PUSH2 0x298 JUMPI DUP1 PUSH4 0x94804C69 EQ PUSH2 0x2B6 JUMPI DUP1 PUSH4 0xA1553986 EQ PUSH2 0x2D4 JUMPI DUP1 PUSH4 0xAD05AAE4 EQ PUSH2 0x2F2 JUMPI DUP1 PUSH4 0xB61B127D EQ PUSH2 0x310 JUMPI PUSH2 0x14A JUMP JUMPDEST DUP1 PUSH4 0x4AEECCC9 GT PUSH2 0x113 JUMPI DUP1 PUSH4 0x4AEECCC9 EQ PUSH2 0x1E4 JUMPI DUP1 PUSH4 0x581FF5AF EQ PUSH2 0x202 JUMPI DUP1 PUSH4 0x6902E21D EQ PUSH2 0x220 JUMPI DUP1 PUSH4 0x69094CBC EQ PUSH2 0x23E JUMPI DUP1 PUSH4 0x744795B9 EQ PUSH2 0x25C JUMPI DUP1 PUSH4 0x751AFE2C EQ PUSH2 0x27A JUMPI PUSH2 0x14A JUMP JUMPDEST DUP1 PUSH3 0x6A8065 EQ PUSH2 0x14E JUMPI DUP1 PUSH4 0x1C19530 EQ PUSH2 0x16C JUMPI DUP1 PUSH4 0x40E5183 EQ PUSH2 0x18A JUMPI DUP1 PUSH4 0x2A4788D6 EQ PUSH2 0x1A8 JUMPI DUP1 PUSH4 0x440098FF EQ PUSH2 0x1C6 JUMPI JUMPDEST PUSH0 DUP1 REVERT JUMPDEST PUSH2 0x156 PUSH2 0x3E2 JUMP JUMPDEST PUSH1 0x40 MLOAD PUSH2 0x163 SWAP2 SWAP1 PUSH2 0x4E1 JUMP JUMPDEST PUSH1 0x40 MLOAD DUP1 SWAP2 SUB SWAP1 RETURN JUMPDEST PUSH2 0x174 PUSH2 0x3EA JUMP JUMPDEST PUSH1 0x40 MLOAD PUSH2 0x181 SWAP2 SWAP1 PUSH2 0x4E1 JUMP JUMPDEST PUSH1 0x40 MLOAD DUP1 SWAP2 SUB SWAP1 RETURN JUMPDEST PUSH2 0x192 PUSH2 0x3F2 JUMP JUMPDEST PUSH1 0x40 MLOAD PUSH2 0x19F SWAP2 SWAP1 PUSH2 0x4E1 JUMP JUMPDEST PUSH1 0x40 MLOAD DUP1 SWAP2 SUB SWAP1 RETURN JUMPDEST PUSH2 0x1B0 PUSH2 0x3FA JUMP JUMPDEST PUSH1 0x40 MLOAD PUSH2 0x1BD SWAP2 SWAP1 PUSH2 0x4E1 JUMP JUMPDEST PUSH1 0x40 MLOAD DUP1 SWAP2 SUB SWAP1 RETURN JUMPDEST PUSH2 0x1CE PUSH2 0x402 JUMP JUMPDEST PUSH1 0x40 MLOAD PUSH2 0x1DB SWAP2 SWAP1 PUSH2 0x4E1 JUMP JUMPDEST PUSH1 0x40 MLOAD DUP1 SWAP2 SUB SWAP1 RETURN JUMPDEST PUSH2 0x1EC PUSH2 0x40A JUMP JUMPDEST PUSH1 0x40 MLOAD PUSH2 0x1F9 SWAP2 SWAP1 PUSH2 0x4E1 JUMP JUMPDEST PUSH1 0x40 MLOAD DUP1 SWAP2 SUB SWAP1 RETURN JUMPDEST PUSH2 0x20A PUSH2 0x412 JUMP JUMPDEST PUSH1 0x40 MLOAD PUSH2 0x217 SWAP2 SWAP1 PUSH2 0x4E1 JUMP JUMPDEST PUSH1 0x40 MLOAD DUP1 SWAP2 SUB SWAP1 RETURN JUMPDEST PUSH2 0x228 PUSH2 0x41A JUMP JUMPDEST PUSH1 0x40 MLOAD PUSH2 0x235 SWAP2 SWAP1 PUSH2 0x4E1 JUMP JUMPDEST PUSH1 0x40 MLOAD DUP1 SWAP2 SUB SWAP1 RETURN JUMPDEST PUSH2 0x246 PUSH2 0x422 JUMP JUMPDEST PUSH1 0x40 MLOAD PUSH2 0x253 SWAP2 SWAP1 PUSH2 0x4E1 JUMP JUMPDEST PUSH1 0x40 MLOAD DUP1 SWAP2 SUB SWAP1 RETURN JUMPDEST PUSH2 0x264 PUSH2 0x42A JUMP JUMPDEST PUSH1 0x40 MLOAD PUSH2 0x271 SWAP2 SWAP1 PUSH2 0x4E1 JUMP JUMPDEST PUSH1 0x40 MLOAD DUP1 SWAP2 SUB SWAP1 RETURN JUMPDEST PUSH2 0x282 PUSH2 0x432 JUMP JUMPDEST PUSH1 0x40 MLOAD PUSH2 0x28F SWAP2 SWAP1 PUSH2 0x4E1 JUMP JUMPDEST PUSH1 0x40 MLOAD DUP1 SWAP2 SUB SWAP1 RETURN JUMPDEST PUSH2 0x2A0 PUSH2 0x43A JUMP JUMPDEST PUSH1 0x40 MLOAD PUSH2 0x2AD SWAP2 SWAP1 PUSH2 0x4E1 JUMP JUMPDEST PUSH1 0x40 MLOAD DUP1 SWAP2 SUB SWAP1 RETURN JUMPDEST PUSH2 0x2BE PUSH2 0x442 JUMP JUMPDEST PUSH1 0x40 MLOAD PUSH2 0x2CB SWAP2 SWAP1 PUSH2 0x4E1 JUMP JUMPDEST PUSH1 0x40 MLOAD DUP1 SWAP2 SUB SWAP1 RETURN JUMPDEST PUSH2 0x2DC PUSH2 0x44A JUMP JUMPDEST PUSH1 0x40 MLOAD PUSH2 0x2E9 SWAP2 SWAP1 PUSH2 0x4E1 JUMP JUMPDEST PUSH1 0x40 MLOAD DUP1 SWAP2 SUB SWAP1 RETURN JUMPDEST PUSH2 0x2FA PUSH2 0x452 JUMP JUMPDEST PUSH1 0x40 MLOAD PUSH2 0x307 SWAP2 SWAP1 PUSH2 0x4E1 JUMP JUMPDEST PUSH1 0x40 MLOAD DUP1 SWAP2 SUB SWAP1 RETURN JUMPDEST PUSH2 0x318 PUSH2 0x45A JUMP JUMPDEST PUSH1 0x40 MLOAD PUSH2 0x325 SWAP2 SWAP1 PUSH2 0x4E1 JUMP JUMPDEST PUSH1 0x40 MLOAD DUP1 SWAP2 SUB SWAP1 RETURN JUMPDEST PUSH2 0x336 PUSH2 0x462 JUMP JUMPDEST PUSH1 0x40 MLOAD PUSH2 0x343 SWAP2 SWAP1 PUSH2 0x4E1 JUMP JUMPDEST PUSH1 0x40 MLOAD DUP1 SWAP2 SUB SWAP1 RETURN JUMPDEST PUSH2 0x354 PUSH2 0x46A JUMP JUMPDEST PUSH1 0x40 MLOAD PUSH2 0x361 SWAP2 SWAP1 PUSH2 0x4E1 JUMP JUMPDEST PUSH1 0x40 MLOAD DUP1 SWAP2 SUB SWAP1 RETURN JUMPDEST PUSH2 0x372 PUSH2 0x482 JUMP JUMPDEST PUSH1 0x40 MLOAD PUSH2 0x37F SWAP2 SWAP1 PUSH2 0x4E1 JUMP JUMPDEST PUSH1 0x40 MLOAD DUP1 SWAP2 SUB SWAP1 RETURN JUMPDEST PUSH2 0x390 PUSH2 0x48A JUMP JUMPDEST PUSH1 0x40 MLOAD PUSH2 0x39D SWAP2 SWAP1 PUSH2 0x4E1 JUMP JUMPDEST PUSH1 0x40 MLOAD DUP1 SWAP2 SUB SWAP1 RETURN JUMPDEST PUSH2 0x3AE PUSH2 0x492 JUMP JUMPDEST PUSH1 0x40 MLOAD PUSH2 0x3BB SWAP2 SWAP1 PUSH2 0x4E1 JUMP JUMPDEST PUSH1 0x40 MLOAD DUP1 SWAP2 SUB SWAP1 RETURN JUMPDEST PUSH2 0x3CC PUSH2 0x49A JUMP JUMPDEST PUSH1 0x40 MLOAD PUSH2 0x3D9 SWAP2 SWAP1 PUSH2 0x4E1 JUMP JUMPDEST PUSH1 0x40 MLOAD DUP1 SWAP2 SUB SWAP1 RETURN JUMPDEST PUSH4 0x7770000B DUP2 JUMP JUMPDEST PUSH4 0x43200001 DUP2 JUMP JUMPDEST PUSH4 0x42100003 DUP2 JUMP JUMPDEST PUSH4 0x53200002 DUP2 JUMP JUMPDEST PUSH4 0x53300003 DUP2 JUMP JUMPDEST PUSH4 0x53200003 DUP2 JUMP JUMPDEST PUSH4 0x42030001 DUP2 JUMP JUMPDEST PUSH4 0x43200002 DUP2 JUMP JUMPDEST PUSH4 0x42010001 DUP2 JUMP JUMPDEST PUSH4 0x40100001 DUP2 JUMP JUMPDEST PUSH4 0x42100037 DUP2 JUMP JUMPDEST PUSH4 0x42030000 DUP2 JUMP JUMPDEST PUSH4 0x42100001 DUP2 JUMP JUMPDEST PUSH4 0x40100003 DUP2 JUMP JUMPDEST PUSH4 0x42020000 DUP2 JUMP JUMPDEST PUSH4 0x42100000 DUP2 JUMP JUMPDEST PUSH4 0x42010000 DUP2 JUMP JUMPDEST PUSH20 0xC8DF3686B4AFB2BB53E60EAE97EF043FE03FB829 DUP2 JUMP JUMPDEST PUSH4 0x42020001 DUP2 JUMP JUMPDEST PUSH4 0x43000001 DUP2 JUMP JUMPDEST PUSH4 0x53200001 DUP2 JUMP JUMPDEST PUSH4 0x42100002 DUP2 JUMP JUMPDEST PUSH0 PUSH20 0xFFFFFFFFFFFFFFFFFFFFFFFFFFFFFFFFFFFFFFFF DUP3 AND SWAP1 POP SWAP2 SWAP1 POP JUMP JUMPDEST PUSH0 PUSH2 0x4CB DUP3 PUSH2 0x4A2 JUMP JUMPDEST SWAP1 POP SWAP2 SWAP1 POP JUMP JUMPDEST PUSH2 0x4DB DUP2 PUSH2 0x4C1 JUMP JUMPDEST DUP3 MSTORE POP POP JUMP JUMPDEST PUSH0 PUSH1 0x20 DUP3 ADD SWAP1 POP PUSH2 0x4F4 PUSH0 DUP4 ADD DUP5 PUSH2 0x4D2 JUMP JUMPDEST SWAP3 SWAP2 POP POP JUMP INVALID LOG2 PUSH5 0x6970667358 0x22 SLT KECCAK256 0xBD PUSH27 0x9D7172A79247C973D4815077E45A5F2348086F7DD7B12A1387165D 0xA8 NUMBER EXTCODEHASH PUSH5 0x736F6C6343 STOP ADDMOD NOT STOP CALLER "
				},
				"gasEstimates": {
					"creation": {
						"codeDepositCost": "265600",
						"executionCost": "329",
						"totalCost": "265929"
					},
					"external": {
						"ANYALLOWED()": "401",
						"BUILD_ETH_BLOCK()": "402",
						"CONFIDENTIAL_INPUTS()": "446",
						"CONFIDENTIAL_RETRIEVE()": "423",
						"CONFIDENTIAL_STORE()": "446",
						"CONTEXT_GET()": "469",
						"DO_HTTPREQUEST()": "424",
						"ETHCALL()": "425",
						"EXTRACT_HINT()": "490",
						"FETCH_DATA_RECORDS()": "402",
						"FILL_MEV_SHARE_BUNDLE()": "403",
						"IS_CONFIDENTIAL_ADDR()": "379",
						"NEW_BUILDER()": "467",
						"NEW_DATA_RECORD()": "380",
						"PRIVATE_KEY_GEN()": "380",
						"RANDOM_BYTES()": "381",
						"SIGN_ETH_TRANSACTION()": "468",
						"SIGN_MESSAGE()": "424",
						"SIMULATE_BUNDLE()": "468",
						"SIMULATE_TRANSACTION()": "447",
						"SUBMIT_BUNDLE_JSON_RPC()": "445",
						"SUBMIT_ETH_BLOCK_TO_RELAY()": "489"
					},
					"internal": {
						"buildEthBlock(struct Suave.BuildBlockArgs memory,Suave.DataId,string memory)": "infinite",
						"confidentialInputs()": "infinite",
						"confidentialRetrieve(Suave.DataId,string memory)": "infinite",
						"confidentialStore(Suave.DataId,string memory,bytes memory)": "infinite",
						"contextGet(string memory)": "infinite",
						"doHTTPRequest(struct Suave.HttpRequest memory)": "infinite",
						"ethcall(address,bytes memory)": "infinite",
						"extractHint(bytes memory)": "infinite",
						"fetchDataRecords(uint64,string memory)": "infinite",
						"fillMevShareBundle(Suave.DataId)": "infinite",
						"isConfidential()": "infinite",
						"newBuilder()": "infinite",
						"newDataRecord(uint64,address[] memory,address[] memory,string memory)": "infinite",
						"privateKeyGen(enum Suave.CryptoSignature)": "infinite",
						"randomBytes(uint8)": "infinite",
						"signEthTransaction(bytes memory,string memory,string memory)": "infinite",
						"signMessage(bytes memory,enum Suave.CryptoSignature,string memory)": "infinite",
						"simulateBundle(bytes memory)": "infinite",
						"simulateTransaction(string memory,bytes memory)": "infinite",
						"submitBundleJsonRPC(string memory,string memory,bytes memory)": "infinite",
						"submitEthBlockToRelay(string memory,bytes memory)": "infinite"
					}
				},
				"methodIdentifiers": {
					"ANYALLOWED()": "de3dafbf",
					"BUILD_ETH_BLOCK()": "94804c69",
					"CONFIDENTIAL_INPUTS()": "69094cbc",
					"CONFIDENTIAL_RETRIEVE()": "f0579759",
					"CONFIDENTIAL_STORE()": "ad05aae4",
					"CONTEXT_GET()": "440098ff",
					"DO_HTTPREQUEST()": "6902e21d",
					"ETHCALL()": "040e5183",
					"EXTRACT_HINT()": "751afe2c",
					"FETCH_DATA_RECORDS()": "581ff5af",
					"FILL_MEV_SHARE_BUNDLE()": "01c19530",
					"IS_CONFIDENTIAL_ADDR()": "d91525db",
					"NEW_BUILDER()": "f28f4271",
					"NEW_DATA_RECORD()": "8a088763",
					"PRIVATE_KEY_GEN()": "4aeeccc9",
					"RANDOM_BYTES()": "006a8065",
					"SIGN_ETH_TRANSACTION()": "744795b9",
					"SIGN_MESSAGE()": "a1553986",
					"SIMULATE_BUNDLE()": "b61b127d",
					"SIMULATE_TRANSACTION()": "2a4788d6",
					"SUBMIT_BUNDLE_JSON_RPC()": "f0608b1c",
					"SUBMIT_ETH_BLOCK_TO_RELAY()": "fb18f5f0"
				}
			},
			"storageLayout": {
				"storage": [],
				"types": null
			},
			"userdoc": {
				"kind": "user",
				"methods": {},
				"notice": "Library to interact with the Suave MEVM precompiles.",
				"version": 1
			}
		}
	}
}